{"abi":[{"type":"constructor","inputs":[{"name":"_manager","type":"address","internalType":"contract IPoolManager"}],"stateMutability":"nonpayable"},{"type":"function","name":"manager","inputs":[],"outputs":[{"name":"","type":"address","internalType":"contract IPoolManager"}],"stateMutability":"view"},{"type":"function","name":"modifyLiquidity","inputs":[{"name":"key","type":"tuple","internalType":"struct PoolKey","components":[{"name":"currency0","type":"address","internalType":"Currency"},{"name":"currency1","type":"address","internalType":"Currency"},{"name":"fee","type":"uint24","internalType":"uint24"},{"name":"tickSpacing","type":"int24","internalType":"int24"},{"name":"hooks","type":"address","internalType":"contract IHooks"}]},{"name":"params","type":"tuple","internalType":"struct IPoolManager.ModifyLiquidityParams","components":[{"name":"tickLower","type":"int24","internalType":"int24"},{"name":"tickUpper","type":"int24","internalType":"int24"},{"name":"liquidityDelta","type":"int256","internalType":"int256"},{"name":"salt","type":"bytes32","internalType":"bytes32"}]},{"name":"hookData","type":"bytes","internalType":"bytes"},{"name":"settleUsingBurn","type":"bool","internalType":"bool"},{"name":"takeClaims","type":"bool","internalType":"bool"}],"outputs":[{"name":"delta","type":"int256","internalType":"BalanceDelta"}],"stateMutability":"payable"},{"type":"function","name":"modifyLiquidity","inputs":[{"name":"key","type":"tuple","internalType":"struct PoolKey","components":[{"name":"currency0","type":"address","internalType":"Currency"},{"name":"currency1","type":"address","internalType":"Currency"},{"name":"fee","type":"uint24","internalType":"uint24"},{"name":"tickSpacing","type":"int24","internalType":"int24"},{"name":"hooks","type":"address","internalType":"contract IHooks"}]},{"name":"params","type":"tuple","internalType":"struct IPoolManager.ModifyLiquidityParams","components":[{"name":"tickLower","type":"int24","internalType":"int24"},{"name":"tickUpper","type":"int24","internalType":"int24"},{"name":"liquidityDelta","type":"int256","internalType":"int256"},{"name":"salt","type":"bytes32","internalType":"bytes32"}]},{"name":"hookData","type":"bytes","internalType":"bytes"}],"outputs":[{"name":"delta","type":"int256","internalType":"BalanceDelta"}],"stateMutability":"payable"},{"type":"function","name":"unlockCallback","inputs":[{"name":"rawData","type":"bytes","internalType":"bytes"}],"outputs":[{"name":"","type":"bytes","internalType":"bytes"}],"stateMutability":"nonpayable"}],"bytecode":{"object":"0x60a0604052348015600e575f80fd5b5060405161112f38038061112f833981016040819052602b91603b565b6001600160a01b03166080526066565b5f60208284031215604a575f80fd5b81516001600160a01b0381168114605f575f80fd5b9392505050565b6080516110826100ad5f395f818160790152818160f50152818161022d01528181610268015281816103340152818161038a015281816103f9015261044a01526110825ff3fe60806040526004361061003e575f3560e01c80630a5b11e414610042578063481c6a75146100685780635a6bcfda146100b357806391dd7346146100c6575b5f80fd5b610055610050366004610b69565b6100f2565b6040519081526020015b60405180910390f35b348015610073575f80fd5b5061009b7f000000000000000000000000000000000000000000000000000000000000000081565b6040516001600160a01b03909116815260200161005f565b6100556100c1366004610bf0565b61020a565b3480156100d1575f80fd5b506100e56100e0366004610c4e565b610220565b60405161005f9190610cea565b5f7f00000000000000000000000000000000000000000000000000000000000000006001600160a01b03166348c894916040518060c00160405280336001600160a01b03168152602001898152602001888152602001878152602001861515815260200185151581525060405160200161016c9190610d03565b6040516020818303038152906040526040518263ffffffff1660e01b81526004016101979190610cea565b5f604051808303815f875af11580156101b2573d5f803e3d5ffd5b505050506040513d5f823e601f3d908101601f191682016040526101d99190810190610dee565b8060200190518101906101ec9190610e63565b9050478015610200576102005f3383610499565b5095945050505050565b5f6102188484845f806100f2565b949350505050565b6060336001600160a01b037f00000000000000000000000000000000000000000000000000000000000000001614610256575f80fd5b5f61026383850185610e7a565b90505f7f00000000000000000000000000000000000000000000000000000000000000006001600160a01b0316635a6bcfda8360200151846040015185606001516040518463ffffffff1660e01b81526004016102c293929190610f43565b60408051808303815f875af11580156102dd573d5f803e3d5ffd5b505050506040513d601f19601f820116820180604052508101906103019190610fe9565b5090505f61030f8260801d90565b600f0b90505f61031f83600f0b90565b600f0b90505f82121561037a57835161037a907f00000000000000000000000000000000000000000000000000000000000000009061035d8561100b565b60808801516020890151516001600160a01b031693929190610533565b5f8112156103d25783516103d2907f0000000000000000000000000000000000000000000000000000000000000000906103b38461100b565b60808801516020808a015101516001600160a01b031693929190610533565b5f82131561042157835160a0850151602086015151610421926001600160a01b03909116917f000000000000000000000000000000000000000000000000000000000000000091908690610817565b5f81131561047257835160a08501516020808701510151610472926001600160a01b03909116917f000000000000000000000000000000000000000000000000000000000000000091908590610817565b60408051602081018590520160405160208183030381529060405294505050505092915050565b5f6001600160a01b0384166104cc575f805f8085875af19050806104c7576104c76356cdd02560e11b610901565b61052d565b60405163a9059cbb60e01b81526001600160a01b038416600482015282602482015260205f6044835f895af13d15601f3d1160015f511416171691505f81525f60208201525f6040820152508061052d5761052d632745a14f60e21b610901565b50505050565b80156105e057836001600160a01b031663f5298aca84610562886001600160a01b03166001600160a01b031690565b6040517fffffffff0000000000000000000000000000000000000000000000000000000060e085901b1681526001600160a01b0390921660048301526024820152604481018590526064015b5f604051808303815f87803b1580156105c5575f80fd5b505af11580156105d7573d5f803e3d5ffd5b50505050610810565b6001600160a01b03851661065757836001600160a01b03166311da60b4836040518263ffffffff1660e01b815260040160206040518083038185885af115801561062c573d5f803e3d5ffd5b50505050506040513d601f19601f820116820180604052508101906106519190610e63565b50610810565b604051632961046560e21b81526001600160a01b03868116600483015285169063a5841194906024015f604051808303815f87803b158015610697575f80fd5b505af11580156106a9573d5f803e3d5ffd5b505050506001600160a01b038316301461073b576040516323b872dd60e01b81526001600160a01b0384811660048301528581166024830152604482018490528616906323b872dd906064016020604051808303815f875af1158015610711573d5f803e3d5ffd5b505050506040513d601f19601f820116820180604052508101906107359190611031565b506107ad565b60405163a9059cbb60e01b81526001600160a01b0385811660048301526024820184905286169063a9059cbb906044016020604051808303815f875af1158015610787573d5f803e3d5ffd5b505050506040513d601f19601f820116820180604052508101906107ab9190611031565b505b836001600160a01b03166311da60b46040518163ffffffff1660e01b81526004016020604051808303815f875af11580156107ea573d5f803e3d5ffd5b505050506040513d601f19601f8201168201806040525081019061080e9190610e63565b505b5050505050565b8061085957604051630b0d9c0960e01b81526001600160a01b038681166004830152848116602483015260448201849052851690630b0d9c09906064016105ae565b836001600160a01b031663156e29f684610882886001600160a01b03166001600160a01b031690565b6040517fffffffff0000000000000000000000000000000000000000000000000000000060e085901b1681526001600160a01b0390921660048301526024820152604481018590526064015f604051808303815f87803b1580156108e4575f80fd5b505af11580156108f6573d5f803e3d5ffd5b505050505050505050565b3d60405182815260206004820152816024820152815f604483013e602080601f8401040260440191508181fd5b634e487b7160e01b5f52604160045260245ffd5b60405160c0810167ffffffffffffffff811182821017156109655761096561092e565b60405290565b604051601f8201601f1916810167ffffffffffffffff811182821017156109945761099461092e565b604052919050565b6001600160a01b03811681146109b0575f80fd5b50565b8035600281900b81146109c4575f80fd5b919050565b5f60a082840312156109d9575f80fd5b60405160a0810167ffffffffffffffff811182821017156109fc576109fc61092e565b6040529050808235610a0d8161099c565b81526020830135610a1d8161099c565b6020820152604083013562ffffff81168114610a37575f80fd5b6040820152610a48606084016109b3565b60608201526080830135610a5b8161099c565b6080919091015292915050565b5f60808284031215610a78575f80fd5b6040516080810167ffffffffffffffff81118282101715610a9b57610a9b61092e565b604052905080610aaa836109b3565b8152610ab8602084016109b3565b602082015260408301356040820152606083013560608201525092915050565b5f67ffffffffffffffff821115610af157610af161092e565b50601f01601f191660200190565b5f82601f830112610b0e575f80fd5b8135610b21610b1c82610ad8565b61096b565b818152846020838601011115610b35575f80fd5b816020850160208301375f918101602001919091529392505050565b80151581146109b0575f80fd5b80356109c481610b51565b5f805f805f6101808688031215610b7e575f80fd5b610b8887876109c9565b9450610b978760a08801610a68565b935061012086013567ffffffffffffffff811115610bb3575f80fd5b610bbf88828901610aff565b935050610140860135610bd181610b51565b9150610160860135610be281610b51565b809150509295509295909350565b5f805f6101408486031215610c03575f80fd5b610c0d85856109c9565b9250610c1c8560a08601610a68565b915061012084013567ffffffffffffffff811115610c38575f80fd5b610c4486828701610aff565b9150509250925092565b5f8060208385031215610c5f575f80fd5b823567ffffffffffffffff811115610c75575f80fd5b8301601f81018513610c85575f80fd5b803567ffffffffffffffff811115610c9b575f80fd5b856020828401011115610cac575f80fd5b6020919091019590945092505050565b5f81518084528060208401602086015e5f602082860101526020601f19601f83011685010191505092915050565b602081525f610cfc6020830184610cbc565b9392505050565b602081526001600160a01b0382511660208201525f6020830151610d7860408401826001600160a01b0381511682526001600160a01b03602082015116602083015262ffffff6040820151166040830152606081015160020b60608301526001600160a01b0360808201511660808301525050565b506040838101518051600290810b60e08601526020820151900b610100850152908101516101208401526060908101516101408401528301516101a0610160840152610dc86101c0840182610cbc565b90506080840151151561018084015260a084015115156101a08401528091505092915050565b5f60208284031215610dfe575f80fd5b815167ffffffffffffffff811115610e14575f80fd5b8201601f81018413610e24575f80fd5b8051610e32610b1c82610ad8565b818152856020838501011115610e46575f80fd5b8160208401602083015e5f91810160200191909152949350505050565b5f60208284031215610e73575f80fd5b5051919050565b5f60208284031215610e8a575f80fd5b813567ffffffffffffffff811115610ea0575f80fd5b82016101a08185031215610eb2575f80fd5b610eba610942565b8135610ec58161099c565b8152610ed485602084016109c9565b6020820152610ee68560c08401610a68565b604082015261014082013567ffffffffffffffff811115610f05575f80fd5b610f1186828501610aff565b606083015250610f246101608301610b5e565b6080820152610f366101808301610b5e565b60a0820152949350505050565b610f9b81856001600160a01b0381511682526001600160a01b03602082015116602083015262ffffff6040820151166040830152606081015160020b60608301526001600160a01b0360808201511660808301525050565b8251600290810b60a08301526020840151900b60c0820152604083015160e082015260608301516101008201526101406101208201525f610fe0610140830184610cbc565b95945050505050565b5f8060408385031215610ffa575f80fd5b505080516020909101519092909150565b5f600160ff1b820161102b57634e487b7160e01b5f52601160045260245ffd5b505f0390565b5f60208284031215611041575f80fd5b8151610cfc81610b5156fea264697066735822122022a95438e94b48bb743d8b4291742e8afebdc584de56e66e9fd7f73474d5b0b564736f6c634300081a0033","linkReferences":{}},"methodIdentifiers":{"manager()":"481c6a75","modifyLiquidity((address,address,uint24,int24,address),(int24,int24,int256,bytes32),bytes)":"5a6bcfda","modifyLiquidity((address,address,uint24,int24,address),(int24,int24,int256,bytes32),bytes,bool,bool)":"0a5b11e4","unlockCallback(bytes)":"91dd7346"},"id":73}