{"abi":[{"type":"constructor","inputs":[{"name":"_poolManager","type":"address","internalType":"contract IPoolManager"}],"stateMutability":"nonpayable"},{"type":"function","name":"BASE_FEES","inputs":[],"outputs":[{"name":"","type":"uint24","internalType":"uint24"}],"stateMutability":"view"},{"type":"function","name":"afterAddLiquidity","inputs":[{"name":"","type":"address","internalType":"address"},{"name":"","type":"tuple","internalType":"struct PoolKey","components":[{"name":"currency0","type":"address","internalType":"Currency"},{"name":"currency1","type":"address","internalType":"Currency"},{"name":"fee","type":"uint24","internalType":"uint24"},{"name":"tickSpacing","type":"int24","internalType":"int24"},{"name":"hooks","type":"address","internalType":"contract IHooks"}]},{"name":"","type":"tuple","internalType":"struct IPoolManager.ModifyLiquidityParams","components":[{"name":"tickLower","type":"int24","internalType":"int24"},{"name":"tickUpper","type":"int24","internalType":"int24"},{"name":"liquidityDelta","type":"int256","internalType":"int256"},{"name":"salt","type":"bytes32","internalType":"bytes32"}]},{"name":"","type":"int256","internalType":"BalanceDelta"},{"name":"","type":"bytes","internalType":"bytes"}],"outputs":[{"name":"","type":"bytes4","internalType":"bytes4"},{"name":"","type":"int256","internalType":"BalanceDelta"}],"stateMutability":"nonpayable"},{"type":"function","name":"afterDonate","inputs":[{"name":"","type":"address","internalType":"address"},{"name":"","type":"tuple","internalType":"struct PoolKey","components":[{"name":"currency0","type":"address","internalType":"Currency"},{"name":"currency1","type":"address","internalType":"Currency"},{"name":"fee","type":"uint24","internalType":"uint24"},{"name":"tickSpacing","type":"int24","internalType":"int24"},{"name":"hooks","type":"address","internalType":"contract IHooks"}]},{"name":"","type":"uint256","internalType":"uint256"},{"name":"","type":"uint256","internalType":"uint256"},{"name":"","type":"bytes","internalType":"bytes"}],"outputs":[{"name":"","type":"bytes4","internalType":"bytes4"}],"stateMutability":"nonpayable"},{"type":"function","name":"afterInitialize","inputs":[{"name":"","type":"address","internalType":"address"},{"name":"","type":"tuple","internalType":"struct PoolKey","components":[{"name":"currency0","type":"address","internalType":"Currency"},{"name":"currency1","type":"address","internalType":"Currency"},{"name":"fee","type":"uint24","internalType":"uint24"},{"name":"tickSpacing","type":"int24","internalType":"int24"},{"name":"hooks","type":"address","internalType":"contract IHooks"}]},{"name":"","type":"uint160","internalType":"uint160"},{"name":"","type":"int24","internalType":"int24"},{"name":"","type":"bytes","internalType":"bytes"}],"outputs":[{"name":"","type":"bytes4","internalType":"bytes4"}],"stateMutability":"nonpayable"},{"type":"function","name":"afterRemoveLiquidity","inputs":[{"name":"","type":"address","internalType":"address"},{"name":"","type":"tuple","internalType":"struct PoolKey","components":[{"name":"currency0","type":"address","internalType":"Currency"},{"name":"currency1","type":"address","internalType":"Currency"},{"name":"fee","type":"uint24","internalType":"uint24"},{"name":"tickSpacing","type":"int24","internalType":"int24"},{"name":"hooks","type":"address","internalType":"contract IHooks"}]},{"name":"","type":"tuple","internalType":"struct IPoolManager.ModifyLiquidityParams","components":[{"name":"tickLower","type":"int24","internalType":"int24"},{"name":"tickUpper","type":"int24","internalType":"int24"},{"name":"liquidityDelta","type":"int256","internalType":"int256"},{"name":"salt","type":"bytes32","internalType":"bytes32"}]},{"name":"","type":"int256","internalType":"BalanceDelta"},{"name":"","type":"bytes","internalType":"bytes"}],"outputs":[{"name":"","type":"bytes4","internalType":"bytes4"},{"name":"","type":"int256","internalType":"BalanceDelta"}],"stateMutability":"nonpayable"},{"type":"function","name":"afterSwap","inputs":[{"name":"","type":"address","internalType":"address"},{"name":"","type":"tuple","internalType":"struct PoolKey","components":[{"name":"currency0","type":"address","internalType":"Currency"},{"name":"currency1","type":"address","internalType":"Currency"},{"name":"fee","type":"uint24","internalType":"uint24"},{"name":"tickSpacing","type":"int24","internalType":"int24"},{"name":"hooks","type":"address","internalType":"contract IHooks"}]},{"name":"","type":"tuple","internalType":"struct IPoolManager.SwapParams","components":[{"name":"zeroForOne","type":"bool","internalType":"bool"},{"name":"amountSpecified","type":"int256","internalType":"int256"},{"name":"sqrtPriceLimitX96","type":"uint160","internalType":"uint160"}]},{"name":"","type":"int256","internalType":"BalanceDelta"},{"name":"","type":"bytes","internalType":"bytes"}],"outputs":[{"name":"","type":"bytes4","internalType":"bytes4"},{"name":"","type":"int128","internalType":"int128"}],"stateMutability":"nonpayable"},{"type":"function","name":"beforeAddLiquidity","inputs":[{"name":"","type":"address","internalType":"address"},{"name":"","type":"tuple","internalType":"struct PoolKey","components":[{"name":"currency0","type":"address","internalType":"Currency"},{"name":"currency1","type":"address","internalType":"Currency"},{"name":"fee","type":"uint24","internalType":"uint24"},{"name":"tickSpacing","type":"int24","internalType":"int24"},{"name":"hooks","type":"address","internalType":"contract IHooks"}]},{"name":"","type":"tuple","internalType":"struct IPoolManager.ModifyLiquidityParams","components":[{"name":"tickLower","type":"int24","internalType":"int24"},{"name":"tickUpper","type":"int24","internalType":"int24"},{"name":"liquidityDelta","type":"int256","internalType":"int256"},{"name":"salt","type":"bytes32","internalType":"bytes32"}]},{"name":"","type":"bytes","internalType":"bytes"}],"outputs":[{"name":"","type":"bytes4","internalType":"bytes4"}],"stateMutability":"nonpayable"},{"type":"function","name":"beforeDonate","inputs":[{"name":"","type":"address","internalType":"address"},{"name":"","type":"tuple","internalType":"struct PoolKey","components":[{"name":"currency0","type":"address","internalType":"Currency"},{"name":"currency1","type":"address","internalType":"Currency"},{"name":"fee","type":"uint24","internalType":"uint24"},{"name":"tickSpacing","type":"int24","internalType":"int24"},{"name":"hooks","type":"address","internalType":"contract IHooks"}]},{"name":"","type":"uint256","internalType":"uint256"},{"name":"","type":"uint256","internalType":"uint256"},{"name":"","type":"bytes","internalType":"bytes"}],"outputs":[{"name":"","type":"bytes4","internalType":"bytes4"}],"stateMutability":"nonpayable"},{"type":"function","name":"beforeInitialize","inputs":[{"name":"","type":"address","internalType":"address"},{"name":"key","type":"tuple","internalType":"struct PoolKey","components":[{"name":"currency0","type":"address","internalType":"Currency"},{"name":"currency1","type":"address","internalType":"Currency"},{"name":"fee","type":"uint24","internalType":"uint24"},{"name":"tickSpacing","type":"int24","internalType":"int24"},{"name":"hooks","type":"address","internalType":"contract IHooks"}]},{"name":"","type":"uint160","internalType":"uint160"},{"name":"","type":"bytes","internalType":"bytes"}],"outputs":[{"name":"","type":"bytes4","internalType":"bytes4"}],"stateMutability":"pure"},{"type":"function","name":"beforeRemoveLiquidity","inputs":[{"name":"","type":"address","internalType":"address"},{"name":"","type":"tuple","internalType":"struct PoolKey","components":[{"name":"currency0","type":"address","internalType":"Currency"},{"name":"currency1","type":"address","internalType":"Currency"},{"name":"fee","type":"uint24","internalType":"uint24"},{"name":"tickSpacing","type":"int24","internalType":"int24"},{"name":"hooks","type":"address","internalType":"contract IHooks"}]},{"name":"","type":"tuple","internalType":"struct IPoolManager.ModifyLiquidityParams","components":[{"name":"tickLower","type":"int24","internalType":"int24"},{"name":"tickUpper","type":"int24","internalType":"int24"},{"name":"liquidityDelta","type":"int256","internalType":"int256"},{"name":"salt","type":"bytes32","internalType":"bytes32"}]},{"name":"","type":"bytes","internalType":"bytes"}],"outputs":[{"name":"","type":"bytes4","internalType":"bytes4"}],"stateMutability":"nonpayable"},{"type":"function","name":"beforeSwap","inputs":[{"name":"","type":"address","internalType":"address"},{"name":"key","type":"tuple","internalType":"struct PoolKey","components":[{"name":"currency0","type":"address","internalType":"Currency"},{"name":"currency1","type":"address","internalType":"Currency"},{"name":"fee","type":"uint24","internalType":"uint24"},{"name":"tickSpacing","type":"int24","internalType":"int24"},{"name":"hooks","type":"address","internalType":"contract IHooks"}]},{"name":"","type":"tuple","internalType":"struct IPoolManager.SwapParams","components":[{"name":"zeroForOne","type":"bool","internalType":"bool"},{"name":"amountSpecified","type":"int256","internalType":"int256"},{"name":"sqrtPriceLimitX96","type":"uint160","internalType":"uint160"}]},{"name":"","type":"bytes","internalType":"bytes"}],"outputs":[{"name":"","type":"bytes4","internalType":"bytes4"},{"name":"","type":"int256","internalType":"BeforeSwapDelta"},{"name":"","type":"uint24","internalType":"uint24"}],"stateMutability":"nonpayable"},{"type":"function","name":"getHookPermissions","inputs":[],"outputs":[{"name":"","type":"tuple","internalType":"struct Hooks.Permissions","components":[{"name":"beforeInitialize","type":"bool","internalType":"bool"},{"name":"afterInitialize","type":"bool","internalType":"bool"},{"name":"beforeAddLiquidity","type":"bool","internalType":"bool"},{"name":"afterAddLiquidity","type":"bool","internalType":"bool"},{"name":"beforeRemoveLiquidity","type":"bool","internalType":"bool"},{"name":"afterRemoveLiquidity","type":"bool","internalType":"bool"},{"name":"beforeSwap","type":"bool","internalType":"bool"},{"name":"afterSwap","type":"bool","internalType":"bool"},{"name":"beforeDonate","type":"bool","internalType":"bool"},{"name":"afterDonate","type":"bool","internalType":"bool"},{"name":"beforeSwapReturnDelta","type":"bool","internalType":"bool"},{"name":"afterSwapReturnDelta","type":"bool","internalType":"bool"},{"name":"afterAddLiquidityReturnDelta","type":"bool","internalType":"bool"},{"name":"afterRemoveLiquidityReturnDelta","type":"bool","internalType":"bool"}]}],"stateMutability":"pure"},{"type":"function","name":"movingAverageGasPrice","inputs":[],"outputs":[{"name":"","type":"uint128","internalType":"uint128"}],"stateMutability":"view"},{"type":"function","name":"movingAverageGasPriceCount","inputs":[],"outputs":[{"name":"","type":"uint104","internalType":"uint104"}],"stateMutability":"view"},{"type":"function","name":"poolManager","inputs":[],"outputs":[{"name":"","type":"address","internalType":"contract IPoolManager"}],"stateMutability":"view"},{"type":"function","name":"unlockCallback","inputs":[{"name":"data","type":"bytes","internalType":"bytes"}],"outputs":[{"name":"","type":"bytes","internalType":"bytes"}],"stateMutability":"nonpayable"},{"type":"error","name":"HookNotImplemented","inputs":[]},{"type":"error","name":"InvalidPool","inputs":[]},{"type":"error","name":"LockFailure","inputs":[]},{"type":"error","name":"MustUseDynamicFee","inputs":[]},{"type":"error","name":"NotPoolManager","inputs":[]},{"type":"error","name":"NotSelf","inputs":[]}],"bytecode":{"object":"0x60a060405234801561000f575f80fd5b5060405161149c38038061149c83398101604081905261002e91610464565b6001600160a01b0381166080528061004530610054565b5061004e610147565b50610571565b6101448161013f604080516101c0810182525f80825260208201819052918101829052606081018290526080810182905260a0810182905260c0810182905260e08101829052610100810182905261012081018290526101408101829052610160810182905261018081018290526101a081019190915250604080516101c08101825260018082525f60208301819052928201839052606082018390526080820183905260a0820183905260c0820181905260e0820152610100810182905261012081018290526101408101829052610160810182905261018081018290526101a081019190915290565b610209565b50565b5f543a9061016690600160801b90046001600160681b031660016104a5565b5f546001600160681b0391821691839161019191600160801b820416906001600160801b03166104c4565b61019b91906104ed565b6101a5919061050c565b5f80546001600160801b0319166001600160801b039290921691909117808255600160801b90046001600160681b03169060106101e183610546565b91906101000a8154816001600160681b0302191690836001600160681b031602179055505050565b61021e6001600160a01b03831661200061043a565b8151151590151514158061024e57506102426001600160a01b03831661100061043a565b15158160200151151514155b8061027557506102696001600160a01b03831661080061043a565b15158160400151151514155b8061029c57506102906001600160a01b03831661040061043a565b15158160600151151514155b806102c357506102b76001600160a01b03831661020061043a565b15158160800151151514155b806102ea57506102de6001600160a01b03831661010061043a565b15158160a00151151514155b8061031057506103046001600160a01b038316608061043a565b15158160c00151151514155b80610336575061032a6001600160a01b038316604061043a565b15158160e00151151514155b8061035d57506103506001600160a01b038316602061043a565b1515816101000151151514155b8061038457506103776001600160a01b038316601061043a565b1515816101200151151514155b806103ab575061039e6001600160a01b038316600861043a565b1515816101400151151514155b806103d257506103c56001600160a01b038316600461043a565b1515816101600151151514155b806103f957506103ec6001600160a01b038316600261043a565b1515816101800151151514155b8061042057506104136001600160a01b038316600161043a565b1515816101a00151151514155b1561043657610436630732d7b560e51b8361044f565b5050565b6001600160a01b038282161615155b92915050565b815f526001600160a01b03811660045260245ffd5b5f60208284031215610474575f80fd5b81516001600160a01b038116811461048a575f80fd5b9392505050565b634e487b7160e01b5f52601160045260245ffd5b6001600160681b03818116838216019081111561044957610449610491565b6001600160801b0381811683821602908116908181146104e6576104e6610491565b5092915050565b6001600160801b03818116838216019081111561044957610449610491565b5f6001600160801b0383168061053057634e487b7160e01b5f52601260045260245ffd5b6001600160801b03929092169190910492915050565b5f6001600160681b0382166002600160681b0319810161056857610568610491565b60010192915050565b608051610efe61059e5f395f81816103970152818161044e015281816104af01526105540152610efe5ff3fe608060405234801561000f575f80fd5b50600436106100fb575f3560e01c80639a161daa11610093578063c4e833ce11610063578063c4e833ce1461026d578063cd2c70e814610361578063dc4c90d314610392578063e1b4af691461025f575f80fd5b80639a161daa146101f1578063a910f80f1461021b578063b47b2fb114610229578063b6a8b0fa1461025f575f80fd5b80635a2a8100116100ce5780635a2a8100146101815780638aae2034146101b45780638db2b6521461018157806391dd7346146101d1575f80fd5b806321d0ee70146100ff578063259982e5146100ff5780633440d82014610130578063575e24b414610143575b5f80fd5b61011261010d36600461084f565b6103d1565b6040516001600160e01b031990911681526020015b60405180910390f35b61011261013e3660046108c6565b6103eb565b610156610151366004610930565b610440565b604080516001600160e01b03199094168452602084019290925262ffffff1690820152606001610127565b61019461018f36600461098a565b61052c565b604080516001600160e01b03199093168352602083019190915201610127565b6101bd61138881565b60405162ffffff9091168152602001610127565b6101e46101df366004610a0b565b610547565b6040516101279190610a4a565b5f54610203906001600160801b031681565b6040516001600160801b039091168152602001610127565b61011261010d366004610a95565b61023c610237366004610aff565b6105a5565b604080516001600160e01b03199093168352600f9190910b602083015201610127565b61011261010d366004610b62565b610354604080516101c0810182525f80825260208201819052918101829052606081018290526080810182905260a0810182905260c0810182905260e08101829052610100810182905261012081018290526101408101829052610160810182905261018081018290526101a081019190915250604080516101c08101825260018082525f60208301819052928201839052606082018390526080820183905260a0820183905260c0820181905260e0820152610100810182905261012081018290526101408101829052610160810182905261018081018290526101a081019190915290565b6040516101279190610bbc565b5f5461037a90600160801b90046001600160681b031681565b6040516001600160681b039091168152602001610127565b6103b97f000000000000000000000000000000000000000000000000000000000000000081565b6040516001600160a01b039091168152602001610127565b5f604051630a85dc2960e01b815260040160405180910390fd5b5f6104116103ff6060870160408801610cef565b62ffffff1662ffffff16628000001490565b61042e576040516315b3d69f60e31b815260040160405180910390fd5b506301a206c160e51b95945050505050565b5f8080336001600160a01b037f0000000000000000000000000000000000000000000000000000000000000000161461048c5760405163570c108560e11b815260040160405180910390fd5b5f6104956105c5565b604051635275965160e01b81529091506001600160a01b037f000000000000000000000000000000000000000000000000000000000000000016906352759651906104e6908b908590600401610d08565b5f604051808303815f87803b1580156104fd575f80fd5b505af115801561050f573d5f803e3d5ffd5b506315d7892d60e21b9c5f9c508c9b509950505050505050505050565b5f80604051630a85dc2960e01b815260040160405180910390fd5b6060336001600160a01b037f000000000000000000000000000000000000000000000000000000000000000016146105925760405163570c108560e11b815260040160405180910390fd5b61059c8383610669565b90505b92915050565b5f806105af610702565b5063b47b2fb160e01b975f975095505050505050565b5f80543a90600a906105e1906001600160801b0316600b610dab565b6105eb9190610de1565b6001600160801b0316816001600160801b03161115610617576106116002611388610e0e565b91505090565b5f54600a90610630906001600160801b03166009610dab565b61063a9190610de1565b6001600160801b0316816001600160801b03161015610660576106116113886002610e33565b61138891505090565b60605f80306001600160a01b03168585604051610687929190610e51565b5f604051808303815f865af19150503d805f81146106c0576040519150601f19603f3d011682016040523d82523d5f602084013e6106c5565b606091505b509150915081156106d957915061059f9050565b80515f036106fa576040516314815f4760e31b815260040160405180910390fd5b805160208201fd5b5f543a9061072190600160801b90046001600160681b03166001610e60565b5f546001600160681b0391821691839161074c91600160801b820416906001600160801b0316610dab565b6107569190610e7f565b6107609190610de1565b5f80546fffffffffffffffffffffffffffffffff19166001600160801b039290921691909117808255600160801b90046001600160681b03169060106107a583610e9e565b91906101000a8154816001600160681b0302191690836001600160681b031602179055505050565b6001600160a01b03811681146107e1575f80fd5b50565b5f60a082840312156107f4575f80fd5b50919050565b5f608082840312156107f4575f80fd5b5f8083601f84011261081a575f80fd5b50813567ffffffffffffffff811115610831575f80fd5b602083019150836020828501011115610848575f80fd5b9250929050565b5f805f805f6101608688031215610864575f80fd5b853561086f816107cd565b945061087e87602088016107e4565b935061088d8760c088016107fa565b925061014086013567ffffffffffffffff8111156108a9575f80fd5b6108b58882890161080a565b969995985093965092949392505050565b5f805f805f61010086880312156108db575f80fd5b85356108e6816107cd565b94506108f587602088016107e4565b935060c0860135610905816107cd565b925060e086013567ffffffffffffffff8111156108a9575f80fd5b5f606082840312156107f4575f80fd5b5f805f805f6101408688031215610945575f80fd5b8535610950816107cd565b945061095f87602088016107e4565b935061096e8760c08801610920565b925061012086013567ffffffffffffffff8111156108a9575f80fd5b5f805f805f8061018087890312156109a0575f80fd5b86356109ab816107cd565b95506109ba88602089016107e4565b94506109c98860c089016107fa565b9350610140870135925061016087013567ffffffffffffffff8111156109ed575f80fd5b6109f989828a0161080a565b979a9699509497509295939492505050565b5f8060208385031215610a1c575f80fd5b823567ffffffffffffffff811115610a32575f80fd5b610a3e8582860161080a565b90969095509350505050565b602081525f82518060208401528060208501604085015e5f604082850101526040601f19601f83011684010191505092915050565b8035600281900b8114610a90575f80fd5b919050565b5f805f805f806101208789031215610aab575f80fd5b8635610ab6816107cd565b9550610ac588602089016107e4565b945060c0870135610ad5816107cd565b9350610ae360e08801610a7f565b925061010087013567ffffffffffffffff8111156109ed575f80fd5b5f805f805f806101608789031215610b15575f80fd5b8635610b20816107cd565b9550610b2f88602089016107e4565b9450610b3e8860c08901610920565b9350610120870135925061014087013567ffffffffffffffff8111156109ed575f80fd5b5f805f805f806101208789031215610b78575f80fd5b8635610b83816107cd565b9550610b9288602089016107e4565b945060c0870135935060e0870135925061010087013567ffffffffffffffff8111156109ed575f80fd5b8151151581526101c081016020830151610bda602084018215159052565b506040830151610bee604084018215159052565b506060830151610c02606084018215159052565b506080830151610c16608084018215159052565b5060a0830151610c2a60a084018215159052565b5060c0830151610c3e60c084018215159052565b5060e0830151610c5260e084018215159052565b50610100830151610c6861010084018215159052565b50610120830151610c7e61012084018215159052565b50610140830151610c9461014084018215159052565b50610160830151610caa61016084018215159052565b50610180830151610cc061018084018215159052565b506101a0830151610cd66101a084018215159052565b5092915050565b803562ffffff81168114610a90575f80fd5b5f60208284031215610cff575f80fd5b61059c82610cdd565b60c081018335610d17816107cd565b6001600160a01b031682526020840135610d30816107cd565b6001600160a01b0316602083015262ffffff610d4e60408601610cdd565b166040830152610d6060608501610a7f565b60020b60608301526080840135610d76816107cd565b6001600160a01b0316608083015262ffffff9290921660a090910152919050565b634e487b7160e01b5f52601160045260245ffd5b6001600160801b038181168382160290811690818114610cd657610cd6610d97565b634e487b7160e01b5f52601260045260245ffd5b5f6001600160801b03831680610df957610df9610dcd565b806001600160801b0384160491505092915050565b5f62ffffff831680610e2257610e22610dcd565b8062ffffff84160491505092915050565b62ffffff8181168382160290811690818114610cd657610cd6610d97565b818382375f9101908152919050565b6001600160681b03818116838216019081111561059f5761059f610d97565b6001600160801b03818116838216019081111561059f5761059f610d97565b5f6001600160681b0382166001600160681b038103610ebf57610ebf610d97565b6001019291505056fea2646970667358221220340c0a93b96b41f0f34abe2603716c4ef159609769e4d28457cc8d44f5e4f2e264736f6c634300081a0033","linkReferences":{}},"methodIdentifiers":{"BASE_FEES()":"8aae2034","afterAddLiquidity(address,(address,address,uint24,int24,address),(int24,int24,int256,bytes32),int256,bytes)":"5a2a8100","afterDonate(address,(address,address,uint24,int24,address),uint256,uint256,bytes)":"e1b4af69","afterInitialize(address,(address,address,uint24,int24,address),uint160,int24,bytes)":"a910f80f","afterRemoveLiquidity(address,(address,address,uint24,int24,address),(int24,int24,int256,bytes32),int256,bytes)":"8db2b652","afterSwap(address,(address,address,uint24,int24,address),(bool,int256,uint160),int256,bytes)":"b47b2fb1","beforeAddLiquidity(address,(address,address,uint24,int24,address),(int24,int24,int256,bytes32),bytes)":"259982e5","beforeDonate(address,(address,address,uint24,int24,address),uint256,uint256,bytes)":"b6a8b0fa","beforeInitialize(address,(address,address,uint24,int24,address),uint160,bytes)":"3440d820","beforeRemoveLiquidity(address,(address,address,uint24,int24,address),(int24,int24,int256,bytes32),bytes)":"21d0ee70","beforeSwap(address,(address,address,uint24,int24,address),(bool,int256,uint160),bytes)":"575e24b4","getHookPermissions()":"c4e833ce","movingAverageGasPrice()":"9a161daa","movingAverageGasPriceCount()":"cd2c70e8","poolManager()":"dc4c90d3","unlockCallback(bytes)":"91dd7346"},"id":95}