{"abi":[{"type":"constructor","inputs":[{"name":"_poolManager","type":"address","internalType":"contract IPoolManager"}],"stateMutability":"nonpayable"},{"type":"function","name":"BASE_FEES","inputs":[],"outputs":[{"name":"","type":"uint24","internalType":"uint24"}],"stateMutability":"view"},{"type":"function","name":"afterAddLiquidity","inputs":[{"name":"","type":"address","internalType":"address"},{"name":"","type":"tuple","internalType":"struct PoolKey","components":[{"name":"currency0","type":"address","internalType":"Currency"},{"name":"currency1","type":"address","internalType":"Currency"},{"name":"fee","type":"uint24","internalType":"uint24"},{"name":"tickSpacing","type":"int24","internalType":"int24"},{"name":"hooks","type":"address","internalType":"contract IHooks"}]},{"name":"","type":"tuple","internalType":"struct IPoolManager.ModifyLiquidityParams","components":[{"name":"tickLower","type":"int24","internalType":"int24"},{"name":"tickUpper","type":"int24","internalType":"int24"},{"name":"liquidityDelta","type":"int256","internalType":"int256"},{"name":"salt","type":"bytes32","internalType":"bytes32"}]},{"name":"","type":"int256","internalType":"BalanceDelta"},{"name":"","type":"bytes","internalType":"bytes"}],"outputs":[{"name":"","type":"bytes4","internalType":"bytes4"},{"name":"","type":"int256","internalType":"BalanceDelta"}],"stateMutability":"nonpayable"},{"type":"function","name":"afterDonate","inputs":[{"name":"","type":"address","internalType":"address"},{"name":"","type":"tuple","internalType":"struct PoolKey","components":[{"name":"currency0","type":"address","internalType":"Currency"},{"name":"currency1","type":"address","internalType":"Currency"},{"name":"fee","type":"uint24","internalType":"uint24"},{"name":"tickSpacing","type":"int24","internalType":"int24"},{"name":"hooks","type":"address","internalType":"contract IHooks"}]},{"name":"","type":"uint256","internalType":"uint256"},{"name":"","type":"uint256","internalType":"uint256"},{"name":"","type":"bytes","internalType":"bytes"}],"outputs":[{"name":"","type":"bytes4","internalType":"bytes4"}],"stateMutability":"nonpayable"},{"type":"function","name":"afterInitialize","inputs":[{"name":"","type":"address","internalType":"address"},{"name":"","type":"tuple","internalType":"struct PoolKey","components":[{"name":"currency0","type":"address","internalType":"Currency"},{"name":"currency1","type":"address","internalType":"Currency"},{"name":"fee","type":"uint24","internalType":"uint24"},{"name":"tickSpacing","type":"int24","internalType":"int24"},{"name":"hooks","type":"address","internalType":"contract IHooks"}]},{"name":"","type":"uint160","internalType":"uint160"},{"name":"","type":"int24","internalType":"int24"},{"name":"","type":"bytes","internalType":"bytes"}],"outputs":[{"name":"","type":"bytes4","internalType":"bytes4"}],"stateMutability":"nonpayable"},{"type":"function","name":"afterRemoveLiquidity","inputs":[{"name":"","type":"address","internalType":"address"},{"name":"","type":"tuple","internalType":"struct PoolKey","components":[{"name":"currency0","type":"address","internalType":"Currency"},{"name":"currency1","type":"address","internalType":"Currency"},{"name":"fee","type":"uint24","internalType":"uint24"},{"name":"tickSpacing","type":"int24","internalType":"int24"},{"name":"hooks","type":"address","internalType":"contract IHooks"}]},{"name":"","type":"tuple","internalType":"struct IPoolManager.ModifyLiquidityParams","components":[{"name":"tickLower","type":"int24","internalType":"int24"},{"name":"tickUpper","type":"int24","internalType":"int24"},{"name":"liquidityDelta","type":"int256","internalType":"int256"},{"name":"salt","type":"bytes32","internalType":"bytes32"}]},{"name":"","type":"int256","internalType":"BalanceDelta"},{"name":"","type":"bytes","internalType":"bytes"}],"outputs":[{"name":"","type":"bytes4","internalType":"bytes4"},{"name":"","type":"int256","internalType":"BalanceDelta"}],"stateMutability":"nonpayable"},{"type":"function","name":"afterSwap","inputs":[{"name":"","type":"address","internalType":"address"},{"name":"","type":"tuple","internalType":"struct PoolKey","components":[{"name":"currency0","type":"address","internalType":"Currency"},{"name":"currency1","type":"address","internalType":"Currency"},{"name":"fee","type":"uint24","internalType":"uint24"},{"name":"tickSpacing","type":"int24","internalType":"int24"},{"name":"hooks","type":"address","internalType":"contract IHooks"}]},{"name":"","type":"tuple","internalType":"struct IPoolManager.SwapParams","components":[{"name":"zeroForOne","type":"bool","internalType":"bool"},{"name":"amountSpecified","type":"int256","internalType":"int256"},{"name":"sqrtPriceLimitX96","type":"uint160","internalType":"uint160"}]},{"name":"","type":"int256","internalType":"BalanceDelta"},{"name":"","type":"bytes","internalType":"bytes"}],"outputs":[{"name":"","type":"bytes4","internalType":"bytes4"},{"name":"","type":"int128","internalType":"int128"}],"stateMutability":"nonpayable"},{"type":"function","name":"beforeAddLiquidity","inputs":[{"name":"","type":"address","internalType":"address"},{"name":"","type":"tuple","internalType":"struct PoolKey","components":[{"name":"currency0","type":"address","internalType":"Currency"},{"name":"currency1","type":"address","internalType":"Currency"},{"name":"fee","type":"uint24","internalType":"uint24"},{"name":"tickSpacing","type":"int24","internalType":"int24"},{"name":"hooks","type":"address","internalType":"contract IHooks"}]},{"name":"","type":"tuple","internalType":"struct IPoolManager.ModifyLiquidityParams","components":[{"name":"tickLower","type":"int24","internalType":"int24"},{"name":"tickUpper","type":"int24","internalType":"int24"},{"name":"liquidityDelta","type":"int256","internalType":"int256"},{"name":"salt","type":"bytes32","internalType":"bytes32"}]},{"name":"","type":"bytes","internalType":"bytes"}],"outputs":[{"name":"","type":"bytes4","internalType":"bytes4"}],"stateMutability":"nonpayable"},{"type":"function","name":"beforeDonate","inputs":[{"name":"","type":"address","internalType":"address"},{"name":"","type":"tuple","internalType":"struct PoolKey","components":[{"name":"currency0","type":"address","internalType":"Currency"},{"name":"currency1","type":"address","internalType":"Currency"},{"name":"fee","type":"uint24","internalType":"uint24"},{"name":"tickSpacing","type":"int24","internalType":"int24"},{"name":"hooks","type":"address","internalType":"contract IHooks"}]},{"name":"","type":"uint256","internalType":"uint256"},{"name":"","type":"uint256","internalType":"uint256"},{"name":"","type":"bytes","internalType":"bytes"}],"outputs":[{"name":"","type":"bytes4","internalType":"bytes4"}],"stateMutability":"nonpayable"},{"type":"function","name":"beforeInitialize","inputs":[{"name":"","type":"address","internalType":"address"},{"name":"key","type":"tuple","internalType":"struct PoolKey","components":[{"name":"currency0","type":"address","internalType":"Currency"},{"name":"currency1","type":"address","internalType":"Currency"},{"name":"fee","type":"uint24","internalType":"uint24"},{"name":"tickSpacing","type":"int24","internalType":"int24"},{"name":"hooks","type":"address","internalType":"contract IHooks"}]},{"name":"","type":"uint160","internalType":"uint160"},{"name":"","type":"bytes","internalType":"bytes"}],"outputs":[{"name":"","type":"bytes4","internalType":"bytes4"}],"stateMutability":"pure"},{"type":"function","name":"beforeRemoveLiquidity","inputs":[{"name":"","type":"address","internalType":"address"},{"name":"","type":"tuple","internalType":"struct PoolKey","components":[{"name":"currency0","type":"address","internalType":"Currency"},{"name":"currency1","type":"address","internalType":"Currency"},{"name":"fee","type":"uint24","internalType":"uint24"},{"name":"tickSpacing","type":"int24","internalType":"int24"},{"name":"hooks","type":"address","internalType":"contract IHooks"}]},{"name":"","type":"tuple","internalType":"struct IPoolManager.ModifyLiquidityParams","components":[{"name":"tickLower","type":"int24","internalType":"int24"},{"name":"tickUpper","type":"int24","internalType":"int24"},{"name":"liquidityDelta","type":"int256","internalType":"int256"},{"name":"salt","type":"bytes32","internalType":"bytes32"}]},{"name":"","type":"bytes","internalType":"bytes"}],"outputs":[{"name":"","type":"bytes4","internalType":"bytes4"}],"stateMutability":"nonpayable"},{"type":"function","name":"beforeSwap","inputs":[{"name":"","type":"address","internalType":"address"},{"name":"key","type":"tuple","internalType":"struct PoolKey","components":[{"name":"currency0","type":"address","internalType":"Currency"},{"name":"currency1","type":"address","internalType":"Currency"},{"name":"fee","type":"uint24","internalType":"uint24"},{"name":"tickSpacing","type":"int24","internalType":"int24"},{"name":"hooks","type":"address","internalType":"contract IHooks"}]},{"name":"","type":"tuple","internalType":"struct IPoolManager.SwapParams","components":[{"name":"zeroForOne","type":"bool","internalType":"bool"},{"name":"amountSpecified","type":"int256","internalType":"int256"},{"name":"sqrtPriceLimitX96","type":"uint160","internalType":"uint160"}]},{"name":"","type":"bytes","internalType":"bytes"}],"outputs":[{"name":"","type":"bytes4","internalType":"bytes4"},{"name":"","type":"int256","internalType":"BeforeSwapDelta"},{"name":"","type":"uint24","internalType":"uint24"}],"stateMutability":"nonpayable"},{"type":"function","name":"getHookPermissions","inputs":[],"outputs":[{"name":"","type":"tuple","internalType":"struct Hooks.Permissions","components":[{"name":"beforeInitialize","type":"bool","internalType":"bool"},{"name":"afterInitialize","type":"bool","internalType":"bool"},{"name":"beforeAddLiquidity","type":"bool","internalType":"bool"},{"name":"afterAddLiquidity","type":"bool","internalType":"bool"},{"name":"beforeRemoveLiquidity","type":"bool","internalType":"bool"},{"name":"afterRemoveLiquidity","type":"bool","internalType":"bool"},{"name":"beforeSwap","type":"bool","internalType":"bool"},{"name":"afterSwap","type":"bool","internalType":"bool"},{"name":"beforeDonate","type":"bool","internalType":"bool"},{"name":"afterDonate","type":"bool","internalType":"bool"},{"name":"beforeSwapReturnDelta","type":"bool","internalType":"bool"},{"name":"afterSwapReturnDelta","type":"bool","internalType":"bool"},{"name":"afterAddLiquidityReturnDelta","type":"bool","internalType":"bool"},{"name":"afterRemoveLiquidityReturnDelta","type":"bool","internalType":"bool"}]}],"stateMutability":"pure"},{"type":"function","name":"movingAverageGasPrice","inputs":[],"outputs":[{"name":"","type":"uint128","internalType":"uint128"}],"stateMutability":"view"},{"type":"function","name":"movingAverageGasPriceCount","inputs":[],"outputs":[{"name":"","type":"uint104","internalType":"uint104"}],"stateMutability":"view"},{"type":"function","name":"poolManager","inputs":[],"outputs":[{"name":"","type":"address","internalType":"contract IPoolManager"}],"stateMutability":"view"},{"type":"function","name":"unlockCallback","inputs":[{"name":"data","type":"bytes","internalType":"bytes"}],"outputs":[{"name":"","type":"bytes","internalType":"bytes"}],"stateMutability":"nonpayable"},{"type":"error","name":"HookNotImplemented","inputs":[]},{"type":"error","name":"InvalidPool","inputs":[]},{"type":"error","name":"LockFailure","inputs":[]},{"type":"error","name":"MustUseDynamicFee","inputs":[]},{"type":"error","name":"NotPoolManager","inputs":[]},{"type":"error","name":"NotSelf","inputs":[]}],"bytecode":{"object":"0x60a06040523461033b57604051601f610e3d38819003918201601f19168301916001600160401b0383118484101761033f5780849260209460405283398101031261033b57516001600160a01b038116810361033b576080525f6101a0610064610353565b8281528260208201528260408201528260608201528260808201528260a08201528260c08201528260e0820152826101008201528261012082015282610140820152826101608201528261018082015201525f6101a06100c2610353565b600181528260208201528260408201528260608201528260808201528260a0820152600160c0820152600160e0820152826101008201528261012082015282610140820152826101608201528261018082015201526120003016151560011480159061032e575b8015610321575b8015610314575b8015610307575b80156102fa575b80156102ea575b80156102da575b80156102ce575b80156102c2575b80156102b6575b80156102aa575b801561029e575b8015610292575b61027f575f54608081901c6001600160681b03166001600160801b038083168202908116908103610257576001600160801b033a81169190910191908211610257576001016001600160681b038111610257576001600160681b0316801561026b576001600160801b0391821604166001600160681b036001600160801b03198316821760801c8116908114610257576001600160e81b03199092161760019190910160801b600160801b600160e81b0316175f55604051610ac99081610374823960805181818160f0015281816104ff01526105ee0152f35b634e487b7160e01b5f52601160045260245ffd5b634e487b7160e01b5f52601260045260245ffd5b630732d7b560e51b5f523060045260245ffd5b5060013016151561017d565b50600230161515610176565b5060043016151561016f565b50600830161515610168565b50601030161515610161565b5060203016151561015a565b5060403016151560011415610153565b506080301615156001141561014c565b5061010030161515610145565b506102003016151561013e565b5061040030161515610137565b5061080030161515610130565b5061100030161515610129565b5f80fd5b634e487b7160e01b5f52604160045260245ffd5b604051906101c082016001600160401b0381118382101761033f5760405256fe60806040526004361015610011575f80fd5b5f803560e01c90816321d0ee70146107a3578163259982e5146107a35781633440d82014610717578163575e24b41461058e5781635a2a81001461056d5781638aae2034146105725781638db2b6521461056d57816391dd7346146104c35781639a161daa1461049e578163a910f80f14610434578163b47b2fb1146102ac578163b6a8b0fa146100cc578163c4e833ce14610145578163cd2c70e814610117578163dc4c90d3146100d1575063e1b4af69146100cc575f80fd5b6108e3565b3461011457806003193601126101145760206040516001600160a01b037f0000000000000000000000000000000000000000000000000000000000000000168152f35b80fd5b346101145780600319360112610114576cffffffffffffffffffffffffff6020915460801c16604051908152f35b346101145780600319360112610114576020816101c0926101a060405161016b81610936565b82815282858201528260408201528260608201528260808201528260a08201528260c08201528260e082015282610100820152826101208201528261014082015282610160820152826101808201520152806040516101c981610936565b6001815283810182815260408201838152606083018481526080840185815260a0850186815260c08601906001825260e0870192600184526101008801948986526101208901968a88526101408a01988b8a526101a06101608c019b8d8d5261018081019d8e52019c8d526040519d8e916001835251151591015251151560408d015251151560608c015251151560808b015251151560a08a015251151560c089015251151560e08801525115156101008701525115156101208601525115156101408501525115156101608401525115156101808301525115156101a0820152f35b3461011457610160366003190112610114576102c66107a8565b5060a03660231901126101145760603660c3190112610114576101443567ffffffffffffffff8111610430576103009036906004016107be565b50508054906cffffffffffffffffffffffffff8260801c16806001600160801b038416026001600160801b038116908103610408576001600160801b033a1601906001600160801b038211610408576001016cffffffffffffffffffffffffff8111610408576cffffffffffffffffffffffffff1690811561041c57906001600160801b038092160416916cffffffffffffffffffffffffff836001600160801b031983161760801c16926cffffffffffffffffffffffffff8414610408577cffffffffffffffffffffffffff0000000000000000000000000000000060016040950160801b169162ffffff60e81b161717815581519063b47b2fb160e01b82526020820152f35b634e487b7160e01b83526011600452602483fd5b634e487b7160e01b83526012600452602483fd5b5080fd5b34610114576101203660031901126101145761044e6107a8565b5060a03660231901126101145761046361085e565b5061046c6108d3565b506101043567ffffffffffffffff81116104305790610490600492369084016107be565b5050630a85dc2960e01b8152fd5b346101145780600319360112610114576001600160801b036020915416604051908152f35b346101145760203660031901126101145760043567ffffffffffffffff8111610430576104f49036906004016107be565b906001600160a01b037f000000000000000000000000000000000000000000000000000000000000000016330361055e5760409161053191610a14565b6020825193849282845280519283918282870152018585015e828201840152601f01601f19168101030190f35b63570c108560e11b8352600483fd5b610874565b3461011457806003193601126101145760206040516113888152f35b3461070457610140366003190112610704576105a86107a8565b5060a03660231901126107045760603660c3190112610704576101243567ffffffffffffffff8111610704576105e29036906004016107be565b50506001600160a01b037f000000000000000000000000000000000000000000000000000000000000000016908133036107085761061e610989565b91803b156107045760405192635275965160e01b84526024356001600160a01b0381168091036107045760048501526044356001600160a01b03811680910361070457602485015260643562ffffff81168091036107045760448501526084358060020b80910361070457606485015260a435916001600160a01b03831680930361070457845f60c49262ffffff8395839760848601521660a48401525af180156106f9576106e6575b606090604051906315d7892d60e21b82528060208301526040820152f35b505f6106f191610967565b60605f6106c8565b6040513d5f823e3d90fd5b5f80fd5b63570c108560e11b5f5260045ffd5b3461070457610100366003190112610704576107316107a8565b5060a03660231901126107045761074661085e565b5060e43567ffffffffffffffff8111610704576107679036906004016107be565b505060643562ffffff8116809103610704576280000003610794576040516301a206c160e51b8152602090f35b6315b3d69f60e31b5f5260045ffd5b6107ec565b600435906001600160a01b038216820361070457565b9181601f840112156107045782359167ffffffffffffffff8311610704576020838186019501011161070457565b3461070457610160366003190112610704576004356001600160a01b0381168103610704575060a03660231901126107045760803660c3190112610704576101443567ffffffffffffffff81116107045761084b9036906004016107be565b5050630a85dc2960e01b5f908152600490fd5b60c435906001600160a01b038216820361070457565b3461070457610180366003190112610704576004356001600160a01b0381168103610704575060a03660231901126107045760803660c3190112610704576101643567ffffffffffffffff81116107045761084b9036906004016107be565b60e435908160020b820361070457565b3461070457610120366003190112610704576004356001600160a01b0381168103610704575060a0366023190112610704576101043567ffffffffffffffff81116107045761084b9036906004016107be565b6101c0810190811067ffffffffffffffff82111761095357604052565b634e487b7160e01b5f52604160045260245ffd5b90601f8019910116810190811067ffffffffffffffff82111761095357604052565b6001600160801b033a166001600160801b035f5416600b81026001600160801b0381169081036109f857600a6001600160801b039104168211610a0c576009026001600160801b0381169081036109f857600a6001600160801b03910416116109f25761138890565b61271090565b634e487b7160e01b5f52601160045260245ffd5b50506109c490565b5f9182918160405192839283378101838152039082305af1903d15610a8b573d9167ffffffffffffffff83116109535760405192610a5c601f8201601f191660200185610967565b83523d5f602085013e5b610a895750805115610a7a57602081519101fd5b6314815f4760e31b5f5260045ffd5b565b606091610a6656fea2646970667358221220477f534222042eec3cbdb99cbe765c4d2208c5adf60357007437dc808c5fdb8464736f6c634300081a0033","linkReferences":{}},"methodIdentifiers":{"BASE_FEES()":"8aae2034","afterAddLiquidity(address,(address,address,uint24,int24,address),(int24,int24,int256,bytes32),int256,bytes)":"5a2a8100","afterDonate(address,(address,address,uint24,int24,address),uint256,uint256,bytes)":"e1b4af69","afterInitialize(address,(address,address,uint24,int24,address),uint160,int24,bytes)":"a910f80f","afterRemoveLiquidity(address,(address,address,uint24,int24,address),(int24,int24,int256,bytes32),int256,bytes)":"8db2b652","afterSwap(address,(address,address,uint24,int24,address),(bool,int256,uint160),int256,bytes)":"b47b2fb1","beforeAddLiquidity(address,(address,address,uint24,int24,address),(int24,int24,int256,bytes32),bytes)":"259982e5","beforeDonate(address,(address,address,uint24,int24,address),uint256,uint256,bytes)":"b6a8b0fa","beforeInitialize(address,(address,address,uint24,int24,address),uint160,bytes)":"3440d820","beforeRemoveLiquidity(address,(address,address,uint24,int24,address),(int24,int24,int256,bytes32),bytes)":"21d0ee70","beforeSwap(address,(address,address,uint24,int24,address),(bool,int256,uint160),bytes)":"575e24b4","getHookPermissions()":"c4e833ce","movingAverageGasPrice()":"9a161daa","movingAverageGasPriceCount()":"cd2c70e8","poolManager()":"dc4c90d3","unlockCallback(bytes)":"91dd7346"},"id":113}