{"abi":[{"type":"constructor","inputs":[{"name":"poolManager","type":"address","internalType":"contract IPoolManager"}],"stateMutability":"nonpayable"},{"type":"function","name":"addLiquidity","inputs":[{"name":"key","type":"tuple","internalType":"struct PoolKey","components":[{"name":"currency0","type":"address","internalType":"Currency"},{"name":"currency1","type":"address","internalType":"Currency"},{"name":"fee","type":"uint24","internalType":"uint24"},{"name":"tickSpacing","type":"int24","internalType":"int24"},{"name":"hooks","type":"address","internalType":"contract IHooks"}]},{"name":"amountEach","type":"uint256","internalType":"uint256"}],"outputs":[],"stateMutability":"nonpayable"},{"type":"function","name":"afterAddLiquidity","inputs":[{"name":"","type":"address","internalType":"address"},{"name":"","type":"tuple","internalType":"struct PoolKey","components":[{"name":"currency0","type":"address","internalType":"Currency"},{"name":"currency1","type":"address","internalType":"Currency"},{"name":"fee","type":"uint24","internalType":"uint24"},{"name":"tickSpacing","type":"int24","internalType":"int24"},{"name":"hooks","type":"address","internalType":"contract IHooks"}]},{"name":"","type":"tuple","internalType":"struct IPoolManager.ModifyLiquidityParams","components":[{"name":"tickLower","type":"int24","internalType":"int24"},{"name":"tickUpper","type":"int24","internalType":"int24"},{"name":"liquidityDelta","type":"int256","internalType":"int256"},{"name":"salt","type":"bytes32","internalType":"bytes32"}]},{"name":"","type":"int256","internalType":"BalanceDelta"},{"name":"","type":"bytes","internalType":"bytes"}],"outputs":[{"name":"","type":"bytes4","internalType":"bytes4"},{"name":"","type":"int256","internalType":"BalanceDelta"}],"stateMutability":"nonpayable"},{"type":"function","name":"afterDonate","inputs":[{"name":"","type":"address","internalType":"address"},{"name":"","type":"tuple","internalType":"struct PoolKey","components":[{"name":"currency0","type":"address","internalType":"Currency"},{"name":"currency1","type":"address","internalType":"Currency"},{"name":"fee","type":"uint24","internalType":"uint24"},{"name":"tickSpacing","type":"int24","internalType":"int24"},{"name":"hooks","type":"address","internalType":"contract IHooks"}]},{"name":"","type":"uint256","internalType":"uint256"},{"name":"","type":"uint256","internalType":"uint256"},{"name":"","type":"bytes","internalType":"bytes"}],"outputs":[{"name":"","type":"bytes4","internalType":"bytes4"}],"stateMutability":"nonpayable"},{"type":"function","name":"afterInitialize","inputs":[{"name":"","type":"address","internalType":"address"},{"name":"","type":"tuple","internalType":"struct PoolKey","components":[{"name":"currency0","type":"address","internalType":"Currency"},{"name":"currency1","type":"address","internalType":"Currency"},{"name":"fee","type":"uint24","internalType":"uint24"},{"name":"tickSpacing","type":"int24","internalType":"int24"},{"name":"hooks","type":"address","internalType":"contract IHooks"}]},{"name":"","type":"uint160","internalType":"uint160"},{"name":"","type":"int24","internalType":"int24"},{"name":"","type":"bytes","internalType":"bytes"}],"outputs":[{"name":"","type":"bytes4","internalType":"bytes4"}],"stateMutability":"nonpayable"},{"type":"function","name":"afterRemoveLiquidity","inputs":[{"name":"","type":"address","internalType":"address"},{"name":"","type":"tuple","internalType":"struct PoolKey","components":[{"name":"currency0","type":"address","internalType":"Currency"},{"name":"currency1","type":"address","internalType":"Currency"},{"name":"fee","type":"uint24","internalType":"uint24"},{"name":"tickSpacing","type":"int24","internalType":"int24"},{"name":"hooks","type":"address","internalType":"contract IHooks"}]},{"name":"","type":"tuple","internalType":"struct IPoolManager.ModifyLiquidityParams","components":[{"name":"tickLower","type":"int24","internalType":"int24"},{"name":"tickUpper","type":"int24","internalType":"int24"},{"name":"liquidityDelta","type":"int256","internalType":"int256"},{"name":"salt","type":"bytes32","internalType":"bytes32"}]},{"name":"","type":"int256","internalType":"BalanceDelta"},{"name":"","type":"bytes","internalType":"bytes"}],"outputs":[{"name":"","type":"bytes4","internalType":"bytes4"},{"name":"","type":"int256","internalType":"BalanceDelta"}],"stateMutability":"nonpayable"},{"type":"function","name":"afterSwap","inputs":[{"name":"","type":"address","internalType":"address"},{"name":"","type":"tuple","internalType":"struct PoolKey","components":[{"name":"currency0","type":"address","internalType":"Currency"},{"name":"currency1","type":"address","internalType":"Currency"},{"name":"fee","type":"uint24","internalType":"uint24"},{"name":"tickSpacing","type":"int24","internalType":"int24"},{"name":"hooks","type":"address","internalType":"contract IHooks"}]},{"name":"","type":"tuple","internalType":"struct IPoolManager.SwapParams","components":[{"name":"zeroForOne","type":"bool","internalType":"bool"},{"name":"amountSpecified","type":"int256","internalType":"int256"},{"name":"sqrtPriceLimitX96","type":"uint160","internalType":"uint160"}]},{"name":"","type":"int256","internalType":"BalanceDelta"},{"name":"","type":"bytes","internalType":"bytes"}],"outputs":[{"name":"","type":"bytes4","internalType":"bytes4"},{"name":"","type":"int128","internalType":"int128"}],"stateMutability":"nonpayable"},{"type":"function","name":"beforeAddLiquidity","inputs":[{"name":"","type":"address","internalType":"address"},{"name":"","type":"tuple","internalType":"struct PoolKey","components":[{"name":"currency0","type":"address","internalType":"Currency"},{"name":"currency1","type":"address","internalType":"Currency"},{"name":"fee","type":"uint24","internalType":"uint24"},{"name":"tickSpacing","type":"int24","internalType":"int24"},{"name":"hooks","type":"address","internalType":"contract IHooks"}]},{"name":"","type":"tuple","internalType":"struct IPoolManager.ModifyLiquidityParams","components":[{"name":"tickLower","type":"int24","internalType":"int24"},{"name":"tickUpper","type":"int24","internalType":"int24"},{"name":"liquidityDelta","type":"int256","internalType":"int256"},{"name":"salt","type":"bytes32","internalType":"bytes32"}]},{"name":"","type":"bytes","internalType":"bytes"}],"outputs":[{"name":"","type":"bytes4","internalType":"bytes4"}],"stateMutability":"pure"},{"type":"function","name":"beforeDonate","inputs":[{"name":"","type":"address","internalType":"address"},{"name":"","type":"tuple","internalType":"struct PoolKey","components":[{"name":"currency0","type":"address","internalType":"Currency"},{"name":"currency1","type":"address","internalType":"Currency"},{"name":"fee","type":"uint24","internalType":"uint24"},{"name":"tickSpacing","type":"int24","internalType":"int24"},{"name":"hooks","type":"address","internalType":"contract IHooks"}]},{"name":"","type":"uint256","internalType":"uint256"},{"name":"","type":"uint256","internalType":"uint256"},{"name":"","type":"bytes","internalType":"bytes"}],"outputs":[{"name":"","type":"bytes4","internalType":"bytes4"}],"stateMutability":"nonpayable"},{"type":"function","name":"beforeInitialize","inputs":[{"name":"","type":"address","internalType":"address"},{"name":"","type":"tuple","internalType":"struct PoolKey","components":[{"name":"currency0","type":"address","internalType":"Currency"},{"name":"currency1","type":"address","internalType":"Currency"},{"name":"fee","type":"uint24","internalType":"uint24"},{"name":"tickSpacing","type":"int24","internalType":"int24"},{"name":"hooks","type":"address","internalType":"contract IHooks"}]},{"name":"","type":"uint160","internalType":"uint160"},{"name":"","type":"bytes","internalType":"bytes"}],"outputs":[{"name":"","type":"bytes4","internalType":"bytes4"}],"stateMutability":"nonpayable"},{"type":"function","name":"beforeRemoveLiquidity","inputs":[{"name":"","type":"address","internalType":"address"},{"name":"","type":"tuple","internalType":"struct PoolKey","components":[{"name":"currency0","type":"address","internalType":"Currency"},{"name":"currency1","type":"address","internalType":"Currency"},{"name":"fee","type":"uint24","internalType":"uint24"},{"name":"tickSpacing","type":"int24","internalType":"int24"},{"name":"hooks","type":"address","internalType":"contract IHooks"}]},{"name":"","type":"tuple","internalType":"struct IPoolManager.ModifyLiquidityParams","components":[{"name":"tickLower","type":"int24","internalType":"int24"},{"name":"tickUpper","type":"int24","internalType":"int24"},{"name":"liquidityDelta","type":"int256","internalType":"int256"},{"name":"salt","type":"bytes32","internalType":"bytes32"}]},{"name":"","type":"bytes","internalType":"bytes"}],"outputs":[{"name":"","type":"bytes4","internalType":"bytes4"}],"stateMutability":"pure"},{"type":"function","name":"beforeSwap","inputs":[{"name":"","type":"address","internalType":"address"},{"name":"key","type":"tuple","internalType":"struct PoolKey","components":[{"name":"currency0","type":"address","internalType":"Currency"},{"name":"currency1","type":"address","internalType":"Currency"},{"name":"fee","type":"uint24","internalType":"uint24"},{"name":"tickSpacing","type":"int24","internalType":"int24"},{"name":"hooks","type":"address","internalType":"contract IHooks"}]},{"name":"params","type":"tuple","internalType":"struct IPoolManager.SwapParams","components":[{"name":"zeroForOne","type":"bool","internalType":"bool"},{"name":"amountSpecified","type":"int256","internalType":"int256"},{"name":"sqrtPriceLimitX96","type":"uint160","internalType":"uint160"}]},{"name":"","type":"bytes","internalType":"bytes"}],"outputs":[{"name":"","type":"bytes4","internalType":"bytes4"},{"name":"","type":"int256","internalType":"BeforeSwapDelta"},{"name":"","type":"uint24","internalType":"uint24"}],"stateMutability":"nonpayable"},{"type":"function","name":"getHookPermissions","inputs":[],"outputs":[{"name":"","type":"tuple","internalType":"struct Hooks.Permissions","components":[{"name":"beforeInitialize","type":"bool","internalType":"bool"},{"name":"afterInitialize","type":"bool","internalType":"bool"},{"name":"beforeAddLiquidity","type":"bool","internalType":"bool"},{"name":"afterAddLiquidity","type":"bool","internalType":"bool"},{"name":"beforeRemoveLiquidity","type":"bool","internalType":"bool"},{"name":"afterRemoveLiquidity","type":"bool","internalType":"bool"},{"name":"beforeSwap","type":"bool","internalType":"bool"},{"name":"afterSwap","type":"bool","internalType":"bool"},{"name":"beforeDonate","type":"bool","internalType":"bool"},{"name":"afterDonate","type":"bool","internalType":"bool"},{"name":"beforeSwapReturnDelta","type":"bool","internalType":"bool"},{"name":"afterSwapReturnDelta","type":"bool","internalType":"bool"},{"name":"afterAddLiquidityReturnDelta","type":"bool","internalType":"bool"},{"name":"afterRemoveLiquidityReturnDelta","type":"bool","internalType":"bool"}]}],"stateMutability":"pure"},{"type":"function","name":"poolManager","inputs":[],"outputs":[{"name":"","type":"address","internalType":"contract IPoolManager"}],"stateMutability":"view"},{"type":"function","name":"removeLiquidity","inputs":[{"name":"key","type":"tuple","internalType":"struct PoolKey","components":[{"name":"currency0","type":"address","internalType":"Currency"},{"name":"currency1","type":"address","internalType":"Currency"},{"name":"fee","type":"uint24","internalType":"uint24"},{"name":"tickSpacing","type":"int24","internalType":"int24"},{"name":"hooks","type":"address","internalType":"contract IHooks"}]},{"name":"liquidity","type":"uint256","internalType":"uint256"}],"outputs":[],"stateMutability":"nonpayable"},{"type":"function","name":"unlockCallback","inputs":[{"name":"data","type":"bytes","internalType":"bytes"}],"outputs":[{"name":"","type":"bytes","internalType":"bytes"}],"stateMutability":"nonpayable"},{"type":"error","name":"AddLiquidityThroughHook","inputs":[]},{"type":"error","name":"HookNotImplemented","inputs":[]},{"type":"error","name":"InvalidPool","inputs":[]},{"type":"error","name":"LockFailure","inputs":[]},{"type":"error","name":"NotPoolManager","inputs":[]},{"type":"error","name":"NotSelf","inputs":[]},{"type":"error","name":"RemoveLiquidityThroughHook","inputs":[]}],"bytecode":{"object":"0x60a06040523461027557604051601f61103b38819003918201601f19168301916001600160401b038311848410176102795780849260209460405283398101031261027557516001600160a01b0381168103610275576080525f6101a061006461028d565b8281528260208201528260408201528260608201528260808201528260a08201528260c08201528260e0820152826101008201528261012082015282610140820152826101608201528261018082015201525f6101a06100c261028d565b82815282602082015260016040820152826060820152600160808201528260a0820152600160c08201528260e08201528261010082015282610120820152600161014082015282610160820152826101808201520152612000301615801590610268575b8015610257575b801561024a575b8015610239575b801561022c575b801561021c575b8015610210575b8015610204575b80156101f8575b80156101e8575b80156101dc575b80156101d0575b80156101c4575b6101b157604051610d8d90816102ae823960805181818160e20152818161036c01528181610533015281816105ae015261075e0152f35b630732d7b560e51b5f523060045260245ffd5b5060013016151561017a565b50600230161515610173565b5060043016151561016c565b5060083016151560011415610165565b5060103016151561015e565b50602030161515610157565b50604030161515610150565b5060803016151560011415610149565b5061010030161515610142565b50610200301615156001141561013b565b5061040030161515610134565b50610800301615156001141561012d565b5061100030161515610126565b5f80fd5b634e487b7160e01b5f52604160045260245ffd5b604051906101c082016001600160401b038111838210176102795760405256fe60806040526004361015610011575f80fd5b5f3560e01c806312f0f3011461068d57806321d0ee701461066b578063259982e5146106495780633440d820146105f9578063575e24b4146104a05780635a2a81001461049b5780638db2b6521461049b57806391dd7346146103395780639e436f5714610334578063a910f80f146102d7578063b47b2fb114610272578063b6a8b0fa146100be578063c4e833ce1461010a578063dc4c90d3146100c35763e1b4af69146100be575f80fd5b61099b565b34610106575f3660031901126101065760206040516001600160a01b037f0000000000000000000000000000000000000000000000000000000000000000168152f35b5f80fd5b34610106575f366003190112610106575f6101a060405161012a81610a36565b8281528260208201528260408201528260608201528260808201528260a08201528260c08201528260e0820152826101008201528261012082015282610140820152826101608201528261018082015201526101c0602060405161018d81610a36565b5f8152818101905f82526040810160018152606082015f8152608083016001815260a084015f815260c085016001815260e08601905f82526101008701925f84526101208801945f8652610140890196600188526101608a01985f8a526101a06101808c019b5f8d52019b5f8d526040519d8e915f835251151591015251151560408d015251151560608c015251151560808b015251151560a08a015251151560c089015251151560e08801525115156101008701525115156101208601525115156101408501525115156101608401525115156101808301525115156101a0820152f35b34610106576101603660031901126101065761028c61082d565b5060a03660231901126101065760603660c3190112610106576101443567ffffffffffffffff8111610106576102c6903690600401610857565b5050630a85dc2960e01b5f5260045ffd5b3461010657610120366003190112610106576102f161082d565b5060a0366023190112610106576103066108e9565b5060e4358060020b03610106576101043567ffffffffffffffff8111610106576102c6903690600401610857565b61068d565b346101065760203660031901126101065760043567ffffffffffffffff81116101065761036a903690600401610857565b7f0000000000000000000000000000000000000000000000000000000000000000906001600160a01b038216330361048c57826080918101031261010657604051916103b583610a1a565b80358084526103c660208301610843565b836020860192828452604085016103dc90610843565b94604088019586526060016103f090610843565b9260608801938085526001600160a01b0316906001600160a01b03169261041693610b2a565b8383516001600160a01b031691516001600160a01b031686519161043993610b2a565b516001600160a01b0316835183309061045193610d06565b516001600160a01b0316915190309061046993610d06565b604051610477602082610a53565b5f8152604051610488819282610971565b0390f35b63570c108560e11b5f5260045ffd5b6108ff565b3461010657610140366003190112610106576104ba61082d565b5060a03660231901126101065760603660c3190112610106576101243567ffffffffffffffff8111610106576104f4903690600401610857565b505060e4355f8113156105ea57805b61050c81610a75565b60c435928315158403610106576060931561059c5761056a9061052d6109ee565b61055b827f000000000000000000000000000000000000000000000000000000000000000092833091610d06565b3090610565610a04565b610ac0565b604051916315d7892d60e21b83526fffffffffffffffffffffffffffffffff169060801b1760208201525f6040820152f35b6105e5906105a86109ee565b6105d6827f000000000000000000000000000000000000000000000000000000000000000092833091610ac0565b30906105e0610a04565b610d06565b61056a565b6105f381610a75565b90610503565b34610106576101003660031901126101065761061361082d565b5060a0366023190112610106576106286108e9565b5060e43567ffffffffffffffff8111610106576102c6903690600401610857565b346101065761065736610885565b505050505063033d48c960e31b5f5260045ffd5b346101065761067936610885565b505050505063e2036f1560e01b5f5260045ffd5b3461010657366003190160c081126101065760a0136101065760a4356004356001600160a01b038116810361010657602435916001600160a01b0383168303610106576001600160a01b035f92818561075196508160606040516106f081610a1a565b87815282602082019616865282604082019416845201933385526040519660208801525116604086015251166060840152511660808201526080815261073760a082610a53565b604051809381926348c8949160e01b835260048301610971565b0381836001600160a01b037f0000000000000000000000000000000000000000000000000000000000000000165af180156108225761078c57005b3d805f833e61079b8183610a53565b8101906020818303126101065780519067ffffffffffffffff8211610106570181601f8201121561010657805167ffffffffffffffff811161080e57604051926107ef601f8301601f191660200185610a53565b81845260208284010111610106575f928160208094018483015e010152005b634e487b7160e01b5f52604160045260245ffd5b6040513d5f823e3d90fd5b600435906001600160a01b038216820361010657565b35906001600160a01b038216820361010657565b9181601f840112156101065782359167ffffffffffffffff8311610106576020838186019501011161010657565b90610160600319830112610106576004356001600160a01b0381168103610106579160a060231982011261010657602491608060c3198301126101065760c491610144359067ffffffffffffffff8211610106576108e591600401610857565b9091565b60c435906001600160a01b038216820361010657565b3461010657610180366003190112610106576004356001600160a01b0381168103610106575060a03660231901126101065760803660c3190112610106576101643567ffffffffffffffff81116101065761095e903690600401610857565b5050630a85dc2960e01b5f908152600490fd5b602060409281835280519182918282860152018484015e5f828201840152601f01601f1916010190565b3461010657610120366003190112610106576004356001600160a01b0381168103610106575060a0366023190112610106576101043567ffffffffffffffff81116101065761095e903690600401610857565b6024356001600160a01b03811681036101065790565b6044356001600160a01b03811681036101065790565b6080810190811067ffffffffffffffff82111761080e57604052565b6101c0810190811067ffffffffffffffff82111761080e57604052565b90601f8019910116810190811067ffffffffffffffff82111761080e57604052565b600160ff1b8114610a85575f0390565b634e487b7160e01b5f52601160045260245ffd5b90816020910312610106575180151581036101065790565b90816020910312610106575190565b91906001600160a01b0316803b1561010657604051637a94c56560e11b81526001600160a01b0392831660048201529290911660248301526044820192909252905f908290818381606481015b03925af1801561082257610b1e5750565b5f610b2891610a53565b565b9091906001600160a01b031680610b975750506001600160a01b0360046020926040519485938492630476982d60e21b8452165af1801561082257610b6c5750565b610b8d9060203d602011610b90575b610b858183610a53565b810190610ab1565b50565b503d610b7b565b9092916001600160a01b031691823b1561010657604051632961046560e21b815260048101839052935a945f816024818389819bf1801561082257610cea575b506001600160a01b031684308214610c8f576020929160649160405195869485936323b872dd60e01b8552600485015288602485015260448401525af18015610c8457916020918493610c57575b505b600460405180958193630476982d60e21b83525af1908115610c4b5750610b6c5750565b604051903d90823e3d90fd5b610c7690833d8511610c7d575b610c6e8183610a53565b810190610a99565b505f610c25565b503d610c64565b6040513d85823e3d90fd5b9290506044602092604051948593849263a9059cbb60e01b845288600485015260248401525af18015610c8457916020918493610ccd575b50610c27565b610ce390833d8511610c7d57610c6e8183610a53565b505f610cc7565b610cf79195505f90610a53565b5f936001600160a01b03610bd7565b91906001600160a01b0316803b1561010657604051630ab714fb60e11b81526001600160a01b0392831660048201529290911660248301526044820192909252905f90829081838160648101610b0d56fea2646970667358221220e7a91913341f792e9c4c0fbef6a6c2f33b0342946aebd930d020286a694f5cc464736f6c634300081a0033","linkReferences":{}},"methodIdentifiers":{"addLiquidity((address,address,uint24,int24,address),uint256)":"9e436f57","afterAddLiquidity(address,(address,address,uint24,int24,address),(int24,int24,int256,bytes32),int256,bytes)":"5a2a8100","afterDonate(address,(address,address,uint24,int24,address),uint256,uint256,bytes)":"e1b4af69","afterInitialize(address,(address,address,uint24,int24,address),uint160,int24,bytes)":"a910f80f","afterRemoveLiquidity(address,(address,address,uint24,int24,address),(int24,int24,int256,bytes32),int256,bytes)":"8db2b652","afterSwap(address,(address,address,uint24,int24,address),(bool,int256,uint160),int256,bytes)":"b47b2fb1","beforeAddLiquidity(address,(address,address,uint24,int24,address),(int24,int24,int256,bytes32),bytes)":"259982e5","beforeDonate(address,(address,address,uint24,int24,address),uint256,uint256,bytes)":"b6a8b0fa","beforeInitialize(address,(address,address,uint24,int24,address),uint160,bytes)":"3440d820","beforeRemoveLiquidity(address,(address,address,uint24,int24,address),(int24,int24,int256,bytes32),bytes)":"21d0ee70","beforeSwap(address,(address,address,uint24,int24,address),(bool,int256,uint160),bytes)":"575e24b4","getHookPermissions()":"c4e833ce","poolManager()":"dc4c90d3","removeLiquidity((address,address,uint24,int24,address),uint256)":"12f0f301","unlockCallback(bytes)":"91dd7346"},"id":95}