{"abi":[{"type":"constructor","inputs":[{"name":"_manager","type":"address","internalType":"contract IPoolManager"},{"name":"_l1StandardBridge","type":"address","internalType":"contract IL1StandardBridge"}],"stateMutability":"nonpayable"},{"type":"receive","stateMutability":"payable"},{"type":"function","name":"addL1ToL2TokenAddress","inputs":[{"name":"l1Token","type":"address","internalType":"address"},{"name":"l2Token","type":"address","internalType":"address"}],"outputs":[],"stateMutability":"nonpayable"},{"type":"function","name":"l1StandardBridge","inputs":[],"outputs":[{"name":"","type":"address","internalType":"contract IL1StandardBridge"}],"stateMutability":"view"},{"type":"function","name":"l1ToL2TokenAddresses","inputs":[{"name":"l1Token","type":"address","internalType":"address"}],"outputs":[{"name":"l2Token","type":"address","internalType":"address"}],"stateMutability":"view"},{"type":"function","name":"manager","inputs":[],"outputs":[{"name":"","type":"address","internalType":"contract IPoolManager"}],"stateMutability":"view"},{"type":"function","name":"owner","inputs":[],"outputs":[{"name":"","type":"address","internalType":"address"}],"stateMutability":"view"},{"type":"function","name":"renounceOwnership","inputs":[],"outputs":[],"stateMutability":"nonpayable"},{"type":"function","name":"swap","inputs":[{"name":"key","type":"tuple","internalType":"struct PoolKey","components":[{"name":"currency0","type":"address","internalType":"Currency"},{"name":"currency1","type":"address","internalType":"Currency"},{"name":"fee","type":"uint24","internalType":"uint24"},{"name":"tickSpacing","type":"int24","internalType":"int24"},{"name":"hooks","type":"address","internalType":"contract IHooks"}]},{"name":"params","type":"tuple","internalType":"struct IPoolManager.SwapParams","components":[{"name":"zeroForOne","type":"bool","internalType":"bool"},{"name":"amountSpecified","type":"int256","internalType":"int256"},{"name":"sqrtPriceLimitX96","type":"uint160","internalType":"uint160"}]},{"name":"settings","type":"tuple","internalType":"struct SwapAndBridgeOptimismRouter.SwapSettings","components":[{"name":"bridgeTokens","type":"bool","internalType":"bool"},{"name":"recipientAddress","type":"address","internalType":"address"}]},{"name":"hookData","type":"bytes","internalType":"bytes"}],"outputs":[{"name":"delta","type":"int256","internalType":"BalanceDelta"}],"stateMutability":"payable"},{"type":"function","name":"transferOwnership","inputs":[{"name":"newOwner","type":"address","internalType":"address"}],"outputs":[],"stateMutability":"nonpayable"},{"type":"function","name":"unlockCallback","inputs":[{"name":"rawData","type":"bytes","internalType":"bytes"}],"outputs":[{"name":"","type":"bytes","internalType":"bytes"}],"stateMutability":"nonpayable"},{"type":"event","name":"OwnershipTransferred","inputs":[{"name":"previousOwner","type":"address","indexed":true,"internalType":"address"},{"name":"newOwner","type":"address","indexed":true,"internalType":"address"}],"anonymous":false},{"type":"error","name":"CallerNotManager","inputs":[]},{"type":"error","name":"OwnableInvalidOwner","inputs":[{"name":"owner","type":"address","internalType":"address"}]},{"type":"error","name":"OwnableUnauthorizedAccount","inputs":[{"name":"account","type":"address","internalType":"address"}]},{"type":"error","name":"TokenCannotBeBridged","inputs":[]}],"bytecode":{"object":"0x60c03461011357601f61131838819003918201601f19168301916001600160401b03831184841017610117578084926040948552833981010312610113578051906001600160a01b038216820361011357602001516001600160a01b0381168103610113573315610100575f8054336001600160a01b0319821681178355604051949290916001600160a01b0316907f8be0079c531659141344cd1fd0a4f28419497f9722a3daafe3b4186f6b6457e09080a360805260a0526111ec908161012c82396080518181816101de0152818161086901528181610a8801528181610f4e0152610f86015260a051818181610b0a01528181610fbc01526110740152f35b631e4fbdf760e01b5f525f60045260245ffd5b5f80fd5b634e487b7160e01b5f52604160045260245ffdfe608080604052600436101561001c575b50361561001a575f80fd5b005b5f3560e01c908163078f29cf14610aed5750806343808cd914610aac578063481c6a7514610a69578063715018a614610a055780638da5cb5b146109e057806390dfcf23146105f657806391dd73461461018b578063f2fde38b146100fb5763f45dba771461008b575f61000f565b346100f75760403660031901126100f7576100a4610b2e565b602435906001600160a01b0382168092036100f7576001600160a01b03906100ca610ca8565b165f52600160205260405f209073ffffffffffffffffffffffffffffffffffffffff198254161790555f80f35b5f80fd5b346100f75760203660031901126100f7576001600160a01b0361011c610b2e565b610124610ca8565b168015610178576001600160a01b035f548273ffffffffffffffffffffffffffffffffffffffff198216175f55167f8be0079c531659141344cd1fd0a4f28419497f9722a3daafe3b4186f6b6457e05f80a3005b631e4fbdf760e01b5f525f60045260245ffd5b346100f75760203660031901126100f75760043567ffffffffffffffff81116100f757366023820112156100f757806004013567ffffffffffffffff81116100f75781019060248201913683116100f7577f0000000000000000000000000000000000000000000000000000000000000000916001600160a01b038316908133036105e7576020818403126100f75760248101359067ffffffffffffffff82116100f7570193610180858403126100f7576040519061024982610b58565b61025560248701610b44565b82526040601f1987860301126100f7576040519261027284610ba4565b61027e60448801610be2565b845261028c60648801610b44565b60208501526020830193845260a060246083198988030101126100f757604051946102b686610b58565b6102c260848901610b44565b86526102d060a48901610b44565b602087015260c488013562ffffff811681036100f757604087015260e48801358060020b81036100f75760608701526101048801356001600160a01b03811681036100f75760808701526040840195865260609088900360ff1901126100f7576040519061033d82610b88565b61034a6101248901610be2565b825261014488013560208301526101648801356001600160a01b03811681036100f7576040830152606084019182526101848801359267ffffffffffffffff84116100f7575f6103a76104119260246020976104389d0101610c0b565b9384608088015261044c89519151956040519c8d9788968795633cf3645360e21b875260048701906001600160a01b036080809282815116855282602082015116602086015262ffffff6040820151166040860152606081015160020b6060860152015116910152565b8051151560a4860152602081015160c4860152604001516001600160a01b031660e4850152565b610120610104840152610124830190610c51565b03925af19384156105dc575f946105a6575b6104e695506104796001600160a01b03855151163083610cce565b906104936001600160a01b03602087510151163083610cce565b925f831261057d575b5f841261054f575b50505f811361051e575b505f81136104ea575b505050604051906020820152602081526104d2604082610bc0565b604051918291602083526020830190610c51565b0390f35b6001600160a01b036020610516945101511691516001600160a01b036020820151169051151592610f43565b8280806104b7565b610549906001600160a01b03855151169084516001600160a01b036020820151169051151592610f43565b856104ae565b610576916001600160a01b0380602089510151169251169061057086610c84565b92610d5a565b86806104a4565b6105a16001600160a01b03875151166001600160a01b038351168461057087610c84565b61049c565b93506020853d6020116105d4575b816105c160209383610bc0565b810103126100f7576104e694519361045e565b3d91506105b4565b6040513d5f823e3d90fd5b63c4230ae360e01b5f5260045ffd5b366003190161016081126100f75760a0136100f75760405161061781610b58565b6004356001600160a01b03811681036100f75781526024356001600160a01b03811681036100f7576020820190815260443562ffffff811681036100f75760408301526064358060020b81036100f75760608301526084356001600160a01b03811681036100f757608083015260603660a31901126100f75760405161069c81610b88565b60a43580151581036100f757815260c435602082015260e4356001600160a01b03811681036100f75760408201526040610103193601126100f757604051926106e484610ba4565b6101043580151581036100f7578452610124356001600160a01b03811681036100f75760208501526101443567ffffffffffffffff81116100f75761072d903690600401610c0b565b92845161097e575b5061085c9361082c5f946108176001600160a01b03956107ec61083a96886020604051986107628a610b58565b338a52818a0190815260408a0193845260608a0195865260808a019788526040519b8c9a83808d0152511660408b0152518051151560608b015201511660808801525160a08701906001600160a01b036080809282815116855282602082015116602086015262ffffff6040820151166040860152606081015160020b6060860152015116910152565b51805115156101408601526020810151610160860152604001516001600160a01b0316610180850152565b516101806101a08401526101c0830190610c51565b03601f198101835282610bc0565b604051809381926348c8949160e01b8352602060048401526024830190610c51565b0381836001600160a01b037f0000000000000000000000000000000000000000000000000000000000000000165af19081156105dc575f91610904575b50602081519181808201938492010103126100f7575147806108c1575b602082604051908152f35b5f80808093335af1156108d457816108b6565b6040516356cdd02560e11b8152602060048201523d60248201819052805f604484013e601f801991011660440190fd5b90503d805f833e6109158183610bc0565b8101906020818303126100f75780519067ffffffffffffffff82116100f7570181601f820112156100f75780519061094c82610bef565b9261095a6040519485610bc0565b828452602083830101116100f757815f9260208093018386015e8301015281610899565b8251156109cf57506001600160a01b03808251165b168015610735575f9392935260016020526001600160a01b0360405f205416156109c05784929192610735565b6303274b9760e41b5f5260045ffd5b6001600160a01b0380915116610993565b346100f7575f3660031901126100f75760206001600160a01b035f5416604051908152f35b346100f7575f3660031901126100f757610a1d610ca8565b5f6001600160a01b03815473ffffffffffffffffffffffffffffffffffffffff1981168355167f8be0079c531659141344cd1fd0a4f28419497f9722a3daafe3b4186f6b6457e08280a3005b346100f7575f3660031901126100f75760206040516001600160a01b037f0000000000000000000000000000000000000000000000000000000000000000168152f35b346100f75760203660031901126100f7576001600160a01b03610acd610b2e565b165f52600160205260206001600160a01b0360405f205416604051908152f35b346100f7575f3660031901126100f7576020906001600160a01b037f0000000000000000000000000000000000000000000000000000000000000000168152f35b600435906001600160a01b03821682036100f757565b35906001600160a01b03821682036100f757565b60a0810190811067ffffffffffffffff821117610b7457604052565b634e487b7160e01b5f52604160045260245ffd5b6060810190811067ffffffffffffffff821117610b7457604052565b6040810190811067ffffffffffffffff821117610b7457604052565b90601f8019910116810190811067ffffffffffffffff821117610b7457604052565b359081151582036100f757565b67ffffffffffffffff8111610b7457601f01601f191660200190565b81601f820112156100f757803590610c2282610bef565b92610c306040519485610bc0565b828452602083830101116100f757815f926020809301838601378301015290565b805180835260209291819084018484015e5f828201840152601f01601f1916010190565b908160209103126100f7575190565b600160ff1b8114610c94575f0390565b634e487b7160e01b5f52601160045260245ffd5b6001600160a01b035f54163303610cbb57565b63118cdaa760e01b5f523360045260245ffd5b6001600160a01b03809381602094165f52168252602460405f20604051948593849263789add5560e11b84526004840152165afa9081156105dc575f91610d13575090565b90506020813d602011610d3a575b81610d2e60209383610bc0565b810103126100f7575190565b3d9150610d21565b908160209103126100f7575180151581036100f75790565b9091906001600160a01b031680610dc75750506001600160a01b0360046020926040519485938492630476982d60e21b8452165af180156105dc57610d9c5750565b610dbd9060203d602011610dc0575b610db58183610bc0565b810190610c75565b50565b503d610dab565b9092916001600160a01b031691823b156100f757604051632961046560e21b815260048101839052935a945f816024818389819bf180156105dc57610f27575b506001600160a01b031684308214610ebf576020929160649160405195869485936323b872dd60e01b8552600485015288602485015260448401525af18015610eb457916020918493610e87575b505b600460405180958193630476982d60e21b83525af1908115610e7b5750610d9c5750565b604051903d90823e3d90fd5b610ea690833d8511610ead575b610e9e8183610bc0565b810190610d42565b505f610e55565b503d610e94565b6040513d85823e3d90fd5b60405163a9059cbb60e01b81526001600160a01b0386166004820152602481019390935291926020928492506044918391905af18015610eb457916020918493610f0a575b50610e57565b610f2090833d8511610ead57610e9e8183610bc0565b505f610f04565b610f349195505f90610bc0565b5f936001600160a01b03610e07565b92610f7557610f73927f000000000000000000000000000000000000000000000000000000000000000090611161565b565b6001600160a01b035f93610fab84307f000000000000000000000000000000000000000000000000000000000000000084611161565b168061105057506001600160a01b037f00000000000000000000000000000000000000000000000000000000000000001691823b1561104c57608484926001600160a01b03926040519586948593639a2ac6d560e01b8552166004840152856024840152606060448401528560648401525af180156110415761102c575050565b611037828092610bc0565b61103e5750565b80fd5b6040513d84823e3d90fd5b8380fd5b809193505f5260016020526001600160a01b0360405f205416906001600160a01b037f0000000000000000000000000000000000000000000000000000000000000000169060405163095ea7b360e01b8152602081806110ca888760048401602090939291936001600160a01b0360408201951681520152565b03815f865af180156105dc57611144575b50813b156100f7575f60e49281956001600160a01b03604051988997889663041c592960e51b885260048801526024870152166044850152606484015281608484015260c060a48401528160c48401525af180156105dc5761113a5750565b5f610f7391610bc0565b61115c9060203d602011610ead57610e9e8183610bc0565b6110db565b9192906001600160a01b0316803b156100f7575f92836064926001600160a01b0394856040519889978896630b0d9c0960e01b885216600487015216602485015260448401525af180156105dc5761113a575056fea26469706673582212202b4d183e1380cd13dc92fd7cbecc4dc326714bab43a876f7ed6e3a24b0f7ddfd64736f6c634300081a0033","linkReferences":{}},"methodIdentifiers":{"addL1ToL2TokenAddress(address,address)":"f45dba77","l1StandardBridge()":"078f29cf","l1ToL2TokenAddresses(address)":"43808cd9","manager()":"481c6a75","owner()":"8da5cb5b","renounceOwnership()":"715018a6","swap((address,address,uint24,int24,address),(bool,int256,uint160),(bool,address),bytes)":"90dfcf23","transferOwnership(address)":"f2fde38b","unlockCallback(bytes)":"91dd7346"},"id":94}