{"abi":[{"type":"constructor","inputs":[{"name":"_manager","type":"address","internalType":"contract IPoolManager"}],"stateMutability":"nonpayable"},{"type":"function","name":"addJITLiquidity","inputs":[{"name":"params","type":"tuple","internalType":"struct JustInTimeHook.AddLiqudityParams","components":[{"name":"currency0","type":"address","internalType":"Currency"},{"name":"currency1","type":"address","internalType":"Currency"},{"name":"fee","type":"uint24","internalType":"uint24"},{"name":"amount0Desired","type":"uint256","internalType":"uint256"},{"name":"amount1Desired","type":"uint256","internalType":"uint256"},{"name":"amount0Min","type":"uint256","internalType":"uint256"},{"name":"amount1Min","type":"uint256","internalType":"uint256"},{"name":"to","type":"address","internalType":"address"},{"name":"deadline","type":"uint256","internalType":"uint256"}]}],"outputs":[{"name":"liquidity","type":"uint128","internalType":"uint128"}],"stateMutability":"payable"},{"type":"function","name":"afterAddLiquidity","inputs":[{"name":"","type":"address","internalType":"address"},{"name":"","type":"tuple","internalType":"struct PoolKey","components":[{"name":"currency0","type":"address","internalType":"Currency"},{"name":"currency1","type":"address","internalType":"Currency"},{"name":"fee","type":"uint24","internalType":"uint24"},{"name":"tickSpacing","type":"int24","internalType":"int24"},{"name":"hooks","type":"address","internalType":"contract IHooks"}]},{"name":"","type":"tuple","internalType":"struct IPoolManager.ModifyLiquidityParams","components":[{"name":"tickLower","type":"int24","internalType":"int24"},{"name":"tickUpper","type":"int24","internalType":"int24"},{"name":"liquidityDelta","type":"int256","internalType":"int256"},{"name":"salt","type":"bytes32","internalType":"bytes32"}]},{"name":"","type":"int256","internalType":"BalanceDelta"},{"name":"","type":"bytes","internalType":"bytes"}],"outputs":[{"name":"","type":"bytes4","internalType":"bytes4"},{"name":"","type":"int256","internalType":"BalanceDelta"}],"stateMutability":"nonpayable"},{"type":"function","name":"afterDonate","inputs":[{"name":"","type":"address","internalType":"address"},{"name":"","type":"tuple","internalType":"struct PoolKey","components":[{"name":"currency0","type":"address","internalType":"Currency"},{"name":"currency1","type":"address","internalType":"Currency"},{"name":"fee","type":"uint24","internalType":"uint24"},{"name":"tickSpacing","type":"int24","internalType":"int24"},{"name":"hooks","type":"address","internalType":"contract IHooks"}]},{"name":"","type":"uint256","internalType":"uint256"},{"name":"","type":"uint256","internalType":"uint256"},{"name":"","type":"bytes","internalType":"bytes"}],"outputs":[{"name":"","type":"bytes4","internalType":"bytes4"}],"stateMutability":"nonpayable"},{"type":"function","name":"afterInitialize","inputs":[{"name":"","type":"address","internalType":"address"},{"name":"","type":"tuple","internalType":"struct PoolKey","components":[{"name":"currency0","type":"address","internalType":"Currency"},{"name":"currency1","type":"address","internalType":"Currency"},{"name":"fee","type":"uint24","internalType":"uint24"},{"name":"tickSpacing","type":"int24","internalType":"int24"},{"name":"hooks","type":"address","internalType":"contract IHooks"}]},{"name":"","type":"uint160","internalType":"uint160"},{"name":"","type":"int24","internalType":"int24"},{"name":"","type":"bytes","internalType":"bytes"}],"outputs":[{"name":"","type":"bytes4","internalType":"bytes4"}],"stateMutability":"nonpayable"},{"type":"function","name":"afterRemoveLiquidity","inputs":[{"name":"","type":"address","internalType":"address"},{"name":"","type":"tuple","internalType":"struct PoolKey","components":[{"name":"currency0","type":"address","internalType":"Currency"},{"name":"currency1","type":"address","internalType":"Currency"},{"name":"fee","type":"uint24","internalType":"uint24"},{"name":"tickSpacing","type":"int24","internalType":"int24"},{"name":"hooks","type":"address","internalType":"contract IHooks"}]},{"name":"","type":"tuple","internalType":"struct IPoolManager.ModifyLiquidityParams","components":[{"name":"tickLower","type":"int24","internalType":"int24"},{"name":"tickUpper","type":"int24","internalType":"int24"},{"name":"liquidityDelta","type":"int256","internalType":"int256"},{"name":"salt","type":"bytes32","internalType":"bytes32"}]},{"name":"","type":"int256","internalType":"BalanceDelta"},{"name":"","type":"bytes","internalType":"bytes"}],"outputs":[{"name":"","type":"bytes4","internalType":"bytes4"},{"name":"","type":"int256","internalType":"BalanceDelta"}],"stateMutability":"nonpayable"},{"type":"function","name":"afterSwap","inputs":[{"name":"","type":"address","internalType":"address"},{"name":"","type":"tuple","internalType":"struct PoolKey","components":[{"name":"currency0","type":"address","internalType":"Currency"},{"name":"currency1","type":"address","internalType":"Currency"},{"name":"fee","type":"uint24","internalType":"uint24"},{"name":"tickSpacing","type":"int24","internalType":"int24"},{"name":"hooks","type":"address","internalType":"contract IHooks"}]},{"name":"","type":"tuple","internalType":"struct IPoolManager.SwapParams","components":[{"name":"zeroForOne","type":"bool","internalType":"bool"},{"name":"amountSpecified","type":"int256","internalType":"int256"},{"name":"sqrtPriceLimitX96","type":"uint160","internalType":"uint160"}]},{"name":"delta","type":"int256","internalType":"BalanceDelta"},{"name":"","type":"bytes","internalType":"bytes"}],"outputs":[{"name":"","type":"bytes4","internalType":"bytes4"},{"name":"","type":"int128","internalType":"int128"}],"stateMutability":"nonpayable"},{"type":"function","name":"beforeAddLiquidity","inputs":[{"name":"sender","type":"address","internalType":"address"},{"name":"","type":"tuple","internalType":"struct PoolKey","components":[{"name":"currency0","type":"address","internalType":"Currency"},{"name":"currency1","type":"address","internalType":"Currency"},{"name":"fee","type":"uint24","internalType":"uint24"},{"name":"tickSpacing","type":"int24","internalType":"int24"},{"name":"hooks","type":"address","internalType":"contract IHooks"}]},{"name":"","type":"tuple","internalType":"struct IPoolManager.ModifyLiquidityParams","components":[{"name":"tickLower","type":"int24","internalType":"int24"},{"name":"tickUpper","type":"int24","internalType":"int24"},{"name":"liquidityDelta","type":"int256","internalType":"int256"},{"name":"salt","type":"bytes32","internalType":"bytes32"}]},{"name":"","type":"bytes","internalType":"bytes"}],"outputs":[{"name":"","type":"bytes4","internalType":"bytes4"}],"stateMutability":"nonpayable"},{"type":"function","name":"beforeDonate","inputs":[{"name":"","type":"address","internalType":"address"},{"name":"","type":"tuple","internalType":"struct PoolKey","components":[{"name":"currency0","type":"address","internalType":"Currency"},{"name":"currency1","type":"address","internalType":"Currency"},{"name":"fee","type":"uint24","internalType":"uint24"},{"name":"tickSpacing","type":"int24","internalType":"int24"},{"name":"hooks","type":"address","internalType":"contract IHooks"}]},{"name":"","type":"uint256","internalType":"uint256"},{"name":"","type":"uint256","internalType":"uint256"},{"name":"","type":"bytes","internalType":"bytes"}],"outputs":[{"name":"","type":"bytes4","internalType":"bytes4"}],"stateMutability":"nonpayable"},{"type":"function","name":"beforeInitialize","inputs":[{"name":"","type":"address","internalType":"address"},{"name":"","type":"tuple","internalType":"struct PoolKey","components":[{"name":"currency0","type":"address","internalType":"Currency"},{"name":"currency1","type":"address","internalType":"Currency"},{"name":"fee","type":"uint24","internalType":"uint24"},{"name":"tickSpacing","type":"int24","internalType":"int24"},{"name":"hooks","type":"address","internalType":"contract IHooks"}]},{"name":"","type":"uint160","internalType":"uint160"},{"name":"","type":"bytes","internalType":"bytes"}],"outputs":[{"name":"","type":"bytes4","internalType":"bytes4"}],"stateMutability":"nonpayable"},{"type":"function","name":"beforeRemoveLiquidity","inputs":[{"name":"","type":"address","internalType":"address"},{"name":"","type":"tuple","internalType":"struct PoolKey","components":[{"name":"currency0","type":"address","internalType":"Currency"},{"name":"currency1","type":"address","internalType":"Currency"},{"name":"fee","type":"uint24","internalType":"uint24"},{"name":"tickSpacing","type":"int24","internalType":"int24"},{"name":"hooks","type":"address","internalType":"contract IHooks"}]},{"name":"","type":"tuple","internalType":"struct IPoolManager.ModifyLiquidityParams","components":[{"name":"tickLower","type":"int24","internalType":"int24"},{"name":"tickUpper","type":"int24","internalType":"int24"},{"name":"liquidityDelta","type":"int256","internalType":"int256"},{"name":"salt","type":"bytes32","internalType":"bytes32"}]},{"name":"","type":"bytes","internalType":"bytes"}],"outputs":[{"name":"","type":"bytes4","internalType":"bytes4"}],"stateMutability":"nonpayable"},{"type":"function","name":"beforeSwap","inputs":[{"name":"","type":"address","internalType":"address"},{"name":"key","type":"tuple","internalType":"struct PoolKey","components":[{"name":"currency0","type":"address","internalType":"Currency"},{"name":"currency1","type":"address","internalType":"Currency"},{"name":"fee","type":"uint24","internalType":"uint24"},{"name":"tickSpacing","type":"int24","internalType":"int24"},{"name":"hooks","type":"address","internalType":"contract IHooks"}]},{"name":"params","type":"tuple","internalType":"struct IPoolManager.SwapParams","components":[{"name":"zeroForOne","type":"bool","internalType":"bool"},{"name":"amountSpecified","type":"int256","internalType":"int256"},{"name":"sqrtPriceLimitX96","type":"uint160","internalType":"uint160"}]},{"name":"","type":"bytes","internalType":"bytes"}],"outputs":[{"name":"","type":"bytes4","internalType":"bytes4"},{"name":"","type":"int256","internalType":"BeforeSwapDelta"},{"name":"","type":"uint24","internalType":"uint24"}],"stateMutability":"nonpayable"},{"type":"function","name":"currencyInLiquidity","inputs":[{"name":"","type":"address","internalType":"Currency"}],"outputs":[{"name":"currency0","type":"address","internalType":"Currency"},{"name":"currency1","type":"address","internalType":"Currency"},{"name":"fee","type":"uint24","internalType":"uint24"},{"name":"amount0Desired","type":"uint256","internalType":"uint256"},{"name":"amount1Desired","type":"uint256","internalType":"uint256"},{"name":"amount0Min","type":"uint256","internalType":"uint256"},{"name":"amount1Min","type":"uint256","internalType":"uint256"},{"name":"to","type":"address","internalType":"address"},{"name":"deadline","type":"uint256","internalType":"uint256"}],"stateMutability":"view"},{"type":"function","name":"getHookPermissions","inputs":[],"outputs":[{"name":"","type":"tuple","internalType":"struct Hooks.Permissions","components":[{"name":"beforeInitialize","type":"bool","internalType":"bool"},{"name":"afterInitialize","type":"bool","internalType":"bool"},{"name":"beforeAddLiquidity","type":"bool","internalType":"bool"},{"name":"afterAddLiquidity","type":"bool","internalType":"bool"},{"name":"beforeRemoveLiquidity","type":"bool","internalType":"bool"},{"name":"afterRemoveLiquidity","type":"bool","internalType":"bool"},{"name":"beforeSwap","type":"bool","internalType":"bool"},{"name":"afterSwap","type":"bool","internalType":"bool"},{"name":"beforeDonate","type":"bool","internalType":"bool"},{"name":"afterDonate","type":"bool","internalType":"bool"},{"name":"beforeSwapReturnDelta","type":"bool","internalType":"bool"},{"name":"afterSwapReturnDelta","type":"bool","internalType":"bool"},{"name":"afterAddLiquidityReturnDelta","type":"bool","internalType":"bool"},{"name":"afterRemoveLiquidityReturnDelta","type":"bool","internalType":"bool"}]}],"stateMutability":"pure"},{"type":"function","name":"poolInfo","inputs":[{"name":"","type":"bytes32","internalType":"PoolId"}],"outputs":[{"name":"hasAccruedFees","type":"bool","internalType":"bool"},{"name":"JIT","type":"bool","internalType":"bool"},{"name":"liquidityToken","type":"address","internalType":"address"}],"stateMutability":"view"},{"type":"function","name":"poolManager","inputs":[],"outputs":[{"name":"","type":"address","internalType":"contract IPoolManager"}],"stateMutability":"view"},{"type":"function","name":"unlockCallback","inputs":[{"name":"data","type":"bytes","internalType":"bytes"}],"outputs":[{"name":"","type":"bytes","internalType":"bytes"}],"stateMutability":"nonpayable"},{"type":"error","name":"HookNotImplemented","inputs":[]},{"type":"error","name":"InvalidPool","inputs":[]},{"type":"error","name":"JIT__Expired","inputs":[]},{"type":"error","name":"JIT__MinimumLiquidityNotMet","inputs":[]},{"type":"error","name":"JIT__PoolNotInitialized","inputs":[]},{"type":"error","name":"JIT__SenderIsNotHook","inputs":[]},{"type":"error","name":"JIT__TickSpacingNotDefault","inputs":[]},{"type":"error","name":"JIT__TooMuchSlippage","inputs":[]},{"type":"error","name":"LockFailure","inputs":[]},{"type":"error","name":"NotPoolManager","inputs":[]},{"type":"error","name":"NotSelf","inputs":[]}],"bytecode":{"object":"0x60a06040523461026957604051601f6128d838819003918201601f19168301916001600160401b0383118484101761026d5780849260209460405283398101031261026957516001600160a01b0381168103610269576080525f6101a0610064610281565b8281528260208201528260408201528260608201528260808201528260a08201528260c08201528260e0820152826101008201528261012082015282610140820152826101608201528261018082015201525f6101a06100c2610281565b828152826020820152600160408201528260608201528260808201528260a0820152600160c0820152600160e08201528261010082015282610120820152826101408201528261016082015282610180820152015261200030161580159061025c575b801561024b575b801561023e575b8015610231575b8015610224575b8015610214575b8015610204575b80156101f8575b80156101ec575b80156101e0575b80156101d4575b80156101c8575b80156101bc575b6101a95760405161263690816102a2823960805181818160ed015281816102fd015281816107610152610d930152f35b630732d7b560e51b5f523060045260245ffd5b50600130161515610179565b50600230161515610172565b5060043016151561016b565b50600830161515610164565b5060103016151561015d565b50602030161515610156565b506040301615156001141561014f565b5060803016151560011415610148565b5061010030161515610141565b506102003016151561013a565b5061040030161515610133565b50610800301615156001141561012c565b5061100030161515610125565b5f80fd5b634e487b7160e01b5f52604160045260245ffd5b604051906101c082016001600160401b0381118382101761026d5760405256fe60806040526004361015610011575f80fd5b5f3560e01c806321d0ee7014610926578063259982e5146108e35780633440d82014610893578063575e24b41461080f5780635a2a8100146107bb5780638cebd942146107c05780638db2b652146107bb57806391dd734614610725578063a910f80f146106ba578063b47b2fb11461064e578063b6a8b0fa146100c9578063b6a94e391461059f578063c43698e61461027c578063c4e833ce14610115578063dc4c90d3146100ce5763e1b4af69146100c9575f80fd5b610ace565b34610111575f3660031901126101115760206040516001600160a01b037f0000000000000000000000000000000000000000000000000000000000000000168152f35b5f80fd5b34610111575f366003190112610111575f6101a060405161013581610b89565b8281528260208201528260408201528260608201528260808201528260a08201528260c08201528260e0820152826101008201528261012082015282610140820152826101608201528261018082015201526101c0602060405161019881610b89565b5f8152818101905f82526040810160018152606082015f8152608083015f815260a084015f815260c085016001815260e0860190600182526101008701925f84526101208801945f86526101408901965f88526101608a01985f8a526101a06101808c019b5f8d52019b5f8d526040519d8e915f835251151591015251151560408d015251151560608c015251151560808b015251151560a08a015251151560c089015251151560e08801525115156101008701525115156101208601525115156101408501525115156101608401525115156101808301525115156101a0820152f35b61012036600319011261011157426101043510610590576004356001600160a01b0381169081810361011157506024356001600160a01b0381169081810361011157506044359062ffffff821680920361011157604051926102dd84610b21565b835260208301526040820152617fff606082015230608082015260a081207f0000000000000000000000000000000000000000000000000000000000000000906103278183611747565b505050906001600160a01b0382161561058157610376610357826001600160801b03935f526001602052856117e0565b92610360611871565b90610369611b95565b6084359260643592612334565b9116158061056c575b61055d576001600160801b0316905f821261054e576104935f916001600160a01b039461045d6040516103b181610b51565b620d89e7198152620d89e86020820152866040820152856060820152604080516103da81610b6d565b3381526020810194855201908152876080604051943360208701525182815116604087015282602082015116606087015262ffffff60408201511682870152606081015160020b60a087015201511660c08401525160e083019060608091805160020b8452602081015160020b6020850152604081015160408501520151910152565b610140815261046e61016082610ba6565b836040519687809581946348c8949160e01b8352602060048401526024830190610a8c565b0393165af1918215610543575f926104c4575b506104bb826020808095518301019101610d42565b50604051908152f35b91503d805f843e6104d58184610ba6565b8201916020818403126101115780519067ffffffffffffffff8211610111570182601f820112156101115780519261050c84610c3d565b9061051a6040519283610ba6565b84825260208584010111610111575f6020858196826104bb96018386015e8301015292506104a6565b6040513d5f823e3d90fd5b6393dafdf160e01b5f5260045ffd5b635f8df68760e01b5f5260045ffd5b506103e86001600160801b038216111561037f565b630cea7c1160e31b5f5260045ffd5b6388eecfef60e01b5f5260045ffd5b34610111576020366003190112610111576001600160a01b036105c0610948565b165f52600260205261012060405f206001600160a01b03815416906001810154906002810154600382015460048301549060058401549262ffffff60076001600160a01b03600688015416960154966040519889526001600160a01b03811660208a015260a01c1660408801526060870152608086015260a085015260c084015260e0830152610100820152f35b346101115761016036600319011261011157610668610948565b5060a03660231901126101115760603660c3190112610111576101443567ffffffffffffffff8111610111576106a2903690600401610972565b50506040805163b47b2fb160e01b81525f6020820152f35b3461011157610120366003190112610111576106d4610948565b5060a0366023190112610111576106e9610a04565b506106f2610ab0565b506101043567ffffffffffffffff811161011157610714903690600401610972565b5050630a85dc2960e01b5f5260045ffd5b346101115760203660031901126101115760043567ffffffffffffffff811161011157610756903690600401610972565b906001600160a01b037f00000000000000000000000000000000000000000000000000000000000000001633036107ac576107a891610794916123da565b604051918291602083526020830190610a8c565b0390f35b63570c108560e11b5f5260045ffd5b610a1a565b34610111576020366003190112610111576004355f526001602052606060405f20546001600160a01b036040519160ff81161515835260ff8160081c161515602084015260101c166040820152f35b346101115761014036600319011261011157610829610948565b5060a03660231901126101115760603660c3190112610111576101243567ffffffffffffffff811161011157610863903690600401610972565b5050606062ffffff610873610d89565b906040939293519363ffffffff60e01b1684526020840152166040820152f35b3461011157610100366003190112610111576108ad610948565b5060a0366023190112610111576108c2610a04565b5060e43567ffffffffffffffff811161011157610714903690600401610972565b34610111576108f1366109a0565b505050506001600160a01b03309116036109175760405163259982e560e01b8152602090f35b63b1efebd160e01b5f5260045ffd5b3461011157610934366109a0565b5050505050630a85dc2960e01b5f5260045ffd5b600435906001600160a01b038216820361011157565b35906001600160a01b038216820361011157565b9181601f840112156101115782359167ffffffffffffffff8311610111576020838186019501011161011157565b90610160600319830112610111576004356001600160a01b0381168103610111579160a060231982011261011157602491608060c3198301126101115760c491610144359067ffffffffffffffff821161011157610a0091600401610972565b9091565b60c435906001600160a01b038216820361011157565b3461011157610180366003190112610111576004356001600160a01b0381168103610111575060a03660231901126101115760803660c3190112610111576101643567ffffffffffffffff811161011157610a79903690600401610972565b5050630a85dc2960e01b5f908152600490fd5b805180835260209291819084018484015e5f828201840152601f01601f1916010190565b60e435908160020b820361011157565b35908160020b820361011157565b3461011157610120366003190112610111576004356001600160a01b0381168103610111575060a0366023190112610111576101043567ffffffffffffffff811161011157610a79903690600401610972565b60a0810190811067ffffffffffffffff821117610b3d57604052565b634e487b7160e01b5f52604160045260245ffd5b6080810190811067ffffffffffffffff821117610b3d57604052565b6060810190811067ffffffffffffffff821117610b3d57604052565b6101c0810190811067ffffffffffffffff821117610b3d57604052565b90601f8019910116810190811067ffffffffffffffff821117610b3d57604052565b359062ffffff8216820361011157565b6001600160a01b03610c376080809383610bf18261095e565b16865283610c016020830161095e565b16602087015262ffffff610c1760408301610bc8565b166040870152610c2960608201610ac0565b60020b60608701520161095e565b16910152565b67ffffffffffffffff8111610b3d57601f01601f191660200190565b91908260a091031261011157604051610c7181610b21565b6080610cbd818395610c828161095e565b8552610c906020820161095e565b6020860152610ca160408201610bc8565b6040860152610cb260608201610ac0565b60608601520161095e565b910152565b906127108202918083056127101490151715610cda57565b634e487b7160e01b5f52601160045260245ffd5b8115610d0857600160ff1b81145f19831416610cda570590565b634e487b7160e01b5f52601260045260245ffd5b600160ff1b8114610cda575f0390565b9190826040910312610111576020825192015190565b90816020910312610111575190565b90600f0b90600f0b01906f7fffffffffffffffffffffffffffffff1982126f7fffffffffffffffffffffffffffffff831317610cda57565b610d916116d0565b7f00000000000000000000000000000000000000000000000000000000000000006001600160a01b03811690813b1561011157604051635275965160e01b81525f9362ffffff90610de6600484016024610bd8565b1660a48201525f8160c48183875af18015610543576116bb575b5060209160405191610e128484610ba6565b848352610e2c60a0610e25366024610c59565b2082611747565b5050610e47829360a0610e40366024610c59565b20906117e0565b610e4f611871565b92610e58611b95565b938285828c978d946001600160a01b0384166001600160a01b038216116116b0575b50506001600160a01b038581169890821689116116755750610e9d9394506124c4565b905b60c4358015158103611671571561164e5760e435908a8212156116355750610edc610f0d92610ed7610ed2606494610d1c565b610cc2565b610cee565b1360a0610eea366024610c59565b208a526001895260408a209061ff00825491151560081b169061ff001916179055565b60a0610f1a366024610c59565b2088526001875260ff604089205460081c16156115ff576001600160801b031687811261159257610f4a90610d1c565b9160405192610f5884610b51565b620d89e7198452620d89e8888501526040840152876060840152610fbf60405193632d35e7ed60e11b8552610f91600486016024610bd8565b8051600290810b60a48701526020820151900b60c4860152604081015160e486015260600151610104850152565b61014061012484015260408380610fda61014482018a610a8c565b03818b895af19283156115875788936115dd575b5060a0610ffc366024610c59565b20885260018752604088205460ff166113ed5750617fff9060a0611021366024610c59565b2088526001875260408820600160ff198254161790555b60401b600a0b056f7fffffffffffffffffffffffffffffff19811215806113d3575b156113cf57600f0b678000000000000000680100000000000000008260401d600f0b9207600f0b121561138b575b617fff9060020b028060020b9081036113425780620d89e719811215611356575060020b617fff01627fffff8113627fffff1982121761134257915b608435928360020b9081850361133e5760020b81810394627fffff198612627fffff87131761132a575001627fffff8113627fffff1982121761131657837f12519fb38f6e5af830d800923f1b4e756174c53a1a5fbd5384706bef6bc3ded75d807f334352b7316c99b5eb1590419dc5053fce159a8f4a83ecf755d907286540c5445d6001600160801b0361117761115b86611eb7565b61116484611eb7565b948660801d958488169285881692612334565b1690888212611307576040519461118d86610b51565b60020b855260020b8785015260408401528660608401526111c360405193632d35e7ed60e11b8552610f91600486016024610bd8565b610140610124840152604083806111de610144820189610a8c565b03818a885af19283156112fc578695936001600160801b0397959388938a9384936112bc575b506112699161121a611227928560801d90610d51565b93600f0b90600f0b610d51565b95604051998a978896879563234266d760e01b875261124a600488016024610bd8565b1660a48601521660c484015261010060e4840152610104830190610a8c565b03925af180156112b157611287575b506315d7892d60e21b92829150565b81813d83116112aa575b61129b8183610ba6565b8101031261011157515f611278565b503d611291565b6040513d85823e3d90fd5b6112279193509161121a6112ea6112699460403d6040116112f5575b6112e28183610ba6565b810190610d2c565b509492505091611204565b503d6112d8565b6040513d89823e3d90fd5b6393dafdf160e01b8952600489fd5b634e487b7160e01b88526011600452602488fd5b634e487b7160e01b8a52601160045260248afd5b8880fd5b634e487b7160e01b87526011600452602487fd5b620d89e8819492941361136a575b506110c4565b909250617ffe1901627fffff198112627fffff82131761134257915f611364565b6001016f7fffffffffffffffffffffffffffffff81136f7fffffffffffffffffffffffffffffff198212171561108857634e487b7160e01b87526011600452602487fd5b8680fd5b506f7fffffffffffffffffffffffffffffff81131561105a565b90925061140f6001600160801b038360801d166001600160801b0384166121e3565b60b581710100000000000000000000000000000000008110156115c6575b806901000000000000000000620100009210156115ba575b650100000000008110156115ae575b63010000008110156115a1575b010260121c80820401600190811c80830401811c80830401811c80830401811c80830401811c80830401811c80830401901c9081900481118082036601000000000000818102939184041491141715611316576001600160a01b03811690810361159257604051916114d283610b6d565b81108252600160ff1b87830190815260408084018381529051633cf3645360e21b8152936001600160a01b03929061150e600487016024610bd8565b51151560a48601525160c4850152511660e483015261012061010483015286828061153d61012482018a610a8c565b03818b895af1801561158757611559575b617fff915092611038565b8682813d8311611580575b61156e8183610ba6565b8101031261011157617fff915061154e565b503d611564565b6040513d8a823e3d90fd5b6393dafdf160e01b8852600488fd5b60101c9160081b91611461565b891c9160101b91611454565b60401c91891b91611445565b5068b500000000000000009050608082901c61142d565b6115f791935060403d6040116112f5576112e28183610ba6565b50915f610fee565b50505050505060019060a0611615366024610c59565b2083525260408120805460ff191660011790556315d7892d60e21b918190565b6116499250610edc90610ed7606493610cc2565b610f0d565b9060e435908a8212156116355750610edc61164992610ed7610ed2606494610d1c565b8a80fd5b9093506001600160a01b0382168810156116a557509261169a826116a09495836124c4565b9361248d565b610e9f565b93506116a09261248d565b925090505f80610e7a565b6116c89193505f90610ba6565b5f915f610e00565b6001600160801b033a166001600160801b035f5416600b81026001600160801b038116908103610cda57600a6001600160801b03910416821161173f576009026001600160801b038116908103610cda57600a6001600160801b03910416116117395761138890565b61271090565b50506109c490565b602090602461175e6001600160a01b039594612447565b6040519586938492631e2eaeaf60e01b84526004840152165afa918215610543575f926117ac575b506001600160a01b038216918060a01c60020b9162ffffff808360b81c169260d01c1690565b9091506020813d6020116117d8575b816117c860209383610ba6565b810103126101115751905f611786565b3d91506117bb565b906117ea90612447565b60038101809111610cda576001600160a01b039160246020926040519485938492631e2eaeaf60e01b84526004840152165afa8015610543575f90611838575b6001600160801b0391501690565b506020813d602011611869575b8161185260209383610ba6565b81010312610111576001600160801b03905161182a565b3d9150611845565b620d89e71960ff1d620d89e719810118620d89e88111611b7c5763ffffffff90600181167001fffcb933bd6fad37aa2d162d1a59400102600160801b189060028116611b60575b60048116611b44575b60088116611b28575b60108116611b0c575b60208116611af0575b60408116611ad4575b60808116611ab8575b6101008116611a9c575b6102008116611a80575b6104008116611a64575b6108008116611a48575b6110008116611a2c575b6120008116611a10575b61400081166119f4575b61800081166119d8575b6201000081166119bc575b6202000081166119a1575b620400008116611986575b6208000016611970575b0160201c90565b6b048a170391f7dc42444e8fa20260801c611969565b6d2216e584f5fa1ea926041bedfe9890910260801c9061195f565b906e5d6af8dedb81196699c329225ee6040260801c90611954565b906f09aa508b5b7a84e1c677de54f3e99bc90260801c90611949565b906f31be135f97d08fd981231505542fcfa60260801c9061193e565b906f70d869a156d2a1b890bb3df62baf32f70260801c90611934565b906fa9f746462d870fdf8a65dc1f90e061e50260801c9061192a565b906fd097f3bdfd2022b8845ad8f792aa58250260801c90611920565b906fe7159475a2c29b7443b29c7fa6e889d90260801c90611916565b906ff3392b0822b70005940c7a398e4b70f30260801c9061190c565b906ff987a7253ac413176f2b074cf7815e540260801c90611902565b906ffcbe86c7900a88aedcffc83b479aa3a40260801c906118f8565b906ffe5dee046a99a2a811c461f1969c30530260801c906118ee565b906fff2ea16466c96a3843ec78b326b528610260801c906118e5565b906fff973b41fa98c081472e6896dfb254c00260801c906118dc565b906fffcb9843d60f6159c9db58835c9266440260801c906118d3565b906fffe5caca7e10e4e61c3624eaa0941cd00260801c906118ca565b906ffff2e50f5f656932ef12357cf3c7fdcc0260801c906118c1565b906ffff97272373d413259a46990580e213a0260801c906118b8565b6345c3193d60e11b5f908152620d89e719600452602490fd5b620d89e860ff1d620d89e8810118620d89e88111611ea15763ffffffff90600181167001fffcb933bd6fad37aa2d162d1a59400102600160801b189060028116611e85575b60048116611e69575b60088116611e4d575b60108116611e31575b60208116611e15575b60408116611df9575b60808116611ddd575b6101008116611dc1575b6102008116611da5575b6104008116611d89575b6108008116611d6d575b6110008116611d51575b6120008116611d35575b6140008116611d19575b6180008116611cfd575b620100008116611ce1575b620200008116611cc6575b620400008116611cab575b6208000016611c95575b5f19040160201c90565b6b048a170391f7dc42444e8fa20260801c611c8b565b6d2216e584f5fa1ea926041bedfe9890910260801c90611c81565b906e5d6af8dedb81196699c329225ee6040260801c90611c76565b906f09aa508b5b7a84e1c677de54f3e99bc90260801c90611c6b565b906f31be135f97d08fd981231505542fcfa60260801c90611c60565b906f70d869a156d2a1b890bb3df62baf32f70260801c90611c56565b906fa9f746462d870fdf8a65dc1f90e061e50260801c90611c4c565b906fd097f3bdfd2022b8845ad8f792aa58250260801c90611c42565b906fe7159475a2c29b7443b29c7fa6e889d90260801c90611c38565b906ff3392b0822b70005940c7a398e4b70f30260801c90611c2e565b906ff987a7253ac413176f2b074cf7815e540260801c90611c24565b906ffcbe86c7900a88aedcffc83b479aa3a40260801c90611c1a565b906ffe5dee046a99a2a811c461f1969c30530260801c90611c10565b906fff2ea16466c96a3843ec78b326b528610260801c90611c07565b906fff973b41fa98c081472e6896dfb254c00260801c90611bfe565b906fffcb9843d60f6159c9db58835c9266440260801c90611bf5565b906fffe5caca7e10e4e61c3624eaa0941cd00260801c90611bec565b906ffff2e50f5f656932ef12357cf3c7fdcc0260801c90611be3565b906ffff97272373d413259a46990580e213a0260801c90611bda565b6345c3193d60e11b5f52620d89e860045260245ffd5b60020b908160ff1d82810118620d89e881116121d05763ffffffff9192600182167001fffcb933bd6fad37aa2d162d1a59400102600160801b1891600281166121b4575b60048116612198575b6008811661217c575b60108116612160575b60208116612144575b60408116612128575b6080811661210c575b61010081166120f0575b61020081166120d4575b61040081166120b8575b610800811661209c575b6110008116612080575b6120008116612064575b6140008116612048575b618000811661202c575b620100008116612010575b620200008116611ff5575b620400008116611fda575b6208000016611fc1575b5f12611fb9570160201c90565b5f1904611969565b6b048a170391f7dc42444e8fa290910260801c90611fac565b6d2216e584f5fa1ea926041bedfe9890920260801c91611fa2565b916e5d6af8dedb81196699c329225ee6040260801c91611f97565b916f09aa508b5b7a84e1c677de54f3e99bc90260801c91611f8c565b916f31be135f97d08fd981231505542fcfa60260801c91611f81565b916f70d869a156d2a1b890bb3df62baf32f70260801c91611f77565b916fa9f746462d870fdf8a65dc1f90e061e50260801c91611f6d565b916fd097f3bdfd2022b8845ad8f792aa58250260801c91611f63565b916fe7159475a2c29b7443b29c7fa6e889d90260801c91611f59565b916ff3392b0822b70005940c7a398e4b70f30260801c91611f4f565b916ff987a7253ac413176f2b074cf7815e540260801c91611f45565b916ffcbe86c7900a88aedcffc83b479aa3a40260801c91611f3b565b916ffe5dee046a99a2a811c461f1969c30530260801c91611f31565b916fff2ea16466c96a3843ec78b326b528610260801c91611f28565b916fff973b41fa98c081472e6896dfb254c00260801c91611f1f565b916fffcb9843d60f6159c9db58835c9266440260801c91611f16565b916fffe5caca7e10e4e61c3624eaa0941cd00260801c91611f0d565b916ffff2e50f5f656932ef12357cf3c7fdcc0260801c91611f04565b916ffff97272373d413259a46990580e213a0260801c91611efb565b826345c3193d60e11b5f5260045260245ffd5b908160601b905f19600160601b840992828085109403938085039485841115610111571461226457600160601b82910981805f03168092046002816003021880820260020302808202600203028082026002030280820260020302808202600203028091026002030293600183805f03040190848311900302920304170290565b5091500490565b81810291905f1982820991838084109303928084039384600160601b111561011157146122ab57600160601b910990828211900360a01b910360601c1790565b50505060601c90565b91818302915f1981850993838086109503948086039586851115610111571461232c579082910981805f03168092046002816003021880820260020302808202600203028082026002030280820260020302808202600203028091026002030293600183805f03040190848311900302920304170290565b505091500490565b936001600160a01b0383166001600160a01b038316116123d2575b6001600160a01b038581169590831686116123745750506123709350612557565b905b565b92909391946001600160a01b038216115f146123c657829161239a916123a09594612557565b93612527565b6001600160801b0381166001600160801b038316105f146123bf575090565b9050612370565b91505061237092612527565b90919061234f565b5f9182918160405192839283378101838152039082305af1903d1561243f573d9161240483610c3d565b926124126040519485610ba6565b83523d5f602085013e5b612372575080511561243057602081519101fd5b6314815f4760e31b5f5260045ffd5b60609161241c565b604051602081019182526006604082015260408152612467606082610ba6565b51902090565b906001600160a01b03809116911603906001600160a01b038211610cda57565b6001600160a01b036124b66001600160801b03926123709594838116848316116124be5761246d565b16911661226b565b9061246d565b91612514906001600160a01b039283811684861611612521575b7bffffffffffffffffffffffffffffffff0000000000000000000000008480612507888561246d565b1692169260601b166122b4565b9116908115610d08570490565b936124de565b916001600160a01b0361254b6123709461255294838116848316116124be5761246d565b16906121e3565b6125a7565b9161255291612370936001600160a01b0382166001600160a01b038216116125a1575b61259a6001600160a01b039161259483851684831661226b565b9361246d565b16916122b4565b9061257a565b906001600160801b0382169182036125bb57565b60405162461bcd60e51b815260206004820152601260248201527f6c6971756964697479206f766572666c6f7700000000000000000000000000006044820152606490fdfea2646970667358221220a783c0eca9222a37e0fb511ffe8c0b3479225d352c32c60494e04de12eb1eeda64736f6c634300081a0033","linkReferences":{}},"methodIdentifiers":{"addJITLiquidity((address,address,uint24,uint256,uint256,uint256,uint256,address,uint256))":"c43698e6","afterAddLiquidity(address,(address,address,uint24,int24,address),(int24,int24,int256,bytes32),int256,bytes)":"5a2a8100","afterDonate(address,(address,address,uint24,int24,address),uint256,uint256,bytes)":"e1b4af69","afterInitialize(address,(address,address,uint24,int24,address),uint160,int24,bytes)":"a910f80f","afterRemoveLiquidity(address,(address,address,uint24,int24,address),(int24,int24,int256,bytes32),int256,bytes)":"8db2b652","afterSwap(address,(address,address,uint24,int24,address),(bool,int256,uint160),int256,bytes)":"b47b2fb1","beforeAddLiquidity(address,(address,address,uint24,int24,address),(int24,int24,int256,bytes32),bytes)":"259982e5","beforeDonate(address,(address,address,uint24,int24,address),uint256,uint256,bytes)":"b6a8b0fa","beforeInitialize(address,(address,address,uint24,int24,address),uint160,bytes)":"3440d820","beforeRemoveLiquidity(address,(address,address,uint24,int24,address),(int24,int24,int256,bytes32),bytes)":"21d0ee70","beforeSwap(address,(address,address,uint24,int24,address),(bool,int256,uint160),bytes)":"575e24b4","currencyInLiquidity(address)":"b6a94e39","getHookPermissions()":"c4e833ce","poolInfo(bytes32)":"8cebd942","poolManager()":"dc4c90d3","unlockCallback(bytes)":"91dd7346"},"id":114}