{"abi":[{"type":"constructor","inputs":[{"name":"poolManager","type":"address","internalType":"contract IPoolManager"},{"name":"interval","type":"uint256","internalType":"uint256"},{"name":"addressToEtch","type":"address","internalType":"contract TWAMM"}],"stateMutability":"nonpayable"},{"type":"function","name":"afterAddLiquidity","inputs":[{"name":"","type":"address","internalType":"address"},{"name":"","type":"tuple","internalType":"struct PoolKey","components":[{"name":"currency0","type":"address","internalType":"Currency"},{"name":"currency1","type":"address","internalType":"Currency"},{"name":"fee","type":"uint24","internalType":"uint24"},{"name":"tickSpacing","type":"int24","internalType":"int24"},{"name":"hooks","type":"address","internalType":"contract IHooks"}]},{"name":"","type":"tuple","internalType":"struct IPoolManager.ModifyLiquidityParams","components":[{"name":"tickLower","type":"int24","internalType":"int24"},{"name":"tickUpper","type":"int24","internalType":"int24"},{"name":"liquidityDelta","type":"int256","internalType":"int256"},{"name":"salt","type":"bytes32","internalType":"bytes32"}]},{"name":"","type":"int256","internalType":"BalanceDelta"},{"name":"","type":"bytes","internalType":"bytes"}],"outputs":[{"name":"","type":"bytes4","internalType":"bytes4"},{"name":"","type":"int256","internalType":"BalanceDelta"}],"stateMutability":"nonpayable"},{"type":"function","name":"afterDonate","inputs":[{"name":"","type":"address","internalType":"address"},{"name":"","type":"tuple","internalType":"struct PoolKey","components":[{"name":"currency0","type":"address","internalType":"Currency"},{"name":"currency1","type":"address","internalType":"Currency"},{"name":"fee","type":"uint24","internalType":"uint24"},{"name":"tickSpacing","type":"int24","internalType":"int24"},{"name":"hooks","type":"address","internalType":"contract IHooks"}]},{"name":"","type":"uint256","internalType":"uint256"},{"name":"","type":"uint256","internalType":"uint256"},{"name":"","type":"bytes","internalType":"bytes"}],"outputs":[{"name":"","type":"bytes4","internalType":"bytes4"}],"stateMutability":"nonpayable"},{"type":"function","name":"afterInitialize","inputs":[{"name":"","type":"address","internalType":"address"},{"name":"","type":"tuple","internalType":"struct PoolKey","components":[{"name":"currency0","type":"address","internalType":"Currency"},{"name":"currency1","type":"address","internalType":"Currency"},{"name":"fee","type":"uint24","internalType":"uint24"},{"name":"tickSpacing","type":"int24","internalType":"int24"},{"name":"hooks","type":"address","internalType":"contract IHooks"}]},{"name":"","type":"uint160","internalType":"uint160"},{"name":"","type":"int24","internalType":"int24"},{"name":"","type":"bytes","internalType":"bytes"}],"outputs":[{"name":"","type":"bytes4","internalType":"bytes4"}],"stateMutability":"nonpayable"},{"type":"function","name":"afterRemoveLiquidity","inputs":[{"name":"","type":"address","internalType":"address"},{"name":"","type":"tuple","internalType":"struct PoolKey","components":[{"name":"currency0","type":"address","internalType":"Currency"},{"name":"currency1","type":"address","internalType":"Currency"},{"name":"fee","type":"uint24","internalType":"uint24"},{"name":"tickSpacing","type":"int24","internalType":"int24"},{"name":"hooks","type":"address","internalType":"contract IHooks"}]},{"name":"","type":"tuple","internalType":"struct IPoolManager.ModifyLiquidityParams","components":[{"name":"tickLower","type":"int24","internalType":"int24"},{"name":"tickUpper","type":"int24","internalType":"int24"},{"name":"liquidityDelta","type":"int256","internalType":"int256"},{"name":"salt","type":"bytes32","internalType":"bytes32"}]},{"name":"","type":"int256","internalType":"BalanceDelta"},{"name":"","type":"bytes","internalType":"bytes"}],"outputs":[{"name":"","type":"bytes4","internalType":"bytes4"},{"name":"","type":"int256","internalType":"BalanceDelta"}],"stateMutability":"nonpayable"},{"type":"function","name":"afterSwap","inputs":[{"name":"","type":"address","internalType":"address"},{"name":"","type":"tuple","internalType":"struct PoolKey","components":[{"name":"currency0","type":"address","internalType":"Currency"},{"name":"currency1","type":"address","internalType":"Currency"},{"name":"fee","type":"uint24","internalType":"uint24"},{"name":"tickSpacing","type":"int24","internalType":"int24"},{"name":"hooks","type":"address","internalType":"contract IHooks"}]},{"name":"","type":"tuple","internalType":"struct IPoolManager.SwapParams","components":[{"name":"zeroForOne","type":"bool","internalType":"bool"},{"name":"amountSpecified","type":"int256","internalType":"int256"},{"name":"sqrtPriceLimitX96","type":"uint160","internalType":"uint160"}]},{"name":"","type":"int256","internalType":"BalanceDelta"},{"name":"","type":"bytes","internalType":"bytes"}],"outputs":[{"name":"","type":"bytes4","internalType":"bytes4"},{"name":"","type":"int128","internalType":"int128"}],"stateMutability":"nonpayable"},{"type":"function","name":"beforeAddLiquidity","inputs":[{"name":"","type":"address","internalType":"address"},{"name":"key","type":"tuple","internalType":"struct PoolKey","components":[{"name":"currency0","type":"address","internalType":"Currency"},{"name":"currency1","type":"address","internalType":"Currency"},{"name":"fee","type":"uint24","internalType":"uint24"},{"name":"tickSpacing","type":"int24","internalType":"int24"},{"name":"hooks","type":"address","internalType":"contract IHooks"}]},{"name":"","type":"tuple","internalType":"struct IPoolManager.ModifyLiquidityParams","components":[{"name":"tickLower","type":"int24","internalType":"int24"},{"name":"tickUpper","type":"int24","internalType":"int24"},{"name":"liquidityDelta","type":"int256","internalType":"int256"},{"name":"salt","type":"bytes32","internalType":"bytes32"}]},{"name":"","type":"bytes","internalType":"bytes"}],"outputs":[{"name":"","type":"bytes4","internalType":"bytes4"}],"stateMutability":"nonpayable"},{"type":"function","name":"beforeDonate","inputs":[{"name":"","type":"address","internalType":"address"},{"name":"","type":"tuple","internalType":"struct PoolKey","components":[{"name":"currency0","type":"address","internalType":"Currency"},{"name":"currency1","type":"address","internalType":"Currency"},{"name":"fee","type":"uint24","internalType":"uint24"},{"name":"tickSpacing","type":"int24","internalType":"int24"},{"name":"hooks","type":"address","internalType":"contract IHooks"}]},{"name":"","type":"uint256","internalType":"uint256"},{"name":"","type":"uint256","internalType":"uint256"},{"name":"","type":"bytes","internalType":"bytes"}],"outputs":[{"name":"","type":"bytes4","internalType":"bytes4"}],"stateMutability":"nonpayable"},{"type":"function","name":"beforeInitialize","inputs":[{"name":"","type":"address","internalType":"address"},{"name":"key","type":"tuple","internalType":"struct PoolKey","components":[{"name":"currency0","type":"address","internalType":"Currency"},{"name":"currency1","type":"address","internalType":"Currency"},{"name":"fee","type":"uint24","internalType":"uint24"},{"name":"tickSpacing","type":"int24","internalType":"int24"},{"name":"hooks","type":"address","internalType":"contract IHooks"}]},{"name":"","type":"uint160","internalType":"uint160"},{"name":"","type":"bytes","internalType":"bytes"}],"outputs":[{"name":"","type":"bytes4","internalType":"bytes4"}],"stateMutability":"nonpayable"},{"type":"function","name":"beforeRemoveLiquidity","inputs":[{"name":"","type":"address","internalType":"address"},{"name":"","type":"tuple","internalType":"struct PoolKey","components":[{"name":"currency0","type":"address","internalType":"Currency"},{"name":"currency1","type":"address","internalType":"Currency"},{"name":"fee","type":"uint24","internalType":"uint24"},{"name":"tickSpacing","type":"int24","internalType":"int24"},{"name":"hooks","type":"address","internalType":"contract IHooks"}]},{"name":"","type":"tuple","internalType":"struct IPoolManager.ModifyLiquidityParams","components":[{"name":"tickLower","type":"int24","internalType":"int24"},{"name":"tickUpper","type":"int24","internalType":"int24"},{"name":"liquidityDelta","type":"int256","internalType":"int256"},{"name":"salt","type":"bytes32","internalType":"bytes32"}]},{"name":"","type":"bytes","internalType":"bytes"}],"outputs":[{"name":"","type":"bytes4","internalType":"bytes4"}],"stateMutability":"nonpayable"},{"type":"function","name":"beforeSwap","inputs":[{"name":"","type":"address","internalType":"address"},{"name":"key","type":"tuple","internalType":"struct PoolKey","components":[{"name":"currency0","type":"address","internalType":"Currency"},{"name":"currency1","type":"address","internalType":"Currency"},{"name":"fee","type":"uint24","internalType":"uint24"},{"name":"tickSpacing","type":"int24","internalType":"int24"},{"name":"hooks","type":"address","internalType":"contract IHooks"}]},{"name":"","type":"tuple","internalType":"struct IPoolManager.SwapParams","components":[{"name":"zeroForOne","type":"bool","internalType":"bool"},{"name":"amountSpecified","type":"int256","internalType":"int256"},{"name":"sqrtPriceLimitX96","type":"uint160","internalType":"uint160"}]},{"name":"","type":"bytes","internalType":"bytes"}],"outputs":[{"name":"","type":"bytes4","internalType":"bytes4"},{"name":"","type":"int256","internalType":"BeforeSwapDelta"},{"name":"","type":"uint24","internalType":"uint24"}],"stateMutability":"nonpayable"},{"type":"function","name":"claimTokens","inputs":[{"name":"token","type":"address","internalType":"Currency"},{"name":"to","type":"address","internalType":"address"},{"name":"amountRequested","type":"uint256","internalType":"uint256"}],"outputs":[{"name":"amountTransferred","type":"uint256","internalType":"uint256"}],"stateMutability":"nonpayable"},{"type":"function","name":"executeTWAMMOrders","inputs":[{"name":"key","type":"tuple","internalType":"struct PoolKey","components":[{"name":"currency0","type":"address","internalType":"Currency"},{"name":"currency1","type":"address","internalType":"Currency"},{"name":"fee","type":"uint24","internalType":"uint24"},{"name":"tickSpacing","type":"int24","internalType":"int24"},{"name":"hooks","type":"address","internalType":"contract IHooks"}]}],"outputs":[],"stateMutability":"nonpayable"},{"type":"function","name":"expirationInterval","inputs":[],"outputs":[{"name":"","type":"uint256","internalType":"uint256"}],"stateMutability":"view"},{"type":"function","name":"getHookPermissions","inputs":[],"outputs":[{"name":"","type":"tuple","internalType":"struct Hooks.Permissions","components":[{"name":"beforeInitialize","type":"bool","internalType":"bool"},{"name":"afterInitialize","type":"bool","internalType":"bool"},{"name":"beforeAddLiquidity","type":"bool","internalType":"bool"},{"name":"afterAddLiquidity","type":"bool","internalType":"bool"},{"name":"beforeRemoveLiquidity","type":"bool","internalType":"bool"},{"name":"afterRemoveLiquidity","type":"bool","internalType":"bool"},{"name":"beforeSwap","type":"bool","internalType":"bool"},{"name":"afterSwap","type":"bool","internalType":"bool"},{"name":"beforeDonate","type":"bool","internalType":"bool"},{"name":"afterDonate","type":"bool","internalType":"bool"},{"name":"beforeSwapReturnDelta","type":"bool","internalType":"bool"},{"name":"afterSwapReturnDelta","type":"bool","internalType":"bool"},{"name":"afterAddLiquidityReturnDelta","type":"bool","internalType":"bool"},{"name":"afterRemoveLiquidityReturnDelta","type":"bool","internalType":"bool"}]}],"stateMutability":"pure"},{"type":"function","name":"getOrder","inputs":[{"name":"poolKey","type":"tuple","internalType":"struct PoolKey","components":[{"name":"currency0","type":"address","internalType":"Currency"},{"name":"currency1","type":"address","internalType":"Currency"},{"name":"fee","type":"uint24","internalType":"uint24"},{"name":"tickSpacing","type":"int24","internalType":"int24"},{"name":"hooks","type":"address","internalType":"contract IHooks"}]},{"name":"orderKey","type":"tuple","internalType":"struct ITWAMM.OrderKey","components":[{"name":"owner","type":"address","internalType":"address"},{"name":"expiration","type":"uint160","internalType":"uint160"},{"name":"zeroForOne","type":"bool","internalType":"bool"}]}],"outputs":[{"name":"","type":"tuple","internalType":"struct ITWAMM.Order","components":[{"name":"sellRate","type":"uint256","internalType":"uint256"},{"name":"earningsFactorLast","type":"uint256","internalType":"uint256"}]}],"stateMutability":"view"},{"type":"function","name":"getOrderPool","inputs":[{"name":"key","type":"tuple","internalType":"struct PoolKey","components":[{"name":"currency0","type":"address","internalType":"Currency"},{"name":"currency1","type":"address","internalType":"Currency"},{"name":"fee","type":"uint24","internalType":"uint24"},{"name":"tickSpacing","type":"int24","internalType":"int24"},{"name":"hooks","type":"address","internalType":"contract IHooks"}]},{"name":"zeroForOne","type":"bool","internalType":"bool"}],"outputs":[{"name":"sellRateCurrent","type":"uint256","internalType":"uint256"},{"name":"earningsFactorCurrent","type":"uint256","internalType":"uint256"}],"stateMutability":"view"},{"type":"function","name":"lastVirtualOrderTimestamp","inputs":[{"name":"key","type":"bytes32","internalType":"PoolId"}],"outputs":[{"name":"","type":"uint256","internalType":"uint256"}],"stateMutability":"view"},{"type":"function","name":"poolManager","inputs":[],"outputs":[{"name":"","type":"address","internalType":"contract IPoolManager"}],"stateMutability":"view"},{"type":"function","name":"submitOrder","inputs":[{"name":"key","type":"tuple","internalType":"struct PoolKey","components":[{"name":"currency0","type":"address","internalType":"Currency"},{"name":"currency1","type":"address","internalType":"Currency"},{"name":"fee","type":"uint24","internalType":"uint24"},{"name":"tickSpacing","type":"int24","internalType":"int24"},{"name":"hooks","type":"address","internalType":"contract IHooks"}]},{"name":"orderKey","type":"tuple","internalType":"struct ITWAMM.OrderKey","components":[{"name":"owner","type":"address","internalType":"address"},{"name":"expiration","type":"uint160","internalType":"uint160"},{"name":"zeroForOne","type":"bool","internalType":"bool"}]},{"name":"amountIn","type":"uint256","internalType":"uint256"}],"outputs":[{"name":"orderId","type":"bytes32","internalType":"bytes32"}],"stateMutability":"nonpayable"},{"type":"function","name":"tokensOwed","inputs":[{"name":"","type":"address","internalType":"Currency"},{"name":"","type":"address","internalType":"address"}],"outputs":[{"name":"","type":"uint256","internalType":"uint256"}],"stateMutability":"view"},{"type":"function","name":"unlockCallback","inputs":[{"name":"data","type":"bytes","internalType":"bytes"}],"outputs":[{"name":"","type":"bytes","internalType":"bytes"}],"stateMutability":"nonpayable"},{"type":"function","name":"updateOrder","inputs":[{"name":"key","type":"tuple","internalType":"struct PoolKey","components":[{"name":"currency0","type":"address","internalType":"Currency"},{"name":"currency1","type":"address","internalType":"Currency"},{"name":"fee","type":"uint24","internalType":"uint24"},{"name":"tickSpacing","type":"int24","internalType":"int24"},{"name":"hooks","type":"address","internalType":"contract IHooks"}]},{"name":"orderKey","type":"tuple","internalType":"struct ITWAMM.OrderKey","components":[{"name":"owner","type":"address","internalType":"address"},{"name":"expiration","type":"uint160","internalType":"uint160"},{"name":"zeroForOne","type":"bool","internalType":"bool"}]},{"name":"amountDelta","type":"int256","internalType":"int256"}],"outputs":[{"name":"tokens0Owed","type":"uint256","internalType":"uint256"},{"name":"tokens1Owed","type":"uint256","internalType":"uint256"}],"stateMutability":"nonpayable"},{"type":"event","name":"SubmitOrder","inputs":[{"name":"poolId","type":"bytes32","indexed":true,"internalType":"PoolId"},{"name":"owner","type":"address","indexed":true,"internalType":"address"},{"name":"expiration","type":"uint160","indexed":false,"internalType":"uint160"},{"name":"zeroForOne","type":"bool","indexed":false,"internalType":"bool"},{"name":"sellRate","type":"uint256","indexed":false,"internalType":"uint256"},{"name":"earningsFactorLast","type":"uint256","indexed":false,"internalType":"uint256"}],"anonymous":false},{"type":"event","name":"UpdateOrder","inputs":[{"name":"poolId","type":"bytes32","indexed":true,"internalType":"PoolId"},{"name":"owner","type":"address","indexed":true,"internalType":"address"},{"name":"expiration","type":"uint160","indexed":false,"internalType":"uint160"},{"name":"zeroForOne","type":"bool","indexed":false,"internalType":"bool"},{"name":"sellRate","type":"uint256","indexed":false,"internalType":"uint256"},{"name":"earningsFactorLast","type":"uint256","indexed":false,"internalType":"uint256"}],"anonymous":false},{"type":"error","name":"CannotModifyCompletedOrder","inputs":[{"name":"orderKey","type":"tuple","internalType":"struct ITWAMM.OrderKey","components":[{"name":"owner","type":"address","internalType":"address"},{"name":"expiration","type":"uint160","internalType":"uint160"},{"name":"zeroForOne","type":"bool","internalType":"bool"}]}]},{"type":"error","name":"ExpirationLessThanBlocktime","inputs":[{"name":"expiration","type":"uint256","internalType":"uint256"}]},{"type":"error","name":"ExpirationNotOnInterval","inputs":[{"name":"expiration","type":"uint256","internalType":"uint256"}]},{"type":"error","name":"HookNotImplemented","inputs":[]},{"type":"error","name":"InvalidAmountDelta","inputs":[{"name":"orderKey","type":"tuple","internalType":"struct ITWAMM.OrderKey","components":[{"name":"owner","type":"address","internalType":"address"},{"name":"expiration","type":"uint160","internalType":"uint160"},{"name":"zeroForOne","type":"bool","internalType":"bool"}]},{"name":"unsoldAmount","type":"uint256","internalType":"uint256"},{"name":"amountDelta","type":"int256","internalType":"int256"}]},{"type":"error","name":"InvalidPool","inputs":[]},{"type":"error","name":"LockFailure","inputs":[]},{"type":"error","name":"MustBeOwner","inputs":[{"name":"owner","type":"address","internalType":"address"},{"name":"currentAccount","type":"address","internalType":"address"}]},{"type":"error","name":"NotInitialized","inputs":[]},{"type":"error","name":"NotPoolManager","inputs":[]},{"type":"error","name":"NotSelf","inputs":[]},{"type":"error","name":"OrderAlreadyExists","inputs":[{"name":"orderKey","type":"tuple","internalType":"struct ITWAMM.OrderKey","components":[{"name":"owner","type":"address","internalType":"address"},{"name":"expiration","type":"uint160","internalType":"uint160"},{"name":"zeroForOne","type":"bool","internalType":"bool"}]}]},{"type":"error","name":"OrderDoesNotExist","inputs":[{"name":"orderKey","type":"tuple","internalType":"struct ITWAMM.OrderKey","components":[{"name":"owner","type":"address","internalType":"address"},{"name":"expiration","type":"uint160","internalType":"uint160"},{"name":"zeroForOne","type":"bool","internalType":"bool"}]}]},{"type":"error","name":"SellRateCannotBeZero","inputs":[]}],"bytecode":{"object":"0x60c0604052346102d357604051601f61757738819003918201601f19168301916001600160401b038311848410176102d7578084926060946040528339810103126102d3578051906001600160a01b03821682036102d357604060208201519101519060018060a01b038216928383036102d35760805260a0525f6101a06100856102eb565b8281528260208201528260408201528260608201528260808201528260a08201528260c08201528260e0820152826101008201528261012082015282610140820152826101608201528261018082015201525f6101a06100e36102eb565b60018152826020820152600160408201528260608201528260808201528260a0820152600160c08201528260e08201528261010082015282610120820152826101408201528261016082015282610180820152015261200081161515600114908115916102c5575b81156102b3575b81156102a5575b8115610297575b8115610289575b8115610278575b811561026b575b811561025e575b8115610251575b8115610244575b8115610237575b811561022a575b811561021d575b5061020b5760405161726b908161030c82396080518181816107a2015281816108820152818161094f01528181610b66015281816113650152818161150401528181611e3901528181611ef801526127c7015260a0518181816110e101528181611d2601526121010152f35b630732d7b560e51b5f5260045260245ffd5b600191501615155f61019f565b6002811615159150610198565b6004811615159150610191565b600881161515915061018a565b6010811615159150610183565b602081161515915061017c565b6040811615159150610175565b60016080821615151415915061016e565b610100811615159150610167565b610200811615159150610160565b610400811615159150610159565b60016108008216151514159150610152565b61100081161515915061014b565b5f80fd5b634e487b7160e01b5f52604160045260245ffd5b604051906101c082016001600160401b038111838210176102d75760405256fe60806040526004361015610011575f80fd5b5f3560e01c8062e7b1be1461016957806321d0ee7014610164578063259982e51461015f57806327ac08811461015a5780633440d82014610155578063575e24b4146101505780635a2a81001461013c5780635f65a2951461014b5780636fc389ae1461014657806386fd4fdc146101415780638db2b6521461013c57806391dd7346146101375780639d544ca8146101325780639fc314c81461012d578063a910f80f14610128578063b47b2fb114610123578063b6a8b0fa1461010a578063c01f96061461011e578063c4e833ce14610119578063ccf4b24714610114578063dc4c90d31461010f5763e1b4af691461010a575f80fd5b611074565b611346565b6112a8565b6111bf565b6110ca565b611022565b610fb5565b610ec4565b610d3e565b610b32565b6109a8565b610a93565b610a32565b610a13565b6108f2565b610825565b6107fc565b610785565b610763565b610432565b634e487b7160e01b5f52604160045260245ffd5b60a0810190811067ffffffffffffffff82111761019e57604052565b61016e565b6060810190811067ffffffffffffffff82111761019e57604052565b6101c0810190811067ffffffffffffffff82111761019e57604052565b6040810190811067ffffffffffffffff82111761019e57604052565b90601f8019910116810190811067ffffffffffffffff82111761019e57604052565b6040519061022a6101c0836101f8565b565b6040519061022a6040836101f8565b6040519061022a6060836101f8565b6040519061022a60a0836101f8565b6040519061022a6080836101f8565b6040519061022a60c0836101f8565b6001600160a01b0381160361028857565b5f80fd5b359062ffffff8216820361028857565b60e435908160020b820361028857565b35908160020b820361028857565b60a090600319011261028857604051906102d382610182565b816004356102e081610277565b81526024356102ee81610277565b602082015260443562ffffff811681036102885760408201526064358060020b810361028857606082015260806084359161032883610277565b0152565b91908260a09103126102885760405161034481610182565b6080808294803561035481610277565b8452602081013561036481610277565b60208501526103756040820161028c565b6040850152610386606082016102ac565b606085015201359161032883610277565b8015150361028857565b60609060a319011261028857604051906103ba826101a3565b8160a4356103c781610277565b815260c4356103d581610277565b6020820152604060e4359161032883610397565b919082606091031261028857604051610401816101a3565b6040808294803561041181610277565b8452602081013561042181610277565b602085015201359161032883610397565b34610288576101203660031901126102885761044d366102ba565b610456366103a1565b61010435915f905f926040516020810190610483816104758685611389565b03601f1981018352826101f8565b519020916104ab868361049d865f525f60205260405f2090565b6104a6856114fd565b6117c0565b939160408694929401976104bf8951151590565b1561067b57926105086001600160a01b0396936105027f0419b3b20aa8f170fc09bc80fa2437166bce38232cb28c36a035b65c79742a09999794610608976113eb565b9b6113eb565b9a5b61055961053861052184516001600160a01b031690565b6001600160a01b03165f52600160205260405f2090565b87516001600160a01b03165b6001600160a01b03165f5260205260405f2090565b6105648c82546113eb565b905560208201918c61059e61059661058661052187516001600160a01b031690565b8a516001600160a01b0316610544565b9182546113eb565b90555f8213610620575b5050506105da6105d360206105c487516001600160a01b031690565b9601516001600160a01b031690565b9851151590565b604080516001600160a01b03909a168a5290151560208a015288015260608701529116939081906080820190565b0390a3604080519182526020820192909252f35b0390f35b61065a9261062e8c51151590565b1561066257505161064f906001600160a01b03165b6001600160a01b031690565b309088339116611ac2565b5f80806105a8565b5161067691506001600160a01b0316610643565b61064f565b509750927f0419b3b20aa8f170fc09bc80fa2437166bce38232cb28c36a035b65c79742a099492610608926001600160a01b0395999a61050a565b60a090602319011261028857602490565b60a090600319011261028857600490565b9181601f840112156102885782359167ffffffffffffffff8311610288576020838186019501011161028857565b906101606003198301126102885760043561072081610277565b9160a060231982011261028857602491608060c3198301126102885760c491610144359067ffffffffffffffff82116102885761075f916004016106d8565b9091565b346102885761077136610706565b5050505050630a85dc2960e01b5f5260045ffd5b346102885761079336610706565b50505090506001600160a01b037f00000000000000000000000000000000000000000000000000000000000000001633036107ed576107d66107db91369061032c565b6114fd565b60405163259982e560e01b8152602090f35b63570c108560e11b5f5260045ffd5b34610288576020366003190112610288576004355f525f602052602060405f2054604051908152f35b346102885761010036600319011261028857610842600435610277565b61084b366106b6565b61085660c435610277565b60e43567ffffffffffffffff8111610288576108769036906004016106d8565b50506001600160a01b037f00000000000000000000000000000000000000000000000000000000000000001633036107ed576108b66108bb91369061032c565b611b7d565b4290556040516301a206c160e51b8152602090f35b60609060c31901126102885760c490565b60609060a31901126102885760a490565b34610288576101403660031901126102885761090f600435610277565b610918366106b6565b610921366108d0565b506101243567ffffffffffffffff8111610288576109439036906004016106d8565b50506001600160a01b037f00000000000000000000000000000000000000000000000000000000000000001633036107ed576107d661098391369061032c565b6040518061061c81905f604060608401936315d7892d60e21b81528260208201520152565b3461028857610180366003190112610288576004356109c681610277565b5060a03660231901126102885760803660c3190112610288576101643567ffffffffffffffff811161028857610a009036906004016106d8565b5050630a85dc2960e01b5f908152600490fd5b346102885760a036600319011261028857610a306107d6366102ba565b005b34610288576040366003190112610288576020610a8a600435610a5481610277565b6001600160a01b0360243591610a6983610277565b165f526001835260405f20906001600160a01b03165f5260205260405f2090565b54604051908152f35b346102885760c036600319011261028857610aad366106c7565b610ac76108b660a43592610ac084610397565b369061032c565b9015610aea5760036001820154910154905b604080519182526020820192909252f35b6007600582015491015490610ad9565b805180835260209291819084018484015e5f828201840152601f01601f1916010190565b906020610b2f928181520190610afa565b90565b346102885760203660031901126102885760043567ffffffffffffffff811161028857610b639036906004016106d8565b907f0000000000000000000000000000000000000000000000000000000000000000906001600160a01b038216928333036107ed576020610bab83610bd4935f950190611f92565b929095610bb6611a4d565b604051958680948193633cf3645360e21b8352888c60048501611ff2565b03925af1918215610d39575f92610d04575b505115155b15610c96578060801d5f81600f0b12610c57575b505f81600f0b13610c26575b5050505b61061c610c1a611a4d565b60405191829182610b1e565b6001600160801b03610c456020610c4f9501516001600160a01b031690565b9116913091612a89565b5f8080610c0b565b610c9090610c87610c7b610c7b610c7588516001600160a01b031690565b93612079565b6001600160801b031690565b908430916128b6565b5f610bff565b80600f0b5f8112610cdd575b5060801d5f81600f0b13610cb9575b505050610c0f565b6001600160801b03610c45610cd594516001600160a01b031690565b5f8080610cb1565b610cfe90610c87610c7b610c7b610c7560208901516001600160a01b031690565b5f610ca2565b610beb919250610d2b9060203d602011610d32575b610d2381836101f8565b810190611bea565b9190610be6565b503d610d19565b6114f2565b34610288576101203660031901126102885761061c610d5c366106c7565b610e18610d68366103a1565b7ffaaa07ce082dc5fd8da3b5871f3bea299c149b02540be2d1c9169e94a8be84846001600160a01b036101043592610e9c6040516020810190610daf816104758b8561167e565b51902094610dc4865f525f60205260405f2090565b90610dd26107d6368b61032c565b6001610e6b6020860195610e39610dff610df389516001600160a01b031690565b8a429116038096611704565b94610e0b868489612099565b9d604084019d8e51151590565b15610eaf57610643610e2991611713565b905b86029030908b339116611ac2565b610e65610e5e610e5083516001600160a01b031690565b98516001600160a01b031690565b9b51151590565b94612259565b0154604080516001600160a01b03909a168a5292151560208a01529188015260608701529116939081906080820190565b0390a36040519081529081906020820190565b6106436020610ebe9201611713565b90610e2b565b3461028857606036600319011261028857600435610ee181610277565b602435610eed81610277565b604435906001600160a01b03610f0284612271565b931692835f526001602052610f2a60405f20336001600160a01b03165f5260205260405f2090565b549280151580610fac575b610fa4575b50828110610f9c575b50825f526001602052610f6a3360405f20906001600160a01b03165f5260205260405f2090565b805491838303928311610f975761061c94610f87938593556122d7565b6040519081529081906020820190565b6113d7565b91505f610f43565b92505f610f3a565b50838110610f35565b346102885761012036600319011261028857610fd2600435610277565b610fdb366106b6565b50610fe760c435610277565b610fef61029c565b506101043567ffffffffffffffff8111610288576110119036906004016106d8565b5050630a85dc2960e01b5f5260045ffd5b34610288576101603660031901126102885761103f600435610277565b611048366106b6565b50611052366108d0565b506101443567ffffffffffffffff8111610288576110119036906004016106d8565b34610288576101203660031901126102885760043561109281610277565b5060a0366023190112610288576101043567ffffffffffffffff811161028857610a009036906004016106d8565b5f91031261028857565b34610288575f3660031901126102885760206040517f00000000000000000000000000000000000000000000000000000000000000008152f35b61022a909291926101a0806101c083019561112184825115159052565b60208181015115159085015260408181015115159085015260608181015115159085015260808181015115159085015260a08181015115159085015260c08181015115159085015260e081810151151590850152610100818101511515908501526101208181015115159085015261014081810151151590850152610160818101511515908501526101808181015115159085015201511515910152565b34610288575f366003190112610288575f6101a06040516111df816101bf565b8281528260208201528260408201528260608201528260808201528260a08201528260c08201528260e08201528261010082015282610120820152826101408201528261016082015282610180820152015261061c61123c61021a565b600181525f6020820152600160408201525f60608201525f60808201525f60a082015261126c60c0820160019052565b5f60e08201525f6101008201525f6101208201525f6101408201525f6101608201525f6101808201525f6101a082015260405191829182611104565b34610288576101003660031901126102885761061c61130f6112c9366106c7565b6112d2366108e1565b906112db61172a565b506040516112f18161047560208201948561167e565b5190205f525f60205261130960405f209136906103e9565b90612259565b60016040519161131e836101dc565b8054835201546020820152604051918291829190916020806040830194805184520151910152565b34610288575f3660031901126102885760206040516001600160a01b037f0000000000000000000000000000000000000000000000000000000000000000168152f35b61022a9092919260a08101936001600160a01b036080809282815116855282602082015116602086015262ffffff6040820151166040860152606081015160020b6060860152015116910152565b634e487b7160e01b5f52601160045260245ffd5b91908201809211610f9757565b9160a061022a92949361144d816101008101976001600160a01b036080809282815116855282602082015116602086015262ffffff6040820151166040860152606081015160020b6060860152015116910152565b01906001600160a01b036040809280511515855260208101516020860152015116910152565b67ffffffffffffffff811161019e57601f01601f191660200190565b6020818303126102885780519067ffffffffffffffff8211610288570181601f82011215610288578051906114c382611473565b926114d160405194856101f8565b8284526020838301011161028857815f9260208093018386015e8301015290565b6040513d5f823e3d90fd5b60a08120907f0000000000000000000000000000000000000000000000000000000000000000906115806115318484611bf9565b50505093828461155261154b845f525f60205260405f2090565b9382611c7f565b9261157b61155e61022c565b6001600160a01b038a168152946001600160801b03166020860152565b611cfd565b9290936001600160a01b038416801515918261166a575b50506115a4575b50505050565b6001600160a01b0393611613611630936116015f966115cb6115c461023b565b9515158652565b7f7fffffffffffffffffffffffffffffffffffffffffffffffffffffffffffffff60208601526001600160a01b03166040850152565b610475604051938492602084016113f8565b836040519586809581946348c8949160e01b835260048301610b1e565b0393165af18015610d3957611648575b80808061159e565b611663903d805f833e61165b81836101f8565b81019061148f565b505f611640565b6001600160a01b0316141590505f80611597565b91909160806001600160a01b038160a084019582813561169d81610277565b1685528260208201356116af81610277565b16602086015262ffffff6116c56040830161028c565b1660408601526116d7606082016102ac565b60020b606086015201356116ea81610277565b16910152565b634e487b7160e01b5f52601260045260245ffd5b811561170e570490565b6116f0565b35610b2f81610277565b91908203918211610f9757565b60405190611737826101dc565b5f6020838281520152565b61022a909291926060810193604080916001600160a01b0381511684526001600160a01b03602082015116602085015201511515910152565b6080919493926117b78260a0810197604080916001600160a01b0381511684526001600160a01b03602082015116602085015201511515910152565b60608201520152565b9092915f925f926117d18682612259565b906117df6040880151151590565b15611a435760018101965b80516001600160a01b0316338103611a2457508254948515611a095780151580806119f0575b6119d55760028a01549961182d600187019889548d030260601c90565b9a809855602084019161184783516001600160a01b031690565b6001600160a01b0342911611156119b0575b611866575b505050505050565b90919293949897504261188361064384516001600160a01b031690565b0397895498808a025f19861461199d575b8561189e826123a2565b01905f821261197b5750906118b291611704565b985f85121561194a575050906118f988939260016118e1868d540394858454038455516001600160a01b031690565b9101906001600160a01b03165f5260205260405f2090565b9081540390555f03965b8161194157505061193691600961191c61192b93612354565b9101905f5260205260405f2090565b60015f918281550155565b5f808080808061185e565b55506119369050565b8994509160016118e1611970939c9594870394858454018455516001600160a01b031690565b908154019055611903565b876119998860405193849363513043ff60e11b85526004850161177b565b0390fd5b94506119a8856123a2565b5f0394611894565b6119d061192b6119bf87612354565b60098901905f5260205260405f2090565b611859565b604051630918b28960e01b8152806119998560048301611742565b506020830151426001600160a01b039091161115611810565b604051639044eb2760e01b8152806119998460048301611742565b63e2aaff7360e01b5f526001600160a01b03166004523360245260445ffd5b60058101966117ea565b60405190611a5c6020836101f8565b5f8252565b908160209103126102885751610b2f81610397565b15611a7d57565b60405162461bcd60e51b815260206004820152601460248201527f5452414e534645525f46524f4d5f4641494c45440000000000000000000000006044820152606490fd5b6040516323b872dd60e01b602082019081526001600160a01b0393841660248301529383166044820152606481019490945261022a935f9384939091849190611b0e8160848101610475565b5193165af13d15611b76573d611b2381611473565b90611b3160405192836101f8565b81523d5f602083013e5b81611b47575b50611a76565b8051801592508215611b5c575b50505f611b41565b611b6f9250602080918301019101611a61565b5f80611b54565b6060611b3b565b604051611bcb6020820180936001600160a01b036080809282815116855282602082015116602086015262ffffff6040820151166040860152606081015160020b6060860152015116910152565b60a08152611bda60c0826101f8565b5190205f525f60205260405f2090565b90816020910312610288575190565b6020906024611c106001600160a01b0395946123bb565b6040519586938492631e2eaeaf60e01b84526004840152165afa918215610d39575f92611c5e575b506001600160a01b038216918060a01c60020b9162ffffff808360b81c169260d01c1690565b611c7891925060203d602011610d3257610d2381836101f8565b905f611c38565b90611c89906123bb565b60038101809111610f97576001600160a01b039160246020926040519485938492631e2eaeaf60e01b84526004840152165afa8015610d39576001600160801b03915f91611cd657501690565b611cef915060203d602011610d3257610d2381836101f8565b1690565b811561170e570690565b92909192611d11611d0d826123db565b1590565b611f855781516001600160a01b0316938154907f000000000000000000000000000000000000000000000000000000000000000090611d62611d5c611d568486611cf3565b8461171d565b846113eb565b956001850196600586019060028701905b42811115611e7e575b5050611da69742861080611e6f575b611db8575b505050505050429055516001600160a01b031690565b906001600160a01b0380831691161191565b9691929394959654151580918192611e64575b5015611e065750611df994611dde610259565b948552426020860152420360408501526060840152846126ee565b905b5f8080808080611d90565b90611e379250611e5e95611e1861024a565b9586524260208701819052036040860152606085015215156080840152565b7f000000000000000000000000000000000000000000000000000000000000000084612464565b90611dfb565b90505415155f611dcb565b50611e79876123db565b611d8b565b611e908183905f5260205260405f2090565b5415801590611f6d575b611ebd575b850190611eae611d0d896123db565b611eb85790611d73565b611d7c565b9589989198541515808091611f63575b15611f255750611f1d91611edf610259565b91878352886020840152880360408301526060820152847f0000000000000000000000000000000000000000000000000000000000000000896126ee565b965b85611e9f565b611f5590611f5d93611f3561024a565b898152602081018b9052938a036040850152606084015215156080830152565b848489612464565b96611f1f565b5083541515611ecd565b505f8181526006890160205260409020541515611e9a565b925050504290555f905f90565b8082039291610100841261028857611fac6060918361032c565b93609f1901126102885760e060405191611fc5836101a3565b60a0810135611fd381610397565b835260c081013560208401520135611fea81610277565b604082015290565b61206b610b2f949361204483610120956001600160a01b036080809282815116855282602082015116602086015262ffffff6040820151166040860152606081015160020b6060860152015116910152565b8051151560a0840152602081015160c0840152604001516001600160a01b031660e0830152565b816101008201520190610afa565b600f0b6f7fffffffffffffffffffffffffffffff198114610f97575f0390565b9291906120ad81516001600160a01b031690565b336001600160a01b03821603611a24575083541561224a576020810180516001600160a01b03164281111561222f57508215612220576121276120f782516001600160a01b031690565b6001600160a01b037f00000000000000000000000000000000000000000000000000000000000000009116611cf3565b6122045761213482612354565b94600981019261214c8785905f5260205260405f2090565b546121e7579260026121cd936121a861218e8a95612171604061022a9b9a0151151590565b156121de57600101925b888454018455516001600160a01b031690565b60018301906001600160a01b03165f5260205260405f2090565b86815401905501546121b861022c565b9485526020850152905f5260205260405f2090565b906020600191805184550151910155565b6005019261217b565b6040516304a9e54d60e01b81529081906119999060048301611742565b51632990d56760e21b5f526001600160a01b031660045260245ffd5b637832636960e01b5f5260045ffd5b63cd87c18d60e01b5f526001600160a01b031660045260245ffd5b6321c4e35760e21b5f5260045ffd5b612264600992612354565b5f520160205260405f2090565b6001600160a01b03811661228457504790565b6040516370a0823160e01b815230600482015290602090829060249082906001600160a01b03165afa908115610d39575f916122be575090565b610b2f915060203d602011610d3257610d2381836101f8565b5f91826044926020956040519363a9059cbb60e01b8552600485015260248401525af13d15601f3d1160015f51141617161561230f57565b60405162461bcd60e51b815260206004820152600f60248201527f5452414e534645525f4641494c454400000000000000000000000000000000006044820152606490fd5b60405161238d602082018093604080916001600160a01b0381511684526001600160a01b03602082015116602085015201511515910152565b6060815261239c6080826101f8565b51902090565b905f82126123ac57565b6393dafdf160e01b5f5260045ffd5b60405160208101918252600660408201526040815261239c6060826101f8565b600181015415908115916123ed575090565b600591500154151590565b908160601b91808304600160601b1490151715610f9757565b81810292918115918404141715610f9757565b906001600160801b03809116911601906001600160801b038211610f9757565b906001600160801b03809116911603906001600160801b038211610f9757565b9290919261247061172a565b5060808201906124808251151590565b156126e257600101929491945b83549461249e604088015187612411565b935f945b606089016124db8151836124d160206124c284516001600160a01b031690565b9301516001600160801b031690565b8951151592612aeb565b906124e98286888451612b86565b9290156125fd57506125b661250d6125058460a089208a612d1f565b949050612dd1565b826125a76125348395518461252e60206124c284516001600160a01b031690565b91612c60565b95612567835161255f602061255083516001600160a01b031690565b9201516001600160801b031690565b978891612ce3565b956125728d51151590565b156125e35750825160200151612594916001600160801b039081169116612444565b6020835101906001600160801b03169052565b51906001600160a01b03169052565b865115159788156125dc5781905b0197156125d45750905b036124a2565b9050906125ce565b82906125c4565b6125f2610c7b6125f893612079565b90612424565b612594565b966126a89891965061265c949b99955060609a935061265792506126219051151590565b156126c2576126529061264c87518961264660206124c284516001600160a01b031690565b91612ce3565b906113eb565b6123f8565b611704565b602086019161266e8351885190611cf3565b6126ad576125a7925190916002830190815401809155815f526003830160205260405f20555f526001810160205260405f20548154039055565b015190565b6126bd9250600201908154019055565b6125a7565b6126529061264c87518961252e60206124c284516001600160a01b031690565b6005019294919461248d565b90919392936126fb61172a565b5061270960408601516123f8565b91600181019460058201935b60608801908151612732602061255083516001600160a01b031690565b895461276a89549261275a61274561024a565b8781526001600160a01b039096166020870152565b6001600160801b03166040850152565b6060830152608082015261277d816130f1565b61278a81888b8751612b86565b9290156127f45750506127ec9060208b01518451906127b46127aa610259565b93849060020b9052565b60208301528360408301526060820152867f0000000000000000000000000000000000000000000000000000000000000000876133ce565b925203612715565b909650606099949a98506126a897939550612812925086915061327c565b9190602088019061282682518a5190611cf3565b61289757612865906125a795835190916002830190815401809155815f526003830160205260405f20555f526001810160205260405f20548154039055565b5190916002830190815401809155815f526003830160205260405f20555f526001810160205260405f20548154039055565b6128ab91506126bd94600201908154019055565b600201908154019055565b9091906001600160a01b0381166129135750506001600160a01b0360046020926040519485938492630476982d60e21b8452165af18015610d39576128f85750565b6129109060203d602011610d3257610d2381836101f8565b50565b90916001600160a01b031691823b1561028857604051632961046560e21b81526001600160a01b03831660048201525f8160248183885af18015610d3957612a6f575b506001600160a01b0381163014612a05576040516323b872dd60e01b81526001600160a01b03918216600482015283821660248201526044810194909452602091849160649183915f91165af1908115610d39575f926020926129d8575b505b600460405180948193630476982d60e21b83525af18015610d39576128f85750565b6129f790833d85116129fe575b6129ef81836101f8565b810190611a61565b505f6129b4565b503d6129e5565b5060405163a9059cbb60e01b81526001600160a01b038381166004830152602482019490945292602091849160449183915f91165af1908115610d39575f92602092612a52575b506129b6565b612a6890833d85116129fe576129ef81836101f8565b505f612a4c565b80612a7d5f612a83936101f8565b806110c0565b5f612956565b9192906001600160a01b0316803b1561028857604051630b0d9c0960e01b81526001600160a01b03938416600482015293909216602484015260448301525f908290606490829084905af18015610d3957612ae15750565b5f61022a916101f8565b926001600160801b038216156001600160a01b0385161517612b795715612b1557610b2f9261357c565b906001600160a01b038111612b575760601b906001600160801b0316801561170e576001600160a01b039104915b16908101809111610f9757610b2f90614ec7565b612b73906001600160801b036001600160a01b03931690613a89565b91612b43565b634f2461b85f526004601cfd5b9093915f94612ba4612b9f84516001600160a01b031690565b613606565b946001600160a01b03612bca610643612bbc84613606565b96516001600160a01b031690565b9116105f935b8415612be6575b50505050612be157565b5f9250565b929650809350612c11919581612c4f575b60a0882090612c0a60608a015160020b90565b91886138da565b9290948396600187845f14612c41578560020b9060020b13155b95151514612c3c5792919091612bd0565b612bd7565b8560020b9060020b13612c2b565b5f190160020b612bf7565b60701b90565b906001600160a01b0381166001600160a01b03831611612cdd575b6001600160a01b038216928315612cd1577bffffffffffffffffffffffffffffffff0000000000000000000000006001600160a01b03612cc5948185169403169160601b16613b97565b90808206151591040190565b62bfc9215f526004601cfd5b90612c7b565b6001600160801b03600160601b916001600160a01b0380600195169116038060ff1d90810118931692612d168185613a40565b93091515160190565b9190612d2a906123bb565b60048101809111610f97576001600160a01b0392602092610475612d69612d8d946040519283918883019560020b869091604092825260208201520190565b519020604051948580948193631e2eaeaf60e01b8352600483019190602083019252565b0392165afa908115610d39575f91612db2575b506001600160801b038160801d911691565b612dcb915060203d602011610d3257610d2381836101f8565b5f612da0565b60020b908160ff1d82810118620d89e881116130eb5763ffffffff9192600182167001fffcb933bd6fad37aa2d162d1a59400102600160801b1891600281166130cf575b600481166130b3575b60088116613097575b6010811661307b575b6020811661305f575b60408116613043575b60808116613027575b610100811661300b575b6102008116612fef575b6104008116612fd3575b6108008116612fb7575b6110008116612f9b575b6120008116612f7f575b6140008116612f63575b6180008116612f47575b620100008116612f2b575b620200008116612f10575b620400008116612ef5575b6208000016612edc575b5f12612ed4575b0160201c90565b5f1904612ecd565b6b048a170391f7dc42444e8fa290910260801c90612ec6565b6d2216e584f5fa1ea926041bedfe9890920260801c91612ebc565b916e5d6af8dedb81196699c329225ee6040260801c91612eb1565b916f09aa508b5b7a84e1c677de54f3e99bc90260801c91612ea6565b916f31be135f97d08fd981231505542fcfa60260801c91612e9b565b916f70d869a156d2a1b890bb3df62baf32f70260801c91612e91565b916fa9f746462d870fdf8a65dc1f90e061e50260801c91612e87565b916fd097f3bdfd2022b8845ad8f792aa58250260801c91612e7d565b916fe7159475a2c29b7443b29c7fa6e889d90260801c91612e73565b916ff3392b0822b70005940c7a398e4b70f30260801c91612e69565b916ff987a7253ac413176f2b074cf7815e540260801c91612e5f565b916ffcbe86c7900a88aedcffc83b479aa3a40260801c91612e55565b916ffe5dee046a99a2a811c461f1969c30530260801c91612e4b565b916fff2ea16466c96a3843ec78b326b528610260801c91612e42565b916fff973b41fa98c081472e6896dfb254c00260801c91612e39565b916fffcb9843d60f6159c9db58835c9266440260801c91612e30565b916fffe5caca7e10e4e61c3624eaa0941cd00260801c91612e27565b916ffff2e50f5f656932ef12357cf3c7fdcc0260801c91612e1e565b916ffff97272373d413259a46990580e213a0260801c91612e15565b82613bc0565b61324b613246610b2f92606081019061310a8251613c30565b613210613144608084019361320b61314961314461313961312b8951613c30565b9761313e6131398a836141c3565b614413565b98614a74565b613c9d565b946131fa613156876145bf565b936131e961316c6131678351613c30565b6145bf565b6131d86131ab613197610c7b604061319c61316761319761064360208c01516001600160a01b031690565b613c30565b9701516001600160801b031690565b956131c76131b761024a565b6001600160801b0319909a168a52565b6001600160801b0319166020890152565b6001600160801b0319166040870152565b6001600160801b0319166060850152565b6001600160801b0319166080830152565b614d16565b608081901c6f7fffffffffffffffffffffffffffffff16617fff60701b148015613258575b156132505750915b51905110614e0e565b614e5d565b614ec7565b90509161323d565b50617fff60701b608082901c6f7fffffffffffffffffffffffffffffff1611613235565b919091606081015161328d90613c30565b90608081015161329c90613c30565b916132a78184614a74565b926132b1916141c3565b6132ba90614413565b9381516132c690613c30565b6132cf906145bf565b9460208301516132e5906001600160a01b031690565b6001600160a01b03166132f790613c30565b613300906145bf565b916001600160a01b031661331390613c30565b61331c906145bf565b60409390930151613335906001600160801b0316613c30565b9361333e610268565b6001600160801b031990971687526001600160801b03191660208701526001600160801b03191660408601526001600160801b03191660608501526001600160801b03191660808401526001600160801b03191660a08301526133a082614edb565b6133a990613c9d565b6133b290614e5d565b916133bc90614f6f565b6133c590613c9d565b610b2f90614e5d565b91909392936133db61172a565b50845160020b6133ea90612dd1565b9485926060820194855190602082015161340a906001600160801b031690565b91516001600160a01b031690866001820192835492600501948386549d6001600160801b038f93169361343c94615016565b9a8b928a518051613453906001600160a01b031690565b6020909101516001600160801b03169061346b61024a565b9586526001600160a01b031660208601526001600160801b031660408501526060840152608083015261349d9161327c565b91906134ae91600201908154019055565b6134bd91600201908154019055565b60a09020905160020b906134d092612d1f565b835180519193925083916001600160a01b03166001600160a01b03166001600160a01b038416106001600160801b03613552956135429460209361356f575b505f81600f0b125f1461355757838301516001600160801b0316905f038216900316915b01906001600160801b03169052565b8251906001600160a01b03169052565b519190565b838301516001600160801b0316908216011691613533565b90505f03600f0b5f61350f565b9082156136005760601b7bffffffffffffffffffffffffffffffff00000000000000000000000016906001600160a01b031682810283810482146135e3575b50801561170e578104918201809211610f97576001600160a01b039180820615159104011690565b82018281106135bb57906001600160a01b039350611cef92613b97565b50905090565b73fffd8963efd1fc6a506488495d951d51639616826401000276a21982016001600160a01b0316116138b1576001600160a01b03166136458160201b90565b806001600160801b03811160071b90811c67ffffffffffffffff811160061b90811c63ffffffff811160051b90811c61ffff811160041b90811c9060ff821160031b91821c92600f841160021b93841c94600160038711811b96871c1196171717171717179060808210155f146138a657607e1982011c905b607f190160401b90800280607f1c8160ff1c1c800280607f1c8160ff1c1c800280607f1c8160ff1c1c800280607f1c8160ff1c1c800280607f1c8160ff1c1c800280607f1c8160ff1c1c80029081607f1c8260ff1c1c80029283607f1c8460ff1c1c80029485607f1c8660ff1c1c80029687607f1c8860ff1c1c80029889607f1c8a60ff1c1c80029a8b607f1c8c60ff1c1c80029c8d80607f1c9060ff1c1c800260cd1c6604000000000000169d60cc1c6608000000000000169c60cb1c6610000000000000169b60ca1c6620000000000000169a60c91c6640000000000000169960c81c6680000000000000169860c71c670100000000000000169760c61c670200000000000000169660c51c670400000000000000169560c41c670800000000000000169460c31c671000000000000000169360c21c672000000000000000169260c11c674000000000000000169160c01c678000000000000000161717171717171717171717171717693627a301d71055774c85026f028f6481ab7f045a5af012a19d003aa91981016138549060801d90565b60020b906fdb2df09e81959a81455e260799a0632f0160801d60020b918260020b8260020b145f146138865750905090565b6001600160a01b0361389784612dd1565b16116138a1575090565b905090565b81607f031b906136be565b615121565b9060020b90811561170e5760020b0590565b9060020b90811561170e5760020b0790565b90936138e684846138b6565b92845f8260020b129182613a1b575b5050613a0e575b156139965761393161391e8360020b906101008260081d60010b920760ff1690565b95600160ff88161b80015f19019361513d565b1680158015949190613983579161397161396661396061397994613958613980989761522c565b60ff91031690565b60ff1690565b62ffffff1660020b90565b900360020b90565b0260020b90565b91565b5060ff1660020b900360020b0260020b91565b600191820160020b916139c490600884901d900b60ff610100850716955f19600160ff89161b01199361513d565b16801580159491906139f957916139f2613966613960613979946139eb613980989761519d565b0360ff1690565b0160020b90565b5060ff9081031660020b0160020b0260020b91565b915f190160020b916138fc565b613a30925090613a2a916138c8565b60020b90565b1515845f6138f5565b1561028857565b81810291905f1982820991838084109303928084039384600160601b11156102885714613a8057600160601b910990828211900360a01b910360601c1790565b50505060601c90565b908160601b905f19600160601b8409928280851094039380850394613aaf868511613a39565b14613b0d57600160601b82910981805f03168092046002816003021880820260020302808202600203028082026002030280820260020302808202600203028091026002030293600183805f03040190848311900302920304170290565b5091500490565b91818302915f19818509938380861095039480860395613b35878611613a39565b14613b8f579082910981805f03168092046002816003021880820260020302808202600203028082026002030280820260020302808202600203028091026002030293600183805f03040190848311900302920304170290565b505091500490565b929190613ba5828286613b14565b93821561170e5709613bb357565b9060010190811561028857565b6345c3193d60e11b5f5260020b60045260245ffd5b6002613be0816152b0565b906070821015613c1c57816070031b5b6001600160701b0316613fff90910160701b6001600160801b03161760801b6001600160801b03191690565b6070821115613bf057606f1982011c613bf0565b80613c3a57505f90565b80613c44826152b0565b916070831015613c805750816070031b6001600160701b0316613fff90910160701b6001600160801b03161760801b6001600160801b03191690565b60708311613c8f575b50613bf0565b606f1983011c90505f613c89565b608081901c617fff60f083901c16613cc2617fff61405f5b166001600160801b031690565b91617fff8203613d1f575050617fff03610b2f576001600160801b0319811661405f60f01b03613cef5790565b61405f60f01b81186001600160801b031916600160ff1b03613d155761405f60f01b1790565b5061ffff60ef1b90565b617fff8303613d5657505050600160801b600160ff1b038116613d46575061ffff60ef1b90565b600160ff1b1661405f60f01b1890565b6001600160701b03169080613ee157506001915b5f9080613ed457506001915b02918215613eb357610b2f93613dd1939092909101600160e11b8210613e935760e15b81810190614070821015613de157505f9392506001607f1b91508390505b9161405f60f01b1860801c1617176001600160801b031690565b60801b6001600160801b03191690565b6140e0821015613e26575050614070811015613e0957614070031c905b6001607f1b5f613db7565b6140708111613e1a575b5090613dfe565b61406f19011b5f613e13565b909392915061c0dd841115613e4b57505f92506001607f1b9050613db7617fff612c5a565b6001600160701b036001607f1b92826070613db794115f14613e7a57606f19011c5b16936140de190160701b90565b60708110613e89575b50613e6d565b6070031b5f613e83565b600160e01b8210613ea55760e0613d99565b613eae826152b0565b613d99565b50505061405f60f01b18600160ff1b1615613ed057600160ff1b90565b5f90565b91600160701b9150613d76565b9190600160701b1790613d6a565b608081901c617fff60f083901c16613f0b617fff613ffe613cb5565b91617fff8203613f88575050617fff03610b2f576001600160801b031981166f3ffe62e42fefa39ef35793c7673007e560801b03613f465790565b6f3ffe62e42fefa39ef35793c7673007e560801b81186001600160801b031916600160ff1b03613d15576f3ffe62e42fefa39ef35793c7673007e560801b1790565b617fff8303613fcd57505050600160801b600160ff1b038116613faf575061ffff60ef1b90565b600160ff1b166f3ffe62e42fefa39ef35793c7673007e560801b1890565b6001600160701b031690806141b557506001915b6d62e42fefa39ef35793c7673007e5908061419d57506001915b0291821561417257610b2f93613dd1939092909101600160e11b82106141525760e15b8181019061407082101561406457505f9392506001607f1b91506f3ffe62e42fefa39ef35793c7673007e560801b9050835b921860801c1617176001600160801b031690565b6140e08210156140bd5750506140708110156140a057614070031c905b6001607f1b6f3ffe62e42fefa39ef35793c7673007e560801b5f614050565b61407081116140b1575b5090614081565b61406f19011b5f6140aa565b909392915061c0dd8411156140f657505f92506001607f1b90506f3ffe62e42fefa39ef35793c7673007e560801b614050617fff612c5a565b6140506001600160701b036001607f1b938360706f3ffe62e42fefa39ef35793c7673007e560801b95115f1461413957606f19011c5b16946140de190160701b90565b60708110614148575b5061412c565b6070031b5f614142565b600160e01b82106141645760e061401e565b61416d826152b0565b61401e565b5050506f3ffe62e42fefa39ef35793c7673007e560801b18600160ff1b1615613ed057600160ff1b90565b916e0162e42fefa39ef35793c7673007e59150613ffb565b9190600160701b1790613fe1565b90608082901c617fff60f084901c608084901c9291166141e9617fff60f086901c613cb5565b91617fff820361426d575050617fff14159050614246576001600160801b03198281169082160361421e57600160ff1b161890565b908082186001600160801b031916600160ff1b0361423a571790565b5061ffff60ef1b919050565b600160801b600160ff1b038116614263575061ffff60ef1b919050565b600160ff1b161890565b617fff839293145f1461429f575050505090600160801b600160ff1b038116155f14614263575061ffff60ef1b919050565b6001600160701b031691806143fc57506001600160701b036001935b1690806143ee57506001915b029182156143d757610b2f94613dd194939092909101600160e11b82106143b75760e15b8181019061407082101561430d57505f946001607f1b93509150849050614050565b6140e082101561436357505061407081101561433657614070031c916001607f1b905b5f614050565b614070819492941161434f575b506001607f1b90614330565b61406f19019290921b916001607f1b614343565b9092915061c0dd831115614387575050506001607f1b617fff926140505f94612c5a565b6001600160701b036001607f1b93959282607061405094115f1461413957606f19011c16946140de190160701b90565b600160e01b82106143c95760e06142eb565b6143d2826152b0565b6142eb565b50505018600160ff1b1615613ed057600160ff1b90565b9190600160701b17906142c7565b9291600160701b6001600160701b039117926142bb565b8060801c6001607f1b81115f14614430575061ffff60ef1b919050565b607081901c617fff1690617ffe19820161444957505090565b6001600160701b031691508061459857506001905b801561459257614477613fff6001841615930160011c90565b911561455e57600160701b81106145355760711b5b6144fd6144f66144ec6144e26144d86144ce6144c46144ba600160701b6144b38a60701c90565b0160011c90565b6144b3818a611704565b6144b38189611704565b6144b38188611704565b6144b38187611704565b6144b38186611704565b6144b38185611704565b8092611704565b81811061452d575b506001600160701b036001600160801b0361452281199460701b90565b1691161760801b1690565b90505f614505565b9061455660fe614544846152b0565b60e2031692831b92606f190160011c90565b90039061448c565b600160701b81106145715760701b61448c565b9061455660fe614580846152b0565b60e1031692831b92606f190160011c90565b50505f90565b90600160701b1761445e565b156145ab57565b634e487b7160e01b5f52600160045260245ffd5b5f608082901c617fff60f084901c166145dc617fff61405f613cb5565b91617fff82036145fd575050617fff14159050610b2f575061ffff60ef1b90565b9091617fff810361462b575050505f1461461b575061ffff60ef1b90565b61405f60f01b18600160ff1b1690565b919250905f90806147d257506001600160701b036001925b16836147bf5780614797575b9061465991611704565b918215613eb35791610b2f9391613dd19361467a6001606c1b8410156145a4565b600160731b83106147645761468e836152b0565b8181019061407184018211156146b7575050505050617fff906001607f1b613db75f9360701b90565b83613ffc8301105f146146db5750505050505f906001607f1b613db75f9360701b90565b83613f8c8301105f1461472b575050613ffc81018281111561470d575003613ffc011b906001607f1b613db75f612c5a565b821161471c575b505090613dfe565b9003613ffb19011c5f80614714565b613db79250926001600160701b03613f8d9296958560706001607f1b9711614759575b501695030160701b90565b606f19011c5f61474e565b600160721b831061477a5760ff60725b1661468e565b600160711b831061478e5760ff6071614774565b60ff6070614774565b9250614659906147a6846152b0565b60e20393841b926001946071199101019290915061464f565b6146599190600160701b1760721b611704565b9190506001600160701b03600160701b91614643565b613fff608082901c614800617fff60f085901c613cb5565b90617fff83036148305750617fff14159050614820575061ffff60ef1b90565b600160ff1b16613fff60f01b1890565b617fff820361486f575050506dffffffffffffffffffffffffffff60801b81161561485f575061ffff60ef1b90565b613fff60f01b18600160ff1b1690565b600160801b600160ff1b03841661489d57505050600160ff1b613fff60f01b9190911816617fff60f01b1790565b6001600160701b03169080614a6857506001905b5f83614a595780614a31575b906148c791611704565b918215614a145791610b2f9391613dd1936148e86001606c1b8410156145a4565b600160731b83106149e1576148fc836152b0565b81810190614071840182111561493f575050505050617fff906001607f1b6149255f9360701b90565b91613fff60f01b1860801c1617176001600160801b031690565b83613ffc8301105f146149635750505050505f906001607f1b6149255f9360701b90565b83613f8c8301105f146149b4575050613ffc810182811115614996575003613ffc011b905b6001607f1b6149255f612c5a565b82116149a5575b505090614988565b9003613ffb19011c5f8061499d565b6149259250926001600160701b03613f8d9296958560706001607f1b971161475957501695030160701b90565b600160721b83106149f75760ff60725b166148fc565b600160711b8310614a0b5760ff60716149f1565b60ff60706149f1565b505050613fff60f01b18600160ff1b1615613ed057600160ff1b90565b92506148c790614a40846152b0565b60e20393841b92600194607119910101929091506148bd565b506148c790600160e21b611704565b90600160701b176148b1565b90608082901c617fff60f084901c1690608083901c90614a9a617fff60f086901c613cb5565b91617fff8403614abd575050617fff14159050614263575061ffff60ef1b919050565b617fff839293145f14614afd57505050506dffffffffffffffffffffffffffff60801b811615614af3575061ffff60ef1b919050565b18600160ff1b1690565b600160801b600160ff1b038516614b415750505050600160801b600160ff1b038216614b2f575061ffff60ef1b919050565b617fff60f01b9118600160ff1b161790565b6001600160701b03169080614cff57506001600160701b036001925b1683614cec5780614cc4575b90614b7391611704565b9182156143d75791610b2f9491613dd19493614b956001606c1b8410156145a4565b600160731b8310614c9157614ba9836152b0565b818101906140718401821115614bd25750505050506001607f1b617fff926140505f9460701b90565b83613ffc8301105f14614bf65750505050506001607f1b5f926140505f9460701b90565b83613f8c8301105f14614c58575050613ffc810182811115614c29575003613ffc011b916001607f1b906140505f612c5a565b829095939510614c41575b50506001607f1b90614330565b9003613ffb19019290921c916001607f1b5f614c34565b6140509250926001600160701b036001607f1b95856070613f8d959a9711614c86575b501696030160701b90565b606f19011c5f614c7b565b600160721b8310614ca75760ff60725b16614ba9565b600160711b8310614cbb5760ff6071614ca1565b60ff6070614ca1565b9250614b7390614cd3846152b0565b60e20393841b9260019460711991010192909150614b69565b614b739190600160701b1760721b611704565b9190600160701b6001600160701b03911791614b5d565b610b2f90614dab614d6d614d58614d43614d2e613bd5565b60208601516001600160801b031916906141c3565b60408501516001600160801b031916906141c3565b60808401516001600160801b03191690614a74565b91614e09614df3614db183516001600160801b031916614dab60608601516001600160801b031916614da5600160ff1b821884615386565b92615386565b90614a74565b92516001600160801b031916614e037f3fff71547652b82fe1777d0ffda0d23a0000000000000000000000000000000091614dfd86614df8614df3868c6141c3565b6158ac565b61537a565b906141c3565b956141c3565b615386565b15614e33576001614e1e8261580f565b5f0b03610b2f5750651007c0009da960d21b90565b6001614e3e82615733565b5f0b03610b2f57506f204f7ffd8963efd1fc6a506488495d9560811b90565b60f081901c617fff169060801c613fff8210614592576001607f1b811015610288576001600160701b03600160701b91614e9b6140fe851115613a39565b16179061406f811015614eb05761406f031c90565b61406f8111614ebe575b5090565b61406e19011b90565b906001600160a01b0382169182036123ac57565b610b2f90614f636001600160801b031960208301511691614f4d614f26614f0d6001600160801b0319845116866141c3565b94614dfd6001600160801b031960a08601511691614413565b60808301516060840151614dfd91600160ff1b6001600160801b0319928316189116615386565b6040909101516001600160801b03191690614a74565b600160ff1b1890615386565b610b2f90614f636001600160801b0319825116916040615003614fd2614fa560208501966001600160801b031988511690614a74565b95614dfd614fcd6001600160801b031960a088015116926001600160801b0319905116614413565b6147e8565b614dfd614fec6001600160801b03196080870151166147e8565b614f636001600160801b03196060880151166147e8565b9101516001600160801b03191690614a74565b9261502390929192613c30565b9361502d90613c30565b916001600160a01b031661504090613c30565b906001600160a01b031661505390613c30565b9361505e8184614a74565b61506790614413565b61507090613c9d565b9261507a916141c3565b61508390614413565b9361508e8184615386565b9061509f90600160ff1b1884615386565b6150a891614a74565b916150b9600160ff1b831882615386565b916150c391615386565b6150cc91614a74565b6150d5916141c3565b6150de90617097565b6150e790613eef565b906150f190613c30565b6150fa916141c3565b90615103613bd5565b9061510d916141c3565b9061511790613c9d565b906133c591614a74565b6001600160a01b03906318521d4960e21b5f521660045260245ffd5b9190615148906123bb565b60058101809111610f97576001600160a01b0392602092610475612d69615187946040519283918883019560010b869091604092825260208201520190565b0392165afa908115610d39575f916122be575090565b8015610288576001811901167e1f0d1e100c1d070f090b19131c1706010e11080a1a141802121b1503160405601f6101e07f804040554300526644320000502061067405302602000010750620017611707760fc7fb6db6db6ddddddddd34d34d349249249210842108c6318c639ce739cffffffff860260f81c161b60f71c1692831c63d76453e004161a1790565b8015610288577f07060605060205040602030205040301060502050303040105050304000000006f8421084210842108cc6318c6db6d54be826001600160801b031060071b83811c67ffffffffffffffff1060061b1783811c63ffffffff1060051b1783811c61ffff1060041b1783811c60ff1060031b1792831c1c601f161a1790565b6152bb811515613a39565b5f90600160801b81101561536f575b80680100000000000000006002921015615363575b640100000000811015615357575b6201000081101561534b575b61010081101561533f575b6010811015615333575b6004811015615327575b10156153215790565b60010190565b9181019160021c615318565b6004928301921c61530e565b6008928301921c615304565b6010928301921c6152f9565b6020928301921c6152ed565b6040928301921c6152df565b60809150811c6152ca565b610b2f91600160ff1b18905b90608082901c617fff60f084901c1690608083901c6153ab617fff60f086901c613cb5565b92617fff81036153d657505050617fff03614eba576001600160801b0319828116911603613d155790565b909192617fff81969596145f146153ef57505050505090565b6001607f1b841015936001600160701b0316918061572557506001925b6001600160701b036001607f1b82101591169180155f14615718575060015b836154545750505050506001600160801b03198316600160ff1b14159150610b2f905057505f90565b8293949596979192155f146154875750505050506001600160801b03198316600160ff1b14159150610b2f905057505f90565b808603928781036155a0575060708313156154a6575050505050505090565b90919293949596505f83135f146155655750501c905b0190600160711b821015615559575b617fff81036154f0575050156154e7576001600160f01b031990565b617fff60f01b90565b610b2f92613dd19291600160701b83101561554857505f905b15615535576001600160801b036155256001607f1b9260701b90565b911617176001600160801b031690565b6001600160801b036155255f9260701b90565b90916001600160701b031691615509565b600191821c91016154cb565b9095949391606f1981121561557d5750505050505090565b909192939495505f8112615593575b50506154bc565b9093505f031c5f8061558c565b95949280949798505f919250135f146156f8575060011b915f1901935b60708213156156a25750506001915b8282106156995750035b8015615692576155e5816152b0565b6071810361564857506001600160701b0361560260019260011c90565b1691015b617fff8103615622575050156154e7576001600160f01b031990565b90613dd191610b2f935f14615535576001600160801b036155256001607f1b9260701b90565b9190607083101561568257826070038083115f14615675571b6001600160701b03169101606f1901615606565b5091505f19011b5f615606565b6001600160701b03169150615606565b5050505f90565b935090036155d6565b60018213156156bc575f1990810191011c600101916155cc565b9290606f198112156156d25750600191506155cc565b5f1981126156e1575b506155cc565b600191925f1901905f19905f03011c01905f6156db565b5f83969294961261570a575b506155bd565b5f1901945060011b5f615704565b91600160701b179161542b565b9291600160701b179161540c565b5f908060801c6f204f7ffd8963efd1fc6a506488495d9560811b6f7fffffffffffffffffffffffffffffff821692615772617fff60701b851115613a39565b61577c6001613a39565b6001600160801b03191614801581615801575b61579890613a39565b156157a257505090565b6001607f1b116157dd5781156157d6576f409efffb12c7dfa3f8d4a0c91092bb2a9150115f146157d1575f1990565b600190565b50505f1990565b6f409efffb12c7dfa3f8d4a0c91092bb2a9150115f146157fc57600190565b5f1990565b50617fff60701b831061578f565b5f9061581b6001613a39565b8060801c6f7fffffffffffffffffffffffffffffff811691615844617fff60701b841115613a39565b6001600160801b031916651007c0009da960d21b14808015906158a4575b61586b90613a39565b1561587557505090565b9091506001607f1b116158885750600190565b6f401f000276a40000000000000000000011156157fc57600190565b506001615862565b60801c6001607f1b8111906001600160701b03617fff6158d18361ffff9060701c1690565b16911690617fff81148061708e575b156158f2575061ffff60ef1b92915050565b61400d811115615907575050156154e7575f90565b613f7f81101561591e5750613fff60f01b92915050565b80617081575060015b613fef81111561706657613fee19011b5b818061704b575b614592578115908180617030575b61702357610b2f92613dd1926001600160801b0361596b8460801c90565b9316918061701a575b61700c575b6001607f1b91828116616ff4575b6f400000000000000000000000000000008116616fd7575b6f200000000000000000000000000000008116616fba575b6f100000000000000000000000000000008116616f9d575b6f080000000000000000000000000000008116616f80575b6f040000000000000000000000000000008116616f63575b6f020000000000000000000000000000008116616f46575b6f010000000000000000000000000000008116616f29575b6e8000000000000000000000000000008116616f0c575b6e4000000000000000000000000000008116616eef575b6e2000000000000000000000000000008116616ed2575b6e1000000000000000000000000000008116616eb5575b600160731b8116616e98575b600160721b8116616e7b575b600160711b8116616e5e575b600160701b8116616e41575b6d80000000000000000000000000008116616e24575b6d40000000000000000000000000008116616e07575b6d20000000000000000000000000008116616dea575b6001606c1b8116616dcd575b6d08000000000000000000000000008116616db0575b6d04000000000000000000000000008116616d93575b6d02000000000000000000000000008116616d76575b6d01000000000000000000000000008116616d59575b6c800000000000000000000000008116616d3c575b6c400000000000000000000000008116616d1f575b6c200000000000000000000000008116616d02575b6c100000000000000000000000008116616ce5575b6c080000000000000000000000008116616cc8575b6c040000000000000000000000008116616cab575b6c020000000000000000000000008116616c8e575b600160601b8116616c71575b6b8000000000000000000000008116616c54575b6b4000000000000000000000008116616c37575b6b2000000000000000000000008116616c1a575b6b1000000000000000000000008116616bfd575b6b0800000000000000000000008116616be0575b6b0400000000000000000000008116616bc3575b6b0200000000000000000000008116616ba6575b6b0100000000000000000000008116616b89575b6a80000000000000000000008116616b6c575b6a40000000000000000000008116616b4f575b6a20000000000000000000008116616b32575b6a10000000000000000000008116616b15575b6a08000000000000000000008116616af8575b6a04000000000000000000008116616adb575b6a02000000000000000000008116616abe575b6a01000000000000000000008116616aa1575b69800000000000000000008116616a84575b69400000000000000000008116616a67575b69200000000000000000008116616a4a575b69100000000000000000008116616a2d575b69080000000000000000008116616a10575b690400000000000000000081166169f3575b690200000000000000000081166169d6575b690100000000000000000081166169b9575b68800000000000000000811661699c575b68400000000000000000811661697f575b682000000000000000008116616962575b681000000000000000008116616945575b680800000000000000008116616928575b68040000000000000000811661690b575b6802000000000000000081166168ee575b6801000000000000000081166168d1575b67800000000000000081166168b4575b6740000000000000008116616897575b672000000000000000811661687a575b671000000000000000811661685d575b6708000000000000008116616840575b6704000000000000008116616823575b6702000000000000008116616806575b67010000000000000081166167e9575b668000000000000081166167cc575b664000000000000081166167af575b66200000000000008116616792575b66100000000000008116616775575b66080000000000008116616758575b6604000000000000811661673b575b6602000000000000811661671e575b66010000000000008116616701575b6580000000000081166166e4575b6540000000000081166166c7575b6520000000000081166166aa575b65100000000000811661668d575b650800000000008116616670575b650400000000008116616653575b650200000000008116616636575b650100000000008116616619575b64800000000081166165fc575b64400000000081166165df575b64200000000081166165c2575b64100000000081166165a5575b6408000000008116616588575b640400000000811661656b575b640200000000811661654e575b6401000000008116616531575b63800000008116616514575b634000000081166164f7575b632000000081166164da575b631000000081166164bd575b630800000081166164a0575b63040000008116616483575b63020000008116616466575b63010000008116616449575b62800000811661642c575b62400000811661640f575b6220000081166163f2575b6210000081166163d5575b6208000081166163b8575b62040000811661639b575b62020000811661637e575b620100008116616361575b6180008116616344575b6140008116616327575b612000811661630a575b61100081166162ed575b61080081166162d0575b61040081166162b3575b6102008116616296575b6101008116616279575b6080811661625c575b6040811661623f575b60208116616222575b60108116616205575b600881166161e7575b6004166161ca575b1561619057613fff6001600160701b0361617a61618393600f1c90565b16920160701b90565b176001600160801b031690565b613ffe82116161ba576001600160701b036161ae61618392600f1c90565b1691613fff0360701b90565b90613fee19011c6161835f612c5a565b907001000000000000000000000000000000010260801c9061615d565b70010000000000000000000000000000000490920260801c91616155565b9170010000000000000000000000000000000a0260801c9161614c565b917001000000000000000000000000000000150260801c91616143565b9170010000000000000000000000000000002b0260801c9161613a565b917001000000000000000000000000000000570260801c91616131565b917001000000000000000000000000000000b00260801c91616128565b917001000000000000000000000000000001610260801c9161611e565b917001000000000000000000000000000002c40260801c91616114565b9170010000000000000000000000000000058a0260801c9161610a565b91700100000000000000000000000000000b160260801c91616100565b9170010000000000000000000000000000162d0260801c916160f6565b91700100000000000000000000000000002c5b0260801c916160ec565b917001000000000000000000000000000058b80260801c916160e2565b9170010000000000000000000000000000b1710260801c916160d8565b917001000000000000000000000000000162e30260801c916160cd565b9170010000000000000000000000000002c5c70260801c916160c2565b91700100000000000000000000000000058b8f0260801c916160b7565b917001000000000000000000000000000b17200260801c916160ac565b91700100000000000000000000000000162e410260801c916160a1565b917001000000000000000000000000002c5c840260801c91616096565b9170010000000000000000000000000058b90a0260801c9161608b565b91700100000000000000000000000000b172160260801c91616080565b9170010000000000000000000000000162e42e0260801c91616074565b91700100000000000000000000000002c5c85e0260801c91616068565b917001000000000000000000000000058b90be0260801c9161605c565b9170010000000000000000000000000b17217e0260801c91616050565b917001000000000000000000000000162e42fd0260801c91616044565b9170010000000000000000000000002c5c85fc0260801c91616038565b91700100000000000000000000000058b90bfa0260801c9161602c565b917001000000000000000000000000b17217f60260801c91616020565b91700100000000000000000000000162e42fee0260801c91616013565b917001000000000000000000000002c5c85fde0260801c91616006565b9170010000000000000000000000058b90bfbd0260801c91615ff9565b91700100000000000000000000000b17217f7c0260801c91615fec565b9170010000000000000000000000162e42fef90260801c91615fdf565b91700100000000000000000000002c5c85fdf30260801c91615fd2565b917001000000000000000000000058b90bfbe70260801c91615fc5565b9170010000000000000000000000b17217f7d00260801c91615fb8565b917001000000000000000000000162e42fefa20260801c91615faa565b9170010000000000000000000002c5c85fdf460260801c91615f9c565b91700100000000000000000000058b90bfbe8d0260801c91615f8e565b917001000000000000000000000b17217f7d1b0260801c91615f80565b91700100000000000000000000162e42fefa380260801c91615f72565b917001000000000000000000002c5c85fdf4720260801c91615f64565b9170010000000000000000000058b90bfbe8e60260801c91615f56565b91700100000000000000000000b17217f7d1ce0260801c91615f48565b9170010000000000000000000162e42fefa39d0260801c91615f39565b91700100000000000000000002c5c85fdf473c0260801c91615f2a565b917001000000000000000000058b90bfbe8e7a0260801c91615f1b565b9170010000000000000000000b17217f7d1cf60260801c91615f0c565b917001000000000000000000162e42fefa39ee0260801c91615efd565b9170010000000000000000002c5c85fdf473dd0260801c91615eee565b91700100000000000000000058b90bfbe8e7bb0260801c91615edf565b917001000000000000000000b17217f7d1cf780260801c91615ed0565b91700100000000000000000162e42fefa39ef20260801c91615ec0565b917001000000000000000002c5c85fdf473de50260801c91615eb0565b9170010000000000000000058b90bfbe8e7bcc0260801c91615ea0565b91700100000000000000000b17217f7d1cf7990260801c91615e90565b9170010000000000000000162e42fefa39ef340260801c91615e80565b91700100000000000000002c5c85fdf473de6a0260801c91615e70565b917001000000000000000058b90bfbe8e7bcd50260801c91615e60565b9170010000000000000000b17217f7d1cf79ab0260801c91615e50565b917001000000000000000162e42fefa39ef3580260801c91615e3f565b9170010000000000000002c5c85fdf473de6b20260801c91615e2e565b91700100000000000000058b90bfbe8e7bcd6d0260801c91615e1d565b917001000000000000000b17217f7d1cf79afa0260801c91615e0c565b91700100000000000000162e42fefa39ef366f0260801c91615dfb565b917001000000000000002c5c85fdf473de6eca0260801c91615dea565b9170010000000000000058b90bfbe8e7bce5440260801c91615dd9565b91700100000000000000b17217f7d1cf79e9490260801c91615dc8565b9170010000000000000162e42fefa39ef44d910260801c91615db6565b91700100000000000002c5c85fdf473dea871f0260801c91615da4565b917001000000000000058b90bfbe8e7bdcbe2e0260801c91615d92565b9170010000000000000b17217f7d1cf7d83c1a0260801c91615d80565b917001000000000000162e42fefa39f02b772c0260801c91615d6e565b9170010000000000002c5c85fdf473e242ea380260801c91615d5c565b91700100000000000058b90bfbe8e7cc35c3f00260801c91615d4a565b917001000000000000b17217f7d1cfb72b45e10260801c91615d38565b91700100000000000162e42fefa39fe95583c20260801c91615d25565b917001000000000002c5c85fdf4741bea6e77e0260801c91615d12565b9170010000000000058b90bfbe8e8b2d3d4ede0260801c91615cff565b91700100000000000b17217f7d1d351a389d400260801c91615cec565b9170010000000000162e42fefa3ae53369388c0260801c91615cd9565b91700100000000002c5c85fdf477b662b269450260801c91615cc6565b917001000000000058b90bfbe8f71cb4e4b33d0260801c91615cb3565b9170010000000000b17217f7d20cf927c8e94c0260801c91615ca0565b917001000000000162e42fefa494f1478fde050260801c91615c8c565b9170010000000002c5c85fdf4b15de6f17eb0d0260801c91615c78565b91700100000000058b90bfbe9ddbac5e109cce0260801c91615c64565b917001000000000b17217f7d5a7716bba4a9ae0260801c91615c50565b91700100000000162e42fefb2fed257559bdaa0260801c91615c3c565b917001000000002c5c85fdf84bd62ae30a74cc0260801c91615c28565b9170010000000058b90bfbf8479bd5a81b51ad0260801c91615c14565b91700100000000b17217f80f4ef5aadda455540260801c91615c00565b9170010000000162e42ff0999ce3541b9fffcf0260801c91615bf4565b91700100000002c5c85fe31f35a6a30da1be500260801c91615bdf565b917001000000058b90bfcdee5acd3c1cedc8230260801c91615bca565b9170010000000b17217fba9c739aa5819f44f90260801c91615bb5565b917001000000162e42fff037df38aa2b219f060260801c91615ba0565b9170010000002c5c8601cc6b9e94213c72737a0260801c91615b8b565b91700100000058b90c0b48c6be5df846c5b2ef0260801c91615b76565b917001000000b1721835514b86e6d96efd1bfe0260801c91615b61565b91700100000162e430e5a18f6119e3c02282a50260801c91615b4b565b917001000002c5c863b73f016468f6bac5ca2b0260801c91615b35565b9170010000058b90cf1e6d97f9ca14dbcc16280260801c91615b1f565b91700100000b1721bcfc99d9f890ea069117630260801c91615b09565b9170010000162e43f4f831060e02d839a9d16d0260801c91615afd565b91700100002c5c89d5ec6ca4d7c8acc017b7c90260801c91615ae7565b917001000058b91b5bc9ae2eed81e9b7d4cfab0260801c91615ad1565b9170010000b17255775c040618bf4a4ade83fc0260801c91615abb565b917001000162e525ee054754457d59952920260260801c91615aaf565b9170010002c5cc37da9491d0985c348c68e7b30260801c91615aa3565b91700100058ba01fb9f96d6cacd4b180917c3d0260801c91615a97565b917001000b175effdc76ba38e31671ca9397250260801c91615a8b565b91700100162f3904051fa128bca9c55c31e5df0260801c91615a74565b917001002c605e2e8cec506d21bfc89a23a00f0260801c91615a5d565b9170010058c86da1c09ea1ff19d294cf2f679b0260801c91615a46565b91700100b1afa5abcbed6129ab13ec11dc95430260801c91615a2f565b9170010163da9fb33356d84a66ae336dcdfa3f0260801c91615a17565b91700102c9a3e778060ee6f7caca4f7a29bde80260801c916159ff565b917001059b0d31585743ae7c548eb68ca417fd0260801c916159e7565b9170010b5586cf9890f6298b92b71842a983630260801c916159cf565b917001172b83c7d517adcdf7c8c50eb14a791f0260801c916159b7565b917001306fe0a31b7152de8d5a46305c85edec0260801c9161599f565b6fb504f333f9de6484597d89b3754abe9f9250615987565b919060019019910191615979565b50811515615974565b50617fff60f01b92915050565b50713fffffffffffffffffffffffffffffffffff811161594d565b5071406e00000000000000000000000000000000811161593f565b613fef8110617076575b50615938565b613fef031c5f617070565b90600160701b1790615927565b508115156158e0565b8060801c6001607f1b81115f146170b4575061ffff60ef1b919050565b6001600160801b03198216613fff60f01b036170d05750505f90565b607081901c617fff1690617ffe1982016170e957505090565b6001600160701b031691508061722957506001905b801561721a5761406f613fff83106171e5575f92613ffe190191600f1b5b6001607f1b810361719457508261718a575b617137826152b0565b91826070031b91606f19910101915b1561717c576001600160701b036001607f1b5b6001600160801b038061716e81199660701b90565b1691161791161760801b1690565b6001600160701b035f617159565b906001019061712e565b90929081156171dd5760ff60015b165b600160701b84106171b6575050617146565b90939260011b925f19019380026171cd8160ff1c90565b938285180193607f011c906171a4565b60ff5f6171a2565b600192600160701b831061720057613ffe0391600f1b61711c565b5061720a826152b0565b918261406d0392607f031b61711c565b506001600160f01b0319919050565b90600160701b176170fe56fea264697066735822122088ee07452065a07a6f91c3bba7c73cfbf1335f8bf469681af7f7246c9a22ef4864736f6c634300081a0033","linkReferences":{}},"methodIdentifiers":{"afterAddLiquidity(address,(address,address,uint24,int24,address),(int24,int24,int256,bytes32),int256,bytes)":"5a2a8100","afterDonate(address,(address,address,uint24,int24,address),uint256,uint256,bytes)":"e1b4af69","afterInitialize(address,(address,address,uint24,int24,address),uint160,int24,bytes)":"a910f80f","afterRemoveLiquidity(address,(address,address,uint24,int24,address),(int24,int24,int256,bytes32),int256,bytes)":"8db2b652","afterSwap(address,(address,address,uint24,int24,address),(bool,int256,uint160),int256,bytes)":"b47b2fb1","beforeAddLiquidity(address,(address,address,uint24,int24,address),(int24,int24,int256,bytes32),bytes)":"259982e5","beforeDonate(address,(address,address,uint24,int24,address),uint256,uint256,bytes)":"b6a8b0fa","beforeInitialize(address,(address,address,uint24,int24,address),uint160,bytes)":"3440d820","beforeRemoveLiquidity(address,(address,address,uint24,int24,address),(int24,int24,int256,bytes32),bytes)":"21d0ee70","beforeSwap(address,(address,address,uint24,int24,address),(bool,int256,uint160),bytes)":"575e24b4","claimTokens(address,address,uint256)":"9fc314c8","executeTWAMMOrders((address,address,uint24,int24,address))":"5f65a295","expirationInterval()":"c01f9606","getHookPermissions()":"c4e833ce","getOrder((address,address,uint24,int24,address),(address,uint160,bool))":"ccf4b247","getOrderPool((address,address,uint24,int24,address),bool)":"86fd4fdc","lastVirtualOrderTimestamp(bytes32)":"27ac0881","poolManager()":"dc4c90d3","submitOrder((address,address,uint24,int24,address),(address,uint160,bool),uint256)":"9d544ca8","tokensOwed(address,address)":"6fc389ae","unlockCallback(bytes)":"91dd7346","updateOrder((address,address,uint24,int24,address),(address,uint160,bool),int256)":"00e7b1be"},"id":103}