{"abi":[{"type":"constructor","inputs":[{"name":"_manager","type":"address","internalType":"contract IPoolManager"},{"name":"_expirationInterval","type":"uint256","internalType":"uint256"}],"stateMutability":"nonpayable"},{"type":"function","name":"afterAddLiquidity","inputs":[{"name":"","type":"address","internalType":"address"},{"name":"","type":"tuple","internalType":"struct PoolKey","components":[{"name":"currency0","type":"address","internalType":"Currency"},{"name":"currency1","type":"address","internalType":"Currency"},{"name":"fee","type":"uint24","internalType":"uint24"},{"name":"tickSpacing","type":"int24","internalType":"int24"},{"name":"hooks","type":"address","internalType":"contract IHooks"}]},{"name":"","type":"tuple","internalType":"struct IPoolManager.ModifyLiquidityParams","components":[{"name":"tickLower","type":"int24","internalType":"int24"},{"name":"tickUpper","type":"int24","internalType":"int24"},{"name":"liquidityDelta","type":"int256","internalType":"int256"},{"name":"salt","type":"bytes32","internalType":"bytes32"}]},{"name":"","type":"int256","internalType":"BalanceDelta"},{"name":"","type":"bytes","internalType":"bytes"}],"outputs":[{"name":"","type":"bytes4","internalType":"bytes4"},{"name":"","type":"int256","internalType":"BalanceDelta"}],"stateMutability":"nonpayable"},{"type":"function","name":"afterDonate","inputs":[{"name":"","type":"address","internalType":"address"},{"name":"","type":"tuple","internalType":"struct PoolKey","components":[{"name":"currency0","type":"address","internalType":"Currency"},{"name":"currency1","type":"address","internalType":"Currency"},{"name":"fee","type":"uint24","internalType":"uint24"},{"name":"tickSpacing","type":"int24","internalType":"int24"},{"name":"hooks","type":"address","internalType":"contract IHooks"}]},{"name":"","type":"uint256","internalType":"uint256"},{"name":"","type":"uint256","internalType":"uint256"},{"name":"","type":"bytes","internalType":"bytes"}],"outputs":[{"name":"","type":"bytes4","internalType":"bytes4"}],"stateMutability":"nonpayable"},{"type":"function","name":"afterInitialize","inputs":[{"name":"","type":"address","internalType":"address"},{"name":"","type":"tuple","internalType":"struct PoolKey","components":[{"name":"currency0","type":"address","internalType":"Currency"},{"name":"currency1","type":"address","internalType":"Currency"},{"name":"fee","type":"uint24","internalType":"uint24"},{"name":"tickSpacing","type":"int24","internalType":"int24"},{"name":"hooks","type":"address","internalType":"contract IHooks"}]},{"name":"","type":"uint160","internalType":"uint160"},{"name":"","type":"int24","internalType":"int24"},{"name":"","type":"bytes","internalType":"bytes"}],"outputs":[{"name":"","type":"bytes4","internalType":"bytes4"}],"stateMutability":"nonpayable"},{"type":"function","name":"afterRemoveLiquidity","inputs":[{"name":"","type":"address","internalType":"address"},{"name":"","type":"tuple","internalType":"struct PoolKey","components":[{"name":"currency0","type":"address","internalType":"Currency"},{"name":"currency1","type":"address","internalType":"Currency"},{"name":"fee","type":"uint24","internalType":"uint24"},{"name":"tickSpacing","type":"int24","internalType":"int24"},{"name":"hooks","type":"address","internalType":"contract IHooks"}]},{"name":"","type":"tuple","internalType":"struct IPoolManager.ModifyLiquidityParams","components":[{"name":"tickLower","type":"int24","internalType":"int24"},{"name":"tickUpper","type":"int24","internalType":"int24"},{"name":"liquidityDelta","type":"int256","internalType":"int256"},{"name":"salt","type":"bytes32","internalType":"bytes32"}]},{"name":"","type":"int256","internalType":"BalanceDelta"},{"name":"","type":"bytes","internalType":"bytes"}],"outputs":[{"name":"","type":"bytes4","internalType":"bytes4"},{"name":"","type":"int256","internalType":"BalanceDelta"}],"stateMutability":"nonpayable"},{"type":"function","name":"afterSwap","inputs":[{"name":"","type":"address","internalType":"address"},{"name":"","type":"tuple","internalType":"struct PoolKey","components":[{"name":"currency0","type":"address","internalType":"Currency"},{"name":"currency1","type":"address","internalType":"Currency"},{"name":"fee","type":"uint24","internalType":"uint24"},{"name":"tickSpacing","type":"int24","internalType":"int24"},{"name":"hooks","type":"address","internalType":"contract IHooks"}]},{"name":"","type":"tuple","internalType":"struct IPoolManager.SwapParams","components":[{"name":"zeroForOne","type":"bool","internalType":"bool"},{"name":"amountSpecified","type":"int256","internalType":"int256"},{"name":"sqrtPriceLimitX96","type":"uint160","internalType":"uint160"}]},{"name":"","type":"int256","internalType":"BalanceDelta"},{"name":"","type":"bytes","internalType":"bytes"}],"outputs":[{"name":"","type":"bytes4","internalType":"bytes4"},{"name":"","type":"int128","internalType":"int128"}],"stateMutability":"nonpayable"},{"type":"function","name":"beforeAddLiquidity","inputs":[{"name":"","type":"address","internalType":"address"},{"name":"key","type":"tuple","internalType":"struct PoolKey","components":[{"name":"currency0","type":"address","internalType":"Currency"},{"name":"currency1","type":"address","internalType":"Currency"},{"name":"fee","type":"uint24","internalType":"uint24"},{"name":"tickSpacing","type":"int24","internalType":"int24"},{"name":"hooks","type":"address","internalType":"contract IHooks"}]},{"name":"","type":"tuple","internalType":"struct IPoolManager.ModifyLiquidityParams","components":[{"name":"tickLower","type":"int24","internalType":"int24"},{"name":"tickUpper","type":"int24","internalType":"int24"},{"name":"liquidityDelta","type":"int256","internalType":"int256"},{"name":"salt","type":"bytes32","internalType":"bytes32"}]},{"name":"","type":"bytes","internalType":"bytes"}],"outputs":[{"name":"","type":"bytes4","internalType":"bytes4"}],"stateMutability":"nonpayable"},{"type":"function","name":"beforeDonate","inputs":[{"name":"","type":"address","internalType":"address"},{"name":"","type":"tuple","internalType":"struct PoolKey","components":[{"name":"currency0","type":"address","internalType":"Currency"},{"name":"currency1","type":"address","internalType":"Currency"},{"name":"fee","type":"uint24","internalType":"uint24"},{"name":"tickSpacing","type":"int24","internalType":"int24"},{"name":"hooks","type":"address","internalType":"contract IHooks"}]},{"name":"","type":"uint256","internalType":"uint256"},{"name":"","type":"uint256","internalType":"uint256"},{"name":"","type":"bytes","internalType":"bytes"}],"outputs":[{"name":"","type":"bytes4","internalType":"bytes4"}],"stateMutability":"nonpayable"},{"type":"function","name":"beforeInitialize","inputs":[{"name":"","type":"address","internalType":"address"},{"name":"key","type":"tuple","internalType":"struct PoolKey","components":[{"name":"currency0","type":"address","internalType":"Currency"},{"name":"currency1","type":"address","internalType":"Currency"},{"name":"fee","type":"uint24","internalType":"uint24"},{"name":"tickSpacing","type":"int24","internalType":"int24"},{"name":"hooks","type":"address","internalType":"contract IHooks"}]},{"name":"","type":"uint160","internalType":"uint160"},{"name":"","type":"bytes","internalType":"bytes"}],"outputs":[{"name":"","type":"bytes4","internalType":"bytes4"}],"stateMutability":"nonpayable"},{"type":"function","name":"beforeRemoveLiquidity","inputs":[{"name":"","type":"address","internalType":"address"},{"name":"","type":"tuple","internalType":"struct PoolKey","components":[{"name":"currency0","type":"address","internalType":"Currency"},{"name":"currency1","type":"address","internalType":"Currency"},{"name":"fee","type":"uint24","internalType":"uint24"},{"name":"tickSpacing","type":"int24","internalType":"int24"},{"name":"hooks","type":"address","internalType":"contract IHooks"}]},{"name":"","type":"tuple","internalType":"struct IPoolManager.ModifyLiquidityParams","components":[{"name":"tickLower","type":"int24","internalType":"int24"},{"name":"tickUpper","type":"int24","internalType":"int24"},{"name":"liquidityDelta","type":"int256","internalType":"int256"},{"name":"salt","type":"bytes32","internalType":"bytes32"}]},{"name":"","type":"bytes","internalType":"bytes"}],"outputs":[{"name":"","type":"bytes4","internalType":"bytes4"}],"stateMutability":"nonpayable"},{"type":"function","name":"beforeSwap","inputs":[{"name":"","type":"address","internalType":"address"},{"name":"key","type":"tuple","internalType":"struct PoolKey","components":[{"name":"currency0","type":"address","internalType":"Currency"},{"name":"currency1","type":"address","internalType":"Currency"},{"name":"fee","type":"uint24","internalType":"uint24"},{"name":"tickSpacing","type":"int24","internalType":"int24"},{"name":"hooks","type":"address","internalType":"contract IHooks"}]},{"name":"","type":"tuple","internalType":"struct IPoolManager.SwapParams","components":[{"name":"zeroForOne","type":"bool","internalType":"bool"},{"name":"amountSpecified","type":"int256","internalType":"int256"},{"name":"sqrtPriceLimitX96","type":"uint160","internalType":"uint160"}]},{"name":"","type":"bytes","internalType":"bytes"}],"outputs":[{"name":"","type":"bytes4","internalType":"bytes4"},{"name":"","type":"int256","internalType":"BeforeSwapDelta"},{"name":"","type":"uint24","internalType":"uint24"}],"stateMutability":"nonpayable"},{"type":"function","name":"claimTokens","inputs":[{"name":"token","type":"address","internalType":"Currency"},{"name":"to","type":"address","internalType":"address"},{"name":"amountRequested","type":"uint256","internalType":"uint256"}],"outputs":[{"name":"amountTransferred","type":"uint256","internalType":"uint256"}],"stateMutability":"nonpayable"},{"type":"function","name":"executeTWAMMOrders","inputs":[{"name":"key","type":"tuple","internalType":"struct PoolKey","components":[{"name":"currency0","type":"address","internalType":"Currency"},{"name":"currency1","type":"address","internalType":"Currency"},{"name":"fee","type":"uint24","internalType":"uint24"},{"name":"tickSpacing","type":"int24","internalType":"int24"},{"name":"hooks","type":"address","internalType":"contract IHooks"}]}],"outputs":[],"stateMutability":"nonpayable"},{"type":"function","name":"expirationInterval","inputs":[],"outputs":[{"name":"","type":"uint256","internalType":"uint256"}],"stateMutability":"view"},{"type":"function","name":"getHookPermissions","inputs":[],"outputs":[{"name":"","type":"tuple","internalType":"struct Hooks.Permissions","components":[{"name":"beforeInitialize","type":"bool","internalType":"bool"},{"name":"afterInitialize","type":"bool","internalType":"bool"},{"name":"beforeAddLiquidity","type":"bool","internalType":"bool"},{"name":"afterAddLiquidity","type":"bool","internalType":"bool"},{"name":"beforeRemoveLiquidity","type":"bool","internalType":"bool"},{"name":"afterRemoveLiquidity","type":"bool","internalType":"bool"},{"name":"beforeSwap","type":"bool","internalType":"bool"},{"name":"afterSwap","type":"bool","internalType":"bool"},{"name":"beforeDonate","type":"bool","internalType":"bool"},{"name":"afterDonate","type":"bool","internalType":"bool"},{"name":"beforeSwapReturnDelta","type":"bool","internalType":"bool"},{"name":"afterSwapReturnDelta","type":"bool","internalType":"bool"},{"name":"afterAddLiquidityReturnDelta","type":"bool","internalType":"bool"},{"name":"afterRemoveLiquidityReturnDelta","type":"bool","internalType":"bool"}]}],"stateMutability":"pure"},{"type":"function","name":"getOrder","inputs":[{"name":"poolKey","type":"tuple","internalType":"struct PoolKey","components":[{"name":"currency0","type":"address","internalType":"Currency"},{"name":"currency1","type":"address","internalType":"Currency"},{"name":"fee","type":"uint24","internalType":"uint24"},{"name":"tickSpacing","type":"int24","internalType":"int24"},{"name":"hooks","type":"address","internalType":"contract IHooks"}]},{"name":"orderKey","type":"tuple","internalType":"struct ITWAMM.OrderKey","components":[{"name":"owner","type":"address","internalType":"address"},{"name":"expiration","type":"uint160","internalType":"uint160"},{"name":"zeroForOne","type":"bool","internalType":"bool"}]}],"outputs":[{"name":"","type":"tuple","internalType":"struct ITWAMM.Order","components":[{"name":"sellRate","type":"uint256","internalType":"uint256"},{"name":"earningsFactorLast","type":"uint256","internalType":"uint256"}]}],"stateMutability":"view"},{"type":"function","name":"getOrderPool","inputs":[{"name":"key","type":"tuple","internalType":"struct PoolKey","components":[{"name":"currency0","type":"address","internalType":"Currency"},{"name":"currency1","type":"address","internalType":"Currency"},{"name":"fee","type":"uint24","internalType":"uint24"},{"name":"tickSpacing","type":"int24","internalType":"int24"},{"name":"hooks","type":"address","internalType":"contract IHooks"}]},{"name":"zeroForOne","type":"bool","internalType":"bool"}],"outputs":[{"name":"sellRateCurrent","type":"uint256","internalType":"uint256"},{"name":"earningsFactorCurrent","type":"uint256","internalType":"uint256"}],"stateMutability":"view"},{"type":"function","name":"lastVirtualOrderTimestamp","inputs":[{"name":"key","type":"bytes32","internalType":"PoolId"}],"outputs":[{"name":"","type":"uint256","internalType":"uint256"}],"stateMutability":"view"},{"type":"function","name":"poolManager","inputs":[],"outputs":[{"name":"","type":"address","internalType":"contract IPoolManager"}],"stateMutability":"view"},{"type":"function","name":"submitOrder","inputs":[{"name":"key","type":"tuple","internalType":"struct PoolKey","components":[{"name":"currency0","type":"address","internalType":"Currency"},{"name":"currency1","type":"address","internalType":"Currency"},{"name":"fee","type":"uint24","internalType":"uint24"},{"name":"tickSpacing","type":"int24","internalType":"int24"},{"name":"hooks","type":"address","internalType":"contract IHooks"}]},{"name":"orderKey","type":"tuple","internalType":"struct ITWAMM.OrderKey","components":[{"name":"owner","type":"address","internalType":"address"},{"name":"expiration","type":"uint160","internalType":"uint160"},{"name":"zeroForOne","type":"bool","internalType":"bool"}]},{"name":"amountIn","type":"uint256","internalType":"uint256"}],"outputs":[{"name":"orderId","type":"bytes32","internalType":"bytes32"}],"stateMutability":"nonpayable"},{"type":"function","name":"tokensOwed","inputs":[{"name":"","type":"address","internalType":"Currency"},{"name":"","type":"address","internalType":"address"}],"outputs":[{"name":"","type":"uint256","internalType":"uint256"}],"stateMutability":"view"},{"type":"function","name":"unlockCallback","inputs":[{"name":"data","type":"bytes","internalType":"bytes"}],"outputs":[{"name":"","type":"bytes","internalType":"bytes"}],"stateMutability":"nonpayable"},{"type":"function","name":"updateOrder","inputs":[{"name":"key","type":"tuple","internalType":"struct PoolKey","components":[{"name":"currency0","type":"address","internalType":"Currency"},{"name":"currency1","type":"address","internalType":"Currency"},{"name":"fee","type":"uint24","internalType":"uint24"},{"name":"tickSpacing","type":"int24","internalType":"int24"},{"name":"hooks","type":"address","internalType":"contract IHooks"}]},{"name":"orderKey","type":"tuple","internalType":"struct ITWAMM.OrderKey","components":[{"name":"owner","type":"address","internalType":"address"},{"name":"expiration","type":"uint160","internalType":"uint160"},{"name":"zeroForOne","type":"bool","internalType":"bool"}]},{"name":"amountDelta","type":"int256","internalType":"int256"}],"outputs":[{"name":"tokens0Owed","type":"uint256","internalType":"uint256"},{"name":"tokens1Owed","type":"uint256","internalType":"uint256"}],"stateMutability":"nonpayable"},{"type":"event","name":"SubmitOrder","inputs":[{"name":"poolId","type":"bytes32","indexed":true,"internalType":"PoolId"},{"name":"owner","type":"address","indexed":true,"internalType":"address"},{"name":"expiration","type":"uint160","indexed":false,"internalType":"uint160"},{"name":"zeroForOne","type":"bool","indexed":false,"internalType":"bool"},{"name":"sellRate","type":"uint256","indexed":false,"internalType":"uint256"},{"name":"earningsFactorLast","type":"uint256","indexed":false,"internalType":"uint256"}],"anonymous":false},{"type":"event","name":"UpdateOrder","inputs":[{"name":"poolId","type":"bytes32","indexed":true,"internalType":"PoolId"},{"name":"owner","type":"address","indexed":true,"internalType":"address"},{"name":"expiration","type":"uint160","indexed":false,"internalType":"uint160"},{"name":"zeroForOne","type":"bool","indexed":false,"internalType":"bool"},{"name":"sellRate","type":"uint256","indexed":false,"internalType":"uint256"},{"name":"earningsFactorLast","type":"uint256","indexed":false,"internalType":"uint256"}],"anonymous":false},{"type":"error","name":"CannotModifyCompletedOrder","inputs":[{"name":"orderKey","type":"tuple","internalType":"struct ITWAMM.OrderKey","components":[{"name":"owner","type":"address","internalType":"address"},{"name":"expiration","type":"uint160","internalType":"uint160"},{"name":"zeroForOne","type":"bool","internalType":"bool"}]}]},{"type":"error","name":"ExpirationLessThanBlocktime","inputs":[{"name":"expiration","type":"uint256","internalType":"uint256"}]},{"type":"error","name":"ExpirationNotOnInterval","inputs":[{"name":"expiration","type":"uint256","internalType":"uint256"}]},{"type":"error","name":"HookNotImplemented","inputs":[]},{"type":"error","name":"InvalidAmountDelta","inputs":[{"name":"orderKey","type":"tuple","internalType":"struct ITWAMM.OrderKey","components":[{"name":"owner","type":"address","internalType":"address"},{"name":"expiration","type":"uint160","internalType":"uint160"},{"name":"zeroForOne","type":"bool","internalType":"bool"}]},{"name":"unsoldAmount","type":"uint256","internalType":"uint256"},{"name":"amountDelta","type":"int256","internalType":"int256"}]},{"type":"error","name":"InvalidPool","inputs":[]},{"type":"error","name":"LockFailure","inputs":[]},{"type":"error","name":"MustBeOwner","inputs":[{"name":"owner","type":"address","internalType":"address"},{"name":"currentAccount","type":"address","internalType":"address"}]},{"type":"error","name":"NotInitialized","inputs":[]},{"type":"error","name":"NotPoolManager","inputs":[]},{"type":"error","name":"NotSelf","inputs":[]},{"type":"error","name":"OrderAlreadyExists","inputs":[{"name":"orderKey","type":"tuple","internalType":"struct ITWAMM.OrderKey","components":[{"name":"owner","type":"address","internalType":"address"},{"name":"expiration","type":"uint160","internalType":"uint160"},{"name":"zeroForOne","type":"bool","internalType":"bool"}]}]},{"type":"error","name":"OrderDoesNotExist","inputs":[{"name":"orderKey","type":"tuple","internalType":"struct ITWAMM.OrderKey","components":[{"name":"owner","type":"address","internalType":"address"},{"name":"expiration","type":"uint160","internalType":"uint160"},{"name":"zeroForOne","type":"bool","internalType":"bool"}]}]},{"type":"error","name":"SellRateCannotBeZero","inputs":[]}],"bytecode":{"object":"0x60c0806040523461037557604081617d71803803809161001f8285610395565b833981010312610375578051906001600160a01b03821682036103755760200151906080525f6101a060405161005481610379565b8281528260208201528260408201528260608201528260808201528260a08201528260c08201528260e0820152826101008201528261012082015282610140820152826101608201528261018082015201525f6101a06040516100b681610379565b60018152826020820152600160408201528260608201528260808201528260a0820152600160c08201528260e08201528261010082015282610120820152826101408201528261016082015282610180820152015261200030161515600114801590610368575b8015610357575b801561034a575b801561033d575b8015610330575b8015610320575b8015610314575b8015610308575b80156102fc575b80156102f0575b80156102e4575b80156102d8575b80156102cc575b6102b95760a081905260405160608101906001600160401b038211818310176102a5575f928392604052602b825261022d608460208401927f5457414d4d206465706c6f79656420776974682065787069726174696f6e206984526a6e74657276616c3a20257360a81b604086015260405193849160208301966309710a9d60e41b8852604060248501525180928160648601528585015e878483850101526044830152601f801991011681010301601f198101835282610395565b51906a636f6e736f6c652e6c6f675afa506040516179b890816103b982396080518181816107a2015281816108820152818161094f01528181610b6601528181611365015281816115040152818161205c015281816121260152612d3c015260a0518181816110e101528181611f3301526124870152f35b634e487b7160e01b5f52604160045260245ffd5b630732d7b560e51b5f523060045260245ffd5b50600130161515610171565b5060023016151561016a565b50600430161515610163565b5060083016151561015c565b50601030161515610155565b5060203016151561014e565b50604030161515610147565b5060803016151560011415610140565b5061010030161515610139565b5061020030161515610132565b506104003016151561012b565b506108003016151560011415610124565b506110003016151561011d565b5f80fd5b6101c081019081106001600160401b038211176102a557604052565b601f909101601f19168101906001600160401b038211908210176102a55760405256fe60806040526004361015610011575f80fd5b5f3560e01c8062e7b1be1461016957806321d0ee7014610164578063259982e51461015f57806327ac08811461015a5780633440d82014610155578063575e24b4146101505780635a2a81001461013c5780635f65a2951461014b5780636fc389ae1461014657806386fd4fdc146101415780638db2b6521461013c57806391dd7346146101375780639d544ca8146101325780639fc314c81461012d578063a910f80f14610128578063b47b2fb114610123578063b6a8b0fa1461010a578063c01f96061461011e578063c4e833ce14610119578063ccf4b24714610114578063dc4c90d31461010f5763e1b4af691461010a575f80fd5b611074565b611346565b6112a8565b6111bf565b6110ca565b611022565b610fb5565b610ec4565b610d3e565b610b32565b6109a8565b610a93565b610a32565b610a13565b6108f2565b610825565b6107fc565b610785565b610763565b610432565b634e487b7160e01b5f52604160045260245ffd5b60a0810190811067ffffffffffffffff82111761019e57604052565b61016e565b6060810190811067ffffffffffffffff82111761019e57604052565b6101c0810190811067ffffffffffffffff82111761019e57604052565b6040810190811067ffffffffffffffff82111761019e57604052565b90601f8019910116810190811067ffffffffffffffff82111761019e57604052565b6040519061022a6101c0836101f8565b565b6040519061022a6040836101f8565b6040519061022a6060836101f8565b6040519061022a60a0836101f8565b6040519061022a6080836101f8565b6040519061022a60c0836101f8565b6001600160a01b0381160361028857565b5f80fd5b359062ffffff8216820361028857565b60e435908160020b820361028857565b35908160020b820361028857565b60a090600319011261028857604051906102d382610182565b816004356102e081610277565b81526024356102ee81610277565b602082015260443562ffffff811681036102885760408201526064358060020b810361028857606082015260806084359161032883610277565b0152565b91908260a09103126102885760405161034481610182565b6080808294803561035481610277565b8452602081013561036481610277565b60208501526103756040820161028c565b6040850152610386606082016102ac565b606085015201359161032883610277565b8015150361028857565b60609060a319011261028857604051906103ba826101a3565b8160a4356103c781610277565b815260c4356103d581610277565b6020820152604060e4359161032883610397565b919082606091031261028857604051610401816101a3565b6040808294803561041181610277565b8452602081013561042181610277565b602085015201359161032883610397565b34610288576101203660031901126102885761044d366102ba565b610456366103a1565b61010435915f905f926040516020810190610483816104758685611389565b03601f1981018352826101f8565b519020916104ab868361049d865f525f60205260405f2090565b6104a6856114fd565b6117c0565b939160408694929401976104bf8951151590565b1561067b57926105086001600160a01b0396936105027f0419b3b20aa8f170fc09bc80fa2437166bce38232cb28c36a035b65c79742a09999794610608976113eb565b9b6113eb565b9a5b61055961053861052184516001600160a01b031690565b6001600160a01b03165f52600160205260405f2090565b87516001600160a01b03165b6001600160a01b03165f5260205260405f2090565b6105648c82546113eb565b905560208201918c61059e61059661058661052187516001600160a01b031690565b8a516001600160a01b0316610544565b9182546113eb565b90555f8213610620575b5050506105da6105d360206105c487516001600160a01b031690565b9601516001600160a01b031690565b9851151590565b604080516001600160a01b03909a168a5290151560208a015288015260608701529116939081906080820190565b0390a3604080519182526020820192909252f35b0390f35b61065a9261062e8c51151590565b1561066257505161064f906001600160a01b03165b6001600160a01b031690565b309088339116611ac2565b5f80806105a8565b5161067691506001600160a01b0316610643565b61064f565b509750927f0419b3b20aa8f170fc09bc80fa2437166bce38232cb28c36a035b65c79742a099492610608926001600160a01b0395999a61050a565b60a090602319011261028857602490565b60a090600319011261028857600490565b9181601f840112156102885782359167ffffffffffffffff8311610288576020838186019501011161028857565b906101606003198301126102885760043561072081610277565b9160a060231982011261028857602491608060c3198301126102885760c491610144359067ffffffffffffffff82116102885761075f916004016106d8565b9091565b346102885761077136610706565b5050505050630a85dc2960e01b5f5260045ffd5b346102885761079336610706565b50505090506001600160a01b037f00000000000000000000000000000000000000000000000000000000000000001633036107ed576107d66107db91369061032c565b6114fd565b60405163259982e560e01b8152602090f35b63570c108560e11b5f5260045ffd5b34610288576020366003190112610288576004355f525f602052602060405f2054604051908152f35b346102885761010036600319011261028857610842600435610277565b61084b366106b6565b61085660c435610277565b60e43567ffffffffffffffff8111610288576108769036906004016106d8565b50506001600160a01b037f00000000000000000000000000000000000000000000000000000000000000001633036107ed576108b66108bb91369061032c565b611b7d565b4290556040516301a206c160e51b8152602090f35b60609060c31901126102885760c490565b60609060a31901126102885760a490565b34610288576101403660031901126102885761090f600435610277565b610918366106b6565b610921366108d0565b506101243567ffffffffffffffff8111610288576109439036906004016106d8565b50506001600160a01b037f00000000000000000000000000000000000000000000000000000000000000001633036107ed576107d661098391369061032c565b6040518061061c81905f604060608401936315d7892d60e21b81528260208201520152565b3461028857610180366003190112610288576004356109c681610277565b5060a03660231901126102885760803660c3190112610288576101643567ffffffffffffffff811161028857610a009036906004016106d8565b5050630a85dc2960e01b5f908152600490fd5b346102885760a036600319011261028857610a306107d6366102ba565b005b34610288576040366003190112610288576020610a8a600435610a5481610277565b6001600160a01b0360243591610a6983610277565b165f526001835260405f20906001600160a01b03165f5260205260405f2090565b54604051908152f35b346102885760c036600319011261028857610aad366106c7565b610ac76108b660a43592610ac084610397565b369061032c565b9015610aea5760036001820154910154905b604080519182526020820192909252f35b6007600582015491015490610ad9565b805180835260209291819084018484015e5f828201840152601f01601f1916010190565b906020610b2f928181520190610afa565b90565b346102885760203660031901126102885760043567ffffffffffffffff811161028857610b639036906004016106d8565b907f0000000000000000000000000000000000000000000000000000000000000000906001600160a01b038216928333036107ed576020610bab83610bd4935f9501906121cb565b929095610bb6611a4d565b604051958680948193633cf3645360e21b8352888c6004850161222b565b03925af1918215610d39575f92610d04575b505115155b15610c96578060801d5f81600f0b12610c57575b505f81600f0b13610c26575b5050505b61061c610c1a611a4d565b60405191829182610b1e565b6001600160801b03610c456020610c4f9501516001600160a01b031690565b9116913091612ffe565b5f8080610c0b565b610c9090610c87610c7b610c7b610c7588516001600160a01b031690565b936122b2565b6001600160801b031690565b90843091612e2b565b5f610bff565b80600f0b5f8112610cdd575b5060801d5f81600f0b13610cb9575b505050610c0f565b6001600160801b03610c45610cd594516001600160a01b031690565b5f8080610cb1565b610cfe90610c87610c7b610c7b610c7560208901516001600160a01b031690565b5f610ca2565b610beb919250610d2b9060203d602011610d32575b610d2381836101f8565b810190611bea565b9190610be6565b503d610d19565b6114f2565b34610288576101203660031901126102885761061c610d5c366106c7565b610e18610d68366103a1565b7ffaaa07ce082dc5fd8da3b5871f3bea299c149b02540be2d1c9169e94a8be84846001600160a01b036101043592610e9c6040516020810190610daf816104758b8561167e565b51902094610dc4865f525f60205260405f2090565b90610dd26107d6368b61032c565b6001610e6b6020860195610e39610dff610df389516001600160a01b031690565b8a429116038096611704565b94610e0b86848961241f565b9d604084019d8e51151590565b15610eaf57610643610e2991611713565b905b86029030908b339116611ac2565b610e65610e5e610e5083516001600160a01b031690565b98516001600160a01b031690565b9b51151590565b94612651565b0154604080516001600160a01b03909a168a5292151560208a01529188015260608701529116939081906080820190565b0390a36040519081529081906020820190565b6106436020610ebe9201611713565b90610e2b565b3461028857606036600319011261028857600435610ee181610277565b602435610eed81610277565b604435906001600160a01b03610f0284612669565b931692835f526001602052610f2a60405f20336001600160a01b03165f5260205260405f2090565b549280151580610fac575b610fa4575b50828110610f9c575b50825f526001602052610f6a3360405f20906001600160a01b03165f5260205260405f2090565b805491838303928311610f975761061c94610f87938593556126cf565b6040519081529081906020820190565b6113d7565b91505f610f43565b92505f610f3a565b50838110610f35565b346102885761012036600319011261028857610fd2600435610277565b610fdb366106b6565b50610fe760c435610277565b610fef61029c565b506101043567ffffffffffffffff8111610288576110119036906004016106d8565b5050630a85dc2960e01b5f5260045ffd5b34610288576101603660031901126102885761103f600435610277565b611048366106b6565b50611052366108d0565b506101443567ffffffffffffffff8111610288576110119036906004016106d8565b34610288576101203660031901126102885760043561109281610277565b5060a0366023190112610288576101043567ffffffffffffffff811161028857610a009036906004016106d8565b5f91031261028857565b34610288575f3660031901126102885760206040517f00000000000000000000000000000000000000000000000000000000000000008152f35b61022a909291926101a0806101c083019561112184825115159052565b60208181015115159085015260408181015115159085015260608181015115159085015260808181015115159085015260a08181015115159085015260c08181015115159085015260e081810151151590850152610100818101511515908501526101208181015115159085015261014081810151151590850152610160818101511515908501526101808181015115159085015201511515910152565b34610288575f366003190112610288575f6101a06040516111df816101bf565b8281528260208201528260408201528260608201528260808201528260a08201528260c08201528260e08201528261010082015282610120820152826101408201528261016082015282610180820152015261061c61123c61021a565b600181525f6020820152600160408201525f60608201525f60808201525f60a082015261126c60c0820160019052565b5f60e08201525f6101008201525f6101208201525f6101408201525f6101608201525f6101808201525f6101a082015260405191829182611104565b34610288576101003660031901126102885761061c61130f6112c9366106c7565b6112d2366108e1565b906112db61172a565b506040516112f18161047560208201948561167e565b5190205f525f60205261130960405f209136906103e9565b90612651565b60016040519161131e836101dc565b8054835201546020820152604051918291829190916020806040830194805184520151910152565b34610288575f3660031901126102885760206040516001600160a01b037f0000000000000000000000000000000000000000000000000000000000000000168152f35b61022a9092919260a08101936001600160a01b036080809282815116855282602082015116602086015262ffffff6040820151166040860152606081015160020b6060860152015116910152565b634e487b7160e01b5f52601160045260245ffd5b91908201809211610f9757565b9160a061022a92949361144d816101008101976001600160a01b036080809282815116855282602082015116602086015262ffffff6040820151166040860152606081015160020b6060860152015116910152565b01906001600160a01b036040809280511515855260208101516020860152015116910152565b67ffffffffffffffff811161019e57601f01601f191660200190565b6020818303126102885780519067ffffffffffffffff8211610288570181601f82011215610288578051906114c382611473565b926114d160405194856101f8565b8284526020838301011161028857815f9260208093018386015e8301015290565b6040513d5f823e3d90fd5b60a08120907f0000000000000000000000000000000000000000000000000000000000000000906115806115318484611bf9565b50505093828461155261154b845f525f60205260405f2090565b9382611c7f565b9261157b61155e61022c565b6001600160a01b038a168152946001600160801b03166020860152565b611efa565b9290936001600160a01b038416801515918261166a575b50506115a4575b50505050565b6001600160a01b0393611613611630936116015f966115cb6115c461023b565b9515158652565b7f7fffffffffffffffffffffffffffffffffffffffffffffffffffffffffffffff60208601526001600160a01b03166040850152565b610475604051938492602084016113f8565b836040519586809581946348c8949160e01b835260048301610b1e565b0393165af18015610d3957611648575b80808061159e565b611663903d805f833e61165b81836101f8565b81019061148f565b505f611640565b6001600160a01b0316141590505f80611597565b91909160806001600160a01b038160a084019582813561169d81610277565b1685528260208201356116af81610277565b16602086015262ffffff6116c56040830161028c565b1660408601526116d7606082016102ac565b60020b606086015201356116ea81610277565b16910152565b634e487b7160e01b5f52601260045260245ffd5b811561170e570490565b6116f0565b35610b2f81610277565b91908203918211610f9757565b60405190611737826101dc565b5f6020838281520152565b61022a909291926060810193604080916001600160a01b0381511684526001600160a01b03602082015116602085015201511515910152565b6080919493926117b78260a0810197604080916001600160a01b0381511684526001600160a01b03602082015116602085015201511515910152565b60608201520152565b9092915f925f926117d18682612651565b906117df6040880151151590565b15611a435760018101965b80516001600160a01b0316338103611a2457508254948515611a095780151580806119f0575b6119d55760028a01549961182d600187019889548d030260601c90565b9a809855602084019161184783516001600160a01b031690565b6001600160a01b0342911611156119b0575b611866575b505050505050565b90919293949897504261188361064384516001600160a01b031690565b0397895498808a025f19861461199d575b8561189e8261279a565b01905f821261197b5750906118b291611704565b985f85121561194a575050906118f988939260016118e1868d540394858454038455516001600160a01b031690565b9101906001600160a01b03165f5260205260405f2090565b9081540390555f03965b8161194157505061193691600961191c61192b9361274c565b9101905f5260205260405f2090565b60015f918281550155565b5f808080808061185e565b55506119369050565b8994509160016118e1611970939c9594870394858454018455516001600160a01b031690565b908154019055611903565b876119998860405193849363513043ff60e11b85526004850161177b565b0390fd5b94506119a88561279a565b5f0394611894565b6119d061192b6119bf8761274c565b60098901905f5260205260405f2090565b611859565b604051630918b28960e01b8152806119998560048301611742565b506020830151426001600160a01b039091161115611810565b604051639044eb2760e01b8152806119998460048301611742565b63e2aaff7360e01b5f526001600160a01b03166004523360245260445ffd5b60058101966117ea565b60405190611a5c6020836101f8565b5f8252565b908160209103126102885751610b2f81610397565b15611a7d57565b60405162461bcd60e51b815260206004820152601460248201527f5452414e534645525f46524f4d5f4641494c45440000000000000000000000006044820152606490fd5b6040516323b872dd60e01b602082019081526001600160a01b0393841660248301529383166044820152606481019490945261022a935f9384939091849190611b0e8160848101610475565b5193165af13d15611b76573d611b2381611473565b90611b3160405192836101f8565b81523d5f602083013e5b81611b47575b50611a76565b8051801592508215611b5c575b50505f611b41565b611b6f9250602080918301019101611a61565b5f80611b54565b6060611b3b565b604051611bcb6020820180936001600160a01b036080809282815116855282602082015116602086015262ffffff6040820151166040860152606081015160020b6060860152015116910152565b60a08152611bda60c0826101f8565b5190205f525f60205260405f2090565b90816020910312610288575190565b6020906024611c106001600160a01b0395946127b3565b6040519586938492631e2eaeaf60e01b84526004840152165afa918215610d39575f92611c5e575b506001600160a01b038216918060a01c60020b9162ffffff808360b81c169260d01c1690565b611c7891925060203d602011610d3257610d2381836101f8565b905f611c38565b90611c89906127b3565b60038101809111610f97576001600160a01b039160246020926040519485938492631e2eaeaf60e01b84526004840152165afa8015610d39576001600160801b03915f91611cd657501690565b611cef915060203d602011610d3257610d2381836101f8565b1690565b60405190611d026060836101f8565b603482527f73202f2f2f2f2f2f2f2f2f2f2f2f2f2f2f2f2f2f0000000000000000000000006040837f2f2f2f2f2f2f2f2f2f2f2f2f2f2f2f2f2f2f2045786563757465204f7264657260208201520152565b811561170e570690565b60405190611d6d6080836101f8565b60428252612f2f60f01b6060837f2f2f2f2f2f2f2f2f2f2f2f2f2f2f2f2f2f2f20416476616e63652054696d652060208201527f666f722053696e676c6520506f6f6c202f2f2f2f2f2f2f2f2f2f2f2f2f2f2f2f60408201520152565b60405190611dd96060836101f8565b603982527f772054696d65202f2f2f2f2f2f2f2f2f2f2f2f2f2f2f2f2f2f000000000000006040837f2f2f2f2f2f2f2f2f2f2f2f2f2f2f2f2f2f2f20416476616e636520546f204e6560208201520152565b60405190611e3a6080836101f8565b60448252632f2f2f2f60e01b6060837f2f2f2f2f2f2f2f2f2f2f2f2f2f2f2f2f2f2f20416476616e63652054696d652060208201527f666f722053696e676c6520506f6f6c2032202f2f2f2f2f2f2f2f2f2f2f2f2f2f60408201520152565b60405190611ea86060836101f8565b603b82527f772054696d652032202f2f2f2f2f2f2f2f2f2f2f2f2f2f2f2f2f2f00000000006040837f2f2f2f2f2f2f2f2f2f2f2f2f2f2f2f2f2f2f20416476616e636520546f204e6560208201520152565b92909192611f0e611f0a826127d3565b1590565b6121be57611f22611f1d611cf3565b612856565b81516001600160a01b0316938154907f000000000000000000000000000000000000000000000000000000000000000090611f6f611f69611f638486611d54565b8461171d565b846113eb565b956001850196600586019060028701905b428111156120a1575b5050611fb39742861080612092575b611fc5575b505050505050429055516001600160a01b031690565b906001600160a01b0380831691161191565b9691929394959654151580918192612087575b501561201e575061201194611fee611f1d611e99565b611ff6610259565b94855242602086015242036040850152606084015284612c58565b905b5f8080808080611f9d565b9061205a925061208195612033611f1d611e2b565b61203b61024a565b9586524260208701819052036040860152606085015215156080840152565b7f000000000000000000000000000000000000000000000000000000000000000084612963565b90612013565b90505415155f611fd8565b5061209c876127d3565b611f98565b6120b38183905f5260205260405f2090565b54158015906121a6575b6120e0575b8501906120d1611f0a896127d3565b6120db5790611f80565b611f89565b958998919854151580809161219c575b15612153575061214b91612105611f1d611dca565b61210d610259565b91878352886020840152880360408301526060820152847f000000000000000000000000000000000000000000000000000000000000000089612c58565b965b856120c2565b61218e9061219693612166611f1d611d5e565b61216e61024a565b898152602081018b9052938a036040850152606084015215156080830152565b848489612963565b9661214d565b50835415156120f0565b505f81815260068901602052604090205415156120bd565b925050504290555f905f90565b80820392916101008412610288576121e56060918361032c565b93609f1901126102885760e0604051916121fe836101a3565b60a081013561220c81610397565b835260c08101356020840152013561222381610277565b604082015290565b6122a4610b2f949361227d83610120956001600160a01b036080809282815116855282602082015116602086015262ffffff6040820151166040860152606081015160020b6060860152015116910152565b8051151560a0840152602081015160c0840152604001516001600160a01b031660e0830152565b816101008201520190610afa565b600f0b6f7fffffffffffffffffffffffffffffff198114610f97575f0390565b604051906122e16060836101f8565b603b82527f6974204f72646572202f2f2f2f2f2f2f2f2f2f2f2f2f2f2f2f2f2f00000000006040837f2f2f2f2f2f2f2f2f2f2f2f2f2f2f2f2f2f2f20496e7465726e616c205375626d60208201520152565b604051906123426040836101f8565b601682527f506f6f6c2043757272656e742053616c652052617465000000000000000000006020830152565b6040519061237d6040836101f8565b601d82527f506f6f6c2053616c65205261746520456e64696e672041742054696d650000006020830152565b604051906123b86040836101f8565b601482527f52657761726420466163746f72204c6173743a200000000000000000000000006020830152565b604051906123f36040836101f8565b600b82527f53656c6c20526174653a200000000000000000000000000000000000000000006020830152565b92919061243381516001600160a01b031690565b336001600160a01b03821603611a245750835415612642576020810180516001600160a01b03164281111561262757508215612618576124ad61247d82516001600160a01b031690565b6001600160a01b037f00000000000000000000000000000000000000000000000000000000000000009116611d54565b6125fc576124bc611f1d6122d2565b6124c58261274c565b9460098101926124dd8785905f5260205260405f2090565b546125df5760026125ce9361257561256c61022a98979561250460406125c5970151151590565b156125d657600101925b8884540184556125268454612521612333565b613060565b610544600185019161255961254282516001600160a01b031690565b84906001600160a01b03165f5260205260405f2090565b8b8154019055516001600160a01b031690565b5461252161236e565b01916125b48884549261258a846125216123a9565b612596886125216123e4565b61259e61022c565b938885526020850152905f5260205260405f2090565b906020600191805184550151910155565b546125216123a9565b6125216123e4565b6005019261250e565b6040516304a9e54d60e01b81529081906119999060048301611742565b51632990d56760e21b5f526001600160a01b031660045260245ffd5b637832636960e01b5f5260045ffd5b63cd87c18d60e01b5f526001600160a01b031660045260245ffd5b6321c4e35760e21b5f5260045ffd5b61265c60099261274c565b5f520160205260405f2090565b6001600160a01b03811661267c57504790565b6040516370a0823160e01b815230600482015290602090829060249082906001600160a01b03165afa908115610d39575f916126b6575090565b610b2f915060203d602011610d3257610d2381836101f8565b5f91826044926020956040519363a9059cbb60e01b8552600485015260248401525af13d15601f3d1160015f51141617161561270757565b60405162461bcd60e51b815260206004820152600f60248201527f5452414e534645525f4641494c454400000000000000000000000000000000006044820152606490fd5b604051612785602082018093604080916001600160a01b0381511684526001600160a01b03602082015116602085015201511515910152565b606081526127946080826101f8565b51902090565b905f82126127a457565b6393dafdf160e01b5f5260045ffd5b6040516020810191825260066040820152604081526127946060826101f8565b6128396040516127e46060826101f8565b603c81527f2f2f2f2f2f2f2f2f2f2f2f2f2f2f2f2f2f2f20486173204f75747374616e646960208201527f6e67204f7264657273202f2f2f2f2f2f2f2f2f2f2f2f2f2f2f2f2f2f000000006040820152612856565b6001810154159081159161284b575090565b600591500154151590565b61047561288461022a9260405192839163104c13eb60e21b6020840152602060248401526044830190610afa565b6130a3565b908160601b91808304600160601b1490151715610f9757565b81810292918115918404141715610f9757565b604051906128c46080836101f8565b60448252632f2f2f2f60e01b6060837f2f2f2f2f2f2f2f2f2f2f2f2f2f2f2f2f2f2f20416476616e63652054696d652060208201527f466f722053696e676c6520506f6f6c2033202f2f2f2f2f2f2f2f2f2f2f2f2f2f60408201520152565b906001600160801b03809116911601906001600160801b038211610f9757565b906001600160801b03809116911603906001600160801b038211610f9757565b9290919261296f61172a565b50608082019061297f8251151590565b15612beb57600101929491945b83549461299d6040880151876128a2565b935f946129ab611f1d6128b5565b606089016129e48151836129da60206129cb84516001600160a01b031690565b9301516001600160801b031690565b89511515926130bd565b906129f28286888451613225565b929015612b065750612abf612a16612a0e8460a089208a6133d4565b949050613486565b82612ab0612a3d83955184612a3760206129cb84516001600160a01b031690565b91613315565b95612a708351612a686020612a5983516001600160a01b031690565b9201516001600160801b031690565b978891613398565b95612a7b8d51151590565b15612aec5750825160200151612a9d916001600160801b039081169116612943565b6020835101906001600160801b03169052565b51906001600160a01b03169052565b86511515978815612ae55781905b019715612add5750905b036129ab565b905090612ad7565b8290612acd565b612afb610c7b612b01936122b2565b90612923565b612a9d565b96612bb198919650612b65949b99955060609a9350612b609250612b2a9051151590565b15612bcb57612b5b90612b55875189612b4f60206129cb84516001600160a01b031690565b91613398565b906113eb565b612889565b611704565b6020860191612b778351885190611d54565b612bb657612ab0925190916002830190815401809155815f526003830160205260405f20555f526001810160205260405f20548154039055565b015190565b612bc69250600201908154019055565b612ab0565b612b5b90612b55875189612a3760206129cb84516001600160a01b031690565b6005019294919461298c565b60405190612c066060836101f8565b603b82527f772054696d652033202f2f2f2f2f2f2f2f2f2f2f2f2f2f2f2f2f2f00000000006040837f2f2f2f2f2f2f2f2f2f2f2f2f2f2f2f2f2f2f20416476616e636520546f204e6560208201520152565b9091939293612c6561172a565b50612c736040860151612889565b91612c7f611f1d612bf7565b600181019460058201935b60608801908151612ca76020612a5983516001600160a01b031690565b8954612cdf895492612ccf612cba61024a565b8781526001600160a01b039096166020870152565b6001600160801b03166040850152565b60608301526080820152612cf2816137a6565b612cff81888b8751613225565b929015612d69575050612d619060208b0151845190612d29612d1f610259565b93849060020b9052565b60208301528360408301526060820152867f000000000000000000000000000000000000000000000000000000000000000087613b0a565b925203612c8a565b909650606099949a9850612bb197939550612d879250869150613931565b91906020880190612d9b82518a5190611d54565b612e0c57612dda90612ab095835190916002830190815401809155815f526003830160205260405f20555f526001810160205260405f20548154039055565b5190916002830190815401809155815f526003830160205260405f20555f526001810160205260405f20548154039055565b612e209150612bc694600201908154019055565b600201908154019055565b9091906001600160a01b038116612e885750506001600160a01b0360046020926040519485938492630476982d60e21b8452165af18015610d3957612e6d5750565b612e859060203d602011610d3257610d2381836101f8565b50565b90916001600160a01b031691823b1561028857604051632961046560e21b81526001600160a01b03831660048201525f8160248183885af18015610d3957612fe4575b506001600160a01b0381163014612f7a576040516323b872dd60e01b81526001600160a01b03918216600482015283821660248201526044810194909452602091849160649183915f91165af1908115610d39575f92602092612f4d575b505b600460405180948193630476982d60e21b83525af18015610d3957612e6d5750565b612f6c90833d8511612f73575b612f6481836101f8565b810190611a61565b505f612f29565b503d612f5a565b5060405163a9059cbb60e01b81526001600160a01b038381166004830152602482019490945292602091849160449183915f91165af1908115610d39575f92602092612fc7575b50612f2b565b612fdd90833d8511612f7357612f6481836101f8565b505f612fc1565b80612ff25f612ff8936101f8565b806110c0565b5f612ecb565b9192906001600160a01b0316803b1561028857604051630b0d9c0960e01b81526001600160a01b03938416600482015293909216602484015260448301525f908290606490829084905af18015610d39576130565750565b5f61022a916101f8565b61288461308f9161022a936040519384926309710a9d60e41b6020850152604060248501526064840190610afa565b90604483015203601f1981018352826101f8565b5f80916020815191016a636f6e736f6c652e6c6f675afa50565b926001600160801b038216156001600160a01b038516151761314b57156130e757610b2f92613cc9565b906001600160a01b0381116131295760601b906001600160801b0316801561170e576001600160a01b039104915b16908101809111610f9757610b2f90615614565b613145906001600160801b036001600160a01b039316906141d6565b91613115565b634f2461b85f526004601cfd5b604051906131676060836101f8565b603482527f6b202f2f2f2f2f2f2f2f2f2f2f2f2f2f2f2f2f2f0000000000000000000000006040837f2f2f2f2f2f2f2f2f2f2f2f2f2f2f2f2f2f2f20697343726f7373696e6754696360208201520152565b604051906131c86080836101f8565b60428252612f2f60f01b6060837f2f2f2f2f2f2f2f2f2f2f2f2f2f2f2f2f2f2f20214e6578745469636b4973467560208201527f72746865725468616e546172676574202f2f2f2f2f2f2f2f2f2f2f2f2f2f2f2f60408201520152565b9093915f94613235611f1d613158565b61324e61324984516001600160a01b031690565b613d53565b946001600160a01b0361327461064361326684613d53565b96516001600160a01b031690565b9116105f935b8415613290575b5050505061328b57565b5f9250565b9296508093506132c69195816132a7611f1d6131b9565b613304575b60a08820906132bf60608a015160020b90565b9188614027565b9290948396600187845f146132f6578560020b9060020b13155b951515146132f1579291909161327a565b613281565b8560020b9060020b136132e0565b5f190160020b6132ac565b60701b90565b906001600160a01b0381166001600160a01b03831611613392575b6001600160a01b038216928315613386577bffffffffffffffffffffffffffffffff0000000000000000000000006001600160a01b0361337a948185169403169160601b166142e4565b90808206151591040190565b62bfc9215f526004601cfd5b90613330565b6001600160801b03600160601b916001600160a01b0380600195169116038060ff1d908101189316926133cb818561418d565b93091515160190565b91906133df906127b3565b60048101809111610f97576001600160a01b039260209261047561341e613442946040519283918883019560020b869091604092825260208201520190565b519020604051948580948193631e2eaeaf60e01b8352600483019190602083019252565b0392165afa908115610d39575f91613467575b506001600160801b038160801d911691565b613480915060203d602011610d3257610d2381836101f8565b5f613455565b60020b908160ff1d82810118620d89e881116137a05763ffffffff9192600182167001fffcb933bd6fad37aa2d162d1a59400102600160801b189160028116613784575b60048116613768575b6008811661374c575b60108116613730575b60208116613714575b604081166136f8575b608081166136dc575b61010081166136c0575b61020081166136a4575b6104008116613688575b610800811661366c575b6110008116613650575b6120008116613634575b6140008116613618575b61800081166135fc575b6201000081166135e0575b6202000081166135c5575b6204000081166135aa575b6208000016613591575b5f12613589575b0160201c90565b5f1904613582565b6b048a170391f7dc42444e8fa290910260801c9061357b565b6d2216e584f5fa1ea926041bedfe9890920260801c91613571565b916e5d6af8dedb81196699c329225ee6040260801c91613566565b916f09aa508b5b7a84e1c677de54f3e99bc90260801c9161355b565b916f31be135f97d08fd981231505542fcfa60260801c91613550565b916f70d869a156d2a1b890bb3df62baf32f70260801c91613546565b916fa9f746462d870fdf8a65dc1f90e061e50260801c9161353c565b916fd097f3bdfd2022b8845ad8f792aa58250260801c91613532565b916fe7159475a2c29b7443b29c7fa6e889d90260801c91613528565b916ff3392b0822b70005940c7a398e4b70f30260801c9161351e565b916ff987a7253ac413176f2b074cf7815e540260801c91613514565b916ffcbe86c7900a88aedcffc83b479aa3a40260801c9161350a565b916ffe5dee046a99a2a811c461f1969c30530260801c91613500565b916fff2ea16466c96a3843ec78b326b528610260801c916134f7565b916fff973b41fa98c081472e6896dfb254c00260801c916134ee565b916fffcb9843d60f6159c9db58835c9266440260801c916134e5565b916fffe5caca7e10e4e61c3624eaa0941cd00260801c916134dc565b916ffff2e50f5f656932ef12357cf3c7fdcc0260801c916134d3565b916ffff97272373d413259a46990580e213a0260801c916134ca565b8261430d565b6139006138fb610b2f9260608101906137bf825161437d565b6138c56137f960808401936138c06137fe6137f96137ee6137e0895161437d565b976137f36137ee8a83614910565b614b60565b986151c1565b6143ea565b946138af61380b87614d0c565b9361389e61382161381c835161437d565b614d0c565b61388d61386061384c610c7b604061385161381c61384c61064360208c01516001600160a01b031690565b61437d565b9701516001600160801b031690565b9561387c61386c61024a565b6001600160801b0319909a168a52565b6001600160801b0319166020890152565b6001600160801b0319166040870152565b6001600160801b0319166060850152565b6001600160801b0319166080830152565b615463565b608081901c6f7fffffffffffffffffffffffffffffff16617fff60701b14801561390d575b156139055750915b5190511061555b565b6155aa565b615614565b9050916138f2565b50617fff60701b608082901c6f7fffffffffffffffffffffffffffffff16116138ea565b91909160608101516139429061437d565b9060808101516139519061437d565b9161395c81846151c1565b9261396691614910565b61396f90614b60565b93815161397b9061437d565b61398490614d0c565b94602083015161399a906001600160a01b031690565b6001600160a01b03166139ac9061437d565b6139b590614d0c565b916001600160a01b03166139c89061437d565b6139d190614d0c565b604093909301516139ea906001600160801b031661437d565b936139f3610268565b6001600160801b031990971687526001600160801b03191660208701526001600160801b03191660408601526001600160801b03191660608501526001600160801b03191660808401526001600160801b03191660a0830152613a5582615628565b613a5e906143ea565b613a67906155aa565b91613a71906156bc565b613a7a906143ea565b610b2f906155aa565b60405190613a926080836101f8565b604882527f2f2f2f2f2f2f2f2f0000000000000000000000000000000000000000000000006060837f2f2f2f2f2f2f2f2f2f2f2f2f2f2f2f2f2f2f20416476616e63652054696d652060208201527f5468726f756768205469636b2043726f7373696e67202f2f2f2f2f2f2f2f2f2f60408201520152565b9190939293613b1761172a565b50845160020b613b2690613486565b948592613b31613a83565b613b3a90612856565b60608201948551906020820151613b57906001600160801b031690565b91516001600160a01b031690866001820192835492600501948386549d6001600160801b038f931693613b8994615763565b9a8b928a518051613ba0906001600160a01b031690565b6020909101516001600160801b031690613bb861024a565b9586526001600160a01b031660208601526001600160801b0316604085015260608401526080830152613bea91613931565b9190613bfb91600201908154019055565b613c0a91600201908154019055565b60a09020905160020b90613c1d926133d4565b835180519193925083916001600160a01b03166001600160a01b03166001600160a01b038416106001600160801b03613c9f95613c8f94602093613cbc575b505f81600f0b125f14613ca457838301516001600160801b0316905f038216900316915b01906001600160801b03169052565b8251906001600160a01b03169052565b519190565b838301516001600160801b0316908216011691613c80565b90505f03600f0b5f613c5c565b908215613d4d5760601b7bffffffffffffffffffffffffffffffff00000000000000000000000016906001600160a01b03168281028381048214613d30575b50801561170e578104918201809211610f97576001600160a01b039180820615159104011690565b8201828110613d0857906001600160a01b039350611cef926142e4565b50905090565b73fffd8963efd1fc6a506488495d951d51639616826401000276a21982016001600160a01b031611613ffe576001600160a01b0316613d928160201b90565b806001600160801b03811160071b90811c67ffffffffffffffff811160061b90811c63ffffffff811160051b90811c61ffff811160041b90811c9060ff821160031b91821c92600f841160021b93841c94600160038711811b96871c1196171717171717179060808210155f14613ff357607e1982011c905b607f190160401b90800280607f1c8160ff1c1c800280607f1c8160ff1c1c800280607f1c8160ff1c1c800280607f1c8160ff1c1c800280607f1c8160ff1c1c800280607f1c8160ff1c1c80029081607f1c8260ff1c1c80029283607f1c8460ff1c1c80029485607f1c8660ff1c1c80029687607f1c8860ff1c1c80029889607f1c8a60ff1c1c80029a8b607f1c8c60ff1c1c80029c8d80607f1c9060ff1c1c800260cd1c6604000000000000169d60cc1c6608000000000000169c60cb1c6610000000000000169b60ca1c6620000000000000169a60c91c6640000000000000169960c81c6680000000000000169860c71c670100000000000000169760c61c670200000000000000169660c51c670400000000000000169560c41c670800000000000000169460c31c671000000000000000169360c21c672000000000000000169260c11c674000000000000000169160c01c678000000000000000161717171717171717171717171717693627a301d71055774c85026f028f6481ab7f045a5af012a19d003aa9198101613fa19060801d90565b60020b906fdb2df09e81959a81455e260799a0632f0160801d60020b918260020b8260020b145f14613fd35750905090565b6001600160a01b03613fe484613486565b1611613fee575090565b905090565b81607f031b90613e0b565b61586e565b9060020b90811561170e5760020b0590565b9060020b90811561170e5760020b0790565b90936140338484614003565b92845f8260020b129182614168575b505061415b575b156140e35761407e61406b8360020b906101008260081d60010b920760ff1690565b95600160ff88161b80015f19019361588a565b16801580159491906140d057916140be6140b36140ad6140c6946140a56140cd9897615979565b60ff91031690565b60ff1690565b62ffffff1660020b90565b900360020b90565b0260020b90565b91565b5060ff1660020b900360020b0260020b91565b600191820160020b9161411190600884901d900b60ff610100850716955f19600160ff89161b01199361588a565b1680158015949190614146579161413f6140b36140ad6140c6946141386140cd98976158ea565b0360ff1690565b0160020b90565b5060ff9081031660020b0160020b0260020b91565b915f190160020b91614049565b61417d92509061417791614015565b60020b90565b1515845f614042565b1561028857565b81810291905f1982820991838084109303928084039384600160601b111561028857146141cd57600160601b910990828211900360a01b910360601c1790565b50505060601c90565b908160601b905f19600160601b84099282808510940393808503946141fc868511614186565b1461425a57600160601b82910981805f03168092046002816003021880820260020302808202600203028082026002030280820260020302808202600203028091026002030293600183805f03040190848311900302920304170290565b5091500490565b91818302915f19818509938380861095039480860395614282878611614186565b146142dc579082910981805f03168092046002816003021880820260020302808202600203028082026002030280820260020302808202600203028091026002030293600183805f03040190848311900302920304170290565b505091500490565b9291906142f2828286614261565b93821561170e570961430057565b9060010190811561028857565b6345c3193d60e11b5f5260020b60045260245ffd5b600261432d816159fd565b90607082101561436957816070031b5b6001600160701b0316613fff90910160701b6001600160801b03161760801b6001600160801b03191690565b607082111561433d57606f1982011c61433d565b8061438757505f90565b80614391826159fd565b9160708310156143cd5750816070031b6001600160701b0316613fff90910160701b6001600160801b03161760801b6001600160801b03191690565b607083116143dc575b5061433d565b606f1983011c90505f6143d6565b608081901c617fff60f083901c1661440f617fff61405f5b166001600160801b031690565b91617fff820361446c575050617fff03610b2f576001600160801b0319811661405f60f01b0361443c5790565b61405f60f01b81186001600160801b031916600160ff1b036144625761405f60f01b1790565b5061ffff60ef1b90565b617fff83036144a357505050600160801b600160ff1b038116614493575061ffff60ef1b90565b600160ff1b1661405f60f01b1890565b6001600160701b0316908061462e57506001915b5f908061462157506001915b0291821561460057610b2f9361451e939092909101600160e11b82106145e05760e15b8181019061407082101561452e57505f9392506001607f1b91508390505b9161405f60f01b1860801c1617176001600160801b031690565b60801b6001600160801b03191690565b6140e082101561457357505061407081101561455657614070031c905b6001607f1b5f614504565b6140708111614567575b509061454b565b61406f19011b5f614560565b909392915061c0dd84111561459857505f92506001607f1b9050614504617fff61330f565b6001600160701b036001607f1b9282607061450494115f146145c757606f19011c5b16936140de190160701b90565b607081106145d6575b506145ba565b6070031b5f6145d0565b600160e01b82106145f25760e06144e6565b6145fb826159fd565b6144e6565b50505061405f60f01b18600160ff1b161561461d57600160ff1b90565b5f90565b91600160701b91506144c3565b9190600160701b17906144b7565b608081901c617fff60f083901c16614658617fff613ffe614402565b91617fff82036146d5575050617fff03610b2f576001600160801b031981166f3ffe62e42fefa39ef35793c7673007e560801b036146935790565b6f3ffe62e42fefa39ef35793c7673007e560801b81186001600160801b031916600160ff1b03614462576f3ffe62e42fefa39ef35793c7673007e560801b1790565b617fff830361471a57505050600160801b600160ff1b0381166146fc575061ffff60ef1b90565b600160ff1b166f3ffe62e42fefa39ef35793c7673007e560801b1890565b6001600160701b0316908061490257506001915b6d62e42fefa39ef35793c7673007e590806148ea57506001915b029182156148bf57610b2f9361451e939092909101600160e11b821061489f5760e15b818101906140708210156147b157505f9392506001607f1b91506f3ffe62e42fefa39ef35793c7673007e560801b9050835b921860801c1617176001600160801b031690565b6140e082101561480a5750506140708110156147ed57614070031c905b6001607f1b6f3ffe62e42fefa39ef35793c7673007e560801b5f61479d565b61407081116147fe575b50906147ce565b61406f19011b5f6147f7565b909392915061c0dd84111561484357505f92506001607f1b90506f3ffe62e42fefa39ef35793c7673007e560801b61479d617fff61330f565b61479d6001600160701b036001607f1b938360706f3ffe62e42fefa39ef35793c7673007e560801b95115f1461488657606f19011c5b16946140de190160701b90565b60708110614895575b50614879565b6070031b5f61488f565b600160e01b82106148b15760e061476b565b6148ba826159fd565b61476b565b5050506f3ffe62e42fefa39ef35793c7673007e560801b18600160ff1b161561461d57600160ff1b90565b916e0162e42fefa39ef35793c7673007e59150614748565b9190600160701b179061472e565b90608082901c617fff60f084901c608084901c929116614936617fff60f086901c614402565b91617fff82036149ba575050617fff14159050614993576001600160801b03198281169082160361496b57600160ff1b161890565b908082186001600160801b031916600160ff1b03614987571790565b5061ffff60ef1b919050565b600160801b600160ff1b0381166149b0575061ffff60ef1b919050565b600160ff1b161890565b617fff839293145f146149ec575050505090600160801b600160ff1b038116155f146149b0575061ffff60ef1b919050565b6001600160701b03169180614b4957506001600160701b036001935b169080614b3b57506001915b02918215614b2457610b2f9461451e94939092909101600160e11b8210614b045760e15b81810190614070821015614a5a57505f946001607f1b9350915084905061479d565b6140e0821015614ab0575050614070811015614a8357614070031c916001607f1b905b5f61479d565b6140708194929411614a9c575b506001607f1b90614a7d565b61406f19019290921b916001607f1b614a90565b9092915061c0dd831115614ad4575050506001607f1b617fff9261479d5f9461330f565b6001600160701b036001607f1b93959282607061479d94115f1461488657606f19011c16946140de190160701b90565b600160e01b8210614b165760e0614a38565b614b1f826159fd565b614a38565b50505018600160ff1b161561461d57600160ff1b90565b9190600160701b1790614a14565b9291600160701b6001600160701b03911792614a08565b8060801c6001607f1b81115f14614b7d575061ffff60ef1b919050565b607081901c617fff1690617ffe198201614b9657505090565b6001600160701b0316915080614ce557506001905b8015614cdf57614bc4613fff6001841615930160011c90565b9115614cab57600160701b8110614c825760711b5b614c4a614c43614c39614c2f614c25614c1b614c11614c07600160701b614c008a60701c90565b0160011c90565b614c00818a611704565b614c008189611704565b614c008188611704565b614c008187611704565b614c008186611704565b614c008185611704565b8092611704565b818110614c7a575b506001600160701b036001600160801b03614c6f81199460701b90565b1691161760801b1690565b90505f614c52565b90614ca360fe614c91846159fd565b60e2031692831b92606f190160011c90565b900390614bd9565b600160701b8110614cbe5760701b614bd9565b90614ca360fe614ccd846159fd565b60e1031692831b92606f190160011c90565b50505f90565b90600160701b17614bab565b15614cf857565b634e487b7160e01b5f52600160045260245ffd5b5f608082901c617fff60f084901c16614d29617fff61405f614402565b91617fff8203614d4a575050617fff14159050610b2f575061ffff60ef1b90565b9091617fff8103614d78575050505f14614d68575061ffff60ef1b90565b61405f60f01b18600160ff1b1690565b919250905f9080614f1f57506001600160701b036001925b1683614f0c5780614ee4575b90614da691611704565b9182156146005791610b2f939161451e93614dc76001606c1b841015614cf1565b600160731b8310614eb157614ddb836159fd565b818101906140718401821115614e04575050505050617fff906001607f1b6145045f9360701b90565b83613ffc8301105f14614e285750505050505f906001607f1b6145045f9360701b90565b83613f8c8301105f14614e78575050613ffc810182811115614e5a575003613ffc011b906001607f1b6145045f61330f565b8211614e69575b50509061454b565b9003613ffb19011c5f80614e61565b6145049250926001600160701b03613f8d9296958560706001607f1b9711614ea6575b501695030160701b90565b606f19011c5f614e9b565b600160721b8310614ec75760ff60725b16614ddb565b600160711b8310614edb5760ff6071614ec1565b60ff6070614ec1565b9250614da690614ef3846159fd565b60e20393841b9260019460711991010192909150614d9c565b614da69190600160701b1760721b611704565b9190506001600160701b03600160701b91614d90565b613fff608082901c614f4d617fff60f085901c614402565b90617fff8303614f7d5750617fff14159050614f6d575061ffff60ef1b90565b600160ff1b16613fff60f01b1890565b617fff8203614fbc575050506dffffffffffffffffffffffffffff60801b811615614fac575061ffff60ef1b90565b613fff60f01b18600160ff1b1690565b600160801b600160ff1b038416614fea57505050600160ff1b613fff60f01b9190911816617fff60f01b1790565b6001600160701b031690806151b557506001905b5f836151a6578061517e575b9061501491611704565b9182156151615791610b2f939161451e936150356001606c1b841015614cf1565b600160731b831061512e57615049836159fd565b81810190614071840182111561508c575050505050617fff906001607f1b6150725f9360701b90565b91613fff60f01b1860801c1617176001600160801b031690565b83613ffc8301105f146150b05750505050505f906001607f1b6150725f9360701b90565b83613f8c8301105f14615101575050613ffc8101828111156150e3575003613ffc011b905b6001607f1b6150725f61330f565b82116150f2575b5050906150d5565b9003613ffb19011c5f806150ea565b6150729250926001600160701b03613f8d9296958560706001607f1b9711614ea657501695030160701b90565b600160721b83106151445760ff60725b16615049565b600160711b83106151585760ff607161513e565b60ff607061513e565b505050613fff60f01b18600160ff1b161561461d57600160ff1b90565b92506150149061518d846159fd565b60e20393841b926001946071199101019290915061500a565b5061501490600160e21b611704565b90600160701b17614ffe565b90608082901c617fff60f084901c1690608083901c906151e7617fff60f086901c614402565b91617fff840361520a575050617fff141590506149b0575061ffff60ef1b919050565b617fff839293145f1461524a57505050506dffffffffffffffffffffffffffff60801b811615615240575061ffff60ef1b919050565b18600160ff1b1690565b600160801b600160ff1b03851661528e5750505050600160801b600160ff1b03821661527c575061ffff60ef1b919050565b617fff60f01b9118600160ff1b161790565b6001600160701b0316908061544c57506001600160701b036001925b16836154395780615411575b906152c091611704565b918215614b245791610b2f949161451e94936152e26001606c1b841015614cf1565b600160731b83106153de576152f6836159fd565b81810190614071840182111561531f5750505050506001607f1b617fff9261479d5f9460701b90565b83613ffc8301105f146153435750505050506001607f1b5f9261479d5f9460701b90565b83613f8c8301105f146153a5575050613ffc810182811115615376575003613ffc011b916001607f1b9061479d5f61330f565b82909593951061538e575b50506001607f1b90614a7d565b9003613ffb19019290921c916001607f1b5f615381565b61479d9250926001600160701b036001607f1b95856070613f8d959a97116153d3575b501696030160701b90565b606f19011c5f6153c8565b600160721b83106153f45760ff60725b166152f6565b600160711b83106154085760ff60716153ee565b60ff60706153ee565b92506152c090615420846159fd565b60e20393841b92600194607119910101929091506152b6565b6152c09190600160701b1760721b611704565b9190600160701b6001600160701b039117916152aa565b610b2f906154f86154ba6154a561549061547b614322565b60208601516001600160801b03191690614910565b60408501516001600160801b03191690614910565b60808401516001600160801b031916906151c1565b916155566155406154fe83516001600160801b0319166154f860608601516001600160801b0319166154f2600160ff1b821884615ad3565b92615ad3565b906151c1565b92516001600160801b0319166155507f3fff71547652b82fe1777d0ffda0d23a000000000000000000000000000000009161554a86615545615540868c614910565b615ff9565b615ac7565b90614910565b95614910565b615ad3565b1561558057600161556b82615f5c565b5f0b03610b2f5750651007c0009da960d21b90565b600161558b82615e80565b5f0b03610b2f57506f204f7ffd8963efd1fc6a506488495d9560811b90565b60f081901c617fff169060801c613fff8210614cdf576001607f1b811015610288576001600160701b03600160701b916155e86140fe851115614186565b16179061406f8110156155fd5761406f031c90565b61406f811161560b575b5090565b61406e19011b90565b906001600160a01b0382169182036127a457565b610b2f906156b06001600160801b03196020830151169161569a61567361565a6001600160801b031984511686614910565b9461554a6001600160801b031960a08601511691614b60565b6080830151606084015161554a91600160ff1b6001600160801b0319928316189116615ad3565b6040909101516001600160801b031916906151c1565b600160ff1b1890615ad3565b610b2f906156b06001600160801b031982511691604061575061571f6156f260208501966001600160801b0319885116906151c1565b9561554a61571a6001600160801b031960a088015116926001600160801b0319905116614b60565b614f35565b61554a6157396001600160801b0319608087015116614f35565b6156b06001600160801b0319606088015116614f35565b9101516001600160801b031916906151c1565b926157709092919261437d565b9361577a9061437d565b916001600160a01b031661578d9061437d565b906001600160a01b03166157a09061437d565b936157ab81846151c1565b6157b490614b60565b6157bd906143ea565b926157c791614910565b6157d090614b60565b936157db8184615ad3565b906157ec90600160ff1b1884615ad3565b6157f5916151c1565b91615806600160ff1b831882615ad3565b9161581091615ad3565b615819916151c1565b61582291614910565b61582b906177e4565b6158349061463c565b9061583e9061437d565b61584791614910565b90615850614322565b9061585a91614910565b90615864906143ea565b90613a7a916151c1565b6001600160a01b03906318521d4960e21b5f521660045260245ffd5b9190615895906127b3565b60058101809111610f97576001600160a01b039260209261047561341e6158d4946040519283918883019560010b869091604092825260208201520190565b0392165afa908115610d39575f916126b6575090565b8015610288576001811901167e1f0d1e100c1d070f090b19131c1706010e11080a1a141802121b1503160405601f6101e07f804040554300526644320000502061067405302602000010750620017611707760fc7fb6db6db6ddddddddd34d34d349249249210842108c6318c639ce739cffffffff860260f81c161b60f71c1692831c63d76453e004161a1790565b8015610288577f07060605060205040602030205040301060502050303040105050304000000006f8421084210842108cc6318c6db6d54be826001600160801b031060071b83811c67ffffffffffffffff1060061b1783811c63ffffffff1060051b1783811c61ffff1060041b1783811c60ff1060031b1792831c1c601f161a1790565b615a08811515614186565b5f90600160801b811015615abc575b80680100000000000000006002921015615ab0575b640100000000811015615aa4575b62010000811015615a98575b610100811015615a8c575b6010811015615a80575b6004811015615a74575b1015615a6e5790565b60010190565b9181019160021c615a65565b6004928301921c615a5b565b6008928301921c615a51565b6010928301921c615a46565b6020928301921c615a3a565b6040928301921c615a2c565b60809150811c615a17565b610b2f91600160ff1b18905b90608082901c617fff60f084901c1690608083901c615af8617fff60f086901c614402565b92617fff8103615b2357505050617fff03615607576001600160801b03198281169116036144625790565b909192617fff81969596145f14615b3c57505050505090565b6001607f1b841015936001600160701b03169180615e7257506001925b6001600160701b036001607f1b82101591169180155f14615e65575060015b83615ba15750505050506001600160801b03198316600160ff1b14159150610b2f905057505f90565b8293949596979192155f14615bd45750505050506001600160801b03198316600160ff1b14159150610b2f905057505f90565b80860392878103615ced57506070831315615bf3575050505050505090565b90919293949596505f83135f14615cb25750501c905b0190600160711b821015615ca6575b617fff8103615c3d57505015615c34576001600160f01b031990565b617fff60f01b90565b610b2f9261451e9291600160701b831015615c9557505f905b15615c82576001600160801b03615c726001607f1b9260701b90565b911617176001600160801b031690565b6001600160801b03615c725f9260701b90565b90916001600160701b031691615c56565b600191821c9101615c18565b9095949391606f19811215615cca5750505050505090565b909192939495505f8112615ce0575b5050615c09565b9093505f031c5f80615cd9565b95949280949798505f919250135f14615e45575060011b915f1901935b6070821315615def5750506001915b828210615de65750035b8015615ddf57615d32816159fd565b60718103615d9557506001600160701b03615d4f60019260011c90565b1691015b617fff8103615d6f57505015615c34576001600160f01b031990565b9061451e91610b2f935f14615c82576001600160801b03615c726001607f1b9260701b90565b91906070831015615dcf57826070038083115f14615dc2571b6001600160701b03169101606f1901615d53565b5091505f19011b5f615d53565b6001600160701b03169150615d53565b5050505f90565b93509003615d23565b6001821315615e09575f1990810191011c60010191615d19565b9290606f19811215615e1f575060019150615d19565b5f198112615e2e575b50615d19565b600191925f1901905f19905f03011c01905f615e28565b5f839692949612615e57575b50615d0a565b5f1901945060011b5f615e51565b91600160701b1791615b78565b9291600160701b1791615b59565b5f908060801c6f204f7ffd8963efd1fc6a506488495d9560811b6f7fffffffffffffffffffffffffffffff821692615ebf617fff60701b851115614186565b615ec96001614186565b6001600160801b03191614801581615f4e575b615ee590614186565b15615eef57505090565b6001607f1b11615f2a578115615f23576f409efffb12c7dfa3f8d4a0c91092bb2a9150115f14615f1e575f1990565b600190565b50505f1990565b6f409efffb12c7dfa3f8d4a0c91092bb2a9150115f14615f4957600190565b5f1990565b50617fff60701b8310615edc565b5f90615f686001614186565b8060801c6f7fffffffffffffffffffffffffffffff811691615f91617fff60701b841115614186565b6001600160801b031916651007c0009da960d21b1480801590615ff1575b615fb890614186565b15615fc257505090565b9091506001607f1b11615fd55750600190565b6f401f000276a4000000000000000000001115615f4957600190565b506001615faf565b60801c6001607f1b8111906001600160701b03617fff61601e8361ffff9060701c1690565b16911690617fff8114806177db575b1561603f575061ffff60ef1b92915050565b61400d81111561605457505015615c34575f90565b613f7f81101561606b5750613fff60f01b92915050565b806177ce575060015b613fef8111156177b357613fee19011b5b8180617798575b614cdf57811590818061777d575b61777057610b2f9261451e926001600160801b036160b88460801c90565b93169180617767575b617759575b6001607f1b91828116617741575b6f400000000000000000000000000000008116617724575b6f200000000000000000000000000000008116617707575b6f1000000000000000000000000000000081166176ea575b6f0800000000000000000000000000000081166176cd575b6f0400000000000000000000000000000081166176b0575b6f020000000000000000000000000000008116617693575b6f010000000000000000000000000000008116617676575b6e8000000000000000000000000000008116617659575b6e400000000000000000000000000000811661763c575b6e200000000000000000000000000000811661761f575b6e1000000000000000000000000000008116617602575b600160731b81166175e5575b600160721b81166175c8575b600160711b81166175ab575b600160701b811661758e575b6d80000000000000000000000000008116617571575b6d40000000000000000000000000008116617554575b6d20000000000000000000000000008116617537575b6001606c1b811661751a575b6d080000000000000000000000000081166174fd575b6d040000000000000000000000000081166174e0575b6d020000000000000000000000000081166174c3575b6d010000000000000000000000000081166174a6575b6c800000000000000000000000008116617489575b6c40000000000000000000000000811661746c575b6c20000000000000000000000000811661744f575b6c100000000000000000000000008116617432575b6c080000000000000000000000008116617415575b6c0400000000000000000000000081166173f8575b6c0200000000000000000000000081166173db575b600160601b81166173be575b6b80000000000000000000000081166173a1575b6b4000000000000000000000008116617384575b6b2000000000000000000000008116617367575b6b100000000000000000000000811661734a575b6b080000000000000000000000811661732d575b6b0400000000000000000000008116617310575b6b02000000000000000000000081166172f3575b6b01000000000000000000000081166172d6575b6a800000000000000000000081166172b9575b6a4000000000000000000000811661729c575b6a2000000000000000000000811661727f575b6a10000000000000000000008116617262575b6a08000000000000000000008116617245575b6a04000000000000000000008116617228575b6a0200000000000000000000811661720b575b6a010000000000000000000081166171ee575b698000000000000000000081166171d1575b694000000000000000000081166171b4575b69200000000000000000008116617197575b6910000000000000000000811661717a575b6908000000000000000000811661715d575b69040000000000000000008116617140575b69020000000000000000008116617123575b69010000000000000000008116617106575b6880000000000000000081166170e9575b6840000000000000000081166170cc575b6820000000000000000081166170af575b681000000000000000008116617092575b680800000000000000008116617075575b680400000000000000008116617058575b68020000000000000000811661703b575b68010000000000000000811661701e575b6780000000000000008116617001575b6740000000000000008116616fe4575b6720000000000000008116616fc7575b6710000000000000008116616faa575b6708000000000000008116616f8d575b6704000000000000008116616f70575b6702000000000000008116616f53575b6701000000000000008116616f36575b66800000000000008116616f19575b66400000000000008116616efc575b66200000000000008116616edf575b66100000000000008116616ec2575b66080000000000008116616ea5575b66040000000000008116616e88575b66020000000000008116616e6b575b66010000000000008116616e4e575b658000000000008116616e31575b654000000000008116616e14575b652000000000008116616df7575b651000000000008116616dda575b650800000000008116616dbd575b650400000000008116616da0575b650200000000008116616d83575b650100000000008116616d66575b6480000000008116616d49575b6440000000008116616d2c575b6420000000008116616d0f575b6410000000008116616cf2575b6408000000008116616cd5575b6404000000008116616cb8575b6402000000008116616c9b575b6401000000008116616c7e575b63800000008116616c61575b63400000008116616c44575b63200000008116616c27575b63100000008116616c0a575b63080000008116616bed575b63040000008116616bd0575b63020000008116616bb3575b63010000008116616b96575b628000008116616b79575b624000008116616b5c575b622000008116616b3f575b621000008116616b22575b620800008116616b05575b620400008116616ae8575b620200008116616acb575b620100008116616aae575b6180008116616a91575b6140008116616a74575b6120008116616a57575b6110008116616a3a575b6108008116616a1d575b6104008116616a00575b61020081166169e3575b61010081166169c6575b608081166169a9575b6040811661698c575b6020811661696f575b60108116616952575b60088116616934575b600416616917575b156168dd57613fff6001600160701b036168c76168d093600f1c90565b16920160701b90565b176001600160801b031690565b613ffe8211616907576001600160701b036168fb6168d092600f1c90565b1691613fff0360701b90565b90613fee19011c6168d05f61330f565b907001000000000000000000000000000000010260801c906168aa565b70010000000000000000000000000000000490920260801c916168a2565b9170010000000000000000000000000000000a0260801c91616899565b917001000000000000000000000000000000150260801c91616890565b9170010000000000000000000000000000002b0260801c91616887565b917001000000000000000000000000000000570260801c9161687e565b917001000000000000000000000000000000b00260801c91616875565b917001000000000000000000000000000001610260801c9161686b565b917001000000000000000000000000000002c40260801c91616861565b9170010000000000000000000000000000058a0260801c91616857565b91700100000000000000000000000000000b160260801c9161684d565b9170010000000000000000000000000000162d0260801c91616843565b91700100000000000000000000000000002c5b0260801c91616839565b917001000000000000000000000000000058b80260801c9161682f565b9170010000000000000000000000000000b1710260801c91616825565b917001000000000000000000000000000162e30260801c9161681a565b9170010000000000000000000000000002c5c70260801c9161680f565b91700100000000000000000000000000058b8f0260801c91616804565b917001000000000000000000000000000b17200260801c916167f9565b91700100000000000000000000000000162e410260801c916167ee565b917001000000000000000000000000002c5c840260801c916167e3565b9170010000000000000000000000000058b90a0260801c916167d8565b91700100000000000000000000000000b172160260801c916167cd565b9170010000000000000000000000000162e42e0260801c916167c1565b91700100000000000000000000000002c5c85e0260801c916167b5565b917001000000000000000000000000058b90be0260801c916167a9565b9170010000000000000000000000000b17217e0260801c9161679d565b917001000000000000000000000000162e42fd0260801c91616791565b9170010000000000000000000000002c5c85fc0260801c91616785565b91700100000000000000000000000058b90bfa0260801c91616779565b917001000000000000000000000000b17217f60260801c9161676d565b91700100000000000000000000000162e42fee0260801c91616760565b917001000000000000000000000002c5c85fde0260801c91616753565b9170010000000000000000000000058b90bfbd0260801c91616746565b91700100000000000000000000000b17217f7c0260801c91616739565b9170010000000000000000000000162e42fef90260801c9161672c565b91700100000000000000000000002c5c85fdf30260801c9161671f565b917001000000000000000000000058b90bfbe70260801c91616712565b9170010000000000000000000000b17217f7d00260801c91616705565b917001000000000000000000000162e42fefa20260801c916166f7565b9170010000000000000000000002c5c85fdf460260801c916166e9565b91700100000000000000000000058b90bfbe8d0260801c916166db565b917001000000000000000000000b17217f7d1b0260801c916166cd565b91700100000000000000000000162e42fefa380260801c916166bf565b917001000000000000000000002c5c85fdf4720260801c916166b1565b9170010000000000000000000058b90bfbe8e60260801c916166a3565b91700100000000000000000000b17217f7d1ce0260801c91616695565b9170010000000000000000000162e42fefa39d0260801c91616686565b91700100000000000000000002c5c85fdf473c0260801c91616677565b917001000000000000000000058b90bfbe8e7a0260801c91616668565b9170010000000000000000000b17217f7d1cf60260801c91616659565b917001000000000000000000162e42fefa39ee0260801c9161664a565b9170010000000000000000002c5c85fdf473dd0260801c9161663b565b91700100000000000000000058b90bfbe8e7bb0260801c9161662c565b917001000000000000000000b17217f7d1cf780260801c9161661d565b91700100000000000000000162e42fefa39ef20260801c9161660d565b917001000000000000000002c5c85fdf473de50260801c916165fd565b9170010000000000000000058b90bfbe8e7bcc0260801c916165ed565b91700100000000000000000b17217f7d1cf7990260801c916165dd565b9170010000000000000000162e42fefa39ef340260801c916165cd565b91700100000000000000002c5c85fdf473de6a0260801c916165bd565b917001000000000000000058b90bfbe8e7bcd50260801c916165ad565b9170010000000000000000b17217f7d1cf79ab0260801c9161659d565b917001000000000000000162e42fefa39ef3580260801c9161658c565b9170010000000000000002c5c85fdf473de6b20260801c9161657b565b91700100000000000000058b90bfbe8e7bcd6d0260801c9161656a565b917001000000000000000b17217f7d1cf79afa0260801c91616559565b91700100000000000000162e42fefa39ef366f0260801c91616548565b917001000000000000002c5c85fdf473de6eca0260801c91616537565b9170010000000000000058b90bfbe8e7bce5440260801c91616526565b91700100000000000000b17217f7d1cf79e9490260801c91616515565b9170010000000000000162e42fefa39ef44d910260801c91616503565b91700100000000000002c5c85fdf473dea871f0260801c916164f1565b917001000000000000058b90bfbe8e7bdcbe2e0260801c916164df565b9170010000000000000b17217f7d1cf7d83c1a0260801c916164cd565b917001000000000000162e42fefa39f02b772c0260801c916164bb565b9170010000000000002c5c85fdf473e242ea380260801c916164a9565b91700100000000000058b90bfbe8e7cc35c3f00260801c91616497565b917001000000000000b17217f7d1cfb72b45e10260801c91616485565b91700100000000000162e42fefa39fe95583c20260801c91616472565b917001000000000002c5c85fdf4741bea6e77e0260801c9161645f565b9170010000000000058b90bfbe8e8b2d3d4ede0260801c9161644c565b91700100000000000b17217f7d1d351a389d400260801c91616439565b9170010000000000162e42fefa3ae53369388c0260801c91616426565b91700100000000002c5c85fdf477b662b269450260801c91616413565b917001000000000058b90bfbe8f71cb4e4b33d0260801c91616400565b9170010000000000b17217f7d20cf927c8e94c0260801c916163ed565b917001000000000162e42fefa494f1478fde050260801c916163d9565b9170010000000002c5c85fdf4b15de6f17eb0d0260801c916163c5565b91700100000000058b90bfbe9ddbac5e109cce0260801c916163b1565b917001000000000b17217f7d5a7716bba4a9ae0260801c9161639d565b91700100000000162e42fefb2fed257559bdaa0260801c91616389565b917001000000002c5c85fdf84bd62ae30a74cc0260801c91616375565b9170010000000058b90bfbf8479bd5a81b51ad0260801c91616361565b91700100000000b17217f80f4ef5aadda455540260801c9161634d565b9170010000000162e42ff0999ce3541b9fffcf0260801c91616341565b91700100000002c5c85fe31f35a6a30da1be500260801c9161632c565b917001000000058b90bfcdee5acd3c1cedc8230260801c91616317565b9170010000000b17217fba9c739aa5819f44f90260801c91616302565b917001000000162e42fff037df38aa2b219f060260801c916162ed565b9170010000002c5c8601cc6b9e94213c72737a0260801c916162d8565b91700100000058b90c0b48c6be5df846c5b2ef0260801c916162c3565b917001000000b1721835514b86e6d96efd1bfe0260801c916162ae565b91700100000162e430e5a18f6119e3c02282a50260801c91616298565b917001000002c5c863b73f016468f6bac5ca2b0260801c91616282565b9170010000058b90cf1e6d97f9ca14dbcc16280260801c9161626c565b91700100000b1721bcfc99d9f890ea069117630260801c91616256565b9170010000162e43f4f831060e02d839a9d16d0260801c9161624a565b91700100002c5c89d5ec6ca4d7c8acc017b7c90260801c91616234565b917001000058b91b5bc9ae2eed81e9b7d4cfab0260801c9161621e565b9170010000b17255775c040618bf4a4ade83fc0260801c91616208565b917001000162e525ee054754457d59952920260260801c916161fc565b9170010002c5cc37da9491d0985c348c68e7b30260801c916161f0565b91700100058ba01fb9f96d6cacd4b180917c3d0260801c916161e4565b917001000b175effdc76ba38e31671ca9397250260801c916161d8565b91700100162f3904051fa128bca9c55c31e5df0260801c916161c1565b917001002c605e2e8cec506d21bfc89a23a00f0260801c916161aa565b9170010058c86da1c09ea1ff19d294cf2f679b0260801c91616193565b91700100b1afa5abcbed6129ab13ec11dc95430260801c9161617c565b9170010163da9fb33356d84a66ae336dcdfa3f0260801c91616164565b91700102c9a3e778060ee6f7caca4f7a29bde80260801c9161614c565b917001059b0d31585743ae7c548eb68ca417fd0260801c91616134565b9170010b5586cf9890f6298b92b71842a983630260801c9161611c565b917001172b83c7d517adcdf7c8c50eb14a791f0260801c91616104565b917001306fe0a31b7152de8d5a46305c85edec0260801c916160ec565b6fb504f333f9de6484597d89b3754abe9f92506160d4565b9190600190199101916160c6565b508115156160c1565b50617fff60f01b92915050565b50713fffffffffffffffffffffffffffffffffff811161609a565b5071406e00000000000000000000000000000000811161608c565b613fef81106177c3575b50616085565b613fef031c5f6177bd565b90600160701b1790616074565b5081151561602d565b8060801c6001607f1b81115f14617801575061ffff60ef1b919050565b6001600160801b03198216613fff60f01b0361781d5750505f90565b607081901c617fff1690617ffe19820161783657505090565b6001600160701b031691508061797657506001905b80156179675761406f613fff8310617932575f92613ffe190191600f1b5b6001607f1b81036178e15750826178d7575b617884826159fd565b91826070031b91606f19910101915b156178c9576001600160701b036001607f1b5b6001600160801b03806178bb81199660701b90565b1691161791161760801b1690565b6001600160701b035f6178a6565b906001019061787b565b909290811561792a5760ff60015b165b600160701b8410617903575050617893565b90939260011b925f190193800261791a8160ff1c90565b938285180193607f011c906178f1565b60ff5f6178ef565b600192600160701b831061794d57613ffe0391600f1b617869565b50617957826159fd565b918261406d0392607f031b617869565b506001600160f01b0319919050565b90600160701b1761784b56fea26469706673582212207081d5198653f56d2bd9beb84d3a76d1ed726b41c0a4140110e5b812321bdabd64736f6c634300081a0033","linkReferences":{}},"methodIdentifiers":{"afterAddLiquidity(address,(address,address,uint24,int24,address),(int24,int24,int256,bytes32),int256,bytes)":"5a2a8100","afterDonate(address,(address,address,uint24,int24,address),uint256,uint256,bytes)":"e1b4af69","afterInitialize(address,(address,address,uint24,int24,address),uint160,int24,bytes)":"a910f80f","afterRemoveLiquidity(address,(address,address,uint24,int24,address),(int24,int24,int256,bytes32),int256,bytes)":"8db2b652","afterSwap(address,(address,address,uint24,int24,address),(bool,int256,uint160),int256,bytes)":"b47b2fb1","beforeAddLiquidity(address,(address,address,uint24,int24,address),(int24,int24,int256,bytes32),bytes)":"259982e5","beforeDonate(address,(address,address,uint24,int24,address),uint256,uint256,bytes)":"b6a8b0fa","beforeInitialize(address,(address,address,uint24,int24,address),uint160,bytes)":"3440d820","beforeRemoveLiquidity(address,(address,address,uint24,int24,address),(int24,int24,int256,bytes32),bytes)":"21d0ee70","beforeSwap(address,(address,address,uint24,int24,address),(bool,int256,uint160),bytes)":"575e24b4","claimTokens(address,address,uint256)":"9fc314c8","executeTWAMMOrders((address,address,uint24,int24,address))":"5f65a295","expirationInterval()":"c01f9606","getHookPermissions()":"c4e833ce","getOrder((address,address,uint24,int24,address),(address,uint160,bool))":"ccf4b247","getOrderPool((address,address,uint24,int24,address),bool)":"86fd4fdc","lastVirtualOrderTimestamp(bytes32)":"27ac0881","poolManager()":"dc4c90d3","submitOrder((address,address,uint24,int24,address),(address,uint160,bool),uint256)":"9d544ca8","tokensOwed(address,address)":"6fc389ae","unlockCallback(bytes)":"91dd7346","updateOrder((address,address,uint24,int24,address),(address,uint160,bool),int256)":"00e7b1be"},"id":96}