{"abi":[{"type":"constructor","inputs":[{"name":"_manager","type":"address","internalType":"contract IPoolManager"},{"name":"_uri","type":"string","internalType":"string"}],"stateMutability":"nonpayable"},{"type":"function","name":"afterAddLiquidity","inputs":[{"name":"","type":"address","internalType":"address"},{"name":"","type":"tuple","internalType":"struct PoolKey","components":[{"name":"currency0","type":"address","internalType":"Currency"},{"name":"currency1","type":"address","internalType":"Currency"},{"name":"fee","type":"uint24","internalType":"uint24"},{"name":"tickSpacing","type":"int24","internalType":"int24"},{"name":"hooks","type":"address","internalType":"contract IHooks"}]},{"name":"","type":"tuple","internalType":"struct IPoolManager.ModifyLiquidityParams","components":[{"name":"tickLower","type":"int24","internalType":"int24"},{"name":"tickUpper","type":"int24","internalType":"int24"},{"name":"liquidityDelta","type":"int256","internalType":"int256"},{"name":"salt","type":"bytes32","internalType":"bytes32"}]},{"name":"","type":"int256","internalType":"BalanceDelta"},{"name":"","type":"bytes","internalType":"bytes"}],"outputs":[{"name":"","type":"bytes4","internalType":"bytes4"},{"name":"","type":"int256","internalType":"BalanceDelta"}],"stateMutability":"nonpayable"},{"type":"function","name":"afterDonate","inputs":[{"name":"","type":"address","internalType":"address"},{"name":"","type":"tuple","internalType":"struct PoolKey","components":[{"name":"currency0","type":"address","internalType":"Currency"},{"name":"currency1","type":"address","internalType":"Currency"},{"name":"fee","type":"uint24","internalType":"uint24"},{"name":"tickSpacing","type":"int24","internalType":"int24"},{"name":"hooks","type":"address","internalType":"contract IHooks"}]},{"name":"","type":"uint256","internalType":"uint256"},{"name":"","type":"uint256","internalType":"uint256"},{"name":"","type":"bytes","internalType":"bytes"}],"outputs":[{"name":"","type":"bytes4","internalType":"bytes4"}],"stateMutability":"nonpayable"},{"type":"function","name":"afterInitialize","inputs":[{"name":"","type":"address","internalType":"address"},{"name":"key","type":"tuple","internalType":"struct PoolKey","components":[{"name":"currency0","type":"address","internalType":"Currency"},{"name":"currency1","type":"address","internalType":"Currency"},{"name":"fee","type":"uint24","internalType":"uint24"},{"name":"tickSpacing","type":"int24","internalType":"int24"},{"name":"hooks","type":"address","internalType":"contract IHooks"}]},{"name":"","type":"uint160","internalType":"uint160"},{"name":"tick","type":"int24","internalType":"int24"},{"name":"","type":"bytes","internalType":"bytes"}],"outputs":[{"name":"","type":"bytes4","internalType":"bytes4"}],"stateMutability":"nonpayable"},{"type":"function","name":"afterRemoveLiquidity","inputs":[{"name":"","type":"address","internalType":"address"},{"name":"","type":"tuple","internalType":"struct PoolKey","components":[{"name":"currency0","type":"address","internalType":"Currency"},{"name":"currency1","type":"address","internalType":"Currency"},{"name":"fee","type":"uint24","internalType":"uint24"},{"name":"tickSpacing","type":"int24","internalType":"int24"},{"name":"hooks","type":"address","internalType":"contract IHooks"}]},{"name":"","type":"tuple","internalType":"struct IPoolManager.ModifyLiquidityParams","components":[{"name":"tickLower","type":"int24","internalType":"int24"},{"name":"tickUpper","type":"int24","internalType":"int24"},{"name":"liquidityDelta","type":"int256","internalType":"int256"},{"name":"salt","type":"bytes32","internalType":"bytes32"}]},{"name":"","type":"int256","internalType":"BalanceDelta"},{"name":"","type":"bytes","internalType":"bytes"}],"outputs":[{"name":"","type":"bytes4","internalType":"bytes4"},{"name":"","type":"int256","internalType":"BalanceDelta"}],"stateMutability":"nonpayable"},{"type":"function","name":"afterSwap","inputs":[{"name":"","type":"address","internalType":"address"},{"name":"key","type":"tuple","internalType":"struct PoolKey","components":[{"name":"currency0","type":"address","internalType":"Currency"},{"name":"currency1","type":"address","internalType":"Currency"},{"name":"fee","type":"uint24","internalType":"uint24"},{"name":"tickSpacing","type":"int24","internalType":"int24"},{"name":"hooks","type":"address","internalType":"contract IHooks"}]},{"name":"params","type":"tuple","internalType":"struct IPoolManager.SwapParams","components":[{"name":"zeroForOne","type":"bool","internalType":"bool"},{"name":"amountSpecified","type":"int256","internalType":"int256"},{"name":"sqrtPriceLimitX96","type":"uint160","internalType":"uint160"}]},{"name":"","type":"int256","internalType":"BalanceDelta"},{"name":"","type":"bytes","internalType":"bytes"}],"outputs":[{"name":"","type":"bytes4","internalType":"bytes4"},{"name":"","type":"int128","internalType":"int128"}],"stateMutability":"nonpayable"},{"type":"function","name":"balanceOf","inputs":[{"name":"account","type":"address","internalType":"address"},{"name":"id","type":"uint256","internalType":"uint256"}],"outputs":[{"name":"","type":"uint256","internalType":"uint256"}],"stateMutability":"view"},{"type":"function","name":"balanceOfBatch","inputs":[{"name":"accounts","type":"address[]","internalType":"address[]"},{"name":"ids","type":"uint256[]","internalType":"uint256[]"}],"outputs":[{"name":"","type":"uint256[]","internalType":"uint256[]"}],"stateMutability":"view"},{"type":"function","name":"beforeAddLiquidity","inputs":[{"name":"","type":"address","internalType":"address"},{"name":"","type":"tuple","internalType":"struct PoolKey","components":[{"name":"currency0","type":"address","internalType":"Currency"},{"name":"currency1","type":"address","internalType":"Currency"},{"name":"fee","type":"uint24","internalType":"uint24"},{"name":"tickSpacing","type":"int24","internalType":"int24"},{"name":"hooks","type":"address","internalType":"contract IHooks"}]},{"name":"","type":"tuple","internalType":"struct IPoolManager.ModifyLiquidityParams","components":[{"name":"tickLower","type":"int24","internalType":"int24"},{"name":"tickUpper","type":"int24","internalType":"int24"},{"name":"liquidityDelta","type":"int256","internalType":"int256"},{"name":"salt","type":"bytes32","internalType":"bytes32"}]},{"name":"","type":"bytes","internalType":"bytes"}],"outputs":[{"name":"","type":"bytes4","internalType":"bytes4"}],"stateMutability":"nonpayable"},{"type":"function","name":"beforeDonate","inputs":[{"name":"","type":"address","internalType":"address"},{"name":"","type":"tuple","internalType":"struct PoolKey","components":[{"name":"currency0","type":"address","internalType":"Currency"},{"name":"currency1","type":"address","internalType":"Currency"},{"name":"fee","type":"uint24","internalType":"uint24"},{"name":"tickSpacing","type":"int24","internalType":"int24"},{"name":"hooks","type":"address","internalType":"contract IHooks"}]},{"name":"","type":"uint256","internalType":"uint256"},{"name":"","type":"uint256","internalType":"uint256"},{"name":"","type":"bytes","internalType":"bytes"}],"outputs":[{"name":"","type":"bytes4","internalType":"bytes4"}],"stateMutability":"nonpayable"},{"type":"function","name":"beforeInitialize","inputs":[{"name":"","type":"address","internalType":"address"},{"name":"","type":"tuple","internalType":"struct PoolKey","components":[{"name":"currency0","type":"address","internalType":"Currency"},{"name":"currency1","type":"address","internalType":"Currency"},{"name":"fee","type":"uint24","internalType":"uint24"},{"name":"tickSpacing","type":"int24","internalType":"int24"},{"name":"hooks","type":"address","internalType":"contract IHooks"}]},{"name":"","type":"uint160","internalType":"uint160"},{"name":"","type":"bytes","internalType":"bytes"}],"outputs":[{"name":"","type":"bytes4","internalType":"bytes4"}],"stateMutability":"nonpayable"},{"type":"function","name":"beforeRemoveLiquidity","inputs":[{"name":"","type":"address","internalType":"address"},{"name":"","type":"tuple","internalType":"struct PoolKey","components":[{"name":"currency0","type":"address","internalType":"Currency"},{"name":"currency1","type":"address","internalType":"Currency"},{"name":"fee","type":"uint24","internalType":"uint24"},{"name":"tickSpacing","type":"int24","internalType":"int24"},{"name":"hooks","type":"address","internalType":"contract IHooks"}]},{"name":"","type":"tuple","internalType":"struct IPoolManager.ModifyLiquidityParams","components":[{"name":"tickLower","type":"int24","internalType":"int24"},{"name":"tickUpper","type":"int24","internalType":"int24"},{"name":"liquidityDelta","type":"int256","internalType":"int256"},{"name":"salt","type":"bytes32","internalType":"bytes32"}]},{"name":"","type":"bytes","internalType":"bytes"}],"outputs":[{"name":"","type":"bytes4","internalType":"bytes4"}],"stateMutability":"nonpayable"},{"type":"function","name":"beforeSwap","inputs":[{"name":"","type":"address","internalType":"address"},{"name":"","type":"tuple","internalType":"struct PoolKey","components":[{"name":"currency0","type":"address","internalType":"Currency"},{"name":"currency1","type":"address","internalType":"Currency"},{"name":"fee","type":"uint24","internalType":"uint24"},{"name":"tickSpacing","type":"int24","internalType":"int24"},{"name":"hooks","type":"address","internalType":"contract IHooks"}]},{"name":"","type":"tuple","internalType":"struct IPoolManager.SwapParams","components":[{"name":"zeroForOne","type":"bool","internalType":"bool"},{"name":"amountSpecified","type":"int256","internalType":"int256"},{"name":"sqrtPriceLimitX96","type":"uint160","internalType":"uint160"}]},{"name":"","type":"bytes","internalType":"bytes"}],"outputs":[{"name":"","type":"bytes4","internalType":"bytes4"},{"name":"","type":"int256","internalType":"BeforeSwapDelta"},{"name":"","type":"uint24","internalType":"uint24"}],"stateMutability":"nonpayable"},{"type":"function","name":"cancelOrder","inputs":[{"name":"key","type":"tuple","internalType":"struct PoolKey","components":[{"name":"currency0","type":"address","internalType":"Currency"},{"name":"currency1","type":"address","internalType":"Currency"},{"name":"fee","type":"uint24","internalType":"uint24"},{"name":"tickSpacing","type":"int24","internalType":"int24"},{"name":"hooks","type":"address","internalType":"contract IHooks"}]},{"name":"tickToSellAt","type":"int24","internalType":"int24"},{"name":"zeroForOne","type":"bool","internalType":"bool"}],"outputs":[],"stateMutability":"nonpayable"},{"type":"function","name":"claimTokensSupply","inputs":[{"name":"positionId","type":"uint256","internalType":"uint256"}],"outputs":[{"name":"claimsSupply","type":"uint256","internalType":"uint256"}],"stateMutability":"view"},{"type":"function","name":"claimableOutputTokens","inputs":[{"name":"positionId","type":"uint256","internalType":"uint256"}],"outputs":[{"name":"outputClaimable","type":"uint256","internalType":"uint256"}],"stateMutability":"view"},{"type":"function","name":"getHookPermissions","inputs":[],"outputs":[{"name":"","type":"tuple","internalType":"struct Hooks.Permissions","components":[{"name":"beforeInitialize","type":"bool","internalType":"bool"},{"name":"afterInitialize","type":"bool","internalType":"bool"},{"name":"beforeAddLiquidity","type":"bool","internalType":"bool"},{"name":"afterAddLiquidity","type":"bool","internalType":"bool"},{"name":"beforeRemoveLiquidity","type":"bool","internalType":"bool"},{"name":"afterRemoveLiquidity","type":"bool","internalType":"bool"},{"name":"beforeSwap","type":"bool","internalType":"bool"},{"name":"afterSwap","type":"bool","internalType":"bool"},{"name":"beforeDonate","type":"bool","internalType":"bool"},{"name":"afterDonate","type":"bool","internalType":"bool"},{"name":"beforeSwapReturnDelta","type":"bool","internalType":"bool"},{"name":"afterSwapReturnDelta","type":"bool","internalType":"bool"},{"name":"afterAddLiquidityReturnDelta","type":"bool","internalType":"bool"},{"name":"afterRemoveLiquidityReturnDelta","type":"bool","internalType":"bool"}]}],"stateMutability":"pure"},{"type":"function","name":"getPositionId","inputs":[{"name":"key","type":"tuple","internalType":"struct PoolKey","components":[{"name":"currency0","type":"address","internalType":"Currency"},{"name":"currency1","type":"address","internalType":"Currency"},{"name":"fee","type":"uint24","internalType":"uint24"},{"name":"tickSpacing","type":"int24","internalType":"int24"},{"name":"hooks","type":"address","internalType":"contract IHooks"}]},{"name":"tick","type":"int24","internalType":"int24"},{"name":"zeroForOne","type":"bool","internalType":"bool"}],"outputs":[{"name":"","type":"uint256","internalType":"uint256"}],"stateMutability":"pure"},{"type":"function","name":"isApprovedForAll","inputs":[{"name":"account","type":"address","internalType":"address"},{"name":"operator","type":"address","internalType":"address"}],"outputs":[{"name":"","type":"bool","internalType":"bool"}],"stateMutability":"view"},{"type":"function","name":"pendingOrders","inputs":[{"name":"poolId","type":"bytes32","internalType":"PoolId"},{"name":"tickToSellAt","type":"int24","internalType":"int24"},{"name":"zeroForOne","type":"bool","internalType":"bool"}],"outputs":[{"name":"inputAmount","type":"uint256","internalType":"uint256"}],"stateMutability":"view"},{"type":"function","name":"placeOrder","inputs":[{"name":"key","type":"tuple","internalType":"struct PoolKey","components":[{"name":"currency0","type":"address","internalType":"Currency"},{"name":"currency1","type":"address","internalType":"Currency"},{"name":"fee","type":"uint24","internalType":"uint24"},{"name":"tickSpacing","type":"int24","internalType":"int24"},{"name":"hooks","type":"address","internalType":"contract IHooks"}]},{"name":"tickToSellAt","type":"int24","internalType":"int24"},{"name":"zeroForOne","type":"bool","internalType":"bool"},{"name":"inputAmount","type":"uint256","internalType":"uint256"}],"outputs":[{"name":"","type":"int24","internalType":"int24"}],"stateMutability":"nonpayable"},{"type":"function","name":"poolManager","inputs":[],"outputs":[{"name":"","type":"address","internalType":"contract IPoolManager"}],"stateMutability":"view"},{"type":"function","name":"redeem","inputs":[{"name":"key","type":"tuple","internalType":"struct PoolKey","components":[{"name":"currency0","type":"address","internalType":"Currency"},{"name":"currency1","type":"address","internalType":"Currency"},{"name":"fee","type":"uint24","internalType":"uint24"},{"name":"tickSpacing","type":"int24","internalType":"int24"},{"name":"hooks","type":"address","internalType":"contract IHooks"}]},{"name":"tickToSellAt","type":"int24","internalType":"int24"},{"name":"zeroForOne","type":"bool","internalType":"bool"},{"name":"inputAmountToClaimFor","type":"uint256","internalType":"uint256"}],"outputs":[],"stateMutability":"nonpayable"},{"type":"function","name":"safeBatchTransferFrom","inputs":[{"name":"from","type":"address","internalType":"address"},{"name":"to","type":"address","internalType":"address"},{"name":"ids","type":"uint256[]","internalType":"uint256[]"},{"name":"values","type":"uint256[]","internalType":"uint256[]"},{"name":"data","type":"bytes","internalType":"bytes"}],"outputs":[],"stateMutability":"nonpayable"},{"type":"function","name":"safeTransferFrom","inputs":[{"name":"from","type":"address","internalType":"address"},{"name":"to","type":"address","internalType":"address"},{"name":"id","type":"uint256","internalType":"uint256"},{"name":"value","type":"uint256","internalType":"uint256"},{"name":"data","type":"bytes","internalType":"bytes"}],"outputs":[],"stateMutability":"nonpayable"},{"type":"function","name":"setApprovalForAll","inputs":[{"name":"operator","type":"address","internalType":"address"},{"name":"approved","type":"bool","internalType":"bool"}],"outputs":[],"stateMutability":"nonpayable"},{"type":"function","name":"supportsInterface","inputs":[{"name":"interfaceId","type":"bytes4","internalType":"bytes4"}],"outputs":[{"name":"","type":"bool","internalType":"bool"}],"stateMutability":"view"},{"type":"function","name":"unlockCallback","inputs":[{"name":"data","type":"bytes","internalType":"bytes"}],"outputs":[{"name":"","type":"bytes","internalType":"bytes"}],"stateMutability":"nonpayable"},{"type":"function","name":"uri","inputs":[{"name":"","type":"uint256","internalType":"uint256"}],"outputs":[{"name":"","type":"string","internalType":"string"}],"stateMutability":"view"},{"type":"event","name":"ApprovalForAll","inputs":[{"name":"account","type":"address","indexed":true,"internalType":"address"},{"name":"operator","type":"address","indexed":true,"internalType":"address"},{"name":"approved","type":"bool","indexed":false,"internalType":"bool"}],"anonymous":false},{"type":"event","name":"TransferBatch","inputs":[{"name":"operator","type":"address","indexed":true,"internalType":"address"},{"name":"from","type":"address","indexed":true,"internalType":"address"},{"name":"to","type":"address","indexed":true,"internalType":"address"},{"name":"ids","type":"uint256[]","indexed":false,"internalType":"uint256[]"},{"name":"values","type":"uint256[]","indexed":false,"internalType":"uint256[]"}],"anonymous":false},{"type":"event","name":"TransferSingle","inputs":[{"name":"operator","type":"address","indexed":true,"internalType":"address"},{"name":"from","type":"address","indexed":true,"internalType":"address"},{"name":"to","type":"address","indexed":true,"internalType":"address"},{"name":"id","type":"uint256","indexed":false,"internalType":"uint256"},{"name":"value","type":"uint256","indexed":false,"internalType":"uint256"}],"anonymous":false},{"type":"event","name":"URI","inputs":[{"name":"value","type":"string","indexed":false,"internalType":"string"},{"name":"id","type":"uint256","indexed":true,"internalType":"uint256"}],"anonymous":false},{"type":"error","name":"ERC1155InsufficientBalance","inputs":[{"name":"sender","type":"address","internalType":"address"},{"name":"balance","type":"uint256","internalType":"uint256"},{"name":"needed","type":"uint256","internalType":"uint256"},{"name":"tokenId","type":"uint256","internalType":"uint256"}]},{"type":"error","name":"ERC1155InvalidApprover","inputs":[{"name":"approver","type":"address","internalType":"address"}]},{"type":"error","name":"ERC1155InvalidArrayLength","inputs":[{"name":"idsLength","type":"uint256","internalType":"uint256"},{"name":"valuesLength","type":"uint256","internalType":"uint256"}]},{"type":"error","name":"ERC1155InvalidOperator","inputs":[{"name":"operator","type":"address","internalType":"address"}]},{"type":"error","name":"ERC1155InvalidReceiver","inputs":[{"name":"receiver","type":"address","internalType":"address"}]},{"type":"error","name":"ERC1155InvalidSender","inputs":[{"name":"sender","type":"address","internalType":"address"}]},{"type":"error","name":"ERC1155MissingApprovalForAll","inputs":[{"name":"operator","type":"address","internalType":"address"},{"name":"owner","type":"address","internalType":"address"}]},{"type":"error","name":"HookNotImplemented","inputs":[]},{"type":"error","name":"InvalidOrder","inputs":[]},{"type":"error","name":"InvalidPool","inputs":[]},{"type":"error","name":"LockFailure","inputs":[]},{"type":"error","name":"NotEnoughToClaim","inputs":[]},{"type":"error","name":"NotPoolManager","inputs":[]},{"type":"error","name":"NotSelf","inputs":[]},{"type":"error","name":"NothingToClaim","inputs":[]}],"bytecode":{"object":"0x60a060405234801561000f575f80fd5b5060405161293138038061293183398101604081905261002e916102ce565b6001600160a01b038216608052808261004630610058565b506100508161014e565b5050506104db565b61014b81610146604080516101c0810182525f80825260208201819052918101829052606081018290526080810182905260a0810182905260c0810182905260e08101829052610100810182905261012081018290526101408101829052610160810182905261018081018290526101a081019190915250604080516101c0810182525f808252600160208301819052928201819052606082018190526080820181905260a0820181905260c0820181905260e0820192909252610100810182905261012081018290526101408101829052610160810182905261018081018290526101a081019190915290565b61015e565b50565b600261015a8282610421565b5050565b80511515612000831615151415806101825750602081015115156110008316151514155b806101995750604081015115156108008316151514155b806101b05750606081015115156104008316151514155b806101c75750608081015115156102008316151514155b806101de575060a081015115156101008316151514155b806101f4575060c0810151151560808316151514155b8061020a575060e0810151151560408316151514155b806102215750610100810151151560208316151514155b806102385750610120810151151560108316151514155b8061024f5750610140810151151560088316151514155b806102665750610160810151151560048316151514155b8061027d5750610180810151151560028316151514155b8061029457506101a0810151151560018316151514155b1561015a5761015a630732d7b560e51b83815f526001600160a01b03811660045260245ffd5b634e487b7160e01b5f52604160045260245ffd5b5f80604083850312156102df575f80fd5b82516001600160a01b03811681146102f5575f80fd5b60208401519092506001600160401b03811115610310575f80fd5b8301601f81018513610320575f80fd5b80516001600160401b03811115610339576103396102ba565b604051601f8201601f19908116603f011681016001600160401b0381118282101715610367576103676102ba565b60405281815282820160200187101561037e575f80fd5b8160208401602083015e5f602083830101528093505050509250929050565b600181811c908216806103b157607f821691505b6020821081036103cf57634e487b7160e01b5f52602260045260245ffd5b50919050565b601f82111561041c57805f5260205f20601f840160051c810160208510156103fa5750805b601f840160051c820191505b81811015610419575f8155600101610406565b50505b505050565b81516001600160401b0381111561043a5761043a6102ba565b61044e81610448845461039d565b846103d5565b6020601f821160018114610480575f83156104695750848201515b5f19600385901b1c1916600184901b178455610419565b5f84815260208120601f198516915b828110156104af578785015182556020948501946001909201910161048f565b50848210156104cc57868401515f19600387901b60f8161c191681555b50505050600190811b01905550565b6080516124296105085f395f818161052701528181610a0501528181610b8b0152610be901526124295ff3fe608060405234801561000f575f80fd5b50600436106101ba575f3560e01c8063a0dc3f99116100f3578063c4e833ce11610093578063e1b4af691161006e578063e1b4af691461041d578063e985e9c514610574578063f242432a146105af578063fa59cb0c146105c2575f80fd5b8063c4e833ce1461042b578063dc4c90d314610522578063dd02c96414610561575f80fd5b8063a910f80f116100ce578063a910f80f146103b5578063b47b2fb1146103c8578063b5a33914146103fe578063b6a8b0fa1461041d575f80fd5b8063a0dc3f991461035f578063a22cb46514610372578063a2dc31b214610385575f80fd5b80633bb76cc11161015e5780635a2a8100116101395780635a2a8100146102f35780637e8941af146103265780638db2b652146102f357806391dd73461461034c575f80fd5b80633bb76cc1146102765780634e1273f414610295578063575e24b4146102b5575f80fd5b806321d0ee701161019957806321d0ee7014610227578063259982e5146102275780632eb2c2d6146102535780633440d82014610268575f80fd5b8062fdd58e146101be57806301ffc9a7146101e45780630e89341c14610207575b5f80fd5b6101d16101cc3660046116d8565b6105d5565b6040519081526020015b60405180910390f35b6101f76101f2366004611717565b6105fc565b60405190151581526020016101db565b61021a610215366004611732565b61064b565b6040516101db9190611777565b61023a6102353660046117f4565b6106dd565b6040516001600160e01b031990911681526020016101db565b6102666102613660046119a9565b6106f7565b005b61023a610235366004611a5c565b6101d1610284366004611732565b60056020525f908152604090205481565b6102a86102a3366004611ab6565b610781565b6040516101db9190611bb5565b6102c86102c3366004611bd7565b61084c565b604080516001600160e01b03199094168452602084019290925262ffffff16908201526060016101db565b610306610301366004611c31565b610868565b604080516001600160e01b031990931683526020830191909152016101db565b610339610334366004611cd5565b610883565b60405160029190910b81526020016101db565b61021a61035a366004611d21565b6109f8565b61026661036d366004611d60565b610a54565b610266610380366004611da5565b610b70565b6101d1610393366004611ddc565b600360209081525f938452604080852082529284528284209052825290205481565b61023a6103c3366004611e0e565b610b7f565b6103db6103d6366004611e78565b610bdc565b604080516001600160e01b03199093168352600f9190910b6020830152016101db565b6101d161040c366004611732565b60046020525f908152604090205481565b61023a610235366004611edb565b610515604080516101c0810182525f80825260208201819052918101829052606081018290526080810182905260a0810182905260c0810182905260e08101829052610100810182905261012081018290526101408101829052610160810182905261018081018290526101a081019190915250604080516101c0810182525f808252600160208301819052928201819052606082018190526080820181905260a0820181905260c0820181905260e0820192909252610100810182905261012081018290526101408101829052610160810182905261018081018290526101a081019190915290565b6040516101db9190611f35565b6105497f000000000000000000000000000000000000000000000000000000000000000081565b6040516001600160a01b0390911681526020016101db565b61026661056f366004611cd5565b610c3d565b6101f7610582366004612056565b6001600160a01b039182165f90815260016020908152604080832093909416825291909152205460ff1690565b6102666105bd366004612082565b610d83565b6101d16105d0366004611d60565b610e00565b5f818152602081815260408083206001600160a01b03861684529091529020545b92915050565b5f6001600160e01b03198216636cdb3d1360e11b148061062c57506001600160e01b031982166303a24d0760e21b145b806105f657506301ffc9a760e01b6001600160e01b03198316146105f6565b60606002805461065a906120da565b80601f0160208091040260200160405190810160405280929190818152602001828054610686906120da565b80156106d15780601f106106a8576101008083540402835291602001916106d1565b820191905f5260205f20905b8154815290600101906020018083116106b457829003601f168201915b50505050509050919050565b5f604051630a85dc2960e01b815260040160405180910390fd5b336001600160a01b038616811480159061073657506001600160a01b038087165f9081526001602090815260408083209385168352929052205460ff16155b1561076c5760405163711bec9160e11b81526001600160a01b038083166004830152871660248201526044015b60405180910390fd5b6107798686868686610e53565b505050505050565b606081518351146107b25781518351604051635b05999160e01b815260048101929092526024820152604401610763565b5f835167ffffffffffffffff8111156107cd576107cd61186b565b6040519080825280602002602001820160405280156107f6578160200160208202803683370190505b5090505f5b84518110156108445760208082028601015161081f906020808402870101516105d5565b8282815181106108315761083161210c565b60209081029190910101526001016107fb565b509392505050565b5f805f604051630a85dc2960e01b815260040160405180910390fd5b5f80604051630a85dc2960e01b815260040160405180910390fd5b5f8061089e856108996080890160608a01612120565b610eb8565b90508260035f6108bd6108b6368b90038b018b612139565b60a0902090565b815260208082019290925260409081015f908120600286900b825283528181208815158252909252812080549091906108f79084906121ea565b909155505f9050610909878387610e00565b90508360045f8381526020019081526020015f205f82825461092b91906121ea565b9250508190555061094c33828660405180602001604052805f815250610f08565b5f85610967576109626040890160208a016121fd565b610974565b61097460208901896121fd565b6040516323b872dd60e01b8152336004820152306024820152604481018790529091506001600160a01b038216906323b872dd906064016020604051808303815f875af11580156109c7573d5f803e3d5ffd5b505050506040513d601f19601f820116820180604052508101906109eb9190612218565b5091979650505050505050565b6060336001600160a01b037f00000000000000000000000000000000000000000000000000000000000000001614610a435760405163570c108560e11b815260040160405180910390fd5b610a4d8383610f63565b9392505050565b5f610a69836108996080870160608801612120565b90505f610a77858385610e00565b90505f610a8433836105d5565b9050805f03610aa65760405163af61069360e01b815260040160405180910390fd5b8060035f610abc6108b6368b90038b018b612139565b815260208082019290925260409081015f908120600288900b82528352818120881515825290925281208054909190610af6908490612233565b90915550505f8281526004602052604081208054839290610b18908490612233565b90915550610b299050338383610ffc565b5f84610b4457610b3f60408801602089016121fd565b610b51565b610b5160208801886121fd565b9050610b676001600160a01b0382163384611062565b50505050505050565b610b7b3383836110fc565b5050565b5f336001600160a01b037f00000000000000000000000000000000000000000000000000000000000000001614610bc95760405163570c108560e11b815260040160405180910390fd5b5063a910f80f60e01b9695505050505050565b5f80336001600160a01b037f00000000000000000000000000000000000000000000000000000000000000001614610c275760405163570c108560e11b815260040160405180910390fd5b5063b47b2fb160e01b975f975095505050505050565b5f610c52846108996080880160608901612120565b90505f610c60868386610e00565b5f8181526005602052604081205491925003610c8f576040516312d37ee560e31b815260040160405180910390fd5b5f610c9a33836105d5565b905083811015610cbd57604051639378648960e01b815260040160405180910390fd5b5f8281526005602090815260408083205460049092528220549091610ce3878484611190565b90508060055f8781526020019081526020015f205f828254610d059190612233565b90915550505f8581526004602052604081208054899290610d27908490612233565b90915550610d389050338689610ffc565b5f88610d5057610d4b60208c018c6121fd565b610d60565b610d6060408c0160208d016121fd565b9050610d766001600160a01b0382163384611062565b5050505050505050505050565b336001600160a01b0386168114801590610dc257506001600160a01b038087165f9081526001602090815260408083209385168352929052205460ff16155b15610df35760405163711bec9160e11b81526001600160a01b03808316600483015287166024820152604401610763565b61077986868686866111ab565b5f610e136108b636869003860186612139565b604080516020810192909252600285900b90820152821515606082015260800160408051601f198184030181529190528051602090910120949350505050565b6001600160a01b038416610e7c57604051632bfa23e760e11b81525f6004820152602401610763565b6001600160a01b038516610ea457604051626a0d4560e21b81525f6004820152602401610763565b610eb1858585858561122a565b5050505050565b5f80610ec4838561225a565b90505f8460020b128015610ee35750610edd8385612292565b60020b15155b15610ef65780610ef2816122b3565b9150505b610f0083826122d4565b949350505050565b6001600160a01b038416610f3157604051632bfa23e760e11b81525f6004820152602401610763565b604080516001808252602082018690528183019081526060820185905260808201909252906107795f8784848761122a565b60605f80306001600160a01b03168585604051610f819291906122f3565b5f604051808303815f865af19150503d805f8114610fba576040519150601f19603f3d011682016040523d82523d5f602084013e610fbf565b606091505b50915091508115610fd35791506105f69050565b80515f03610ff4576040516314815f4760e31b815260040160405180910390fd5b805160208201fd5b6001600160a01b03831661102457604051626a0d4560e21b81525f6004820152602401610763565b604080516001808252602082018590528183019081526060820184905260a082019092525f60808201818152919291610eb19187918590859061122a565b5f6001600160a01b038416611095575f805f8085875af1905080611090576110906356cdd02560e11b61127d565b6110f6565b60405163a9059cbb60e01b81526001600160a01b038416600482015282602482015260205f6044835f895af13d15601f3d1160015f511416171691505f81525f60208201525f604082015250806110f6576110f6632745a14f60e21b61127d565b50505050565b6001600160a01b0382166111245760405162ced3e160e81b81525f6004820152602401610763565b6001600160a01b038381165f81815260016020908152604080832094871680845294825291829020805460ff191686151590811790915591519182527f17307eab39ab6107e8899845ad3d59bd9653f200f220920489ca2b5937696c31910160405180910390a3505050565b5f825f1904841183021582026111a4575f80fd5b5091020490565b6001600160a01b0384166111d457604051632bfa23e760e11b81525f6004820152602401610763565b6001600160a01b0385166111fc57604051626a0d4560e21b81525f6004820152602401610763565b60408051600180825260208201869052818301908152606082018590526080820190925290610b6787878484875b611236858585856112aa565b6001600160a01b03841615610eb1578251339060010361126f57602084810151908401516112688389898585896114b9565b5050610779565b6107798187878787876115da565b3d60405182815260206004820152816024820152815f604483013e602080601f8401040260440191508181fd5b80518251146112d95781518151604051635b05999160e01b815260048101929092526024820152604401610763565b335f5b83518110156113db576020818102858101820151908501909101516001600160a01b0388161561138d575f828152602081815260408083206001600160a01b038c16845290915290205481811015611367576040516303dee4c560e01b81526001600160a01b038a166004820152602481018290526044810183905260648101849052608401610763565b5f838152602081815260408083206001600160a01b038d16845290915290209082900390555b6001600160a01b038716156113d1575f828152602081815260408083206001600160a01b038b168452909152812080548392906113cb9084906121ea565b90915550505b50506001016112dc565b50825160010361145b5760208301515f906020840151909150856001600160a01b0316876001600160a01b0316846001600160a01b03167fc3d58168c5ae7397731d063d5bbf3d657854427343f4c083240f7aacaa2d0f62858560405161144c929190918252602082015260400190565b60405180910390a45050610eb1565b836001600160a01b0316856001600160a01b0316826001600160a01b03167f4a39dc06d4c0dbc64b70af90fd698a233a518aa5d07e595d983b8c0526c8f7fb86866040516114aa929190612302565b60405180910390a45050505050565b6001600160a01b0384163b156107795760405163f23a6e6160e01b81526001600160a01b0385169063f23a6e61906114fd908990899088908890889060040161232f565b6020604051808303815f875af1925050508015611537575060408051601f3d908101601f1916820190925261153491810190612376565b60015b61159e573d808015611564576040519150601f19603f3d011682016040523d82523d5f602084013e611569565b606091505b5080515f0361159657604051632bfa23e760e11b81526001600160a01b0386166004820152602401610763565b805181602001fd5b6001600160e01b0319811663f23a6e6160e01b14610b6757604051632bfa23e760e11b81526001600160a01b0386166004820152602401610763565b6001600160a01b0384163b156107795760405163bc197c8160e01b81526001600160a01b0385169063bc197c819061161e9089908990889088908890600401612391565b6020604051808303815f875af1925050508015611658575060408051601f3d908101601f1916820190925261165591810190612376565b60015b611685573d808015611564576040519150601f19603f3d011682016040523d82523d5f602084013e611569565b6001600160e01b0319811663bc197c8160e01b14610b6757604051632bfa23e760e11b81526001600160a01b0386166004820152602401610763565b6001600160a01b03811681146116d5575f80fd5b50565b5f80604083850312156116e9575f80fd5b82356116f4816116c1565b946020939093013593505050565b6001600160e01b0319811681146116d5575f80fd5b5f60208284031215611727575f80fd5b8135610a4d81611702565b5f60208284031215611742575f80fd5b5035919050565b5f81518084528060208401602086015e5f602082860101526020601f19601f83011685010191505092915050565b602081525f610a4d6020830184611749565b5f60a08284031215611799575f80fd5b50919050565b5f60808284031215611799575f80fd5b5f8083601f8401126117bf575f80fd5b50813567ffffffffffffffff8111156117d6575f80fd5b6020830191508360208285010111156117ed575f80fd5b9250929050565b5f805f805f6101608688031215611809575f80fd5b8535611814816116c1565b94506118238760208801611789565b93506118328760c0880161179f565b925061014086013567ffffffffffffffff81111561184e575f80fd5b61185a888289016117af565b969995985093965092949392505050565b634e487b7160e01b5f52604160045260245ffd5b604051601f8201601f1916810167ffffffffffffffff811182821017156118a8576118a861186b565b604052919050565b5f67ffffffffffffffff8211156118c9576118c961186b565b5060051b60200190565b5f82601f8301126118e2575f80fd5b81356118f56118f0826118b0565b61187f565b8082825260208201915060208360051b860101925085831115611916575f80fd5b602085015b8381101561193357803583526020928301920161191b565b5095945050505050565b5f82601f83011261194c575f80fd5b813567ffffffffffffffff8111156119665761196661186b565b611979601f8201601f191660200161187f565b81815284602083860101111561198d575f80fd5b816020850160208301375f918101602001919091529392505050565b5f805f805f60a086880312156119bd575f80fd5b85356119c8816116c1565b945060208601356119d8816116c1565b9350604086013567ffffffffffffffff8111156119f3575f80fd5b6119ff888289016118d3565b935050606086013567ffffffffffffffff811115611a1b575f80fd5b611a27888289016118d3565b925050608086013567ffffffffffffffff811115611a43575f80fd5b611a4f8882890161193d565b9150509295509295909350565b5f805f805f6101008688031215611a71575f80fd5b8535611a7c816116c1565b9450611a8b8760208801611789565b935060c0860135611a9b816116c1565b925060e086013567ffffffffffffffff81111561184e575f80fd5b5f8060408385031215611ac7575f80fd5b823567ffffffffffffffff811115611add575f80fd5b8301601f81018513611aed575f80fd5b8035611afb6118f0826118b0565b8082825260208201915060208360051b850101925087831115611b1c575f80fd5b6020840193505b82841015611b47578335611b36816116c1565b825260209384019390910190611b23565b9450505050602083013567ffffffffffffffff811115611b65575f80fd5b611b71858286016118d3565b9150509250929050565b5f8151808452602084019350602083015f5b82811015611bab578151865260209586019590910190600101611b8d565b5093949350505050565b602081525f610a4d6020830184611b7b565b5f60608284031215611799575f80fd5b5f805f805f6101408688031215611bec575f80fd5b8535611bf7816116c1565b9450611c068760208801611789565b9350611c158760c08801611bc7565b925061012086013567ffffffffffffffff81111561184e575f80fd5b5f805f805f806101808789031215611c47575f80fd5b8635611c52816116c1565b9550611c618860208901611789565b9450611c708860c0890161179f565b9350610140870135925061016087013567ffffffffffffffff811115611c94575f80fd5b611ca089828a016117af565b979a9699509497509295939492505050565b8035600281900b8114611cc3575f80fd5b919050565b80151581146116d5575f80fd5b5f805f806101008587031215611ce9575f80fd5b611cf38686611789565b9350611d0160a08601611cb2565b925060c0850135611d1181611cc8565b9396929550929360e00135925050565b5f8060208385031215611d32575f80fd5b823567ffffffffffffffff811115611d48575f80fd5b611d54858286016117af565b90969095509350505050565b5f805f60e08486031215611d72575f80fd5b611d7c8585611789565b9250611d8a60a08501611cb2565b915060c0840135611d9a81611cc8565b809150509250925092565b5f8060408385031215611db6575f80fd5b8235611dc1816116c1565b91506020830135611dd181611cc8565b809150509250929050565b5f805f60608486031215611dee575f80fd5b83359250611dfe60208501611cb2565b91506040840135611d9a81611cc8565b5f805f805f806101208789031215611e24575f80fd5b8635611e2f816116c1565b9550611e3e8860208901611789565b945060c0870135611e4e816116c1565b9350611e5c60e08801611cb2565b925061010087013567ffffffffffffffff811115611c94575f80fd5b5f805f805f806101608789031215611e8e575f80fd5b8635611e99816116c1565b9550611ea88860208901611789565b9450611eb78860c08901611bc7565b9350610120870135925061014087013567ffffffffffffffff811115611c94575f80fd5b5f805f805f806101208789031215611ef1575f80fd5b8635611efc816116c1565b9550611f0b8860208901611789565b945060c0870135935060e0870135925061010087013567ffffffffffffffff811115611c94575f80fd5b8151151581526101c081016020830151611f53602084018215159052565b506040830151611f67604084018215159052565b506060830151611f7b606084018215159052565b506080830151611f8f608084018215159052565b5060a0830151611fa360a084018215159052565b5060c0830151611fb760c084018215159052565b5060e0830151611fcb60e084018215159052565b50610100830151611fe161010084018215159052565b50610120830151611ff761012084018215159052565b5061014083015161200d61014084018215159052565b5061016083015161202361016084018215159052565b5061018083015161203961018084018215159052565b506101a083015161204f6101a084018215159052565b5092915050565b5f8060408385031215612067575f80fd5b8235612072816116c1565b91506020830135611dd1816116c1565b5f805f805f60a08688031215612096575f80fd5b85356120a1816116c1565b945060208601356120b1816116c1565b93506040860135925060608601359150608086013567ffffffffffffffff811115611a43575f80fd5b600181811c908216806120ee57607f821691505b60208210810361179957634e487b7160e01b5f52602260045260245ffd5b634e487b7160e01b5f52603260045260245ffd5b5f60208284031215612130575f80fd5b610a4d82611cb2565b5f60a082840312801561214a575f80fd5b5060405160a0810167ffffffffffffffff8111828210171561216e5761216e61186b565b604052823561217c816116c1565b8152602083013561218c816116c1565b6020820152604083013562ffffff811681146121a6575f80fd5b60408201526121b760608401611cb2565b606082015260808301356121ca816116c1565b60808201529392505050565b634e487b7160e01b5f52601160045260245ffd5b808201808211156105f6576105f66121d6565b5f6020828403121561220d575f80fd5b8135610a4d816116c1565b5f60208284031215612228575f80fd5b8151610a4d81611cc8565b818103818111156105f6576105f66121d6565b634e487b7160e01b5f52601260045260245ffd5b5f8160020b8360020b8061227057612270612246565b627fffff1982145f1982141615612289576122896121d6565b90059392505050565b5f8260020b806122a4576122a4612246565b808360020b0791505092915050565b5f8160020b627fffff1981036122cb576122cb6121d6565b5f190192915050565b5f8260020b8260020b028060020b915080821461204f5761204f6121d6565b818382375f9101908152919050565b604081525f6123146040830185611b7b565b82810360208401526123268185611b7b565b95945050505050565b6001600160a01b03861681526001600160a01b038516602082015283604082015282606082015260a060808201525f61236b60a0830184611749565b979650505050505050565b5f60208284031215612386575f80fd5b8151610a4d81611702565b6001600160a01b03861681526001600160a01b038516602082015260a060408201525f6123c160a0830186611b7b565b82810360608401526123d38186611b7b565b905082810360808401526123e78185611749565b9897505050505050505056fea26469706673582212200cc28faab3339c29b1ec5ad5d5ca5fd17c3358d5a4640f33406338436accf44564736f6c634300081a0033","linkReferences":{}},"methodIdentifiers":{"afterAddLiquidity(address,(address,address,uint24,int24,address),(int24,int24,int256,bytes32),int256,bytes)":"5a2a8100","afterDonate(address,(address,address,uint24,int24,address),uint256,uint256,bytes)":"e1b4af69","afterInitialize(address,(address,address,uint24,int24,address),uint160,int24,bytes)":"a910f80f","afterRemoveLiquidity(address,(address,address,uint24,int24,address),(int24,int24,int256,bytes32),int256,bytes)":"8db2b652","afterSwap(address,(address,address,uint24,int24,address),(bool,int256,uint160),int256,bytes)":"b47b2fb1","balanceOf(address,uint256)":"00fdd58e","balanceOfBatch(address[],uint256[])":"4e1273f4","beforeAddLiquidity(address,(address,address,uint24,int24,address),(int24,int24,int256,bytes32),bytes)":"259982e5","beforeDonate(address,(address,address,uint24,int24,address),uint256,uint256,bytes)":"b6a8b0fa","beforeInitialize(address,(address,address,uint24,int24,address),uint160,bytes)":"3440d820","beforeRemoveLiquidity(address,(address,address,uint24,int24,address),(int24,int24,int256,bytes32),bytes)":"21d0ee70","beforeSwap(address,(address,address,uint24,int24,address),(bool,int256,uint160),bytes)":"575e24b4","cancelOrder((address,address,uint24,int24,address),int24,bool)":"a0dc3f99","claimTokensSupply(uint256)":"b5a33914","claimableOutputTokens(uint256)":"3bb76cc1","getHookPermissions()":"c4e833ce","getPositionId((address,address,uint24,int24,address),int24,bool)":"fa59cb0c","isApprovedForAll(address,address)":"e985e9c5","pendingOrders(bytes32,int24,bool)":"a2dc31b2","placeOrder((address,address,uint24,int24,address),int24,bool,uint256)":"7e8941af","poolManager()":"dc4c90d3","redeem((address,address,uint24,int24,address),int24,bool,uint256)":"dd02c964","safeBatchTransferFrom(address,address,uint256[],uint256[],bytes)":"2eb2c2d6","safeTransferFrom(address,address,uint256,uint256,bytes)":"f242432a","setApprovalForAll(address,bool)":"a22cb465","supportsInterface(bytes4)":"01ffc9a7","unlockCallback(bytes)":"91dd7346","uri(uint256)":"0e89341c"},"id":108}