{"abi":[{"type":"constructor","inputs":[{"name":"_manager","type":"address","internalType":"contract IPoolManager"},{"name":"_uri","type":"string","internalType":"string"}],"stateMutability":"nonpayable"},{"type":"function","name":"afterAddLiquidity","inputs":[{"name":"","type":"address","internalType":"address"},{"name":"","type":"tuple","internalType":"struct PoolKey","components":[{"name":"currency0","type":"address","internalType":"Currency"},{"name":"currency1","type":"address","internalType":"Currency"},{"name":"fee","type":"uint24","internalType":"uint24"},{"name":"tickSpacing","type":"int24","internalType":"int24"},{"name":"hooks","type":"address","internalType":"contract IHooks"}]},{"name":"","type":"tuple","internalType":"struct IPoolManager.ModifyLiquidityParams","components":[{"name":"tickLower","type":"int24","internalType":"int24"},{"name":"tickUpper","type":"int24","internalType":"int24"},{"name":"liquidityDelta","type":"int256","internalType":"int256"},{"name":"salt","type":"bytes32","internalType":"bytes32"}]},{"name":"","type":"int256","internalType":"BalanceDelta"},{"name":"","type":"bytes","internalType":"bytes"}],"outputs":[{"name":"","type":"bytes4","internalType":"bytes4"},{"name":"","type":"int256","internalType":"BalanceDelta"}],"stateMutability":"nonpayable"},{"type":"function","name":"afterDonate","inputs":[{"name":"","type":"address","internalType":"address"},{"name":"","type":"tuple","internalType":"struct PoolKey","components":[{"name":"currency0","type":"address","internalType":"Currency"},{"name":"currency1","type":"address","internalType":"Currency"},{"name":"fee","type":"uint24","internalType":"uint24"},{"name":"tickSpacing","type":"int24","internalType":"int24"},{"name":"hooks","type":"address","internalType":"contract IHooks"}]},{"name":"","type":"uint256","internalType":"uint256"},{"name":"","type":"uint256","internalType":"uint256"},{"name":"","type":"bytes","internalType":"bytes"}],"outputs":[{"name":"","type":"bytes4","internalType":"bytes4"}],"stateMutability":"nonpayable"},{"type":"function","name":"afterInitialize","inputs":[{"name":"","type":"address","internalType":"address"},{"name":"key","type":"tuple","internalType":"struct PoolKey","components":[{"name":"currency0","type":"address","internalType":"Currency"},{"name":"currency1","type":"address","internalType":"Currency"},{"name":"fee","type":"uint24","internalType":"uint24"},{"name":"tickSpacing","type":"int24","internalType":"int24"},{"name":"hooks","type":"address","internalType":"contract IHooks"}]},{"name":"","type":"uint160","internalType":"uint160"},{"name":"tick","type":"int24","internalType":"int24"},{"name":"","type":"bytes","internalType":"bytes"}],"outputs":[{"name":"","type":"bytes4","internalType":"bytes4"}],"stateMutability":"nonpayable"},{"type":"function","name":"afterRemoveLiquidity","inputs":[{"name":"","type":"address","internalType":"address"},{"name":"","type":"tuple","internalType":"struct PoolKey","components":[{"name":"currency0","type":"address","internalType":"Currency"},{"name":"currency1","type":"address","internalType":"Currency"},{"name":"fee","type":"uint24","internalType":"uint24"},{"name":"tickSpacing","type":"int24","internalType":"int24"},{"name":"hooks","type":"address","internalType":"contract IHooks"}]},{"name":"","type":"tuple","internalType":"struct IPoolManager.ModifyLiquidityParams","components":[{"name":"tickLower","type":"int24","internalType":"int24"},{"name":"tickUpper","type":"int24","internalType":"int24"},{"name":"liquidityDelta","type":"int256","internalType":"int256"},{"name":"salt","type":"bytes32","internalType":"bytes32"}]},{"name":"","type":"int256","internalType":"BalanceDelta"},{"name":"","type":"bytes","internalType":"bytes"}],"outputs":[{"name":"","type":"bytes4","internalType":"bytes4"},{"name":"","type":"int256","internalType":"BalanceDelta"}],"stateMutability":"nonpayable"},{"type":"function","name":"afterSwap","inputs":[{"name":"sender","type":"address","internalType":"address"},{"name":"key","type":"tuple","internalType":"struct PoolKey","components":[{"name":"currency0","type":"address","internalType":"Currency"},{"name":"currency1","type":"address","internalType":"Currency"},{"name":"fee","type":"uint24","internalType":"uint24"},{"name":"tickSpacing","type":"int24","internalType":"int24"},{"name":"hooks","type":"address","internalType":"contract IHooks"}]},{"name":"params","type":"tuple","internalType":"struct IPoolManager.SwapParams","components":[{"name":"zeroForOne","type":"bool","internalType":"bool"},{"name":"amountSpecified","type":"int256","internalType":"int256"},{"name":"sqrtPriceLimitX96","type":"uint160","internalType":"uint160"}]},{"name":"","type":"int256","internalType":"BalanceDelta"},{"name":"","type":"bytes","internalType":"bytes"}],"outputs":[{"name":"","type":"bytes4","internalType":"bytes4"},{"name":"","type":"int128","internalType":"int128"}],"stateMutability":"nonpayable"},{"type":"function","name":"balanceOf","inputs":[{"name":"account","type":"address","internalType":"address"},{"name":"id","type":"uint256","internalType":"uint256"}],"outputs":[{"name":"","type":"uint256","internalType":"uint256"}],"stateMutability":"view"},{"type":"function","name":"balanceOfBatch","inputs":[{"name":"accounts","type":"address[]","internalType":"address[]"},{"name":"ids","type":"uint256[]","internalType":"uint256[]"}],"outputs":[{"name":"","type":"uint256[]","internalType":"uint256[]"}],"stateMutability":"view"},{"type":"function","name":"beforeAddLiquidity","inputs":[{"name":"","type":"address","internalType":"address"},{"name":"","type":"tuple","internalType":"struct PoolKey","components":[{"name":"currency0","type":"address","internalType":"Currency"},{"name":"currency1","type":"address","internalType":"Currency"},{"name":"fee","type":"uint24","internalType":"uint24"},{"name":"tickSpacing","type":"int24","internalType":"int24"},{"name":"hooks","type":"address","internalType":"contract IHooks"}]},{"name":"","type":"tuple","internalType":"struct IPoolManager.ModifyLiquidityParams","components":[{"name":"tickLower","type":"int24","internalType":"int24"},{"name":"tickUpper","type":"int24","internalType":"int24"},{"name":"liquidityDelta","type":"int256","internalType":"int256"},{"name":"salt","type":"bytes32","internalType":"bytes32"}]},{"name":"","type":"bytes","internalType":"bytes"}],"outputs":[{"name":"","type":"bytes4","internalType":"bytes4"}],"stateMutability":"nonpayable"},{"type":"function","name":"beforeDonate","inputs":[{"name":"","type":"address","internalType":"address"},{"name":"","type":"tuple","internalType":"struct PoolKey","components":[{"name":"currency0","type":"address","internalType":"Currency"},{"name":"currency1","type":"address","internalType":"Currency"},{"name":"fee","type":"uint24","internalType":"uint24"},{"name":"tickSpacing","type":"int24","internalType":"int24"},{"name":"hooks","type":"address","internalType":"contract IHooks"}]},{"name":"","type":"uint256","internalType":"uint256"},{"name":"","type":"uint256","internalType":"uint256"},{"name":"","type":"bytes","internalType":"bytes"}],"outputs":[{"name":"","type":"bytes4","internalType":"bytes4"}],"stateMutability":"nonpayable"},{"type":"function","name":"beforeInitialize","inputs":[{"name":"","type":"address","internalType":"address"},{"name":"","type":"tuple","internalType":"struct PoolKey","components":[{"name":"currency0","type":"address","internalType":"Currency"},{"name":"currency1","type":"address","internalType":"Currency"},{"name":"fee","type":"uint24","internalType":"uint24"},{"name":"tickSpacing","type":"int24","internalType":"int24"},{"name":"hooks","type":"address","internalType":"contract IHooks"}]},{"name":"","type":"uint160","internalType":"uint160"},{"name":"","type":"bytes","internalType":"bytes"}],"outputs":[{"name":"","type":"bytes4","internalType":"bytes4"}],"stateMutability":"nonpayable"},{"type":"function","name":"beforeRemoveLiquidity","inputs":[{"name":"","type":"address","internalType":"address"},{"name":"","type":"tuple","internalType":"struct PoolKey","components":[{"name":"currency0","type":"address","internalType":"Currency"},{"name":"currency1","type":"address","internalType":"Currency"},{"name":"fee","type":"uint24","internalType":"uint24"},{"name":"tickSpacing","type":"int24","internalType":"int24"},{"name":"hooks","type":"address","internalType":"contract IHooks"}]},{"name":"","type":"tuple","internalType":"struct IPoolManager.ModifyLiquidityParams","components":[{"name":"tickLower","type":"int24","internalType":"int24"},{"name":"tickUpper","type":"int24","internalType":"int24"},{"name":"liquidityDelta","type":"int256","internalType":"int256"},{"name":"salt","type":"bytes32","internalType":"bytes32"}]},{"name":"","type":"bytes","internalType":"bytes"}],"outputs":[{"name":"","type":"bytes4","internalType":"bytes4"}],"stateMutability":"nonpayable"},{"type":"function","name":"beforeSwap","inputs":[{"name":"","type":"address","internalType":"address"},{"name":"","type":"tuple","internalType":"struct PoolKey","components":[{"name":"currency0","type":"address","internalType":"Currency"},{"name":"currency1","type":"address","internalType":"Currency"},{"name":"fee","type":"uint24","internalType":"uint24"},{"name":"tickSpacing","type":"int24","internalType":"int24"},{"name":"hooks","type":"address","internalType":"contract IHooks"}]},{"name":"","type":"tuple","internalType":"struct IPoolManager.SwapParams","components":[{"name":"zeroForOne","type":"bool","internalType":"bool"},{"name":"amountSpecified","type":"int256","internalType":"int256"},{"name":"sqrtPriceLimitX96","type":"uint160","internalType":"uint160"}]},{"name":"","type":"bytes","internalType":"bytes"}],"outputs":[{"name":"","type":"bytes4","internalType":"bytes4"},{"name":"","type":"int256","internalType":"BeforeSwapDelta"},{"name":"","type":"uint24","internalType":"uint24"}],"stateMutability":"nonpayable"},{"type":"function","name":"cancelOrder","inputs":[{"name":"key","type":"tuple","internalType":"struct PoolKey","components":[{"name":"currency0","type":"address","internalType":"Currency"},{"name":"currency1","type":"address","internalType":"Currency"},{"name":"fee","type":"uint24","internalType":"uint24"},{"name":"tickSpacing","type":"int24","internalType":"int24"},{"name":"hooks","type":"address","internalType":"contract IHooks"}]},{"name":"tickToSellAt","type":"int24","internalType":"int24"},{"name":"zeroForOne","type":"bool","internalType":"bool"}],"outputs":[],"stateMutability":"nonpayable"},{"type":"function","name":"claimTokensSupply","inputs":[{"name":"positionId","type":"uint256","internalType":"uint256"}],"outputs":[{"name":"claimsSupply","type":"uint256","internalType":"uint256"}],"stateMutability":"view"},{"type":"function","name":"claimableOutputTokens","inputs":[{"name":"positionId","type":"uint256","internalType":"uint256"}],"outputs":[{"name":"outputClaimable","type":"uint256","internalType":"uint256"}],"stateMutability":"view"},{"type":"function","name":"getHookPermissions","inputs":[],"outputs":[{"name":"","type":"tuple","internalType":"struct Hooks.Permissions","components":[{"name":"beforeInitialize","type":"bool","internalType":"bool"},{"name":"afterInitialize","type":"bool","internalType":"bool"},{"name":"beforeAddLiquidity","type":"bool","internalType":"bool"},{"name":"afterAddLiquidity","type":"bool","internalType":"bool"},{"name":"beforeRemoveLiquidity","type":"bool","internalType":"bool"},{"name":"afterRemoveLiquidity","type":"bool","internalType":"bool"},{"name":"beforeSwap","type":"bool","internalType":"bool"},{"name":"afterSwap","type":"bool","internalType":"bool"},{"name":"beforeDonate","type":"bool","internalType":"bool"},{"name":"afterDonate","type":"bool","internalType":"bool"},{"name":"beforeSwapReturnDelta","type":"bool","internalType":"bool"},{"name":"afterSwapReturnDelta","type":"bool","internalType":"bool"},{"name":"afterAddLiquidityReturnDelta","type":"bool","internalType":"bool"},{"name":"afterRemoveLiquidityReturnDelta","type":"bool","internalType":"bool"}]}],"stateMutability":"pure"},{"type":"function","name":"getPositionId","inputs":[{"name":"key","type":"tuple","internalType":"struct PoolKey","components":[{"name":"currency0","type":"address","internalType":"Currency"},{"name":"currency1","type":"address","internalType":"Currency"},{"name":"fee","type":"uint24","internalType":"uint24"},{"name":"tickSpacing","type":"int24","internalType":"int24"},{"name":"hooks","type":"address","internalType":"contract IHooks"}]},{"name":"tick","type":"int24","internalType":"int24"},{"name":"zeroForOne","type":"bool","internalType":"bool"}],"outputs":[{"name":"","type":"uint256","internalType":"uint256"}],"stateMutability":"pure"},{"type":"function","name":"isApprovedForAll","inputs":[{"name":"account","type":"address","internalType":"address"},{"name":"operator","type":"address","internalType":"address"}],"outputs":[{"name":"","type":"bool","internalType":"bool"}],"stateMutability":"view"},{"type":"function","name":"lastTicks","inputs":[{"name":"poolId","type":"bytes32","internalType":"PoolId"}],"outputs":[{"name":"lastTick","type":"int24","internalType":"int24"}],"stateMutability":"view"},{"type":"function","name":"pendingOrders","inputs":[{"name":"poolId","type":"bytes32","internalType":"PoolId"},{"name":"tickToSellAt","type":"int24","internalType":"int24"},{"name":"zeroForOne","type":"bool","internalType":"bool"}],"outputs":[{"name":"inputAmount","type":"uint256","internalType":"uint256"}],"stateMutability":"view"},{"type":"function","name":"placeOrder","inputs":[{"name":"key","type":"tuple","internalType":"struct PoolKey","components":[{"name":"currency0","type":"address","internalType":"Currency"},{"name":"currency1","type":"address","internalType":"Currency"},{"name":"fee","type":"uint24","internalType":"uint24"},{"name":"tickSpacing","type":"int24","internalType":"int24"},{"name":"hooks","type":"address","internalType":"contract IHooks"}]},{"name":"tickToSellAt","type":"int24","internalType":"int24"},{"name":"zeroForOne","type":"bool","internalType":"bool"},{"name":"inputAmount","type":"uint256","internalType":"uint256"}],"outputs":[{"name":"","type":"int24","internalType":"int24"}],"stateMutability":"nonpayable"},{"type":"function","name":"poolManager","inputs":[],"outputs":[{"name":"","type":"address","internalType":"contract IPoolManager"}],"stateMutability":"view"},{"type":"function","name":"redeem","inputs":[{"name":"key","type":"tuple","internalType":"struct PoolKey","components":[{"name":"currency0","type":"address","internalType":"Currency"},{"name":"currency1","type":"address","internalType":"Currency"},{"name":"fee","type":"uint24","internalType":"uint24"},{"name":"tickSpacing","type":"int24","internalType":"int24"},{"name":"hooks","type":"address","internalType":"contract IHooks"}]},{"name":"tickToSellAt","type":"int24","internalType":"int24"},{"name":"zeroForOne","type":"bool","internalType":"bool"},{"name":"inputAmountToClaimFor","type":"uint256","internalType":"uint256"}],"outputs":[],"stateMutability":"nonpayable"},{"type":"function","name":"safeBatchTransferFrom","inputs":[{"name":"from","type":"address","internalType":"address"},{"name":"to","type":"address","internalType":"address"},{"name":"ids","type":"uint256[]","internalType":"uint256[]"},{"name":"values","type":"uint256[]","internalType":"uint256[]"},{"name":"data","type":"bytes","internalType":"bytes"}],"outputs":[],"stateMutability":"nonpayable"},{"type":"function","name":"safeTransferFrom","inputs":[{"name":"from","type":"address","internalType":"address"},{"name":"to","type":"address","internalType":"address"},{"name":"id","type":"uint256","internalType":"uint256"},{"name":"value","type":"uint256","internalType":"uint256"},{"name":"data","type":"bytes","internalType":"bytes"}],"outputs":[],"stateMutability":"nonpayable"},{"type":"function","name":"setApprovalForAll","inputs":[{"name":"operator","type":"address","internalType":"address"},{"name":"approved","type":"bool","internalType":"bool"}],"outputs":[],"stateMutability":"nonpayable"},{"type":"function","name":"supportsInterface","inputs":[{"name":"interfaceId","type":"bytes4","internalType":"bytes4"}],"outputs":[{"name":"","type":"bool","internalType":"bool"}],"stateMutability":"view"},{"type":"function","name":"unlockCallback","inputs":[{"name":"data","type":"bytes","internalType":"bytes"}],"outputs":[{"name":"","type":"bytes","internalType":"bytes"}],"stateMutability":"nonpayable"},{"type":"function","name":"uri","inputs":[{"name":"","type":"uint256","internalType":"uint256"}],"outputs":[{"name":"","type":"string","internalType":"string"}],"stateMutability":"view"},{"type":"event","name":"ApprovalForAll","inputs":[{"name":"account","type":"address","indexed":true,"internalType":"address"},{"name":"operator","type":"address","indexed":true,"internalType":"address"},{"name":"approved","type":"bool","indexed":false,"internalType":"bool"}],"anonymous":false},{"type":"event","name":"TransferBatch","inputs":[{"name":"operator","type":"address","indexed":true,"internalType":"address"},{"name":"from","type":"address","indexed":true,"internalType":"address"},{"name":"to","type":"address","indexed":true,"internalType":"address"},{"name":"ids","type":"uint256[]","indexed":false,"internalType":"uint256[]"},{"name":"values","type":"uint256[]","indexed":false,"internalType":"uint256[]"}],"anonymous":false},{"type":"event","name":"TransferSingle","inputs":[{"name":"operator","type":"address","indexed":true,"internalType":"address"},{"name":"from","type":"address","indexed":true,"internalType":"address"},{"name":"to","type":"address","indexed":true,"internalType":"address"},{"name":"id","type":"uint256","indexed":false,"internalType":"uint256"},{"name":"value","type":"uint256","indexed":false,"internalType":"uint256"}],"anonymous":false},{"type":"event","name":"URI","inputs":[{"name":"value","type":"string","indexed":false,"internalType":"string"},{"name":"id","type":"uint256","indexed":true,"internalType":"uint256"}],"anonymous":false},{"type":"error","name":"ERC1155InsufficientBalance","inputs":[{"name":"sender","type":"address","internalType":"address"},{"name":"balance","type":"uint256","internalType":"uint256"},{"name":"needed","type":"uint256","internalType":"uint256"},{"name":"tokenId","type":"uint256","internalType":"uint256"}]},{"type":"error","name":"ERC1155InvalidApprover","inputs":[{"name":"approver","type":"address","internalType":"address"}]},{"type":"error","name":"ERC1155InvalidArrayLength","inputs":[{"name":"idsLength","type":"uint256","internalType":"uint256"},{"name":"valuesLength","type":"uint256","internalType":"uint256"}]},{"type":"error","name":"ERC1155InvalidOperator","inputs":[{"name":"operator","type":"address","internalType":"address"}]},{"type":"error","name":"ERC1155InvalidReceiver","inputs":[{"name":"receiver","type":"address","internalType":"address"}]},{"type":"error","name":"ERC1155InvalidSender","inputs":[{"name":"sender","type":"address","internalType":"address"}]},{"type":"error","name":"ERC1155MissingApprovalForAll","inputs":[{"name":"operator","type":"address","internalType":"address"},{"name":"owner","type":"address","internalType":"address"}]},{"type":"error","name":"HookNotImplemented","inputs":[]},{"type":"error","name":"InvalidOrder","inputs":[]},{"type":"error","name":"InvalidPool","inputs":[]},{"type":"error","name":"LockFailure","inputs":[]},{"type":"error","name":"NotEnoughToClaim","inputs":[]},{"type":"error","name":"NotPoolManager","inputs":[]},{"type":"error","name":"NotSelf","inputs":[]},{"type":"error","name":"NothingToClaim","inputs":[]}],"bytecode":{"object":"0x60a06040523461042c57612b6b8038038061001981610450565b92833981019060408183031261042c578051906001600160a01b038216820361042c576020810151906001600160401b03821161042c570182601f8201121561042c578051906001600160401b03821161035c57610080601f8301601f1916602001610450565b938285526020838301011161042c57815f9260208093018387015e840101526080525f6101a06100ae610430565b8281528260208201528260408201528260608201528260808201528260a08201528260c08201528260e0820152826101008201528261012082015282610140820152826101608201528261018082015201525f6101a061010c610430565b828152600160208201528260408201528260608201528260808201528260a08201528260c0820152600160e08201528261010082015282610120820152826101408201528261016082015282610180820152015261200030161580159061041b575b801561040e575b8015610401575b80156103f4575b80156103e7575b80156103db575b80156103cb575b80156103bf575b80156103b3575b80156103a7575b801561039b575b801561038f575b8015610383575b6103705780516001600160401b03811161035c57600254600181811c91168015610352575b602082101461033e57601f81116102db575b50602091601f821160011461027b579181925f92610270575b50508160011b915f199060031b1c1916176002555b6040516126f590816104768239608051818181610adc01528181610dc201528181610e880152818161111a01528181611bc9015281816124140152818161255e015261263b0152f35b015190505f80610212565b601f1982169260025f52805f20915f5b8581106102c3575083600195106102ab575b505050811b01600255610227565b01515f1960f88460031b161c191690555f808061029d565b9192602060018192868501518155019401920161028b565b60025f527f405787fa12a823e0f2b7631cc41b3ba8828b3321ca811111fa75cd3aa3bb5ace601f830160051c81019160208410610334575b601f0160051c01905b81811061032957506101f9565b5f815560010161031c565b9091508190610313565b634e487b7160e01b5f52602260045260245ffd5b90607f16906101e7565b634e487b7160e01b5f52604160045260245ffd5b630732d7b560e51b5f523060045260245ffd5b506001301615156101c2565b506002301615156101bb565b506004301615156101b4565b506008301615156101ad565b506010301615156101a6565b5060203016151561019f565b5060403016151560011415610198565b50608030161515610191565b506101003016151561018a565b5061020030161515610183565b506104003016151561017c565b5061080030161515610175565b50611000301615156001141561016e565b5f80fd5b604051906101c082016001600160401b0381118382101761035c57604052565b6040519190601f01601f191682016001600160401b0381118382101761035c5760405256fe60806040526004361015610011575f80fd5b5f3560e01c8062fdd58e146101d457806301ffc9a7146101cf5780630e89341c146101ca57806321d0ee70146101c5578063259982e5146101c55780632eb2c2d6146101c05780633440d820146101bb5780633bb76cc1146101b65780634e1273f4146101b1578063575e24b4146101ac5780635a2a8100146101a25780637e8941af146101a75780638db2b652146101a257806391dd73461461019d578063a0dc3f9914610198578063a22cb46514610193578063a2dc31b21461018e578063a910f80f14610189578063b47b2fb114610184578063b5a339141461017f578063b6a8b0fa1461016b578063c4e833ce1461017a578063dc4c90d314610175578063dd02c96414610170578063e1b4af691461016b578063e4cbfea514610166578063e985e9c514610161578063f242432a1461015c5763fa59cb0c14610157575f80fd5b6113f0565b6112d3565b61126d565b611240565b610f02565b61113e565b6110fb565b611013565b610ed8565b610e2a565b610d58565b610d09565b610c4a565b610b61565b610aa0565b61086f565b610913565b61081d565b610749565b6106db565b610678565b6105e1565b610426565b6102f3565b61024d565b6101ee565b6001600160a01b038116036101ea57565b5f80fd5b346101ea5760403660031901126101ea576020610232600435610210816101d9565b6024355f525f835260405f20906001600160a01b03165f5260205260405f2090565b54604051908152f35b6001600160e01b03198116036101ea57565b346101ea5760203660031901126101ea57602060043561026c8161023b565b63ffffffff60e01b16636cdb3d1360e11b81149081156102aa575b8115610299575b506040519015158152f35b6301ffc9a760e01b1490505f61028e565b6303a24d0760e21b81149150610287565b805180835260209291819084018484015e5f828201840152601f01601f1916010190565b9060206102f09281815201906102bb565b90565b346101ea5760203660031901126101ea576040515f6002548060011c90600181169081156103dd575b6020831082146103c95782855260208501919081156103b0575060011461035e575b61035a8461034e818603826104c7565b604051918291826102df565b0390f35b60025f9081529250907f405787fa12a823e0f2b7631cc41b3ba8828b3321ca811111fa75cd3aa3bb5ace5b81841061039c5750500161034e8261033e565b805484840152602090930192600101610389565b60ff191682525090151560051b01905061034e8261033e565b634e487b7160e01b5f52602260045260245ffd5b91607f169161031c565b60a09060231901126101ea57602490565b9181601f840112156101ea5782359167ffffffffffffffff83116101ea57602083818601950101116101ea57565b346101ea576101603660031901126101ea57600435610444816101d9565b5060a03660231901126101ea5760803660c31901126101ea576101443567ffffffffffffffff81116101ea5761047e9036906004016103f8565b5050630a85dc2960e01b5f908152600490fd5b634e487b7160e01b5f52604160045260245ffd5b6101c0810190811067ffffffffffffffff8211176104c257604052565b610491565b90601f8019910116810190811067ffffffffffffffff8211176104c257604052565b604051906104f96101c0836104c7565b565b604051906104f96060836104c7565b67ffffffffffffffff81116104c25760051b60200190565b9080601f830112156101ea5781356105398161050a565b9261054760405194856104c7565b81845260208085019260051b8201019283116101ea57602001905b82821061056f5750505090565b8135815260209182019101610562565b67ffffffffffffffff81116104c257601f01601f191660200190565b81601f820112156101ea578035906105b28261057f565b926105c060405194856104c7565b828452602083830101116101ea57815f926020809301838601378301015290565b346101ea5760a03660031901126101ea576004356105fe816101d9565b6024359061060b826101d9565b60443567ffffffffffffffff81116101ea5761062b903690600401610522565b60643567ffffffffffffffff81116101ea5761064b903690600401610522565b906084359367ffffffffffffffff85116101ea5761067061067695369060040161059b565b93611439565b005b346101ea576101003660031901126101ea576106956004356101d9565b61069e366103e7565b506106aa60c4356101d9565b60e43567ffffffffffffffff81116101ea576106ca9036906004016103f8565b5050630a85dc2960e01b5f5260045ffd5b346101ea5760203660031901126101ea576004355f526005602052602060405f2054604051908152f35b90602080835192838152019201905f5b8181106107225750505090565b8251845260209384019390920191600101610715565b9060206102f0928181520190610705565b346101ea5760403660031901126101ea5760043567ffffffffffffffff81116101ea57366023820112156101ea578060040135906107868261050a565b9161079460405193846104c7565b8083526024602084019160051b830101913683116101ea57602401905b8282106107f2578360243567ffffffffffffffff81116101ea5761035a916107e06107e6923690600401610522565b906114cb565b60405191829182610738565b602080918335610801816101d9565b8152019101906107b1565b60609060c31901126101ea5760c490565b346101ea576101403660031901126101ea5761083a6004356101d9565b610843366103e7565b5061084d3661080c565b506101243567ffffffffffffffff81116101ea576106ca9036906004016103f8565b346101ea576101803660031901126101ea5760043561088d816101d9565b5060a03660231901126101ea5760803660c31901126101ea576101643567ffffffffffffffff81116101ea5761047e9036906004016103f8565b8060020b036101ea57565b801515036101ea57565b6003190161010081126101ea5760a0136101ea5760049060a4356108ff816108c7565b9060c43561090c816108d2565b9060e43590565b346101ea576001600160a01b036109486020610a2f610931366108dc565b929161094260608498939801611560565b90611735565b946109958161098688610976610968610961368961157a565b60a0902090565b5f52600460205260405f2090565b9060020b5f5260205260405f2090565b9015155f5260205260405f2090565b6109a0848254611610565b90556109df6109b08288856116f7565b6109c2815f52600660205260405f2090565b6109cd868254611610565b9055846109d8611622565b91336117b4565b15610a8c576109f06109fc91611636565b6001600160a01b031690565b905b6040516323b872dd60e01b8152336004820152306024820152604481019190915294859283915f9183906064820190565b0393165af1918215610a875761035a92610a5a575b5060405160029190910b81529081906020820190565b610a7b9060203d602011610a80575b610a7381836104c7565b810190611640565b610a44565b503d610a69565b611655565b6109f084610a9a9201611636565b906109fe565b346101ea5760203660031901126101ea5760043567ffffffffffffffff81116101ea57610ad19036906004016103f8565b906001600160a01b037f0000000000000000000000000000000000000000000000000000000000000000163303610b235761035a91610b0f9161193c565b6040519182916020835260208301906102bb565b63570c108560e11b5f5260045ffd5b6003190160e081126101ea5760a0136101ea5760049060a435610b54816108c7565b9060c4356102f0816108d2565b346101ea57610b89610b7236610b32565b919290606084013590610b84826108c7565b611735565b91610b958284836116f7565b91825f525f602052610bbb3360405f20906001600160a01b03165f5260205260405f2090565b54928315610c3b5783610c1591610be38461098661067699610976610968610961368c61157a565b610bee838254611660565b9055610c02815f52600660205260405f2090565b610c0d838254611660565b905533611981565b15610c2a57610c2390611636565b3390611afa565b6020610c369101611636565b610c23565b63af61069360e01b5f5260045ffd5b346101ea5760403660031901126101ea57600435610c67816101d9565b602435610c73816108d2565b6001600160a01b038216918215610cf757610caa90335f52600160205260405f20906001600160a01b03165f5260205260405f2090565b60ff1981541660ff831515161790557f17307eab39ab6107e8899845ad3d59bd9653f200f220920489ca2b5937696c3160405180610cf2339482919091602081019215159052565b0390a3005b62ced3e160e81b5f525f60045260245ffd5b346101ea5760603660031901126101ea576020610232600435610986602435610d31816108c7565b60443592610d3e846108d2565b5f526004855260405f209060020b5f5260205260405f2090565b346101ea576101203660031901126101ea57610d756004356101d9565b610d7e366103e7565b610d8960c4356101d9565b60e435610d95816108c7565b6101043567ffffffffffffffff81116101ea57610db69036906004016103f8565b50506001600160a01b037f0000000000000000000000000000000000000000000000000000000000000000163303610b235760a0610df8610e1893369061157a565b205f52600360205260405f209062ffffff198254169062ffffff16179055565b60405163a910f80f60e01b8152602090f35b346101ea576101603660031901126101ea57600435610e48816101d9565b610e51366103e7565b610e5a3661080c565b906101443567ffffffffffffffff81116101ea57610e7c9036906004016103f8565b50506001600160a01b037f0000000000000000000000000000000000000000000000000000000000000000163303610b2357610eb79261166d565b604080516001600160e01b0319939093168352600f9190910b602083015290f35b346101ea5760203660031901126101ea576004355f526006602052602060405f2054604051908152f35b346101ea576101203660031901126101ea57600435610f20816101d9565b5060a03660231901126101ea576101043567ffffffffffffffff81116101ea5761047e9036906004016103f8565b5f9103126101ea57565b6104f9909291926101a0806101c0830195610f7584825115159052565b60208181015115159085015260408181015115159085015260608181015115159085015260808181015115159085015260a08181015115159085015260c08181015115159085015260e081810151151590850152610100818101511515908501526101208181015115159085015261014081810151151590850152610160818101511515908501526101808181015115159085015201511515910152565b346101ea575f3660031901126101ea575f6101a0604051611033816104a5565b8281528260208201528260408201528260608201528260808201528260a08201528260c08201528260e08201528261010082015282610120820152826101408201528261016082015282610180820152015261035a6110906104e9565b5f8152600160208201525f60408201525f60608201525f60808201525f60a08201525f60c08201526110c560e0820160019052565b5f6101008201525f6101208201525f6101408201525f6101608201525f6101808201525f6101a082015260405191829182610f58565b346101ea575f3660031901126101ea5760206040516001600160a01b037f0000000000000000000000000000000000000000000000000000000000000000168152f35b346101ea57611162611168611152366108dc565b9481949261094260608601611560565b836116f7565b9161117b835f52600560205260405f2090565b541561123157836111ad33611197865f525f60205260405f2090565b906001600160a01b03165f5260205260405f2090565b541061122257611208610676946111ea6111cf865f52600560205260405f2090565b546111e2875f52600660205260405f2090565b549083611cd9565b946111fd815f52600560205260405f2090565b610bee878254611660565b15611219576020610c239101611636565b610c3690611636565b639378648960e01b5f5260045ffd5b6312d37ee560e31b5f5260045ffd5b346101ea5760203660031901126101ea576004355f526003602052602060405f205460020b604051908152f35b346101ea5760403660031901126101ea57602060ff6112c7600435611291816101d9565b6001600160a01b03602435916112a6836101d9565b165f526001845260405f20906001600160a01b03165f5260205260405f2090565b54166040519015158152f35b346101ea5760a03660031901126101ea576004356112f0816101d9565b6024356112fc816101d9565b604435906064359260843567ffffffffffffffff81116101ea5761132490369060040161059b565b926001600160a01b03821633811415806113bf575b6113a9576001600160a01b038416156113965715611384576106769461137c60405192600184526020840152604083019160018352606084015260808301604052565b929091611cee565b626a0d4560e21b5f525f60045260245ffd5b632bfa23e760e11b5f525f60045260245ffd5b63711bec9160e11b5f523360045260245260445ffd5b50805f52600160205260ff6113e83360405f20906001600160a01b03165f5260205260405f2090565b541615611339565b346101ea57602061140961140336610b32565b916116f7565b604051908152f35b611435915f525f60205260405f20906001600160a01b03165f5260205260405f2090565b5490565b939291906001600160a01b0385163381141580611472575b6113a9576001600160a01b038216156113965715611384576104f994611cee565b50805f52600160205260ff61149b3360405f20906001600160a01b03165f5260205260405f2090565b541615611451565b80518210156114b75760209160051b010190565b634e487b7160e01b5f52603260045260245ffd5b9190918051835180820361154b5750508051906114e78261050a565b916114f560405193846104c7565b808352611504601f199161050a565b013660208401375f5b8151811015611544578061153360019260051b6020808287010151918901015190611411565b61153d82866114a3565b520161150d565b5090925050565b635b05999160e01b5f5260045260245260445ffd5b356102f0816108c7565b359062ffffff821682036101ea57565b91908260a09103126101ea5760405160a0810181811067ffffffffffffffff8211176104c257604052608080829480356115b3816101d9565b845260208101356115c3816101d9565b60208501526115d46040820161156a565b604085015260608101356115e7816108c7565b60608501520135916115f8836101d9565b0152565b634e487b7160e01b5f52601160045260245ffd5b9190820180921161161d57565b6115fc565b604051906116316020836104c7565b5f8252565b356102f0816101d9565b908160209103126101ea57516102f0816108d2565b6040513d5f823e3d90fd5b9190820391821161161d57565b6001600160a01b031630146116e8575f9160015b6116ca5750906116a960a061169a6116bd94369061157a565b205f52600360205260405f2090565b9062ffffff198254169062ffffff16179055565b63b47b2fb160e01b905f90565b91506116e182356116da816108d2565b1582611bb4565b9290611681565b5063b47b2fb160e01b915f9150565b61170460a091369061157a565b2091604051916020830193845260020b6040830152151560608201526060815261172f6080826104c7565b51902090565b60020b9060020b9081156117a057627fffff1981145f1983141661161d5781810590825f82129182611791575b505061177b575b60020b028060020b90810361161d5790565b60020b627fffff19811461161d575f1901611769565b0760020b15159050825f611762565b634e487b7160e01b5f52601260045260245ffd5b909291926001600160a01b038216938415611396576117f060405192600184526020840152604083019160018352606084015260808301604052565b9281518451908181036118f85750505f5b8251811015611846578060019160051b61183e61183687611197602080868b010151958c010151945f525f60205260405f2090565b918254611610565b905501611801565b5092919360018251145f146118bd576020828101518482015160408051928352928201525f9133917fc3d58168c5ae7397731d063d5bbf3d657854427343f4c083240f7aacaa2d0f629190a45b80516001036118b257906020806104f995930151910151915f3361227a565b6104f9935f33612150565b5f6040517f4a39dc06d4c0dbc64b70af90fd698a233a518aa5d07e595d983b8c0526c8f7fb3391806118f08888836120c8565b0390a4611893565b635b05999160e01b5f5260045260245260445ffd5b3d15611937573d9061191e8261057f565b9161192c60405193846104c7565b82523d5f602084013e565b606090565b5f9182918160405192839283378101838152039082305af19061195d61190d565b916104f9575080511561197257602081519101fd5b6314815f4760e31b5f5260045ffd5b92906001600160a01b038416928315611384576119bb60405192600184526020840152604083019160018352606084015260808301604052565b91906020915f6040516119ce85826104c7565b5281518451908181036118f85750505f5b8251811015611a6f578060051b848082860101519187010151611a0d89611197845f525f60205260405f2090565b54818110611a3857896111976001959493611a319303935f525f60205260405f2090565b55016119df565b6040516303dee4c560e01b81526001600160a01b038b16600482015260248101919091526044810182905260648101839052608490fd5b50945090915f939260018351148514611ac6579182015191015160408051928352602083019190915233917fc3d58168c5ae7397731d063d5bbf3d657854427343f4c083240f7aacaa2d0f6291819081015b0390a4565b50611ac17f4a39dc06d4c0dbc64b70af90fd698a233a518aa5d07e595d983b8c0526c8f7fb916040519182913395836120c8565b6001600160a01b038116611b2357505f8080611b189481945af11590565b611b1e57565b611ef9565b60205f60448194826040956001600160a01b03988751998a9463a9059cbb60e01b865216600485015260248401525af13d15601f3d11600185511416171692828152826020820152015215611b7457565b611ec9565b600291820b910b0390627fffff198212627fffff83131761161d57565b9060020b9060020b0190627fffff198212627fffff83131761161d57565b919091611bed611bc7610961368461157a565b7f0000000000000000000000000000000000000000000000000000000000000000611f38565b5050939050611c1a611c13611c05610961368661157a565b5f52600360205260405f2090565b5460020b90565b908460020b918060020b83135f14611c8c575b828160020b12611c4157505050505b5f9190565b611c598261098683610976610968610961368b61157a565b5480611c7b5750611c7690611c7060608601611560565b90611b96565b611c2d565b9250611c8693611ff5565b60019190565b828160020b13611c9f5750505050611c3c565b611cb78261098683610976610968610961368b61157a565b5480611c7b5750611cd490611cce60608601611560565b90611b79565b611c8c565b815f190481118202158302156101ea57020490565b94939290919384518251908181036118f8575050935f906001600160a01b03871695861515956001600160a01b038616801515945b8451811015611dfc578060051b90898988602080868b010151958c01015192611d7b575b93600194611d59575b50505001611d23565b611d7191611197611836925f525f60205260405f2090565b90555f8981611d50565b50509091611d948d611197835f525f60205260405f2090565b54828110611dc5578291898f611dbc600197968f950391611197855f525f60205260405f2090565b55909450611d47565b6040516303dee4c560e01b81526001600160a01b038f16600482015260248101919091526044810183905260648101829052608490fd5b5091989593929790965060018851145f14611e8f5760208881015186820151604080519283529282015233917fc3d58168c5ae7397731d063d5bbf3d657854427343f4c083240f7aacaa2d0f6291a45b611e58575b5050505050565b8451600103611e7e57602080611e74960151920151923361227a565b5f80808080611e51565b611e8a94919233612150565b611e74565b6040517f4a39dc06d4c0dbc64b70af90fd698a233a518aa5d07e595d983b8c0526c8f7fb339180611ec1898d836120c8565b0390a4611e4c565b604051632745a14f60e21b8152602060048201523d60248201819052805f604484013e601f801991011660440190fd5b6040516356cdd02560e11b8152602060048201523d60248201819052805f604484013e601f801991011660440190fd5b908160209103126101ea575190565b611f8b6020916001600160a01b0394936040518481019182526006604082015260408152611f676060826104c7565b519020604051958680948193631e2eaeaf60e01b8352600483019190602083019252565b0392165afa918215610a87575f92611fc4575b506001600160a01b038216918060a01c60020b9162ffffff808360b81c169260d01c1690565b611fe791925060203d602011611fee575b611fdf81836104c7565b810190611f29565b905f611f9e565b503d611fd5565b909192600160ff1b811461161d5761207a84612092946118369461204f855f03845f146120ab576120496401000276a45b61202e6104fb565b87151581529260208401526001600160a01b03166040830152565b826123e7565b9461207361206b8561098686610976610968610961368a61157a565b918254611660565b90556116f7565b931561209657600f0b925f52600560205260405f2090565b9055565b60801d600f0b925f52600560205260405f2090565b61204973fffd8963efd1fc6a506488495d951d5263988d25612026565b90916120df6102f093604084526040840190610705565b916020818403910152610705565b908160209103126101ea57516102f08161023b565b93906102f095936001600160a01b0361214294816121349416885216602087015260a0604087015260a0860190610705565b908482036060860152610705565b9160808184039101526102bb565b9091949293853b612164575b505050505050565b60209361218691604051968795869563bc197c8160e01b875260048701612102565b03815f6001600160a01b0387165af15f9181612215575b506121d757506121ab61190d565b80519190826121d057632bfa23e760e11b5f526001600160a01b03821660045260245ffd5b9050602001fd5b6001600160e01b0319166343e6837f60e01b016121fa57505f808080808061215c565b632bfa23e760e11b5f526001600160a01b031660045260245ffd5b61223891925060203d60201161223f575b61223081836104c7565b8101906120ed565b905f61219d565b503d612226565b91926001600160a01b0360a094816102f09897941685521660208401526040830152606082015281608082015201906102bb565b9091949293853b61228d57505050505050565b6020936122af91604051968795869563f23a6e6160e01b875260048701612246565b03815f6001600160a01b0387165af15f91816122f7575b506122d457506121ab61190d565b6001600160e01b031916630dc5919f60e01b016121fa57505f808080808061215c565b61231191925060203d60201161223f5761223081836104c7565b905f6122c6565b6123b56102f0936001600160a01b03608061012095828135612339816101d9565b16865282602082013561234b816101d9565b16602087015262ffffff6123616040830161156a565b1660408701526060810135612375816108c7565b60020b60608701520135612388816101d9565b1660808401528051151560a0840152602081015160c0840152604001516001600160a01b031660e0830152565b81610100820152016020905f81520190565b600f0b6f7fffffffffffffffffffffffffffffff19811461161d575f0390565b604051633cf3645360e21b81529160208380612407848660048401612318565b03815f6001600160a01b037f0000000000000000000000000000000000000000000000000000000000000000165af1928315610a87575f9361252f575b505115155b156124ce578160801d5f81600f0b12612494575b505f82600f0b1361246c575090565b61247b60206102f09201611636565b826fffffffffffffffffffffffffffffffff1690612631565b6124c8906124c26124ad6124a785611636565b926123c7565b6fffffffffffffffffffffffffffffffff1690565b90612554565b5f61245d565b81600f0b5f8112612513575b508160801d5f81600f0b136124ee57505090565b6124fa6102f092611636565b906fffffffffffffffffffffffffffffffff1690612631565b612529906124c26124ad6124a760208601611636565b5f6124da565b61244991935061254d9060203d602011611fee57611fdf81836104c7565b9290612444565b6001600160a01b037f000000000000000000000000000000000000000000000000000000000000000016803b156101ea57604051632961046560e21b81526001600160a01b0383166004820152925f8460248183865af1928315610a8757826fffffffffffffffffffffffffffffffff6125da935f97602097612617575b501691611afa565b600460405180948193630476982d60e21b83525af18015610a87576125fc5750565b6126149060203d602011611fee57611fdf81836104c7565b50565b806126258a61262b936104c7565b80610f4e565b5f6125d2565b6001600160a01b037f00000000000000000000000000000000000000000000000000000000000000001690813b156101ea5760646001600160a01b03915f80946fffffffffffffffffffffffffffffffff6040519788968795630b0d9c0960e01b87521660048601523060248601521660448401525af18015610a87576126b55750565b5f6104f9916104c756fea2646970667358221220a52a95aa26cf9ca7ca298c776d5f6e78d5317d8e70c076c2dfd03a5db560dc4164736f6c634300081a0033","linkReferences":{}},"methodIdentifiers":{"afterAddLiquidity(address,(address,address,uint24,int24,address),(int24,int24,int256,bytes32),int256,bytes)":"5a2a8100","afterDonate(address,(address,address,uint24,int24,address),uint256,uint256,bytes)":"e1b4af69","afterInitialize(address,(address,address,uint24,int24,address),uint160,int24,bytes)":"a910f80f","afterRemoveLiquidity(address,(address,address,uint24,int24,address),(int24,int24,int256,bytes32),int256,bytes)":"8db2b652","afterSwap(address,(address,address,uint24,int24,address),(bool,int256,uint160),int256,bytes)":"b47b2fb1","balanceOf(address,uint256)":"00fdd58e","balanceOfBatch(address[],uint256[])":"4e1273f4","beforeAddLiquidity(address,(address,address,uint24,int24,address),(int24,int24,int256,bytes32),bytes)":"259982e5","beforeDonate(address,(address,address,uint24,int24,address),uint256,uint256,bytes)":"b6a8b0fa","beforeInitialize(address,(address,address,uint24,int24,address),uint160,bytes)":"3440d820","beforeRemoveLiquidity(address,(address,address,uint24,int24,address),(int24,int24,int256,bytes32),bytes)":"21d0ee70","beforeSwap(address,(address,address,uint24,int24,address),(bool,int256,uint160),bytes)":"575e24b4","cancelOrder((address,address,uint24,int24,address),int24,bool)":"a0dc3f99","claimTokensSupply(uint256)":"b5a33914","claimableOutputTokens(uint256)":"3bb76cc1","getHookPermissions()":"c4e833ce","getPositionId((address,address,uint24,int24,address),int24,bool)":"fa59cb0c","isApprovedForAll(address,address)":"e985e9c5","lastTicks(bytes32)":"e4cbfea5","pendingOrders(bytes32,int24,bool)":"a2dc31b2","placeOrder((address,address,uint24,int24,address),int24,bool,uint256)":"7e8941af","poolManager()":"dc4c90d3","redeem((address,address,uint24,int24,address),int24,bool,uint256)":"dd02c964","safeBatchTransferFrom(address,address,uint256[],uint256[],bytes)":"2eb2c2d6","safeTransferFrom(address,address,uint256,uint256,bytes)":"f242432a","setApprovalForAll(address,bool)":"a22cb465","supportsInterface(bytes4)":"01ffc9a7","unlockCallback(bytes)":"91dd7346","uri(uint256)":"0e89341c"},"id":111}