{"abi":[{"type":"constructor","inputs":[{"name":"_manager","type":"address","internalType":"contract IPoolManager"},{"name":"_uri","type":"string","internalType":"string"}],"stateMutability":"nonpayable"},{"type":"function","name":"afterAddLiquidity","inputs":[{"name":"","type":"address","internalType":"address"},{"name":"","type":"tuple","internalType":"struct PoolKey","components":[{"name":"currency0","type":"address","internalType":"Currency"},{"name":"currency1","type":"address","internalType":"Currency"},{"name":"fee","type":"uint24","internalType":"uint24"},{"name":"tickSpacing","type":"int24","internalType":"int24"},{"name":"hooks","type":"address","internalType":"contract IHooks"}]},{"name":"","type":"tuple","internalType":"struct IPoolManager.ModifyLiquidityParams","components":[{"name":"tickLower","type":"int24","internalType":"int24"},{"name":"tickUpper","type":"int24","internalType":"int24"},{"name":"liquidityDelta","type":"int256","internalType":"int256"},{"name":"salt","type":"bytes32","internalType":"bytes32"}]},{"name":"","type":"int256","internalType":"BalanceDelta"},{"name":"","type":"bytes","internalType":"bytes"}],"outputs":[{"name":"","type":"bytes4","internalType":"bytes4"},{"name":"","type":"int256","internalType":"BalanceDelta"}],"stateMutability":"nonpayable"},{"type":"function","name":"afterDonate","inputs":[{"name":"","type":"address","internalType":"address"},{"name":"","type":"tuple","internalType":"struct PoolKey","components":[{"name":"currency0","type":"address","internalType":"Currency"},{"name":"currency1","type":"address","internalType":"Currency"},{"name":"fee","type":"uint24","internalType":"uint24"},{"name":"tickSpacing","type":"int24","internalType":"int24"},{"name":"hooks","type":"address","internalType":"contract IHooks"}]},{"name":"","type":"uint256","internalType":"uint256"},{"name":"","type":"uint256","internalType":"uint256"},{"name":"","type":"bytes","internalType":"bytes"}],"outputs":[{"name":"","type":"bytes4","internalType":"bytes4"}],"stateMutability":"nonpayable"},{"type":"function","name":"afterInitialize","inputs":[{"name":"","type":"address","internalType":"address"},{"name":"key","type":"tuple","internalType":"struct PoolKey","components":[{"name":"currency0","type":"address","internalType":"Currency"},{"name":"currency1","type":"address","internalType":"Currency"},{"name":"fee","type":"uint24","internalType":"uint24"},{"name":"tickSpacing","type":"int24","internalType":"int24"},{"name":"hooks","type":"address","internalType":"contract IHooks"}]},{"name":"","type":"uint160","internalType":"uint160"},{"name":"tick","type":"int24","internalType":"int24"},{"name":"","type":"bytes","internalType":"bytes"}],"outputs":[{"name":"","type":"bytes4","internalType":"bytes4"}],"stateMutability":"nonpayable"},{"type":"function","name":"afterRemoveLiquidity","inputs":[{"name":"","type":"address","internalType":"address"},{"name":"","type":"tuple","internalType":"struct PoolKey","components":[{"name":"currency0","type":"address","internalType":"Currency"},{"name":"currency1","type":"address","internalType":"Currency"},{"name":"fee","type":"uint24","internalType":"uint24"},{"name":"tickSpacing","type":"int24","internalType":"int24"},{"name":"hooks","type":"address","internalType":"contract IHooks"}]},{"name":"","type":"tuple","internalType":"struct IPoolManager.ModifyLiquidityParams","components":[{"name":"tickLower","type":"int24","internalType":"int24"},{"name":"tickUpper","type":"int24","internalType":"int24"},{"name":"liquidityDelta","type":"int256","internalType":"int256"},{"name":"salt","type":"bytes32","internalType":"bytes32"}]},{"name":"","type":"int256","internalType":"BalanceDelta"},{"name":"","type":"bytes","internalType":"bytes"}],"outputs":[{"name":"","type":"bytes4","internalType":"bytes4"},{"name":"","type":"int256","internalType":"BalanceDelta"}],"stateMutability":"nonpayable"},{"type":"function","name":"afterSwap","inputs":[{"name":"sender","type":"address","internalType":"address"},{"name":"key","type":"tuple","internalType":"struct PoolKey","components":[{"name":"currency0","type":"address","internalType":"Currency"},{"name":"currency1","type":"address","internalType":"Currency"},{"name":"fee","type":"uint24","internalType":"uint24"},{"name":"tickSpacing","type":"int24","internalType":"int24"},{"name":"hooks","type":"address","internalType":"contract IHooks"}]},{"name":"params","type":"tuple","internalType":"struct IPoolManager.SwapParams","components":[{"name":"zeroForOne","type":"bool","internalType":"bool"},{"name":"amountSpecified","type":"int256","internalType":"int256"},{"name":"sqrtPriceLimitX96","type":"uint160","internalType":"uint160"}]},{"name":"","type":"int256","internalType":"BalanceDelta"},{"name":"","type":"bytes","internalType":"bytes"}],"outputs":[{"name":"","type":"bytes4","internalType":"bytes4"},{"name":"","type":"int128","internalType":"int128"}],"stateMutability":"nonpayable"},{"type":"function","name":"balanceOf","inputs":[{"name":"account","type":"address","internalType":"address"},{"name":"id","type":"uint256","internalType":"uint256"}],"outputs":[{"name":"","type":"uint256","internalType":"uint256"}],"stateMutability":"view"},{"type":"function","name":"balanceOfBatch","inputs":[{"name":"accounts","type":"address[]","internalType":"address[]"},{"name":"ids","type":"uint256[]","internalType":"uint256[]"}],"outputs":[{"name":"","type":"uint256[]","internalType":"uint256[]"}],"stateMutability":"view"},{"type":"function","name":"beforeAddLiquidity","inputs":[{"name":"","type":"address","internalType":"address"},{"name":"","type":"tuple","internalType":"struct PoolKey","components":[{"name":"currency0","type":"address","internalType":"Currency"},{"name":"currency1","type":"address","internalType":"Currency"},{"name":"fee","type":"uint24","internalType":"uint24"},{"name":"tickSpacing","type":"int24","internalType":"int24"},{"name":"hooks","type":"address","internalType":"contract IHooks"}]},{"name":"","type":"tuple","internalType":"struct IPoolManager.ModifyLiquidityParams","components":[{"name":"tickLower","type":"int24","internalType":"int24"},{"name":"tickUpper","type":"int24","internalType":"int24"},{"name":"liquidityDelta","type":"int256","internalType":"int256"},{"name":"salt","type":"bytes32","internalType":"bytes32"}]},{"name":"","type":"bytes","internalType":"bytes"}],"outputs":[{"name":"","type":"bytes4","internalType":"bytes4"}],"stateMutability":"nonpayable"},{"type":"function","name":"beforeDonate","inputs":[{"name":"","type":"address","internalType":"address"},{"name":"","type":"tuple","internalType":"struct PoolKey","components":[{"name":"currency0","type":"address","internalType":"Currency"},{"name":"currency1","type":"address","internalType":"Currency"},{"name":"fee","type":"uint24","internalType":"uint24"},{"name":"tickSpacing","type":"int24","internalType":"int24"},{"name":"hooks","type":"address","internalType":"contract IHooks"}]},{"name":"","type":"uint256","internalType":"uint256"},{"name":"","type":"uint256","internalType":"uint256"},{"name":"","type":"bytes","internalType":"bytes"}],"outputs":[{"name":"","type":"bytes4","internalType":"bytes4"}],"stateMutability":"nonpayable"},{"type":"function","name":"beforeInitialize","inputs":[{"name":"","type":"address","internalType":"address"},{"name":"","type":"tuple","internalType":"struct PoolKey","components":[{"name":"currency0","type":"address","internalType":"Currency"},{"name":"currency1","type":"address","internalType":"Currency"},{"name":"fee","type":"uint24","internalType":"uint24"},{"name":"tickSpacing","type":"int24","internalType":"int24"},{"name":"hooks","type":"address","internalType":"contract IHooks"}]},{"name":"","type":"uint160","internalType":"uint160"},{"name":"","type":"bytes","internalType":"bytes"}],"outputs":[{"name":"","type":"bytes4","internalType":"bytes4"}],"stateMutability":"nonpayable"},{"type":"function","name":"beforeRemoveLiquidity","inputs":[{"name":"","type":"address","internalType":"address"},{"name":"","type":"tuple","internalType":"struct PoolKey","components":[{"name":"currency0","type":"address","internalType":"Currency"},{"name":"currency1","type":"address","internalType":"Currency"},{"name":"fee","type":"uint24","internalType":"uint24"},{"name":"tickSpacing","type":"int24","internalType":"int24"},{"name":"hooks","type":"address","internalType":"contract IHooks"}]},{"name":"","type":"tuple","internalType":"struct IPoolManager.ModifyLiquidityParams","components":[{"name":"tickLower","type":"int24","internalType":"int24"},{"name":"tickUpper","type":"int24","internalType":"int24"},{"name":"liquidityDelta","type":"int256","internalType":"int256"},{"name":"salt","type":"bytes32","internalType":"bytes32"}]},{"name":"","type":"bytes","internalType":"bytes"}],"outputs":[{"name":"","type":"bytes4","internalType":"bytes4"}],"stateMutability":"nonpayable"},{"type":"function","name":"beforeSwap","inputs":[{"name":"","type":"address","internalType":"address"},{"name":"","type":"tuple","internalType":"struct PoolKey","components":[{"name":"currency0","type":"address","internalType":"Currency"},{"name":"currency1","type":"address","internalType":"Currency"},{"name":"fee","type":"uint24","internalType":"uint24"},{"name":"tickSpacing","type":"int24","internalType":"int24"},{"name":"hooks","type":"address","internalType":"contract IHooks"}]},{"name":"","type":"tuple","internalType":"struct IPoolManager.SwapParams","components":[{"name":"zeroForOne","type":"bool","internalType":"bool"},{"name":"amountSpecified","type":"int256","internalType":"int256"},{"name":"sqrtPriceLimitX96","type":"uint160","internalType":"uint160"}]},{"name":"","type":"bytes","internalType":"bytes"}],"outputs":[{"name":"","type":"bytes4","internalType":"bytes4"},{"name":"","type":"int256","internalType":"BeforeSwapDelta"},{"name":"","type":"uint24","internalType":"uint24"}],"stateMutability":"nonpayable"},{"type":"function","name":"cancelOrder","inputs":[{"name":"key","type":"tuple","internalType":"struct PoolKey","components":[{"name":"currency0","type":"address","internalType":"Currency"},{"name":"currency1","type":"address","internalType":"Currency"},{"name":"fee","type":"uint24","internalType":"uint24"},{"name":"tickSpacing","type":"int24","internalType":"int24"},{"name":"hooks","type":"address","internalType":"contract IHooks"}]},{"name":"tickToSellAt","type":"int24","internalType":"int24"},{"name":"zeroForOne","type":"bool","internalType":"bool"}],"outputs":[],"stateMutability":"nonpayable"},{"type":"function","name":"claimTokensSupply","inputs":[{"name":"positionId","type":"uint256","internalType":"uint256"}],"outputs":[{"name":"claimsSupply","type":"uint256","internalType":"uint256"}],"stateMutability":"view"},{"type":"function","name":"claimableOutputTokens","inputs":[{"name":"positionId","type":"uint256","internalType":"uint256"}],"outputs":[{"name":"outputClaimable","type":"uint256","internalType":"uint256"}],"stateMutability":"view"},{"type":"function","name":"getHookPermissions","inputs":[],"outputs":[{"name":"","type":"tuple","internalType":"struct Hooks.Permissions","components":[{"name":"beforeInitialize","type":"bool","internalType":"bool"},{"name":"afterInitialize","type":"bool","internalType":"bool"},{"name":"beforeAddLiquidity","type":"bool","internalType":"bool"},{"name":"afterAddLiquidity","type":"bool","internalType":"bool"},{"name":"beforeRemoveLiquidity","type":"bool","internalType":"bool"},{"name":"afterRemoveLiquidity","type":"bool","internalType":"bool"},{"name":"beforeSwap","type":"bool","internalType":"bool"},{"name":"afterSwap","type":"bool","internalType":"bool"},{"name":"beforeDonate","type":"bool","internalType":"bool"},{"name":"afterDonate","type":"bool","internalType":"bool"},{"name":"beforeSwapReturnDelta","type":"bool","internalType":"bool"},{"name":"afterSwapReturnDelta","type":"bool","internalType":"bool"},{"name":"afterAddLiquidityReturnDelta","type":"bool","internalType":"bool"},{"name":"afterRemoveLiquidityReturnDelta","type":"bool","internalType":"bool"}]}],"stateMutability":"pure"},{"type":"function","name":"getPositionId","inputs":[{"name":"key","type":"tuple","internalType":"struct PoolKey","components":[{"name":"currency0","type":"address","internalType":"Currency"},{"name":"currency1","type":"address","internalType":"Currency"},{"name":"fee","type":"uint24","internalType":"uint24"},{"name":"tickSpacing","type":"int24","internalType":"int24"},{"name":"hooks","type":"address","internalType":"contract IHooks"}]},{"name":"tick","type":"int24","internalType":"int24"},{"name":"zeroForOne","type":"bool","internalType":"bool"}],"outputs":[{"name":"","type":"uint256","internalType":"uint256"}],"stateMutability":"pure"},{"type":"function","name":"isApprovedForAll","inputs":[{"name":"account","type":"address","internalType":"address"},{"name":"operator","type":"address","internalType":"address"}],"outputs":[{"name":"","type":"bool","internalType":"bool"}],"stateMutability":"view"},{"type":"function","name":"lastTicks","inputs":[{"name":"poolId","type":"bytes32","internalType":"PoolId"}],"outputs":[{"name":"lastTick","type":"int24","internalType":"int24"}],"stateMutability":"view"},{"type":"function","name":"pendingOrders","inputs":[{"name":"poolId","type":"bytes32","internalType":"PoolId"},{"name":"tickToSellAt","type":"int24","internalType":"int24"},{"name":"zeroForOne","type":"bool","internalType":"bool"}],"outputs":[{"name":"inputAmount","type":"uint256","internalType":"uint256"}],"stateMutability":"view"},{"type":"function","name":"placeOrder","inputs":[{"name":"key","type":"tuple","internalType":"struct PoolKey","components":[{"name":"currency0","type":"address","internalType":"Currency"},{"name":"currency1","type":"address","internalType":"Currency"},{"name":"fee","type":"uint24","internalType":"uint24"},{"name":"tickSpacing","type":"int24","internalType":"int24"},{"name":"hooks","type":"address","internalType":"contract IHooks"}]},{"name":"tickToSellAt","type":"int24","internalType":"int24"},{"name":"zeroForOne","type":"bool","internalType":"bool"},{"name":"inputAmount","type":"uint256","internalType":"uint256"}],"outputs":[{"name":"","type":"int24","internalType":"int24"}],"stateMutability":"nonpayable"},{"type":"function","name":"poolManager","inputs":[],"outputs":[{"name":"","type":"address","internalType":"contract IPoolManager"}],"stateMutability":"view"},{"type":"function","name":"redeem","inputs":[{"name":"key","type":"tuple","internalType":"struct PoolKey","components":[{"name":"currency0","type":"address","internalType":"Currency"},{"name":"currency1","type":"address","internalType":"Currency"},{"name":"fee","type":"uint24","internalType":"uint24"},{"name":"tickSpacing","type":"int24","internalType":"int24"},{"name":"hooks","type":"address","internalType":"contract IHooks"}]},{"name":"tickToSellAt","type":"int24","internalType":"int24"},{"name":"zeroForOne","type":"bool","internalType":"bool"},{"name":"inputAmountToClaimFor","type":"uint256","internalType":"uint256"}],"outputs":[],"stateMutability":"nonpayable"},{"type":"function","name":"safeBatchTransferFrom","inputs":[{"name":"from","type":"address","internalType":"address"},{"name":"to","type":"address","internalType":"address"},{"name":"ids","type":"uint256[]","internalType":"uint256[]"},{"name":"values","type":"uint256[]","internalType":"uint256[]"},{"name":"data","type":"bytes","internalType":"bytes"}],"outputs":[],"stateMutability":"nonpayable"},{"type":"function","name":"safeTransferFrom","inputs":[{"name":"from","type":"address","internalType":"address"},{"name":"to","type":"address","internalType":"address"},{"name":"id","type":"uint256","internalType":"uint256"},{"name":"value","type":"uint256","internalType":"uint256"},{"name":"data","type":"bytes","internalType":"bytes"}],"outputs":[],"stateMutability":"nonpayable"},{"type":"function","name":"setApprovalForAll","inputs":[{"name":"operator","type":"address","internalType":"address"},{"name":"approved","type":"bool","internalType":"bool"}],"outputs":[],"stateMutability":"nonpayable"},{"type":"function","name":"supportsInterface","inputs":[{"name":"interfaceId","type":"bytes4","internalType":"bytes4"}],"outputs":[{"name":"","type":"bool","internalType":"bool"}],"stateMutability":"view"},{"type":"function","name":"unlockCallback","inputs":[{"name":"data","type":"bytes","internalType":"bytes"}],"outputs":[{"name":"","type":"bytes","internalType":"bytes"}],"stateMutability":"nonpayable"},{"type":"function","name":"uri","inputs":[{"name":"","type":"uint256","internalType":"uint256"}],"outputs":[{"name":"","type":"string","internalType":"string"}],"stateMutability":"view"},{"type":"event","name":"ApprovalForAll","inputs":[{"name":"account","type":"address","indexed":true,"internalType":"address"},{"name":"operator","type":"address","indexed":true,"internalType":"address"},{"name":"approved","type":"bool","indexed":false,"internalType":"bool"}],"anonymous":false},{"type":"event","name":"TransferBatch","inputs":[{"name":"operator","type":"address","indexed":true,"internalType":"address"},{"name":"from","type":"address","indexed":true,"internalType":"address"},{"name":"to","type":"address","indexed":true,"internalType":"address"},{"name":"ids","type":"uint256[]","indexed":false,"internalType":"uint256[]"},{"name":"values","type":"uint256[]","indexed":false,"internalType":"uint256[]"}],"anonymous":false},{"type":"event","name":"TransferSingle","inputs":[{"name":"operator","type":"address","indexed":true,"internalType":"address"},{"name":"from","type":"address","indexed":true,"internalType":"address"},{"name":"to","type":"address","indexed":true,"internalType":"address"},{"name":"id","type":"uint256","indexed":false,"internalType":"uint256"},{"name":"value","type":"uint256","indexed":false,"internalType":"uint256"}],"anonymous":false},{"type":"event","name":"URI","inputs":[{"name":"value","type":"string","indexed":false,"internalType":"string"},{"name":"id","type":"uint256","indexed":true,"internalType":"uint256"}],"anonymous":false},{"type":"error","name":"ERC1155InsufficientBalance","inputs":[{"name":"sender","type":"address","internalType":"address"},{"name":"balance","type":"uint256","internalType":"uint256"},{"name":"needed","type":"uint256","internalType":"uint256"},{"name":"tokenId","type":"uint256","internalType":"uint256"}]},{"type":"error","name":"ERC1155InvalidApprover","inputs":[{"name":"approver","type":"address","internalType":"address"}]},{"type":"error","name":"ERC1155InvalidArrayLength","inputs":[{"name":"idsLength","type":"uint256","internalType":"uint256"},{"name":"valuesLength","type":"uint256","internalType":"uint256"}]},{"type":"error","name":"ERC1155InvalidOperator","inputs":[{"name":"operator","type":"address","internalType":"address"}]},{"type":"error","name":"ERC1155InvalidReceiver","inputs":[{"name":"receiver","type":"address","internalType":"address"}]},{"type":"error","name":"ERC1155InvalidSender","inputs":[{"name":"sender","type":"address","internalType":"address"}]},{"type":"error","name":"ERC1155MissingApprovalForAll","inputs":[{"name":"operator","type":"address","internalType":"address"},{"name":"owner","type":"address","internalType":"address"}]},{"type":"error","name":"HookNotImplemented","inputs":[]},{"type":"error","name":"InvalidOrder","inputs":[]},{"type":"error","name":"InvalidPool","inputs":[]},{"type":"error","name":"LockFailure","inputs":[]},{"type":"error","name":"NotEnoughToClaim","inputs":[]},{"type":"error","name":"NotPoolManager","inputs":[]},{"type":"error","name":"NotSelf","inputs":[]},{"type":"error","name":"NothingToClaim","inputs":[]}],"bytecode":{"object":"0x60a060405234801561000f575f80fd5b5060405161331e38038061331e83398101604081905261002e916102ce565b6001600160a01b038216608052808261004630610058565b506100508161014e565b5050506104db565b61014b81610146604080516101c0810182525f80825260208201819052918101829052606081018290526080810182905260a0810182905260c0810182905260e08101829052610100810182905261012081018290526101408101829052610160810182905261018081018290526101a081019190915250604080516101c0810182525f808252600160208301819052928201819052606082018190526080820181905260a0820181905260c0820181905260e0820192909252610100810182905261012081018290526101408101829052610160810182905261018081018290526101a081019190915290565b61015e565b50565b600261015a8282610421565b5050565b80511515612000831615151415806101825750602081015115156110008316151514155b806101995750604081015115156108008316151514155b806101b05750606081015115156104008316151514155b806101c75750608081015115156102008316151514155b806101de575060a081015115156101008316151514155b806101f4575060c0810151151560808316151514155b8061020a575060e0810151151560408316151514155b806102215750610100810151151560208316151514155b806102385750610120810151151560108316151514155b8061024f5750610140810151151560088316151514155b806102665750610160810151151560048316151514155b8061027d5750610180810151151560028316151514155b8061029457506101a0810151151560018316151514155b1561015a5761015a630732d7b560e51b83815f526001600160a01b03811660045260245ffd5b634e487b7160e01b5f52604160045260245ffd5b5f80604083850312156102df575f80fd5b82516001600160a01b03811681146102f5575f80fd5b60208401519092506001600160401b03811115610310575f80fd5b8301601f81018513610320575f80fd5b80516001600160401b03811115610339576103396102ba565b604051601f8201601f19908116603f011681016001600160401b0381118282101715610367576103676102ba565b60405281815282820160200187101561037e575f80fd5b8160208401602083015e5f602083830101528093505050509250929050565b600181811c908216806103b157607f821691505b6020821081036103cf57634e487b7160e01b5f52602260045260245ffd5b50919050565b601f82111561041c57805f5260205f20601f840160051c810160208510156103fa5750805b601f840160051c820191505b81811015610419575f8155600101610406565b50505b505050565b81516001600160401b0381111561043a5761043a6102ba565b61044e81610448845461039d565b846103d5565b6020601f821160018114610480575f83156104695750848201515b5f19600385901b1c1916600184901b178455610419565b5f84815260208120601f198516915b828110156104af578785015182556020948501946001909201910161048f565b50848210156104cc57868401515f19600387901b60f8161c191681555b50505050600190811b01905550565b608051612dec6105325f395f818161053201528181610a3201528181610bb801528181610c51015281816112a801528181611b8f01528181611d1a01528181611d8101528181611dba0152611e7b0152612dec5ff3fe608060405234801561000f575f80fd5b50600436106101c5575f3560e01c8063a0dc3f99116100fe578063c4e833ce1161009e578063e4cbfea51161006e578063e4cbfea51461057f578063e985e9c5146105a1578063f242432a146105dc578063fa59cb0c146105ef575f80fd5b8063c4e833ce14610436578063dc4c90d31461052d578063dd02c9641461056c578063e1b4af6914610428575f80fd5b8063a910f80f116100d9578063a910f80f146103c0578063b47b2fb1146103d3578063b5a3391414610409578063b6a8b0fa14610428575f80fd5b8063a0dc3f991461036a578063a22cb4651461037d578063a2dc31b214610390575f80fd5b80633bb76cc1116101695780635a2a8100116101445780635a2a8100146102fe5780637e8941af146103315780638db2b652146102fe57806391dd734614610357575f80fd5b80633bb76cc1146102815780634e1273f4146102a0578063575e24b4146102c0575f80fd5b806321d0ee70116101a457806321d0ee7014610232578063259982e5146102325780632eb2c2d61461025e5780633440d82014610273575f80fd5b8062fdd58e146101c957806301ffc9a7146101ef5780630e89341c14610212575b5f80fd5b6101dc6101d7366004611ee5565b610602565b6040519081526020015b60405180910390f35b6102026101fd366004611f24565b610629565b60405190151581526020016101e6565b610225610220366004611f3f565b610678565b6040516101e69190611f84565b610245610240366004611ffa565b61070a565b6040516001600160e01b031990911681526020016101e6565b61027161026c3660046121af565b610724565b005b610245610240366004612262565b6101dc61028f366004611f3f565b60056020525f908152604090205481565b6102b36102ae3660046122bc565b6107ae565b6040516101e691906123bb565b6102d36102ce3660046123dd565b610879565b604080516001600160e01b03199094168452602084019290925262ffffff16908201526060016101e6565b61031161030c366004612437565b610895565b604080516001600160e01b031990931683526020830191909152016101e6565b61034461033f3660046124db565b6108b0565b60405160029190910b81526020016101e6565b610225610365366004612527565b610a25565b610271610378366004612566565b610a81565b61027161038b3660046125ab565b610b9d565b6101dc61039e3660046125e2565b600460209081525f938452604080852082529284528284209052825290205481565b6102456103ce366004612614565b610bac565b6103e66103e136600461267e565b610c44565b604080516001600160e01b03199093168352600f9190910b6020830152016101e6565b6101dc610417366004611f3f565b60066020525f908152604090205481565b6102456102403660046126e1565b610520604080516101c0810182525f80825260208201819052918101829052606081018290526080810182905260a0810182905260c0810182905260e08101829052610100810182905261012081018290526101408101829052610160810182905261018081018290526101a081019190915250604080516101c0810182525f808252600160208301819052928201819052606082018190526080820181905260a0820181905260c0820181905260e0820192909252610100810182905261012081018290526101408101829052610160810182905261018081018290526101a081019190915290565b6040516101e6919061273b565b6105547f000000000000000000000000000000000000000000000000000000000000000081565b6040516001600160a01b0390911681526020016101e6565b61027161057a3660046124db565b610d33565b61034461058d366004611f3f565b60036020525f908152604090205460020b81565b6102026105af36600461285c565b6001600160a01b039182165f90815260016020908152604080832093909416825291909152205460ff1690565b6102716105ea366004612888565b610e79565b6101dc6105fd366004612566565b610ef6565b5f818152602081815260408083206001600160a01b03861684529091529020545b92915050565b5f6001600160e01b03198216636cdb3d1360e11b148061065957506001600160e01b031982166303a24d0760e21b145b8061062357506301ffc9a760e01b6001600160e01b0319831614610623565b606060028054610687906128e0565b80601f01602080910402602001604051908101604052809291908181526020018280546106b3906128e0565b80156106fe5780601f106106d5576101008083540402835291602001916106fe565b820191905f5260205f20905b8154815290600101906020018083116106e157829003601f168201915b50505050509050919050565b5f604051630a85dc2960e01b815260040160405180910390fd5b336001600160a01b038616811480159061076357506001600160a01b038087165f9081526001602090815260408083209385168352929052205460ff16155b156107995760405163711bec9160e11b81526001600160a01b038083166004830152871660248201526044015b60405180910390fd5b6107a68686868686610f49565b505050505050565b606081518351146107df5781518351604051635b05999160e01b815260048101929092526024820152604401610790565b5f835167ffffffffffffffff8111156107fa576107fa612071565b604051908082528060200260200182016040528015610823578160200160208202803683370190505b5090505f5b84518110156108715760208082028601015161084c90602080840287010151610602565b82828151811061085e5761085e612912565b6020908102919091010152600101610828565b509392505050565b5f805f604051630a85dc2960e01b815260040160405180910390fd5b5f80604051630a85dc2960e01b815260040160405180910390fd5b5f806108cb856108c66080890160608a01612926565b610fae565b90508260045f6108ea6108e3368b90038b018b612951565b60a0902090565b815260208082019290925260409081015f908120600286900b825283528181208815158252909252812080549091906109249084906129f9565b909155505f9050610936878387610ef6565b90508360065f8381526020019081526020015f205f82825461095891906129f9565b9250508190555061097933828660405180602001604052805f815250610ffe565b5f856109945761098f6040890160208a01612a0c565b6109a1565b6109a16020890189612a0c565b6040516323b872dd60e01b8152336004820152306024820152604481018790529091506001600160a01b038216906323b872dd906064016020604051808303815f875af11580156109f4573d5f803e3d5ffd5b505050506040513d601f19601f82011682018060405250810190610a189190612a27565b5091979650505050505050565b6060336001600160a01b037f00000000000000000000000000000000000000000000000000000000000000001614610a705760405163570c108560e11b815260040160405180910390fd5b610a7a8383611059565b9392505050565b5f610a96836108c66080870160608801612926565b90505f610aa4858385610ef6565b90505f610ab13383610602565b9050805f03610ad35760405163af61069360e01b815260040160405180910390fd5b8060045f610ae96108e3368b90038b018b612951565b815260208082019290925260409081015f908120600288900b82528352818120881515825290925281208054909190610b23908490612a42565b90915550505f8281526006602052604081208054839290610b45908490612a42565b90915550610b5690503383836110f2565b5f84610b7157610b6c6040880160208901612a0c565b610b7e565b610b7e6020880188612a0c565b9050610b946001600160a01b0382163384611158565b50505050505050565b610ba83383836111f2565b5050565b5f336001600160a01b037f00000000000000000000000000000000000000000000000000000000000000001614610bf65760405163570c108560e11b815260040160405180910390fd5b8360035f610c0c6108e3368b90038b018b612951565b815260208101919091526040015f20805462ffffff191662ffffff929092169190911790555063a910f80f60e01b9695505050505050565b5f80336001600160a01b037f00000000000000000000000000000000000000000000000000000000000000001614610c8f5760405163570c108560e11b815260040160405180910390fd5b306001600160a01b03891603610cb0575063b47b2fb160e01b90505f610d28565b60015f5b8115610cdb57610cd189610ccb60208b018b612a55565b15611286565b9092509050610cb4565b8060035f610cf16108e3368e90038e018e612951565b815260208101919091526040015f908120805462ffffff191662ffffff939093169290921790915563b47b2fb160e01b9450925050505b965096945050505050565b5f610d48846108c66080880160608901612926565b90505f610d56868386610ef6565b5f8181526005602052604081205491925003610d85576040516312d37ee560e31b815260040160405180910390fd5b5f610d903383610602565b905083811015610db357604051639378648960e01b815260040160405180910390fd5b5f8281526005602090815260408083205460069092528220549091610dd9878484611440565b90508060055f8781526020019081526020015f205f828254610dfb9190612a42565b90915550505f8581526006602052604081208054899290610e1d908490612a42565b90915550610e2e90503386896110f2565b5f88610e4657610e4160208c018c612a0c565b610e56565b610e5660408c0160208d01612a0c565b9050610e6c6001600160a01b0382163384611158565b5050505050505050505050565b336001600160a01b0386168114801590610eb857506001600160a01b038087165f9081526001602090815260408083209385168352929052205460ff16155b15610ee95760405163711bec9160e11b81526001600160a01b03808316600483015287166024820152604401610790565b6107a6868686868661145b565b5f610f096108e336869003860186612951565b604080516020810192909252600285900b90820152821515606082015260800160408051601f198184030181529190528051602090910120949350505050565b6001600160a01b038416610f7257604051632bfa23e760e11b81525f6004820152602401610790565b6001600160a01b038516610f9a57604051626a0d4560e21b81525f6004820152602401610790565b610fa785858585856114da565b5050505050565b5f80610fba8385612a84565b90505f8460020b128015610fd95750610fd38385612abc565b60020b15155b15610fec5780610fe881612add565b9150505b610ff68382612afe565b949350505050565b6001600160a01b03841661102757604051632bfa23e760e11b81525f6004820152602401610790565b604080516001808252602082018690528183019081526060820185905260808201909252906107a65f878484876114da565b60605f80306001600160a01b03168585604051611077929190612b1d565b5f604051808303815f865af19150503d805f81146110b0576040519150601f19603f3d011682016040523d82523d5f602084013e6110b5565b606091505b509150915081156110c95791506106239050565b80515f036110ea576040516314815f4760e31b815260040160405180910390fd5b805160208201fd5b6001600160a01b03831661111a57604051626a0d4560e21b81525f6004820152602401610790565b604080516001808252602082018590528183019081526060820184905260a082019092525f60808201818152919291610fa7918791859085906114da565b5f6001600160a01b03841661118b575f805f8085875af1905080611186576111866356cdd02560e11b61152d565b6111ec565b60405163a9059cbb60e01b81526001600160a01b038416600482015282602482015260205f6044835f895af13d15601f3d1160015f511416171691505f81525f60208201525f604082015250806111ec576111ec632745a14f60e21b61152d565b50505050565b6001600160a01b03821661121a5760405162ced3e160e81b81525f6004820152602401610790565b6001600160a01b038381165f81815260016020908152604080832094871680845294825291829020805460ff191686151590811790915591519182527f17307eab39ab6107e8899845ad3d59bd9653f200f220920489ca2b5937696c31910160405180910390a3505050565b5f80806112ce61129e6108e336889003880188612951565b6001600160a01b037f0000000000000000000000000000000000000000000000000000000000000000169061155a565b50509150505f60035f6112eb888036038101906108e39190612951565b815260208101919091526040015f2054600290810b915082900b8112156113a957805b8260020b8160020b12156113a3575f6004816113326108e3368c90038c018c612951565b815260208082019290925260409081015f908120600286900b825283528181208a1515825290925290205490508015611381576113718883898461160c565b6001849550955050505050611439565b506113926080880160608901612926565b61139c9082612b2c565b905061130e565b50611432565b805b8260020b8160020b1315611430575f6004816113cf6108e3368c90038c018c612951565b815260208082019290925260409081015f908120600286900b825283528181208a151582529092529020549050801561140e576113718883898461160c565b5061141f6080880160608901612926565b6114299082612b51565b90506113ab565b505b505f925090505b9250929050565b5f825f190484118302158202611454575f80fd5b5091020490565b6001600160a01b03841661148457604051632bfa23e760e11b81525f6004820152602401610790565b6001600160a01b0385166114ac57604051626a0d4560e21b81525f6004820152602401610790565b60408051600180825260208201869052818301908152606082018590526080820190925290610b9487878484875b6114e685858585611738565b6001600160a01b03841615610fa7578251339060010361151f5760208481015190840151611518838989858589611947565b50506107a6565b6107a6818787878787611a68565b3d60405182815260206004820152816024820152815f604483013e602080601f8401040260440191508181fd5b5f805f805f61156886611b4f565b604051631e2eaeaf60e01b8152600481018290529091505f906001600160a01b03891690631e2eaeaf90602401602060405180830381865afa1580156115b0573d5f803e3d5ffd5b505050506040513d601f19601f820116820180604052508101906115d49190612b76565b90506001600160a01b03811695508060a01c60020b945062ffffff8160b81c16935062ffffff8160d01c169250505092959194509250565b5f61167c85604051806060016040528086151581526020018561162e90612b8d565b81526020018661165c57611657600173fffd8963efd1fc6a506488495d951d5263988d26612ba7565b61166c565b61166c6401000276a36001612bc6565b6001600160a01b03169052611b8b565b90508160045f6116946108e3368a90038a018a612951565b815260208082019290925260409081015f908120600289900b825283528181208715158252909252812080549091906116ce908490612a42565b909155505f90506116e0868686610ef6565b90505f846116fa576116f28360801d90565b600f0b611708565b61170483600f0b90565b600f0b5b90508060055f8481526020019081526020015f205f82825461172a91906129f9565b909155505050505050505050565b80518251146117675781518151604051635b05999160e01b815260048101929092526024820152604401610790565b335f5b8351811015611869576020818102858101820151908501909101516001600160a01b0388161561181b575f828152602081815260408083206001600160a01b038c168452909152902054818110156117f5576040516303dee4c560e01b81526001600160a01b038a166004820152602481018290526044810183905260648101849052608401610790565b5f838152602081815260408083206001600160a01b038d16845290915290209082900390555b6001600160a01b0387161561185f575f828152602081815260408083206001600160a01b038b168452909152812080548392906118599084906129f9565b90915550505b505060010161176a565b5082516001036118e95760208301515f906020840151909150856001600160a01b0316876001600160a01b0316846001600160a01b03167fc3d58168c5ae7397731d063d5bbf3d657854427343f4c083240f7aacaa2d0f6285856040516118da929190918252602082015260400190565b60405180910390a45050610fa7565b836001600160a01b0316856001600160a01b0316826001600160a01b03167f4a39dc06d4c0dbc64b70af90fd698a233a518aa5d07e595d983b8c0526c8f7fb8686604051611938929190612be5565b60405180910390a45050505050565b6001600160a01b0384163b156107a65760405163f23a6e6160e01b81526001600160a01b0385169063f23a6e619061198b9089908990889088908890600401612c12565b6020604051808303815f875af19250505080156119c5575060408051601f3d908101601f191682019092526119c291810190612c59565b60015b611a2c573d8080156119f2576040519150601f19603f3d011682016040523d82523d5f602084013e6119f7565b606091505b5080515f03611a2457604051632bfa23e760e11b81526001600160a01b0386166004820152602401610790565b805181602001fd5b6001600160e01b0319811663f23a6e6160e01b14610b9457604051632bfa23e760e11b81526001600160a01b0386166004820152602401610790565b6001600160a01b0384163b156107a65760405163bc197c8160e01b81526001600160a01b0385169063bc197c8190611aac9089908990889088908890600401612c74565b6020604051808303815f875af1925050508015611ae6575060408051601f3d908101601f19168201909252611ae391810190612c59565b60015b611b13573d8080156119f2576040519150601f19603f3d011682016040523d82523d5f602084013e6119f7565b6001600160e01b0319811663bc197c8160e01b14610b9457604051632bfa23e760e11b81526001600160a01b0386166004820152602401610790565b6040515f90611b6e908390600690602001918252602082015260400190565b604051602081830303815290604052805190602001209050919050565b5f807f00000000000000000000000000000000000000000000000000000000000000006001600160a01b031663f3cd914c85856040518363ffffffff1660e01b8152600401611bdb929190612cd6565b6020604051808303815f875af1158015611bf7573d5f803e3d5ffd5b505050506040513d601f19601f82011682018060405250810190611c1b9190612b76565b835190915015611c9c575f611c308260801d90565b600f0b1215611c6157611c61611c496020860186612a0c565b611c538360801d90565b611c5c90612d89565b611cfb565b5f611c6c82600f0b90565b600f0b1315611c9757611c97611c886040860160208701612a0c565b611c9283600f0b90565b611e3e565b610a7a565b5f611ca782600f0b90565b600f0b1215611ccd57611ccd611cc36040860160208701612a0c565b611c5383600f0b90565b5f611cd88260801d90565b600f0b1315610a7a57610a7a611cf16020860186612a0c565b611c928360801d90565b604051632961046560e21b81526001600160a01b0383811660048301527f0000000000000000000000000000000000000000000000000000000000000000169063a5841194906024015f604051808303815f87803b158015611d5b575f80fd5b505af1158015611d6d573d5f803e3d5ffd5b50611db8925050506001600160a01b0383167f00000000000000000000000000000000000000000000000000000000000000006fffffffffffffffffffffffffffffffff8416611158565b7f00000000000000000000000000000000000000000000000000000000000000006001600160a01b03166311da60b46040518163ffffffff1660e01b81526004016020604051808303815f875af1158015611e15573d5f803e3d5ffd5b505050506040513d601f19601f82011682018060405250810190611e399190612b76565b505050565b604051630b0d9c0960e01b81526001600160a01b0383811660048301523060248301526fffffffffffffffffffffffffffffffff831660448301527f00000000000000000000000000000000000000000000000000000000000000001690630b0d9c09906064015f604051808303815f87803b158015611ebc575f80fd5b505af11580156107a6573d5f803e3d5ffd5b6001600160a01b0381168114611ee2575f80fd5b50565b5f8060408385031215611ef6575f80fd5b8235611f0181611ece565b946020939093013593505050565b6001600160e01b031981168114611ee2575f80fd5b5f60208284031215611f34575f80fd5b8135610a7a81611f0f565b5f60208284031215611f4f575f80fd5b5035919050565b5f81518084528060208401602086015e5f602082860101526020601f19601f83011685010191505092915050565b602081525f610a7a6020830184611f56565b5f60a08284031215611fa6575f80fd5b50919050565b5f60808284031215611fa6575f80fd5b5f8083601f840112611fcc575f80fd5b50813567ffffffffffffffff811115611fe3575f80fd5b602083019150836020828501011115611439575f80fd5b5f805f805f610160868803121561200f575f80fd5b853561201a81611ece565b94506120298760208801611f96565b93506120388760c08801611fac565b925061014086013567ffffffffffffffff811115612054575f80fd5b61206088828901611fbc565b969995985093965092949392505050565b634e487b7160e01b5f52604160045260245ffd5b604051601f8201601f1916810167ffffffffffffffff811182821017156120ae576120ae612071565b604052919050565b5f67ffffffffffffffff8211156120cf576120cf612071565b5060051b60200190565b5f82601f8301126120e8575f80fd5b81356120fb6120f6826120b6565b612085565b8082825260208201915060208360051b86010192508583111561211c575f80fd5b602085015b83811015612139578035835260209283019201612121565b5095945050505050565b5f82601f830112612152575f80fd5b813567ffffffffffffffff81111561216c5761216c612071565b61217f601f8201601f1916602001612085565b818152846020838601011115612193575f80fd5b816020850160208301375f918101602001919091529392505050565b5f805f805f60a086880312156121c3575f80fd5b85356121ce81611ece565b945060208601356121de81611ece565b9350604086013567ffffffffffffffff8111156121f9575f80fd5b612205888289016120d9565b935050606086013567ffffffffffffffff811115612221575f80fd5b61222d888289016120d9565b925050608086013567ffffffffffffffff811115612249575f80fd5b61225588828901612143565b9150509295509295909350565b5f805f805f6101008688031215612277575f80fd5b853561228281611ece565b94506122918760208801611f96565b935060c08601356122a181611ece565b925060e086013567ffffffffffffffff811115612054575f80fd5b5f80604083850312156122cd575f80fd5b823567ffffffffffffffff8111156122e3575f80fd5b8301601f810185136122f3575f80fd5b80356123016120f6826120b6565b8082825260208201915060208360051b850101925087831115612322575f80fd5b6020840193505b8284101561234d57833561233c81611ece565b825260209384019390910190612329565b9450505050602083013567ffffffffffffffff81111561236b575f80fd5b612377858286016120d9565b9150509250929050565b5f8151808452602084019350602083015f5b828110156123b1578151865260209586019590910190600101612393565b5093949350505050565b602081525f610a7a6020830184612381565b5f60608284031215611fa6575f80fd5b5f805f805f61014086880312156123f2575f80fd5b85356123fd81611ece565b945061240c8760208801611f96565b935061241b8760c088016123cd565b925061012086013567ffffffffffffffff811115612054575f80fd5b5f805f805f80610180878903121561244d575f80fd5b863561245881611ece565b95506124678860208901611f96565b94506124768860c08901611fac565b9350610140870135925061016087013567ffffffffffffffff81111561249a575f80fd5b6124a689828a01611fbc565b979a9699509497509295939492505050565b8035600281900b81146124c9575f80fd5b919050565b8015158114611ee2575f80fd5b5f805f8061010085870312156124ef575f80fd5b6124f98686611f96565b935061250760a086016124b8565b925060c0850135612517816124ce565b9396929550929360e00135925050565b5f8060208385031215612538575f80fd5b823567ffffffffffffffff81111561254e575f80fd5b61255a85828601611fbc565b90969095509350505050565b5f805f60e08486031215612578575f80fd5b6125828585611f96565b925061259060a085016124b8565b915060c08401356125a0816124ce565b809150509250925092565b5f80604083850312156125bc575f80fd5b82356125c781611ece565b915060208301356125d7816124ce565b809150509250929050565b5f805f606084860312156125f4575f80fd5b83359250612604602085016124b8565b915060408401356125a0816124ce565b5f805f805f80610120878903121561262a575f80fd5b863561263581611ece565b95506126448860208901611f96565b945060c087013561265481611ece565b935061266260e088016124b8565b925061010087013567ffffffffffffffff81111561249a575f80fd5b5f805f805f806101608789031215612694575f80fd5b863561269f81611ece565b95506126ae8860208901611f96565b94506126bd8860c089016123cd565b9350610120870135925061014087013567ffffffffffffffff81111561249a575f80fd5b5f805f805f8061012087890312156126f7575f80fd5b863561270281611ece565b95506127118860208901611f96565b945060c0870135935060e0870135925061010087013567ffffffffffffffff81111561249a575f80fd5b8151151581526101c081016020830151612759602084018215159052565b50604083015161276d604084018215159052565b506060830151612781606084018215159052565b506080830151612795608084018215159052565b5060a08301516127a960a084018215159052565b5060c08301516127bd60c084018215159052565b5060e08301516127d160e084018215159052565b506101008301516127e761010084018215159052565b506101208301516127fd61012084018215159052565b5061014083015161281361014084018215159052565b5061016083015161282961016084018215159052565b5061018083015161283f61018084018215159052565b506101a08301516128556101a084018215159052565b5092915050565b5f806040838503121561286d575f80fd5b823561287881611ece565b915060208301356125d781611ece565b5f805f805f60a0868803121561289c575f80fd5b85356128a781611ece565b945060208601356128b781611ece565b93506040860135925060608601359150608086013567ffffffffffffffff811115612249575f80fd5b600181811c908216806128f457607f821691505b602082108103611fa657634e487b7160e01b5f52602260045260245ffd5b634e487b7160e01b5f52603260045260245ffd5b5f60208284031215612936575f80fd5b610a7a826124b8565b803562ffffff811681146124c9575f80fd5b5f60a0828403128015612962575f80fd5b5060405160a0810167ffffffffffffffff8111828210171561298657612986612071565b604052823561299481611ece565b815260208301356129a481611ece565b60208201526129b56040840161293f565b60408201526129c6606084016124b8565b606082015260808301356129d981611ece565b60808201529392505050565b634e487b7160e01b5f52601160045260245ffd5b80820180821115610623576106236129e5565b5f60208284031215612a1c575f80fd5b8135610a7a81611ece565b5f60208284031215612a37575f80fd5b8151610a7a816124ce565b81810381811115610623576106236129e5565b5f60208284031215612a65575f80fd5b8135610a7a816124ce565b634e487b7160e01b5f52601260045260245ffd5b5f8160020b8360020b80612a9a57612a9a612a70565b627fffff1982145f1982141615612ab357612ab36129e5565b90059392505050565b5f8260020b80612ace57612ace612a70565b808360020b0791505092915050565b5f8160020b627fffff198103612af557612af56129e5565b5f190192915050565b5f8260020b8260020b028060020b9150808214612855576128556129e5565b818382375f9101908152919050565b600281810b9083900b01627fffff8113627fffff1982121715610623576106236129e5565b600282810b9082900b03627fffff198112627fffff82131715610623576106236129e5565b5f60208284031215612b86575f80fd5b5051919050565b5f600160ff1b8201612ba157612ba16129e5565b505f0390565b6001600160a01b038281168282160390811115610623576106236129e5565b6001600160a01b038181168382160190811115610623576106236129e5565b604081525f612bf76040830185612381565b8281036020840152612c098185612381565b95945050505050565b6001600160a01b03861681526001600160a01b038516602082015283604082015282606082015260a060808201525f612c4e60a0830184611f56565b979650505050505050565b5f60208284031215612c69575f80fd5b8151610a7a81611f0f565b6001600160a01b03861681526001600160a01b038516602082015260a060408201525f612ca460a0830186612381565b8281036060840152612cb68186612381565b90508281036080840152612cca8185611f56565b98975050505050505050565b5f8335612ce281611ece565b6001600160a01b031682526020840135612cfb81611ece565b6001600160a01b0316602083015262ffffff612d196040860161293f565b166040830152612d2b606085016124b8565b60020b60608301526080840135612d4181611ece565b6001600160a01b0390811660808401528351151560a0840152602084015160c084015260408401511660e0830152610120610100830152610ff661012083015f815260200190565b5f81600f0b6f7fffffffffffffffffffffffffffffff198103612dae57612dae6129e5565b5f039291505056fea264697066735822122082ec9de131e9198102cc10cb10b6bc552eaa2141416cacd363e9ca99c301209064736f6c634300081a0033","linkReferences":{}},"methodIdentifiers":{"afterAddLiquidity(address,(address,address,uint24,int24,address),(int24,int24,int256,bytes32),int256,bytes)":"5a2a8100","afterDonate(address,(address,address,uint24,int24,address),uint256,uint256,bytes)":"e1b4af69","afterInitialize(address,(address,address,uint24,int24,address),uint160,int24,bytes)":"a910f80f","afterRemoveLiquidity(address,(address,address,uint24,int24,address),(int24,int24,int256,bytes32),int256,bytes)":"8db2b652","afterSwap(address,(address,address,uint24,int24,address),(bool,int256,uint160),int256,bytes)":"b47b2fb1","balanceOf(address,uint256)":"00fdd58e","balanceOfBatch(address[],uint256[])":"4e1273f4","beforeAddLiquidity(address,(address,address,uint24,int24,address),(int24,int24,int256,bytes32),bytes)":"259982e5","beforeDonate(address,(address,address,uint24,int24,address),uint256,uint256,bytes)":"b6a8b0fa","beforeInitialize(address,(address,address,uint24,int24,address),uint160,bytes)":"3440d820","beforeRemoveLiquidity(address,(address,address,uint24,int24,address),(int24,int24,int256,bytes32),bytes)":"21d0ee70","beforeSwap(address,(address,address,uint24,int24,address),(bool,int256,uint160),bytes)":"575e24b4","cancelOrder((address,address,uint24,int24,address),int24,bool)":"a0dc3f99","claimTokensSupply(uint256)":"b5a33914","claimableOutputTokens(uint256)":"3bb76cc1","getHookPermissions()":"c4e833ce","getPositionId((address,address,uint24,int24,address),int24,bool)":"fa59cb0c","isApprovedForAll(address,address)":"e985e9c5","lastTicks(bytes32)":"e4cbfea5","pendingOrders(bytes32,int24,bool)":"a2dc31b2","placeOrder((address,address,uint24,int24,address),int24,bool,uint256)":"7e8941af","poolManager()":"dc4c90d3","redeem((address,address,uint24,int24,address),int24,bool,uint256)":"dd02c964","safeBatchTransferFrom(address,address,uint256[],uint256[],bytes)":"2eb2c2d6","safeTransferFrom(address,address,uint256,uint256,bytes)":"f242432a","setApprovalForAll(address,bool)":"a22cb465","supportsInterface(bytes4)":"01ffc9a7","unlockCallback(bytes)":"91dd7346","uri(uint256)":"0e89341c"},"id":109}