{"abi":[{"type":"constructor","inputs":[{"name":"_manager","type":"address","internalType":"contract IPoolManager"}],"stateMutability":"nonpayable"},{"type":"function","name":"manager","inputs":[],"outputs":[{"name":"","type":"address","internalType":"contract IPoolManager"}],"stateMutability":"view"},{"type":"function","name":"swap","inputs":[{"name":"key","type":"tuple","internalType":"struct PoolKey","components":[{"name":"currency0","type":"address","internalType":"Currency"},{"name":"currency1","type":"address","internalType":"Currency"},{"name":"fee","type":"uint24","internalType":"uint24"},{"name":"tickSpacing","type":"int24","internalType":"int24"},{"name":"hooks","type":"address","internalType":"contract IHooks"}]},{"name":"params","type":"tuple","internalType":"struct IPoolManager.SwapParams","components":[{"name":"zeroForOne","type":"bool","internalType":"bool"},{"name":"amountSpecified","type":"int256","internalType":"int256"},{"name":"sqrtPriceLimitX96","type":"uint160","internalType":"uint160"}]}],"outputs":[],"stateMutability":"payable"},{"type":"function","name":"unlockCallback","inputs":[{"name":"rawData","type":"bytes","internalType":"bytes"}],"outputs":[{"name":"","type":"bytes","internalType":"bytes"}],"stateMutability":"nonpayable"},{"type":"error","name":"NoSwapOccurred","inputs":[]}],"bytecode":{"object":"0x60a034607357601f610a3438819003918201601f19168301916001600160401b03831184841017607757808492602094604052833981010312607357516001600160a01b03811681036073576080526040516109a8908161008c8239608051818181608a015281816103aa01526105840152f35b5f80fd5b634e487b7160e01b5f52604160045260245ffdfe60806040526004361015610011575f80fd5b5f3560e01c80631e2817de146103ce578063481c6a751461038b576391dd73461461003a575f80fd5b346103755760203660031901126103755760043567ffffffffffffffff8111610375573660238201121561037557806004013567ffffffffffffffff8111610375578101366024820111610375577f00000000000000000000000000000000000000000000000000000000000000006001600160a01b03811692833303610375576101208184031261037557604051916100d383610648565b6100df602483016106a2565b835260a0601f19838603011261037557604051936100fc85610664565b610108604484016106a2565b8552610116606484016106a2565b6020860152608483013562ffffff8116810361037557604086015260a48301358060020b810361037557606086015260c48301356001600160a01b03811681036103755760808601526020840194855260609083900360bf190112610375576040519161018283610648565b60e481013590811515820361037557610124918452610104810135602085015201356001600160a01b0381168103610375575f95610271916040850152604085019380855286519161024a6020998a946102856040516101e28882610680565b838152601f198801368983013760405198899788968795633cf3645360e21b875260048701906001600160a01b036080809282815116855282602082015116602086015262ffffff6040820151166040860152606081015160020b6060860152015116910152565b8051151560a4860152602081015160c4860152604001516001600160a01b031660e4850152565b6101206101048401526101248301906106b6565b03925af19283156103805786915f9461034b575b5051511561030b576001600160a01b038091866102d1836102e29951511684895116876102c88a60801d6106da565b600f0b92610735565b5101511693511691600f0b92610911565b604051906102f08183610680565b5f82526103076040519282849384528301906106b6565b0390f35b6001600160a01b0385610333828094610346995101511683885116866102c889600f0b6106da565b5151169351169160801d600f0b92610911565b6102e2565b8281939295503d8311610379575b6103638183610680565b8101031261037557859051925f610299565b5f80fd5b503d610359565b6040513d5f823e3d90fd5b34610375575f3660031901126103755760206040516001600160a01b037f0000000000000000000000000000000000000000000000000000000000000000168152f35b366003190161010081126103755760a013610375576040516103ef81610664565b6004356001600160a01b03811681036103755781526024356001600160a01b038116810361037557602082015260443562ffffff811681036103755760408201526064358060020b81036103755760608201526084356001600160a01b038116810361037557608082015260603660a31901126103755760405161047281610648565b60a435801515810361037557815260c435602082015260e435916001600160a01b038316830361037557610544826105779460405f950152604080516104b781610648565b338152602081019485520190815261051a604051933360208601525160408501906001600160a01b036080809282815116855282602082015116602086015262ffffff6040820151166040860152606081015160020b6060860152015116910152565b518051151560e08401526020810151610100840152604001516001600160a01b0316610120830152565b610120815261055561014082610680565b604051809381926348c8949160e01b83526020600484015260248301906106b6565b0381836001600160a01b037f0000000000000000000000000000000000000000000000000000000000000000165af18015610380576105b257005b3d805f833e6105c18183610680565b8101906020818303126103755780519067ffffffffffffffff8211610375570181601f8201121561037557805167ffffffffffffffff81116106345760405192610615601f8301601f191660200185610680565b81845260208284010111610375575f928160208094018483015e010152005b634e487b7160e01b5f52604160045260245ffd5b6060810190811067ffffffffffffffff82111761063457604052565b60a0810190811067ffffffffffffffff82111761063457604052565b90601f8019910116810190811067ffffffffffffffff82111761063457604052565b35906001600160a01b038216820361037557565b805180835260209291819084018484015e5f828201840152601f01601f1916010190565b600f0b6f7fffffffffffffffffffffffffffffff1981146106fa575f0390565b634e487b7160e01b5f52601160045260245ffd5b90816020910312610375575180151581036103755790565b90816020910312610375575190565b9091906001600160a01b0316806107a25750506001600160a01b0360046020926040519485938492630476982d60e21b8452165af18015610380576107775750565b6107989060203d60201161079b575b6107908183610680565b810190610726565b50565b503d610786565b9092916001600160a01b031691823b1561037557604051632961046560e21b815260048101839052935a945f816024818389819bf18015610380576108f5575b506001600160a01b03168430821461089a576020929160649160405195869485936323b872dd60e01b8552600485015288602485015260448401525af1801561088f57916020918493610862575b505b600460405180958193630476982d60e21b83525af190811561085657506107775750565b604051903d90823e3d90fd5b61088190833d8511610888575b6108798183610680565b81019061070e565b505f610830565b503d61086f565b6040513d85823e3d90fd5b9290506044602092604051948593849263a9059cbb60e01b845288600485015260248401525af1801561088f579160209184936108d8575b50610832565b6108ee90833d8511610888576108798183610680565b505f6108d2565b6109029195505f90610680565b5f936001600160a01b036107e2565b9192906001600160a01b0316803b15610375575f92836064926001600160a01b0394856040519889978896630b0d9c0960e01b885216600487015216602485015260448401525af18015610380576109665750565b5f61097091610680565b56fea2646970667358221220ec85a994708dfa81e7abd5a5938f05ef46e2792141df8e6a89559255f494fdd164736f6c634300081a0033","linkReferences":{}},"methodIdentifiers":{"manager()":"481c6a75","swap((address,address,uint24,int24,address),(bool,int256,uint160))":"1e2817de","unlockCallback(bytes)":"91dd7346"},"id":95}