{"abi":[{"type":"function","name":"NATIVE","inputs":[],"outputs":[{"name":"","type":"address","internalType":"Currency"}],"stateMutability":"view"},{"type":"error","name":"ERC20TransferFailed","inputs":[{"name":"revertReason","type":"bytes","internalType":"bytes"}]},{"type":"error","name":"NativeTransferFailed","inputs":[{"name":"revertReason","type":"bytes","internalType":"bytes"}]}],"bytecode":{"object":"0x60808060405234601757606f9081601c823930815050f35b5f80fdfe60808060405260043610156011575f80fd5b5f3560e01c63a0cf0aea146023575f80fd5b5f366003190112603557805f60209252f35b5f80fdfea2646970667358221220f309bb843bb9013130a09a1ba03e9e9e6bdfe6b07171c9066acdcb2a44c65a6f64736f6c634300081a0033","linkReferences":{}},"methodIdentifiers":{"NATIVE()":"a0cf0aea"},"id":98}