{"abi":[{"type":"function","name":"DYNAMIC_FEE_FLAG","inputs":[],"outputs":[{"name":"","type":"uint24","internalType":"uint24"}],"stateMutability":"view"},{"type":"function","name":"STATIC_FEE_MASK","inputs":[],"outputs":[{"name":"","type":"uint24","internalType":"uint24"}],"stateMutability":"view"}],"bytecode":{"object":"0x6080806040523460175760959081601c823930815050f35b5f80fdfe60808060405260043610156011575f80fd5b5f3560e01c908163c7a97b4e14604a575063f26ef49d14602f575f80fd5b5f3660031901126046576020604051628000008152f35b5f80fd5b5f36600319011260465780627fffff60209252f3fea2646970667358221220583cb5e2ff66e8570f79e0e3844eecab11db6ea4f3bc7b5f518099cb1e4f076164736f6c634300081a0033","linkReferences":{}},"methodIdentifiers":{"DYNAMIC_FEE_FLAG()":"f26ef49d","STATIC_FEE_MASK()":"c7a97b4e"},"id":102}