{"abi":[{"type":"constructor","inputs":[{"name":"_manager","type":"address","internalType":"contract IPoolManager"}],"stateMutability":"nonpayable"},{"type":"function","name":"manager","inputs":[],"outputs":[{"name":"","type":"address","internalType":"contract IPoolManager"}],"stateMutability":"view"},{"type":"function","name":"take","inputs":[{"name":"key","type":"tuple","internalType":"struct PoolKey","components":[{"name":"currency0","type":"address","internalType":"Currency"},{"name":"currency1","type":"address","internalType":"Currency"},{"name":"fee","type":"uint24","internalType":"uint24"},{"name":"tickSpacing","type":"int24","internalType":"int24"},{"name":"hooks","type":"address","internalType":"contract IHooks"}]},{"name":"amount0","type":"uint256","internalType":"uint256"},{"name":"amount1","type":"uint256","internalType":"uint256"}],"outputs":[],"stateMutability":"payable"},{"type":"function","name":"unlockCallback","inputs":[{"name":"rawData","type":"bytes","internalType":"bytes"}],"outputs":[{"name":"","type":"bytes","internalType":"bytes"}],"stateMutability":"nonpayable"}],"bytecode":{"object":"0x60a034608157601f610bd938819003918201601f19168301916001600160401b03831184841017608557808492602094604052833981010312608157516001600160a01b0381168103608157608052604051610b3f908161009a8239608051818181609201528181610225015281816103950152818161053d0152610a010152f35b5f80fd5b634e487b7160e01b5f52604160045260245ffdfe60806040526004361015610011575f80fd5b5f3560e01c8063055419b614610249578063481c6a7514610206576391dd73461461003a575f80fd5b346102025760203660031901126102025760043567ffffffffffffffff8111610202573660238201121561020257806004013567ffffffffffffffff8111610202578101366024820111610202576001600160a01b037f000000000000000000000000000000000000000000000000000000000000000016330361020257610100828203126102025760a06024604051926100d484610464565b6100df8286016104be565b845284900301604319011261020257604051916100fb83610480565b610107604482016104be565b8352610115606482016104be565b6020840152608481013562ffffff8116810361020257604084015260a48101358060020b810361020257606084015260c48101356001600160a01b0381168103610202576080840152602082019280845260e4820135806040850152610104606085019301358352806101dc575b50505190816101b8575b6101b46040515f6020820152602081526101a860408261049c565b604051918291826104d2565b0390f35b6001600160a01b038060206101d495510151169151169061051d565b5f808061018d565b6001600160a01b036101fb9251166001600160a01b038551169061051d565b5f80610183565b5f80fd5b34610202575f3660031901126102025760206040516001600160a01b037f0000000000000000000000000000000000000000000000000000000000000000168152f35b366003190160e081126102025760a0136102025760405161026981610480565b6004356001600160a01b03811681036102025781526024356001600160a01b038116810361020257602082015260443562ffffff811681036102025760408201526064358060020b81036102025760608201526084356001600160a01b038116810361020257815f9160806103889401526040516102e681610464565b338152602081019182526060604082019160a4358352019060c43582526001600160a01b036080604051943360208701525182815116604087015282602082015116606087015262ffffff60408201511682870152606081015160020b60a087015201511660c08401525160e083015251610100820152610100815261036e6101208261049c565b604051809381926348c8949160e01b8352600483016104d2565b0381836001600160a01b037f0000000000000000000000000000000000000000000000000000000000000000165af18015610459576103c357005b3d805f833e6103d2818361049c565b8101906020818303126102025780519067ffffffffffffffff8211610202570181601f8201121561020257805167ffffffffffffffff81116104455760405192610426601f8301601f19166020018561049c565b81845260208284010111610202575f928160208094018483015e010152005b634e487b7160e01b5f52604160045260245ffd5b6040513d5f823e3d90fd5b6080810190811067ffffffffffffffff82111761044557604052565b60a0810190811067ffffffffffffffff82111761044557604052565b90601f8019910116810190811067ffffffffffffffff82111761044557604052565b35906001600160a01b038216820361020257565b602060409281835280519182918282860152018484015e5f828201840152601f01601f1916010190565b9190820391821161050957565b634e487b7160e01b5f52601160045260245ffd5b6105283083836109e9565b93915f939193946109a4576001600160a01b037f00000000000000000000000000000000000000000000000000000000000000001693843b156102025760405192630b0d9c0960e01b84526001600160a01b038116948560048601526001600160a01b038116948560248201528960448201525f81606481838c5af180156104595761098a575b50906105bc9130916109e9565b6f800000000000000000000000000000008a95939295101561097b5789600f0b6f7fffffffffffffffffffffffffffffff198114610967578903600f0b036108fc578891610609916104fc565b0361086b578691610619916104fc565b036107da5781610683575050602090600460405180958193630476982d60e21b83525af1908115610677575061064c5750565b61066d9060203d602011610670575b610665818361049c565b810190610aad565b50565b503d61065b565b604051903d90823e3d90fd5b82939491923b156107cb57604051632961046560e21b815260048101849052858160248183895af180156107cf579086916107b6575b5030821461075b576020929160649160405195869485936323b872dd60e01b8552600485015288602485015260448401525af1801561075057916020918493610723575b505b600460405180958193630476982d60e21b83525af1908115610677575061064c5750565b61074290833d8511610749575b61073a818361049c565b810190610a95565b505f6106fd565b503d610730565b6040513d85823e3d90fd5b9290506044602092604051948593849263a9059cbb60e01b845288600485015260248401525af1801561075057916020918493610799575b506106ff565b6107af90833d85116107495761073a818361049c565b505f610793565b816107c09161049c565b6107cb57845f6106b9565b8480fd5b6040513d88823e3d90fd5b60405162461bcd60e51b815260206004820152604860248201527f74686520646966666572656e6365206265747765656e20706d42616c4265666f60448201527f726520616e6420706d42616c4166746572206973206e6f7420657175616c207460648201527f6f20616d6f756e74000000000000000000000000000000000000000000000000608482015260a490fd5b60405162461bcd60e51b815260206004820152604c60248201527f74686520646966666572656e6365206265747765656e207573657242616c416660448201527f74657220616e64207573657242616c4265666f7265206973206e6f742065717560648201527f616c20746f20616d6f756e740000000000000000000000000000000000000000608482015260a490fd5b60405162461bcd60e51b815260206004820152602d60248201527f64656c74614166746572206973206e6f7420657175616c20746f202d616d6f7560448201527f6e742e746f496e743132382829000000000000000000000000000000000000006064820152608490fd5b634e487b7160e01b8a52601160045260248afd5b6393dafdf160e01b8952600489fd5b6105bc929198505f61099b9161049c565b5f9790916105af565b60405162461bcd60e51b815260206004820152601d60248201527f64656c74614265666f7265206973206e6f7420657175616c20746f20300000006044820152606490fd5b92906109f59084610abc565b926001600160a01b03807f0000000000000000000000000000000000000000000000000000000000000000169181610a2d8483610abc565b95165f5216602052602060405f2060246040518094819363789add5560e11b835260048301525afa908115610459575f91610a66575090565b90506020813d602011610a8d575b81610a816020938361049c565b81010312610202575190565b3d9150610a74565b90816020910312610202575180151581036102025790565b90816020910312610202575190565b6001600160a01b031680610acf57503190565b6040516370a0823160e01b81526001600160a01b039092166004830152602090829060249082905afa908115610459575f91610a6657509056fea2646970667358221220265d6821c633c9a9ea36d436fc4ac2d33ade4a43d2655728133b7119688cf36564736f6c634300081a0033","linkReferences":{}},"methodIdentifiers":{"manager()":"481c6a75","take((address,address,uint24,int24,address),uint256,uint256)":"055419b6","unlockCallback(bytes)":"91dd7346"},"id":92}