{"abi":[{"type":"constructor","inputs":[{"name":"_manager","type":"address","internalType":"contract IPoolManager"}],"stateMutability":"nonpayable"},{"type":"function","name":"donate","inputs":[{"name":"key","type":"tuple","internalType":"struct PoolKey","components":[{"name":"currency0","type":"address","internalType":"Currency"},{"name":"currency1","type":"address","internalType":"Currency"},{"name":"fee","type":"uint24","internalType":"uint24"},{"name":"tickSpacing","type":"int24","internalType":"int24"},{"name":"hooks","type":"address","internalType":"contract IHooks"}]},{"name":"amount0","type":"uint256","internalType":"uint256"},{"name":"amount1","type":"uint256","internalType":"uint256"},{"name":"hookData","type":"bytes","internalType":"bytes"}],"outputs":[{"name":"delta","type":"int256","internalType":"BalanceDelta"}],"stateMutability":"payable"},{"type":"function","name":"manager","inputs":[],"outputs":[{"name":"","type":"address","internalType":"contract IPoolManager"}],"stateMutability":"view"},{"type":"function","name":"unlockCallback","inputs":[{"name":"rawData","type":"bytes","internalType":"bytes"}],"outputs":[{"name":"","type":"bytes","internalType":"bytes"}],"stateMutability":"nonpayable"}],"bytecode":{"object":"0x60a034607a57601f610e1138819003918201601f19168301916001600160401b03831184841017607e57808492602094604052833981010312607a57516001600160a01b0381168103607a57608052604051610d7e90816100938239608051818181608d015281816105f4015281816107c60152610a120152f35b5f80fd5b634e487b7160e01b5f52604160045260245ffdfe60806040526004361015610011575f80fd5b5f3560e01c8063234266d714610618578063481c6a75146105d5576391dd73461461003a575f80fd5b346105345760203660031901126105345760043567ffffffffffffffff8111610534573660238201121561053457806004013567ffffffffffffffff8111610534578101906024820191368311610534577f0000000000000000000000000000000000000000000000000000000000000000906001600160a01b03821692833303610534576020818303126105345760248101359067ffffffffffffffff8211610534570190610120828203126105345760a06024604051926100fc846108db565b61010782860161092d565b84528490030160431901126105345760405192610123846108db565b61012f6044840161092d565b845261013d6064840161092d565b6020850152608483013562ffffff8116810361053457604085015260a48301358060020b810361053457606085015260c48301356001600160a01b038116810361053457608085015260208201938452604082019260e48101358452606083019661010482013588526101248201359167ffffffffffffffff8311610534576101c9920160240161095d565b94608083019586526101f26001600160a01b03865151166001600160a01b0385511630916109fa565b91505061021a6001600160a01b036020885101511630906001600160a01b03875116906109fa565b929150506105905761054b576020908551906102955f8751936102b28c519b516040519c8d978896879563234266d760e01b875260048701906001600160a01b036080809282815116855282602082015116602086015262ffffff6040820151166040860152606081015160020b6060860152015116910152565b60a485015260c484015261010060e48401526101048301906109a3565b03925af1948515610540575f95610508575b506102e76001600160a01b038551511630906001600160a01b03855116906109fa565b9791505061031d6103136001600160a01b036020885101511630906001600160a01b03875116906109fa565b96915050516109d6565b870361049d5761032d90516109d6565b830361043257855f6103869712610409575b5f84126103d7575b5f81136103af575b505f831361038a575b85856040519060208201526020815261037260408261090b565b6040519182916020835260208301906109a3565b0390f35b6001600160a01b038060206103a6965101511692511691610c9a565b5f808080610358565b6103d1906001600160a01b0386515116836001600160a01b0386511691610c9a565b5f61034f565b6104046001600160a01b03602087510151166001600160a01b03855116846103fe886109d6565b92610abe565b610347565b61042d6001600160a01b03865151166001600160a01b03855116846103fe856109d6565b61033f565b60405162461bcd60e51b815260206004820152603160248201527f64656c7461416674657231206973206e6f7420657175616c20746f202d696e7460448201527f32353628646174612e616d6f756e7431290000000000000000000000000000006064820152608490fd5b60405162461bcd60e51b815260206004820152603160248201527f64656c7461416674657230206973206e6f7420657175616c20746f202d696e7460448201527f32353628646174612e616d6f756e7430290000000000000000000000000000006064820152608490fd5b9094506020813d602011610538575b816105246020938361090b565b810103126105345751935f6102c4565b5f80fd5b3d9150610517565b6040513d5f823e3d90fd5b60405162461bcd60e51b815260206004820152601560248201527f64656c74614265666f726531206973206e6f74203000000000000000000000006044820152606490fd5b60405162461bcd60e51b815260206004820152601560248201527f64656c74614265666f726530206973206e6f74203000000000000000000000006044820152606490fd5b34610534575f3660031901126105345760206040516001600160a01b037f0000000000000000000000000000000000000000000000000000000000000000168152f35b366003190161010081126105345760a01361053457604051610639816108db565b6004356001600160a01b03811681036105345781526024356001600160a01b038116810361053457602082015260443562ffffff811681036105345760408201526064358060020b81036105345760608201526084356001600160a01b038116810361053457608082015260e43567ffffffffffffffff8111610534576001600160a01b036107976107b9936107896106d75f95369060040161095d565b604051926106e4846108db565b338452602084019081526040840160a4358152610766606086019260c4358452608087019485526040519889976020808a0152511660408801525160608701906001600160a01b036080809282815116855282602082015116602086015262ffffff6040820151166040860152606081015160020b6060860152015116910152565b5161010085015251610120840152516101206101408401526101608301906109a3565b03601f19810183528261090b565b604051809381926348c8949160e01b83526020600484015260248301906109a3565b0381836001600160a01b037f0000000000000000000000000000000000000000000000000000000000000000165af1908115610540575f91610861575b50602081519181808201938492010103126105345751478061081e575b602082604051908152f35b5f80808093335af1156108315781610813565b6040516356cdd02560e11b8152602060048201523d60248201819052805f604484013e601f801991011660440190fd5b90503d805f833e610872818361090b565b8101906020818303126105345780519067ffffffffffffffff8211610534570181601f82011215610534578051906108a982610941565b926108b7604051948561090b565b8284526020838301011161053457815f9260208093018386015e83010152816107f6565b60a0810190811067ffffffffffffffff8211176108f757604052565b634e487b7160e01b5f52604160045260245ffd5b90601f8019910116810190811067ffffffffffffffff8211176108f757604052565b35906001600160a01b038216820361053457565b67ffffffffffffffff81116108f757601f01601f191660200190565b81601f820112156105345780359061097482610941565b92610982604051948561090b565b8284526020838301011161053457815f926020809301838601378301015290565b805180835260209291819084018484015e5f828201840152601f01601f1916010190565b90816020910312610534575190565b600160ff1b81146109e6575f0390565b634e487b7160e01b5f52601160045260245ffd5b9290610a069084610cfb565b926001600160a01b03807f0000000000000000000000000000000000000000000000000000000000000000169181610a3e8483610cfb565b95165f5216602052602060405f2060246040518094819363789add5560e11b835260048301525afa908115610540575f91610a77575090565b90506020813d602011610a9e575b81610a926020938361090b565b81010312610534575190565b3d9150610a85565b90816020910312610534575180151581036105345790565b9091906001600160a01b031680610b2b5750506001600160a01b0360046020926040519485938492630476982d60e21b8452165af1801561054057610b005750565b610b219060203d602011610b24575b610b19818361090b565b8101906109c7565b50565b503d610b0f565b9092916001600160a01b031691823b1561053457604051632961046560e21b815260048101839052935a945f816024818389819bf1801561054057610c7e575b506001600160a01b031684308214610c23576020929160649160405195869485936323b872dd60e01b8552600485015288602485015260448401525af18015610c1857916020918493610beb575b505b600460405180958193630476982d60e21b83525af1908115610bdf5750610b005750565b604051903d90823e3d90fd5b610c0a90833d8511610c11575b610c02818361090b565b810190610aa6565b505f610bb9565b503d610bf8565b6040513d85823e3d90fd5b9290506044602092604051948593849263a9059cbb60e01b845288600485015260248401525af18015610c1857916020918493610c61575b50610bbb565b610c7790833d8511610c1157610c02818361090b565b505f610c5b565b610c8b9195505f9061090b565b5f936001600160a01b03610b6b565b9192906001600160a01b0316803b15610534575f92836064926001600160a01b0394856040519889978896630b0d9c0960e01b885216600487015216602485015260448401525af1801561054057610cef5750565b5f610cf99161090b565b565b6001600160a01b031680610d0e57503190565b6040516370a0823160e01b81526001600160a01b039092166004830152602090829060249082905afa908115610540575f91610a7757509056fea264697066735822122034be24a6a0334eb25d4eaa351a669ce6e5472c8f0f64349a8bc9b958197d908164736f6c634300081a0033","linkReferences":{}},"methodIdentifiers":{"donate((address,address,uint24,int24,address),uint256,uint256,bytes)":"234266d7","manager()":"481c6a75","unlockCallback(bytes)":"91dd7346"},"id":86}