{"abi":[{"type":"constructor","inputs":[{"name":"_manager","type":"address","internalType":"contract IPoolManager"}],"stateMutability":"nonpayable"},{"type":"function","name":"donate","inputs":[{"name":"key","type":"tuple","internalType":"struct PoolKey","components":[{"name":"currency0","type":"address","internalType":"Currency"},{"name":"currency1","type":"address","internalType":"Currency"},{"name":"fee","type":"uint24","internalType":"uint24"},{"name":"tickSpacing","type":"int24","internalType":"int24"},{"name":"hooks","type":"address","internalType":"contract IHooks"}]},{"name":"amount0","type":"uint256","internalType":"uint256"},{"name":"amount1","type":"uint256","internalType":"uint256"},{"name":"hookData","type":"bytes","internalType":"bytes"}],"outputs":[{"name":"delta","type":"int256","internalType":"BalanceDelta"}],"stateMutability":"payable"},{"type":"function","name":"manager","inputs":[],"outputs":[{"name":"","type":"address","internalType":"contract IPoolManager"}],"stateMutability":"view"},{"type":"function","name":"unlockCallback","inputs":[{"name":"rawData","type":"bytes","internalType":"bytes"}],"outputs":[{"name":"","type":"bytes","internalType":"bytes"}],"stateMutability":"nonpayable"}],"bytecode":{"object":"0x60a0604052348015600e575f80fd5b506040516112c53803806112c5833981016040819052602b91603b565b6001600160a01b03166080526066565b5f60208284031215604a575f80fd5b81516001600160a01b0381168114605f575f80fd5b9392505050565b60805161120a6100bb5f395f8181606e0152818160d7015281816101ee01528181610300015281816104eb0152818161053c015281816105a1015281816105ec015281816106fe0152610731015261120a5ff3fe608060405260043610610033575f3560e01c8063234266d714610037578063481c6a751461005d57806391dd7346146100a8575b5f80fd5b61004a610045366004610e16565b6100d4565b6040519081526020015b60405180910390f35b348015610068575f80fd5b506100907f000000000000000000000000000000000000000000000000000000000000000081565b6040516001600160a01b039091168152602001610054565b3480156100b3575f80fd5b506100c76100c2366004610e75565b6101e1565b6040516100549190610f11565b5f7f00000000000000000000000000000000000000000000000000000000000000006001600160a01b03166348c894916040518060a00160405280336001600160a01b03168152602001888152602001878152602001868152602001858152506040516020016101449190610f2a565b6040516020818303038152906040526040518263ffffffff1660e01b815260040161016f9190610f11565b5f604051808303815f875af115801561018a573d5f803e3d5ffd5b505050506040513d5f823e601f3d908101601f191682016040526101b19190810190610fd7565b8060200190518101906101c4919061104c565b90504780156101d8576101d85f338361063d565b50949350505050565b6060336001600160a01b037f00000000000000000000000000000000000000000000000000000000000000001614610217575f80fd5b5f61022483850185611063565b90505f61023c82602001515f0151835f0151306106d7565b925050505f610257836020015160200151845f0151306106d7565b92505050815f146102af5760405162461bcd60e51b815260206004820152601560248201527f64656c74614265666f726530206973206e6f742030000000000000000000000060448201526064015b60405180910390fd5b80156102fd5760405162461bcd60e51b815260206004820152601560248201527f64656c74614265666f726531206973206e6f742030000000000000000000000060448201526064016102a6565b5f7f00000000000000000000000000000000000000000000000000000000000000006001600160a01b031663234266d785602001518660400151876060015188608001516040518563ffffffff1660e01b8152600401610360949392919061110a565b6020604051808303815f875af115801561037c573d5f803e3d5ffd5b505050506040513d601f19601f820116820180604052508101906103a0919061104c565b90505f6103b885602001515f0151865f0151306106d7565b925050505f6103d3866020015160200151875f0151306106d7565b9250505085604001516103e59061118f565b82146104595760405162461bcd60e51b815260206004820152603160248201527f64656c7461416674657230206973206e6f7420657175616c20746f202d696e7460448201527f32353628646174612e616d6f756e74302900000000000000000000000000000060648201526084016102a6565b85606001516104679061118f565b81146104db5760405162461bcd60e51b815260206004820152603160248201527f64656c7461416674657231206973206e6f7420657175616c20746f202d696e7460448201527f32353628646174612e616d6f756e74312900000000000000000000000000000060648201526084016102a6565b5f82121561052c57855161052c907f0000000000000000000000000000000000000000000000000000000000000000906105148561118f565b60208a0151516001600160a01b03169291905f610763565b5f81121561057f57855161057f907f0000000000000000000000000000000000000000000000000000000000000000906105658461118f565b6020808b015101516001600160a01b03169291905f610763565b5f8213156105c85785516020870151516105c8916001600160a01b03909116907f000000000000000000000000000000000000000000000000000000000000000090855f610a47565b5f8113156106135785516020808801510151610613916001600160a01b03909116907f000000000000000000000000000000000000000000000000000000000000000090845f610a47565b60408051602081018590520160405160208183030381529060405296505050505050505b92915050565b5f6001600160a01b038416610670575f805f8085875af190508061066b5761066b6356cdd02560e11b610b31565b6106d1565b60405163a9059cbb60e01b81526001600160a01b038416600482015282602482015260205f6044835f895af13d15601f3d1160015f511416171691505f81525f60208201525f604082015250806106d1576106d1632745a14f60e21b610b31565b50505050565b5f80806106ed6001600160a01b03871686610b5e565b92506107226001600160a01b0387167f0000000000000000000000000000000000000000000000000000000000000000610b5e565b91506107586001600160a01b037f0000000000000000000000000000000000000000000000000000000000000000168588610bed565b905093509350939050565b801561081057836001600160a01b031663f5298aca84610792886001600160a01b03166001600160a01b031690565b6040517fffffffff0000000000000000000000000000000000000000000000000000000060e085901b1681526001600160a01b0390921660048301526024820152604481018590526064015b5f604051808303815f87803b1580156107f5575f80fd5b505af1158015610807573d5f803e3d5ffd5b50505050610a40565b6001600160a01b03851661088757836001600160a01b03166311da60b4836040518263ffffffff1660e01b815260040160206040518083038185885af115801561085c573d5f803e3d5ffd5b50505050506040513d601f19601f82011682018060405250810190610881919061104c565b50610a40565b604051632961046560e21b81526001600160a01b03868116600483015285169063a5841194906024015f604051808303815f87803b1580156108c7575f80fd5b505af11580156108d9573d5f803e3d5ffd5b505050506001600160a01b038316301461096b576040516323b872dd60e01b81526001600160a01b0384811660048301528581166024830152604482018490528616906323b872dd906064016020604051808303815f875af1158015610941573d5f803e3d5ffd5b505050506040513d601f19601f8201168201806040525081019061096591906111b5565b506109dd565b60405163a9059cbb60e01b81526001600160a01b0385811660048301526024820184905286169063a9059cbb906044016020604051808303815f875af11580156109b7573d5f803e3d5ffd5b505050506040513d601f19601f820116820180604052508101906109db91906111b5565b505b836001600160a01b03166311da60b46040518163ffffffff1660e01b81526004016020604051808303815f875af1158015610a1a573d5f803e3d5ffd5b505050506040513d601f19601f82011682018060405250810190610a3e919061104c565b505b5050505050565b80610a8957604051630b0d9c0960e01b81526001600160a01b038681166004830152848116602483015260448201849052851690630b0d9c09906064016107de565b836001600160a01b031663156e29f684610ab2886001600160a01b03166001600160a01b031690565b6040517fffffffff0000000000000000000000000000000000000000000000000000000060e085901b1681526001600160a01b0390921660048301526024820152604481018590526064015f604051808303815f87803b158015610b14575f80fd5b505af1158015610b26573d5f803e3d5ffd5b505050505050505050565b3d60405182815260206004820152816024820152815f604483013e602080601f8401040260440191508181fd5b5f6001600160a01b038316610b7e57506001600160a01b03811631610637565b6040516370a0823160e01b81526001600160a01b0383811660048301528416906370a0823190602401602060405180830381865afa158015610bc2573d5f803e3d5ffd5b505050506040513d601f19601f82011682018060405250810190610be6919061104c565b9050610637565b5f806001600160a01b0384165f526001600160a01b03831660205260405f209050846001600160a01b031663f135baaa826040518263ffffffff1660e01b8152600401610c3c91815260200190565b602060405180830381865afa158015610c57573d5f803e3d5ffd5b505050506040513d601f19601f82011682018060405250810190610c7b919061104c565b95945050505050565b634e487b7160e01b5f52604160045260245ffd5b60405160a0810167ffffffffffffffff81118282101715610cbb57610cbb610c84565b60405290565b604051601f8201601f1916810167ffffffffffffffff81118282101715610cea57610cea610c84565b604052919050565b6001600160a01b0381168114610d06575f80fd5b50565b8035610d1481610cf2565b919050565b5f60a08284031215610d29575f80fd5b610d31610c98565b90508135610d3e81610cf2565b81526020820135610d4e81610cf2565b6020820152604082013562ffffff81168114610d68575f80fd5b60408201526060820135600281900b8114610d81575f80fd5b6060820152610d9260808301610d09565b608082015292915050565b5f67ffffffffffffffff821115610db657610db6610c84565b50601f01601f191660200190565b5f82601f830112610dd3575f80fd5b8135610de6610de182610d9d565b610cc1565b818152846020838601011115610dfa575f80fd5b816020850160208301375f918101602001919091529392505050565b5f805f806101008587031215610e2a575f80fd5b610e348686610d19565b935060a0850135925060c0850135915060e085013567ffffffffffffffff811115610e5d575f80fd5b610e6987828801610dc4565b91505092959194509250565b5f8060208385031215610e86575f80fd5b823567ffffffffffffffff811115610e9c575f80fd5b8301601f81018513610eac575f80fd5b803567ffffffffffffffff811115610ec2575f80fd5b856020828401011115610ed3575f80fd5b6020919091019590945092505050565b5f81518084528060208401602086015e5f602082860101526020601f19601f83011685010191505092915050565b602081525f610f236020830184610ee3565b9392505050565b602081526001600160a01b0382511660208201525f6020830151610f9f60408401826001600160a01b0381511682526001600160a01b03602082015116602083015262ffffff6040820151166040830152606081015160020b60608301526001600160a01b0360808201511660808301525050565b50604083015160e08301526060830151610100830152608083015161012080840152610fcf610140840182610ee3565b949350505050565b5f60208284031215610fe7575f80fd5b815167ffffffffffffffff811115610ffd575f80fd5b8201601f8101841361100d575f80fd5b805161101b610de182610d9d565b81815285602083850101111561102f575f80fd5b8160208401602083015e5f91810160200191909152949350505050565b5f6020828403121561105c575f80fd5b5051919050565b5f60208284031215611073575f80fd5b813567ffffffffffffffff811115611089575f80fd5b8201610120818503121561109b575f80fd5b6110a3610c98565b81356110ae81610cf2565b81526110bd8560208401610d19565b602082015260c0820135604082015260e0820135606082015261010082013567ffffffffffffffff8111156110f0575f80fd5b6110fc86828501610dc4565b608083015250949350505050565b61116281866001600160a01b0381511682526001600160a01b03602082015116602083015262ffffff6040820151166040830152606081015160020b60608301526001600160a01b0360808201511660808301525050565b8360a08201528260c082015261010060e08201525f611185610100830184610ee3565b9695505050505050565b5f600160ff1b82016111af57634e487b7160e01b5f52601160045260245ffd5b505f0390565b5f602082840312156111c5575f80fd5b81518015158114610f23575f80fdfea26469706673582212203ca7b965818d46e7c9ae64d69615fbdc71a1cd62af9d75e18cd0f9fc908573ea64736f6c634300081a0033","linkReferences":{}},"methodIdentifiers":{"donate((address,address,uint24,int24,address),uint256,uint256,bytes)":"234266d7","manager()":"481c6a75","unlockCallback(bytes)":"91dd7346"},"id":71}