{"abi":[{"type":"constructor","inputs":[{"name":"_poolManager","type":"address","internalType":"contract IPoolManager"}],"stateMutability":"nonpayable"},{"type":"function","name":"addLiquidity","inputs":[{"name":"key","type":"tuple","internalType":"struct PoolKey","components":[{"name":"currency0","type":"address","internalType":"Currency"},{"name":"currency1","type":"address","internalType":"Currency"},{"name":"fee","type":"uint24","internalType":"uint24"},{"name":"tickSpacing","type":"int24","internalType":"int24"},{"name":"hooks","type":"address","internalType":"contract IHooks"}]},{"name":"params","type":"tuple","internalType":"struct IPoolManager.ModifyLiquidityParams","components":[{"name":"tickLower","type":"int24","internalType":"int24"},{"name":"tickUpper","type":"int24","internalType":"int24"},{"name":"liquidityDelta","type":"int256","internalType":"int256"},{"name":"salt","type":"bytes32","internalType":"bytes32"}]},{"name":"hookData","type":"bytes","internalType":"bytes"}],"outputs":[{"name":"delta","type":"int256","internalType":"BalanceDelta"}],"stateMutability":"payable"},{"type":"function","name":"afterAddLiquidity","inputs":[{"name":"","type":"address","internalType":"address"},{"name":"","type":"tuple","internalType":"struct PoolKey","components":[{"name":"currency0","type":"address","internalType":"Currency"},{"name":"currency1","type":"address","internalType":"Currency"},{"name":"fee","type":"uint24","internalType":"uint24"},{"name":"tickSpacing","type":"int24","internalType":"int24"},{"name":"hooks","type":"address","internalType":"contract IHooks"}]},{"name":"","type":"tuple","internalType":"struct IPoolManager.ModifyLiquidityParams","components":[{"name":"tickLower","type":"int24","internalType":"int24"},{"name":"tickUpper","type":"int24","internalType":"int24"},{"name":"liquidityDelta","type":"int256","internalType":"int256"},{"name":"salt","type":"bytes32","internalType":"bytes32"}]},{"name":"","type":"int256","internalType":"BalanceDelta"},{"name":"","type":"bytes","internalType":"bytes"}],"outputs":[{"name":"","type":"bytes4","internalType":"bytes4"},{"name":"","type":"int256","internalType":"BalanceDelta"}],"stateMutability":"nonpayable"},{"type":"function","name":"afterDonate","inputs":[{"name":"","type":"address","internalType":"address"},{"name":"","type":"tuple","internalType":"struct PoolKey","components":[{"name":"currency0","type":"address","internalType":"Currency"},{"name":"currency1","type":"address","internalType":"Currency"},{"name":"fee","type":"uint24","internalType":"uint24"},{"name":"tickSpacing","type":"int24","internalType":"int24"},{"name":"hooks","type":"address","internalType":"contract IHooks"}]},{"name":"","type":"uint256","internalType":"uint256"},{"name":"","type":"uint256","internalType":"uint256"},{"name":"","type":"bytes","internalType":"bytes"}],"outputs":[{"name":"","type":"bytes4","internalType":"bytes4"}],"stateMutability":"nonpayable"},{"type":"function","name":"afterInitialize","inputs":[{"name":"sender","type":"address","internalType":"address"},{"name":"key","type":"tuple","internalType":"struct PoolKey","components":[{"name":"currency0","type":"address","internalType":"Currency"},{"name":"currency1","type":"address","internalType":"Currency"},{"name":"fee","type":"uint24","internalType":"uint24"},{"name":"tickSpacing","type":"int24","internalType":"int24"},{"name":"hooks","type":"address","internalType":"contract IHooks"}]},{"name":"sqrtPriceX96","type":"uint160","internalType":"uint160"},{"name":"tick","type":"int24","internalType":"int24"},{"name":"hookData","type":"bytes","internalType":"bytes"}],"outputs":[{"name":"","type":"bytes4","internalType":"bytes4"}],"stateMutability":"nonpayable"},{"type":"function","name":"afterRemoveLiquidity","inputs":[{"name":"","type":"address","internalType":"address"},{"name":"","type":"tuple","internalType":"struct PoolKey","components":[{"name":"currency0","type":"address","internalType":"Currency"},{"name":"currency1","type":"address","internalType":"Currency"},{"name":"fee","type":"uint24","internalType":"uint24"},{"name":"tickSpacing","type":"int24","internalType":"int24"},{"name":"hooks","type":"address","internalType":"contract IHooks"}]},{"name":"","type":"tuple","internalType":"struct IPoolManager.ModifyLiquidityParams","components":[{"name":"tickLower","type":"int24","internalType":"int24"},{"name":"tickUpper","type":"int24","internalType":"int24"},{"name":"liquidityDelta","type":"int256","internalType":"int256"},{"name":"salt","type":"bytes32","internalType":"bytes32"}]},{"name":"","type":"int256","internalType":"BalanceDelta"},{"name":"","type":"bytes","internalType":"bytes"}],"outputs":[{"name":"","type":"bytes4","internalType":"bytes4"},{"name":"","type":"int256","internalType":"BalanceDelta"}],"stateMutability":"nonpayable"},{"type":"function","name":"afterSwap","inputs":[{"name":"sender","type":"address","internalType":"address"},{"name":"","type":"tuple","internalType":"struct PoolKey","components":[{"name":"currency0","type":"address","internalType":"Currency"},{"name":"currency1","type":"address","internalType":"Currency"},{"name":"fee","type":"uint24","internalType":"uint24"},{"name":"tickSpacing","type":"int24","internalType":"int24"},{"name":"hooks","type":"address","internalType":"contract IHooks"}]},{"name":"","type":"tuple","internalType":"struct IPoolManager.SwapParams","components":[{"name":"zeroForOne","type":"bool","internalType":"bool"},{"name":"amountSpecified","type":"int256","internalType":"int256"},{"name":"sqrtPriceLimitX96","type":"uint160","internalType":"uint160"}]},{"name":"delta","type":"int256","internalType":"BalanceDelta"},{"name":"hookData","type":"bytes","internalType":"bytes"}],"outputs":[{"name":"","type":"bytes4","internalType":"bytes4"},{"name":"","type":"int128","internalType":"int128"}],"stateMutability":"nonpayable"},{"type":"function","name":"beforeAddLiquidity","inputs":[{"name":"","type":"address","internalType":"address"},{"name":"key","type":"tuple","internalType":"struct PoolKey","components":[{"name":"currency0","type":"address","internalType":"Currency"},{"name":"currency1","type":"address","internalType":"Currency"},{"name":"fee","type":"uint24","internalType":"uint24"},{"name":"tickSpacing","type":"int24","internalType":"int24"},{"name":"hooks","type":"address","internalType":"contract IHooks"}]},{"name":"","type":"tuple","internalType":"struct IPoolManager.ModifyLiquidityParams","components":[{"name":"tickLower","type":"int24","internalType":"int24"},{"name":"tickUpper","type":"int24","internalType":"int24"},{"name":"liquidityDelta","type":"int256","internalType":"int256"},{"name":"salt","type":"bytes32","internalType":"bytes32"}]},{"name":"","type":"bytes","internalType":"bytes"}],"outputs":[{"name":"","type":"bytes4","internalType":"bytes4"}],"stateMutability":"nonpayable"},{"type":"function","name":"beforeDonate","inputs":[{"name":"","type":"address","internalType":"address"},{"name":"","type":"tuple","internalType":"struct PoolKey","components":[{"name":"currency0","type":"address","internalType":"Currency"},{"name":"currency1","type":"address","internalType":"Currency"},{"name":"fee","type":"uint24","internalType":"uint24"},{"name":"tickSpacing","type":"int24","internalType":"int24"},{"name":"hooks","type":"address","internalType":"contract IHooks"}]},{"name":"","type":"uint256","internalType":"uint256"},{"name":"","type":"uint256","internalType":"uint256"},{"name":"","type":"bytes","internalType":"bytes"}],"outputs":[{"name":"","type":"bytes4","internalType":"bytes4"}],"stateMutability":"nonpayable"},{"type":"function","name":"beforeInitialize","inputs":[{"name":"","type":"address","internalType":"address"},{"name":"","type":"tuple","internalType":"struct PoolKey","components":[{"name":"currency0","type":"address","internalType":"Currency"},{"name":"currency1","type":"address","internalType":"Currency"},{"name":"fee","type":"uint24","internalType":"uint24"},{"name":"tickSpacing","type":"int24","internalType":"int24"},{"name":"hooks","type":"address","internalType":"contract IHooks"}]},{"name":"","type":"uint160","internalType":"uint160"},{"name":"","type":"bytes","internalType":"bytes"}],"outputs":[{"name":"","type":"bytes4","internalType":"bytes4"}],"stateMutability":"nonpayable"},{"type":"function","name":"beforeRemoveLiquidity","inputs":[{"name":"","type":"address","internalType":"address"},{"name":"","type":"tuple","internalType":"struct PoolKey","components":[{"name":"currency0","type":"address","internalType":"Currency"},{"name":"currency1","type":"address","internalType":"Currency"},{"name":"fee","type":"uint24","internalType":"uint24"},{"name":"tickSpacing","type":"int24","internalType":"int24"},{"name":"hooks","type":"address","internalType":"contract IHooks"}]},{"name":"","type":"tuple","internalType":"struct IPoolManager.ModifyLiquidityParams","components":[{"name":"tickLower","type":"int24","internalType":"int24"},{"name":"tickUpper","type":"int24","internalType":"int24"},{"name":"liquidityDelta","type":"int256","internalType":"int256"},{"name":"salt","type":"bytes32","internalType":"bytes32"}]},{"name":"","type":"bytes","internalType":"bytes"}],"outputs":[{"name":"","type":"bytes4","internalType":"bytes4"}],"stateMutability":"nonpayable"},{"type":"function","name":"beforeSwap","inputs":[{"name":"","type":"address","internalType":"address"},{"name":"key","type":"tuple","internalType":"struct PoolKey","components":[{"name":"currency0","type":"address","internalType":"Currency"},{"name":"currency1","type":"address","internalType":"Currency"},{"name":"fee","type":"uint24","internalType":"uint24"},{"name":"tickSpacing","type":"int24","internalType":"int24"},{"name":"hooks","type":"address","internalType":"contract IHooks"}]},{"name":"params","type":"tuple","internalType":"struct IPoolManager.SwapParams","components":[{"name":"zeroForOne","type":"bool","internalType":"bool"},{"name":"amountSpecified","type":"int256","internalType":"int256"},{"name":"sqrtPriceLimitX96","type":"uint160","internalType":"uint160"}]},{"name":"hookData","type":"bytes","internalType":"bytes"}],"outputs":[{"name":"","type":"bytes4","internalType":"bytes4"},{"name":"","type":"int256","internalType":"BeforeSwapDelta"},{"name":"","type":"uint24","internalType":"uint24"}],"stateMutability":"nonpayable"},{"type":"function","name":"checkSlotChanged","inputs":[],"outputs":[{"name":"","type":"bool","internalType":"bool"}],"stateMutability":"view"},{"type":"function","name":"getHookPermissions","inputs":[],"outputs":[{"name":"","type":"tuple","internalType":"struct Hooks.Permissions","components":[{"name":"beforeInitialize","type":"bool","internalType":"bool"},{"name":"afterInitialize","type":"bool","internalType":"bool"},{"name":"beforeAddLiquidity","type":"bool","internalType":"bool"},{"name":"afterAddLiquidity","type":"bool","internalType":"bool"},{"name":"beforeRemoveLiquidity","type":"bool","internalType":"bool"},{"name":"afterRemoveLiquidity","type":"bool","internalType":"bool"},{"name":"beforeSwap","type":"bool","internalType":"bool"},{"name":"afterSwap","type":"bool","internalType":"bool"},{"name":"beforeDonate","type":"bool","internalType":"bool"},{"name":"afterDonate","type":"bool","internalType":"bool"},{"name":"beforeSwapReturnDelta","type":"bool","internalType":"bool"},{"name":"afterSwapReturnDelta","type":"bool","internalType":"bool"},{"name":"afterAddLiquidityReturnDelta","type":"bool","internalType":"bool"},{"name":"afterRemoveLiquidityReturnDelta","type":"bool","internalType":"bool"}]}],"stateMutability":"pure"},{"type":"function","name":"getSrPoolLiquidity","inputs":[{"name":"key","type":"tuple","internalType":"struct PoolKey","components":[{"name":"currency0","type":"address","internalType":"Currency"},{"name":"currency1","type":"address","internalType":"Currency"},{"name":"fee","type":"uint24","internalType":"uint24"},{"name":"tickSpacing","type":"int24","internalType":"int24"},{"name":"hooks","type":"address","internalType":"contract IHooks"}]}],"outputs":[{"name":"","type":"uint128","internalType":"uint128"},{"name":"","type":"uint128","internalType":"uint128"},{"name":"","type":"uint128","internalType":"uint128"},{"name":"","type":"uint128","internalType":"uint128"}],"stateMutability":"view"},{"type":"function","name":"getSrPoolSlot0","inputs":[{"name":"key","type":"tuple","internalType":"struct PoolKey","components":[{"name":"currency0","type":"address","internalType":"Currency"},{"name":"currency1","type":"address","internalType":"Currency"},{"name":"fee","type":"uint24","internalType":"uint24"},{"name":"tickSpacing","type":"int24","internalType":"int24"},{"name":"hooks","type":"address","internalType":"contract IHooks"}]}],"outputs":[{"name":"bid","type":"bytes32","internalType":"Slot0"},{"name":"offer","type":"bytes32","internalType":"Slot0"}],"stateMutability":"view"},{"type":"function","name":"poolManager","inputs":[],"outputs":[{"name":"","type":"address","internalType":"contract IPoolManager"}],"stateMutability":"view"},{"type":"function","name":"unlockCallback","inputs":[{"name":"rawData","type":"bytes","internalType":"bytes"}],"outputs":[{"name":"","type":"bytes","internalType":"bytes"}],"stateMutability":"nonpayable"},{"type":"event","name":"Swap","inputs":[{"name":"id","type":"bytes32","indexed":true,"internalType":"PoolId"},{"name":"sender","type":"address","indexed":false,"internalType":"address"},{"name":"amount0","type":"int128","indexed":false,"internalType":"int128"},{"name":"amount1","type":"int128","indexed":false,"internalType":"int128"},{"name":"sqrtPriceX96","type":"uint160","indexed":false,"internalType":"uint160"},{"name":"liquidity","type":"uint128","indexed":false,"internalType":"uint128"},{"name":"tick","type":"int24","indexed":false,"internalType":"int24"},{"name":"fee","type":"uint24","indexed":false,"internalType":"uint24"}],"anonymous":false},{"type":"error","name":"DelegateCallNotAllowed","inputs":[]},{"type":"error","name":"HookNotImplemented","inputs":[]},{"type":"error","name":"InvalidPool","inputs":[]},{"type":"error","name":"LockFailure","inputs":[]},{"type":"error","name":"NotPoolManager","inputs":[]},{"type":"error","name":"NotSelf","inputs":[]}],"bytecode":{"object":"0x60c06040523461028257604051601f61510838819003918201601f19168301916001600160401b038311848410176102865780849260209460405283398101031261028257516001600160a01b0381168103610282576080525f6101a061006461029a565b8281528260208201528260408201528260608201528260808201528260a08201528260c08201528260e0820152826101008201528261012082015282610140820152826101608201528261018082015201525f6101a06100c261029a565b82815260016020820152600160408201528260608201528260808201528260a0820152600160c08201528260e08201528261010082015282610120820152600161014082015282610160820152826101808201520152612000301615801590610271575b8015610260575b8015610253575b8015610246575b8015610239575b8015610229575b801561021d575b8015610211575b8015610205575b80156101f5575b80156101e9575b80156101dd575b80156101d1575b6101be573060a052604051614e4d90816102bb823960805181818160fc015281816104a001528181610eb6015281816111ef0152611272015260a051816103670152f35b630732d7b560e51b5f523060045260245ffd5b5060013016151561017a565b50600230161515610173565b5060043016151561016c565b5060083016151560011415610165565b5060103016151561015e565b50602030161515610157565b50604030161515610150565b5060803016151560011415610149565b5061010030161515610142565b506102003016151561013b565b5061040030161515610134565b50610800301615156001141561012d565b506110003016151560011415610126565b5f80fd5b634e487b7160e01b5f52604160045260245ffd5b604051906101c082016001600160401b038111838210176102865760405256fe610200806040526004361015610013575f80fd5b5f3560e01c908163214ec826146113a45750806321d0ee7014611382578063259982e5146113745780633440d82014611313578063575e24b414610f875780635a2a810014610c655780635a87438214610d075780636ffcac3514610ca557806378b9c6ca14610c6a5780638db2b65214610c6557806391dd73461461046d578063a910f80f146102f8578063b47b2fb11461028c578063b6a8b0fa146100d8578063c4e833ce14610124578063dc4c90d3146100dd5763e1b4af69146100d8575f80fd5b6117e4565b34610120575f3660031901126101205760206040516001600160a01b037f0000000000000000000000000000000000000000000000000000000000000000168152f35b5f80fd5b34610120575f366003190112610120575f6101a06040516101448161155d565b8281528260208201528260408201528260608201528260808201528260a08201528260c08201528260e0820152826101008201528261012082015282610140820152826101608201528261018082015201526101c060206040516101a78161155d565b5f815281810190600182526040810160018152606082015f8152608083015f815260a084015f815260c085016001815260e08601905f82526101008701925f84526101208801945f8652610140890196600188526101608a01985f8a526101a06101808c019b5f8d52019b5f8d526040519d8e915f835251151591015251151560408d015251151560608c015251151560808b015251151560a08a015251151560c089015251151560e08801525115156101008701525115156101208601525115156101408501525115156101608401525115156101808301525115156101a0820152f35b3461012057610160366003190112610120576102a66113c5565b5060a03660231901126101205760603660c3190112610120576101443567ffffffffffffffff8111610120576102e09036906004016113ef565b50506040805163b47b2fb160e01b81525f6020820152f35b3461012057610120366003190112610120576103126113c5565b5060a036602319011261012057610327611481565b61032f6115b8565b506101043567ffffffffffffffff8111610120576103519036906004016113ef565b505061035c366115d6565b906001600160a01b037f000000000000000000000000000000000000000000000000000000000000000016300361045e576103a362ffffff604060a0852094015116614126565b915f525f60205260405f2091600183019081546001600160a01b031615158061044b575b61043c5762ffffff60a01b927cffffff00000000000000000000000000000000000000000000000000009284926103fd836145d2565b906001600160a01b0361040f856145d2565b941695869160d01b1696879260a01b161717905560a01b1617179055602060405163a910f80f60e01b8152f35b637983c05160e01b5f5260045ffd5b5083546001600160a01b031615156103c7565b6306c4a1c760e11b5f5260045ffd5b346101205760203660031901126101205760043567ffffffffffffffff81116101205761049e9036906004016113ef565b7f0000000000000000000000000000000000000000000000000000000000000000906001600160a01b0382163303610c56578201916020818403126101205780359067ffffffffffffffff821161012057018083036101a08112610120576040519061050982611525565b610512836113db565b8252608061052386602086016116e4565b602084019081529160bf190112610120576040519461054186611541565b61054d60c085016115c8565b865261055b60e085016115c8565b602087015261010084013560408701526101208401356060870152604083019586526101408401359067ffffffffffffffff82116101205761059e91850161177a565b60608301526106e26105c76101806105b96101608701611849565b956080860196875201611849565b9460a084019586526105dd604088510151611891565b956106996105ef60408a510151611891565b9560409761063189516106028b82611596565b601081527f637573746f6d206c69717569646974790000000000000000000000000000000060208201526118c1565b61063a8a611913565b61064388611913565b6106726001600160a01b03885151166001600160a01b038451166106668d611891565b90888551151593611ad2565b6001600160a01b0380602089510151169251168561068f8a611891565b9251151593611ad2565b6106be6001600160a01b03855151166106b189611891565b83511515918530916119a5565b6001600160a01b03602085510151166106d686611891565b915115159230916119a5565b5193519360a081205f525f602052825f2090855160020b602087015160020b92606080610711888b0151614118565b94015160020b9801519786519361072785611525565b3385528360208601528588860152600f0b938460608201526080810191825260a08101998a5285841215610c3957620d89e7198412610c2657620d89e88613610c1357875161077581611541565b5f8152602081019a5f8c52898201925f845260608301945f865288159d8e159687610a5d575b5050506001600160a01b039051169051908a5191602683015288600683015286600383015281525f603a600c83012091818c820152816020820152525f5260078401602052885f206001600160801b038154169b5f14610a2a578b15610a1b576108b89b61083461083a925b5f60018201938161082c60026108208489548503614a07565b95019283548303614a07565b955555611d08565b50611d08565b505f86126109b4575b50506108bc575b5050505061088c825161085d8482611596565b601681527f637573746f6d206c69717569646974792061646465640000000000000000000060208201526118c1565b8151926020840152818301528082526108a6606083611596565b519182916020835260208301906117c0565b0390f35b80546001600160a01b0381169060a01c60020b8381121561090a57505050906108ff926108f46108ee6108fa946141fd565b916141fd565b90614575565b614118565b505b8480808061084a565b9480919295125f146109915761098c946001600160801b03936109546108fa876109639661094f6109496108fa8461094360029b6141fd565b85614575565b956141fd565b61452a565b505001805490939083166145aa565b16608081901b6fffffffffffffffffffffffffffffffff19166001600160801b03909116179055565b610901565b90506109ae93506109a86108ee6108fa94936141fd565b9061452a565b50610901565b516109f1575b516109c7575b8980610843565b6109ec858360059160020b5f52016020525f6002604082208281558260018201550155565b6109c0565b610a16848460059160020b5f52016020525f6002604082208281558260018201550155565b6109ba565b632bbfae4960e21b5f5260045ffd5b8b61083461083a926001600160801b036108b89f8b610a48916145aa565b166001600160801b0319825416178155610807565b8d60058a01908b60020b5f52816020525f208c8154916001600160801b03831691610a8881846145aa565b906001600160801b0382169315841514159460801d600f0b016f7fffffffffffffffffffffffffffffff1981126f7fffffffffffffffffffffffffffffff821317610bff5760801b179055845287528c60020b5f526020528d5f208054906001600160801b038216908d610afc81846145aa565b906001600160801b0382169315841514159460801d600f0b036f7fffffffffffffffffffffffffffffff81136f7fffffffffffffffffffffffffffffff19821217610bff5760801b179055825287525f8b1215610ba4575b5050906001600160a01b03918451610b8d575b8551610b75575b819261079b565b610b87905160020b8b60068a016141b1565b8e610b6e565b610b9f815160020b8a60068b016141b1565b610b67565b6001600160801b03600181855160020b945116938080620d89e71905028180620d89e80502030501810416809211610bec57516001600160801b031611610bec578e80610b54565b8963b8e3c38560e01b5f5260045260245ffd5b634e487b7160e01b5f52601160045260245ffd5b8563035aeeff60e31b5f5260045260245ffd5b8363d5e2f7ab60e01b5f5260045260245ffd5b604484878a519163c4433ed560e01b835260048301526024820152fd5b63570c108560e11b5f5260045ffd5b611497565b346101205760a03660031901126101205760a0610c863661165d565b205f525f6020526040805f206001810154905482519182526020820152f35b346101205760a03660031901126101205760a0610cc13661165d565b205f525f602052608060405f20600360028201549101546001600160801b036040519280851c84521660208301526001600160801b0381166040830152821c6060820152f35b61014036600319011261012057610d1d3661165d565b60803660a31901126101205760405190610d3682611541565b60a4358060020b810361012057825260c4358060020b810361012057602083015260e4356040830152610104356060830152610124359167ffffffffffffffff831161012057610e875f926001600160a01b0392610d9b610ea996369060040161177a565b91610e6660405193610dac85611525565b3385526020850192835260408501938452606085019081526060608086019489865288608060a0890196600188526040519b8c9a6020808d0152511660408b01525182815116858b015282602082015116828b015262ffffff60408201511660a08b01528481015160020b60c08b015201511660e088015251805160020b610100880152602081015160020b61012088015260408101516101408801520151610160860152516101a06101808601526101e08501906117c0565b915115156101a08401525115156101c083015203601f198101835282611596565b604051809381926348c8949160e01b83526020600484015260248301906117c0565b0381836001600160a01b037f0000000000000000000000000000000000000000000000000000000000000000165af1908115610f7c575f91610f02575b5060208180518101031261012057602080910151604051908152f35b90503d805f833e610f138183611596565b8101906020818303126101205780519067ffffffffffffffff8211610120570181601f8201121561012057805190610f4a8261175e565b92610f586040519485611596565b8284526020838301011161012057815f9260208093018386015e8301015281610ee6565b6040513d5f823e3d90fd5b346101205761014036600319011261012057610fa16113c5565b5060a03660231901126101205760603660c3190112610120576101243567ffffffffffffffff811161012057610fdb9036906004016113ef565b50506040516060810181811067ffffffffffffffff8211176112ff5760405260c435801515810361012057815260e435602082019181835261010435906001600160a01b03821682036101205760408101918252611037611d35565b5060a0611043366115d6565b205f525f60205260405f20608435908160020b8092036101205760609561117d946001600160a01b036110a1955115159251915116916040519461108686611509565b855260208501526040840152868301525f6080830152611e47565b6101e0519293915060a06110b4366115d6565b207f40e9cecb9f5f1f1c5b9c97dec2917b7ee92e57ba5563708daca94dd84ad7112f60e08660801d96600f0b9562ffffff6001600160a01b036040830151169560a06001600160801b036101008501511693015160020b604051933385528b600f0b988960208701528b60408701528e860152608085015260a08401521660c0820152a2611178604051611149604082611596565b601681527f5372416d6d486f6f6b3a20737761702064656c7461200000000000000000000060208201526118c1565b611913565b61118681611913565b5f83129283611193611856565b1515036112db576111a261187b565b916111ab611865565b915b85156112d5576111bc90611891565b935b6111c6611856565b156112b75785156112a857505b935b5f901561125e57509161122961122e9261123494611217847f00000000000000000000000000000000000000000000000000000000000000009384309161193b565b6001600160801b038716913091611a81565b611d08565b916118a1565b6001600160801b03169060801b175b604051906315d7892d60e21b825260208201525f6040820152f35b9361129c6112a39493926001600160801b037f000000000000000000000000000000000000000000000000000000000000000093169083309161193b565b3091611a81565b611243565b6112b291506118a1565b6111d3565b9085156112c657505b936111d5565b6112d091506118a1565b6112c0565b936111be565b6112e3611865565b916001600160a01b03806112f561187b565b94169316916111ad565b634e487b7160e01b5f52604160045260245ffd5b34610120576101003660031901126101205761132d6113c5565b5060a036602319011261012057611342611481565b5060e43567ffffffffffffffff8111610120576113639036906004016113ef565b5050630a85dc2960e01b5f5260045ffd5b34610120576101203661141d565b34610120576113903661141d565b5050505050630a85dc2960e01b5f5260045ffd5b34610120575f366003190112610120576020906113bf611837565b15158152f35b600435906001600160a01b038216820361012057565b35906001600160a01b038216820361012057565b9181601f840112156101205782359167ffffffffffffffff8311610120576020838186019501011161012057565b90610160600319830112610120576004356001600160a01b0381168103610120579160a060231982011261012057602491608060c3198301126101205760c491610144359067ffffffffffffffff82116101205761147d916004016113ef565b9091565b60c435906001600160a01b038216820361012057565b3461012057610180366003190112610120576004356001600160a01b0381168103610120575060a03660231901126101205760803660c3190112610120576101643567ffffffffffffffff8111610120576114f69036906004016113ef565b5050630a85dc2960e01b5f908152600490fd5b60a0810190811067ffffffffffffffff8211176112ff57604052565b60c0810190811067ffffffffffffffff8211176112ff57604052565b6080810190811067ffffffffffffffff8211176112ff57604052565b6101c0810190811067ffffffffffffffff8211176112ff57604052565b60e0810190811067ffffffffffffffff8211176112ff57604052565b90601f8019910116810190811067ffffffffffffffff8211176112ff57604052565b60e435908160020b820361012057565b35908160020b820361012057565b60a090602319011261012057604051906115ef82611509565b816024356001600160a01b03811681036101205781526044356001600160a01b038116810361012057602082015260643562ffffff811681036101205760408201526084358060020b810361012057606082015260a435906001600160a01b03821682036101205760800152565b60a0906003190112610120576040519061167682611509565b816004356001600160a01b03811681036101205781526024356001600160a01b038116810361012057602082015260443562ffffff811681036101205760408201526064358060020b8103610120576060820152608435906001600160a01b03821682036101205760800152565b91908260a0910312610120576040516116fc81611509565b8092611707816113db565b8252611715602082016113db565b602083015260408101359062ffffff82168203610120576080916040840152611740606082016115c8565b60608401520135906001600160a01b03821682036101205760800152565b67ffffffffffffffff81116112ff57601f01601f191660200190565b81601f82011215610120578035906117918261175e565b9261179f6040519485611596565b8284526020838301011161012057815f926020809301838601378301015290565b805180835260209291819084018484015e5f828201840152601f01601f1916010190565b3461012057610120366003190112610120576004356001600160a01b0381168103610120575060a0366023190112610120576101043567ffffffffffffffff8111610120576114f69036906004016113ef565b600254431461184557600190565b5f90565b3590811515820361012057565b60c43580151581036101205790565b6044356001600160a01b03811681036101205790565b6024356001600160a01b03811681036101205790565b600160ff1b8114610bff575f0390565b600f0b6f7fffffffffffffffffffffffffffffff198114610bff575f0390565b5f6118ee6118fc829360405192839163104c13eb60e21b60208401526020602484015260448301906117c0565b03601f198101835282611596565b6020815191016a636f6e736f6c652e6c6f675afa50565b5f809160405190634e0c1d1d60e01b60208301526024820152602481526118fc604482611596565b91906001600160a01b0316803b1561012057604051630ab714fb60e11b81526001600160a01b0392831660048201529290911660248301526044820192909252905f908290818381606481015b03925af18015610f7c576119995750565b5f6119a391611596565b565b929315611a05576001600160a01b0316803b1561012057604051630ab714fb60e11b81526001600160a01b0392831660048201529290911660248301526044820192909252905f908290606490829084905af18015610f7c576119995750565b9092906001600160a01b0316803b15610120575f92836064926001600160a01b0394856040519889978896630b0d9c0960e01b885216600487015216602485015260448401525af18015610f7c576119995750565b90816020910312610120575180151581036101205790565b90816020910312610120575190565b91906001600160a01b0316803b1561012057604051637a94c56560e11b81526001600160a01b0392831660048201529290911660248301526044820192909252905f90829081838160648101611988565b929315611b28576001600160a01b0316803b1561012057604051637a94c56560e11b81526001600160a01b0392831660048201529290911660248301526044820192909252905f90829081838160648101611988565b906001600160a01b035f931680155f14611ba65750506001600160a01b0360046020926040519586938492630476982d60e21b8452165af1908115611b9a5750611b6f5750565b611b909060203d602011611b93575b611b888183611596565b810190611a72565b50565b503d611b7e565b604051903d90823e3d90fd5b916001600160a01b0390949193941692833b1561012057604051632961046560e21b8152600481018490525f8160248183895af18015610f7c57611cec575b506001600160a01b031684308214611c91576020929160649160405195869485936323b872dd60e01b8552600485015288602485015260448401525af18015611c8657916020918493611c59575b505b600460405180958193630476982d60e21b83525af1908115611b9a5750611b6f5750565b611c7890833d8511611c7f575b611c708183611596565b810190611a5a565b505f611c33565b503d611c66565b6040513d85823e3d90fd5b9290506044602092604051948593849263a9059cbb60e01b845288600485015260248401525af18015611c8657916020918493611ccf575b50611c35565b611ce590833d8511611c7f57611c708183611596565b505f611cc9565b611cf99195505f90611596565b5f936001600160a01b03611be5565b6f80000000000000000000000000000000811015611d2657600f0b90565b6393dafdf160e01b5f5260045ffd5b60a0611d423660246116e4565b205f52600160205260405f205443146118455760a0611d623660246116e4565b205f525f60205260405f206001815460048301816001600160a01b03167fffffffffffffffffffffffff00000000000000000000000000000000000000008254161790556001600160a01b0362ffffff60a01b821691161791015560a0611dca3660246116e4565b205f5260016020524360405f2055600190565b60405190610180820182811067ffffffffffffffff8211176112ff576040525f610160838281528260208201528260408201528260608201528260808201528260a08201528260c08201528260e08201528261010082015282610120820152826101408201520152565b610140525f6101e0525f91611e5a611ddd565b6101e05261014051549260016101405101549360208401511560a0526001600160a01b0360046101405101541660806101e05101526002610140510154905f61016052604061016052611ee76101605151611eb86101605182611596565b601081527f7669727475616c4c69717569646974790000000000000000000000000000000060208201526118c1565b611ef38260801c61415c565b610160518501516101e051525f60206101e05101528060a01c60020b60a06101e0510152856001600160a01b0316610160516101e05101528560a01c60020b60c06101e05101526001600160801b0382166101006101e05101528160801c6101206101e05101526001600160801b0360036101405101548060801c6101606101e0510152166101406101e05101528060d01c62ffffff16915f61016051870151129081158061410c575b6140fd5761016051870151156140ee5760a05161407857606087016001600160a01b03815116896001600160a01b031681101561404f5750516001600160a01b03166401000276a381111561403d57505b611ff6611ddd565b50611fff611ddd565b506020870151151560c052610160515160e05261201d60e05161157a565b5f60e051525f602060e05101525f6101605160e05101525f606060e05101525f608060e05101525f60a060e05101525f60c060e0510152610140515460d01c62ffffff166101c0525f610160518801511215975b6101e05151158015614017575b8015613fef575b612b2b5760a051612b12576001600160a01b038060606101e0510151165b1660e0515260a051155f14612b025760c06101e051015160020b5b885160020b9060020b815f818307129105039060c0515f14612a065760ff8216918060020b60081d60010b5f5260066101405101602052610160515f205f1960018086011b01905416801593841594855f146129f25761012057817f07060605060205040602030205040301060502050303040105050304000000006f8421084210842108cc6318c6db6d54be60ff946001600160801b031060071b83811c67ffffffffffffffff1060061b1783811c63ffffffff1060051b1783811c61ffff1060041b1783811c861060031b1792831c1c601f161a1790031660020b900360020b0260020b5b905b15156101605160e051015260020b80602060e0510152620d89e71912156129e1575b620d89e8602060e051015160020b12156129d1575b6001600160a01b036121f8602060e051015160020b6141fd565b1680606060e051015260a051155f146129b8576001600160a01b0360606101e051015116905b6001600160a01b0360608b015116908160ff60c05116818310189118021860a051155f14612985576122736001600160801b036101406101e0510151166001600160801b036101206101e05101511690614184565b915b6101e05151926001600160a01b038216916001600160a01b038416831015915f86125f146128c4576101c051620f424003946122b386885f03614a50565b9684156128b3576122c5838584614999565b955b8689106128355750506001600160a01b0396508095620f42406101c051145f146128225750845b935b1561281457916122ff9261489f565b905b60c060e051015260a060e0510152608060e051015260a051155f14612804571660606101e05101525b88156127ae5760a060e05101515f8112611d26576101e05151036101e0515260206101e0510180519061236a608060e051015160c060e0510151906141a4565b5f8112611d26578203918213600116610bff57525b60a051612785576001600160a01b0360606101e0510151166001600160a01b03606060e051015116145b15612598576101605160e0510151612400575b60a0516123e25760c051602060e051015160020b0360020b60c06101e05101525b612071565b60c051602060e051015160020b0360020b60a06101e0510152612071565b602060e051015160020b60020b5f5260056101405101602052610160515f205460801d60c05161258e575b60a0516124d9576001600160801b0361244f6101206101e0510192828451166145aa565b168091525f6101406101e05101526001600160a01b0360806101e0510151166001600160a01b0360606101e05101511680911461248e575b50506123bc565b6124a991611229916001600160a01b0360e051511690614999565b6001600160801b03166001600160801b036124cf6101606101e051019282845116614184565b1690525f80612487565b6001600160801b036124f66101006101e0510192828451166145aa565b168091525f6101606101e05101526001600160a01b0360806101e0510151166001600160a01b0360606101e05101511614612532575b506123bc565b61122961255f916001600160a01b0360e05151166001600160a01b03610160516101e051015116906148c9565b6001600160801b03166001600160801b036125856101406101e051019282845116614184565b1690525f61252c565b5f03600f0b61242b565b60a051158061275f575b156126755760606101e051016125c16001600160a01b038251166145d2565b60020b60c06101e05101526001600160a01b0360806101e051015116906001600160a01b038151168092146125f8575b5050612071565b6001600160a01b03611229916126106126459461415c565b61261e8260e051511661415c565b51166001600160a01b0360e05151166001600160801b036101206101e05101511691614999565b6001600160801b03166001600160801b0361266b6101606101e051019282845116614184565b1690525f806125f1565b60a05180612737575b156123dd57610160516101e0510161269f6001600160a01b038251166145d2565b60020b60a06101e05101526001600160a01b0360806101e0510151166001600160a01b0360606101e051015116146126d8575b50612071565b611229612708916001600160a01b038060e05151169151166001600160801b036101006101e051015116916148c9565b6001600160801b03166001600160801b0361272e6101406101e051019282845116614184565b1690525f6126d2565b506001600160a01b03610160516101e0510151166001600160a01b0360e0515116141561267e565b506001600160a01b0360606101e0510151166001600160a01b0360e051511614156125a2565b6001600160a01b03610160516101e0510151166001600160a01b03606060e051015116146123a9565b608060e051015160c060e0510151015f8112611d26576101e05151016101e0515260206101e0510180519060a060e0510151915f8312611d26575f8382019384129112908015821691151617610bff575261237f565b16610160516101e051015261232a565b61281d92614923565b6122ff565b612830906101c05187614c0d565b6122ee565b929650945050156001600160801b03851615176128a6576001600160a01b0394821561289557612866908583614c9b565b935b8480828486156128865761287b92614999565b8095015f03936122f0565b91612890926148c9565b61287b565b6128a0908583614db4565b93612868565b634f2461b85f526004601cfd5b6128be8383866148c9565b956122c7565b909193845f14612974576128d982848361489f565b935b84871061292d57506001600160a01b03955080945b1561291e57916128ff92614999565b905b612919826101c051620f424003906101c05190614c0d565b612301565b612927926148c9565b90612901565b869450156001600160801b038316151790506128a6576001600160a01b039484156129645761295d908284614d19565b80946128f0565b61296f908284614c36565b61295d565b61297f828285614923565b936128db565b6129b26001600160801b036101006101e0510151166001600160801b036101606101e05101511690614184565b91612275565b6001600160a01b03610160516101e0510151169061221e565b620d89e8602060e05101526121de565b620d89e719602060e05101526121c9565b50905060020b900360020b0260020b6121a5565b90600101908160020b8260ff16928160081d60010b5f5260066101405101602052610160515f2090600160ff5f1992161b0119905416801593841594855f14612aea576101205781600160ff931901167e1f0d1e100c1d070f090b19131c1706010e11080a1a141802121b1503160405601f6101e07f804040554300526644320000502061067405302602000010750620017611707760fc7fb6db6db6ddddddddd34d34d349249249210842108c6318c639ce739cffffffff860260f81c161b60f71c1692831c63d76453e004161a17031660020b0160020b0260020b5b906121a7565b5060ff809250031660020b0160020b0260020b612ae4565b60a06101e051015160020b6120be565b6001600160a01b0380610160516101e0510151166120a3565b909192939597509593956101e051506101e0519360a0511560a05115613fc6575b61368a575b60a0511580613661575b612d78575b846101e05260a085015160a01b62ffffff60a01b1676ffffffffffffffffffffffffffffffffffffffffffffff196001600160a01b03610160518801511692161717610140515560c084015160a01b62ffffff60a01b1676ffffffffffffffffffffffffffffffffffffffffffffff196001600160a01b036060870151169216171760016101405101556001600160801b0361010084015116806001600160801b03831603612d4e575b50600361014051015460801c6001600160801b0361016085015116809103612d23575b506001600160801b0361012084015116809160801c03612cf8575b506001600160801b036003610140510154166001600160801b0361014084015116809103612cce575b5060a0511514612cad5780612c8c6020612c9c930151614118565b9261016051015190519003614118565b6001600160801b03169060801b1792565b906020612cc6612c9c9261016051015184519003614118565b920151614118565b6001600160801b03166001600160801b03196003610140510154161760036101405101555f612c71565b612d1d9060026101405101906001600160801b0382549181199060801b169116179055565b5f612c48565b612d489060036101405101906001600160801b0382549181199060801b169116179055565b5f612c2d565b6001600160801b03166001600160801b03196002610140510154161760026101405101555f612c0a565b919592909794969350612d89611ddd565b506020870151151561010052610160515161012052612daa6101205161157a565b5f61012051525f60206101205101525f610160516101205101525f60606101205101525f60806101205101525f60a06101205101525f60c0610120510152610140515460d01c62ffffff16955f610160518901511215985b6101e0515115801561363b575b8015613613575b6135fa576001600160a01b038060606101e05101511616610120515260c06101e051015160020b895160020b9060020b815f8183071291050390610100515f146134fe5760ff8216918060020b60081d60010b5f5260066101405101602052610160515f205f1960018086011b01905416801593841594855f146134ea5761012057817f07060605060205040602030205040301060502050303040105050304000000006f8421084210842108cc6318c6db6d54be60ff946001600160801b031060071b83811c67ffffffffffffffff1060061b1783811c63ffffffff1060051b1783811c61ffff1060041b1783811c861060031b1792831c1c601f161a1790031660020b900360020b0260020b5b905b15156101605161012051015260020b806020610120510152620d89e71912156134d8575b620d89e8602061012051015160020b12156134c7575b6001600160a01b03612f7c602061012051015160020b6141fd565b16806060610120510152886001600160a01b0360606101e051015116916001600160a01b0360608d015116908160ff61010051168183101891180218612fe56001600160801b036101406101e0510151166001600160801b036101206101e05101511690614184565b906101e05151936001600160a01b038116926001600160a01b038316841015925f87125f1461340c5785620f4240039061302182895f03614a50565b9785156133fb57613033848684614999565b965b878a106133895750506001600160a01b039750958691620f424082145f1461337a575050845b935b1561336c579161306c9261489f565b905b60c061012051015260a061012051015260806101205101521660606101e0510152895f146133135760a06101205101515f8112611d26576101e05151036101e0515260206101e051018051906130d3608061012051015160c0610120510151906141a4565b5f8112611d26578203918213600116610bff57525b6001600160a01b0360606101e0510151166001600160a01b03606061012051015116145f1461321f5761016051610120510151613140575b61010051602061012051015160020b0360020b60c06101e0510152612e02565b602061012051015160020b60020b5f5260056101405101602052610160515f205460801d61010051613215575b6001600160801b0361318a6101206101e0510192828451166145aa565b168091525f6101406101e05101526001600160a01b0360806101e0510151166001600160a01b0360606101e0510151168091146131c9575b5050613120565b6131e591611229916001600160a01b0361012051511690614999565b6001600160801b03166001600160801b0361320b6101606101e051019282845116614184565b1690525f806131c2565b5f03600f0b61316d565b6101e0516060015161012051516001600160a01b0390811691161461330e5760606101e051016132586001600160a01b038251166145d2565b60020b60c06101e05101526001600160a01b0360806101e051015116906001600160a01b0381511680921461328f575b5050612e02565b6001600160a01b03611229916132a76132de9461415c565b6132b68261012051511661415c565b51166001600160a01b036101205151166001600160801b036101206101e05101511691614999565b6001600160801b03166001600160801b036133046101606101e051019282845116614184565b1690525f80613288565b612e02565b608061012051015160c0610120510151015f8112611d26576101e05151016101e0515260206101e0510180519060a0610120510151915f8312611d26575f8382019384129112908015821691151617610bff57526130e8565b61337592614923565b61306c565b6133849187614c0d565b61305b565b93975095505050156001600160801b03851615176128a6576001600160a01b039482156133ea576133bb908583614c9b565b935b8480828486156133db576133d092614999565b8095015f039361305d565b916133e5926148c9565b6133d0565b6133f5908583614db4565b936133bd565b6134068483876148c9565b96613035565b929450909184156134b65761342282848361489f565b935b84871061346f57506001600160a01b03955080945b15613460579161344892614999565b905b61345b828d80620f42400391614c0d565b61306e565b613469926148c9565b9061344a565b869450156001600160801b038316151790506128a6576001600160a01b039484156134a65761349f908284614d19565b8094613439565b6134b1908284614c36565b61349f565b6134c1828285614923565b93613424565b620d89e86020610120510152612f61565b620d89e7196020610120510152612f4b565b50905060020b900360020b0260020b612f25565b90600101908160020b8260ff16928160081d60010b5f5260066101405101602052610160515f2090600160ff5f1992161b0119905416801593841594855f146135e2576101205781600160ff931901167e1f0d1e100c1d070f090b19131c1706010e11080a1a141802121b1503160405601f6101e07f804040554300526644320000502061067405302602000010750620017611707760fc7fb6db6db6ddddddddd34d34d349249249210842108c6318c639ce739cffffffff860260f81c161b60f71c1692831c63d76453e004161a17031660020b0160020b0260020b5b90612f27565b5060ff809250031660020b0160020b0260020b6135dc565b919396509193969497506101e051506101e05193612b60565b506001600160a01b03610160516101e0510151166001600160a01b0360608b01511614612e16565b506001600160a01b0360606101e0510151166001600160a01b0360608b01511614612e0f565b506001600160a01b0360806101e0510151166001600160a01b0360606101e05101511611612b5b565b92919096949795935061369b611ddd565b50602088015115156101805261016051516101a0526136bc6101a05161157a565b5f6101a051525f60206101a05101525f610160516101a05101525f60606101a05101525f60806101a05101525f60a06101a05101525f60c06101a0510152610140515460d01c62ffffff16965f610160518a015112156080525b6101e05151158015613fa0575b8015613f78575b613f60576001600160a01b0380610160516101e051015116166101a0515260a06101e051015160020b895160020b9060020b90610180515f14613e53575f818307811382840503600281900b60081d600190810b835261014051600601602052610160519092205460ff90911682019190911b5f1901168015801593919080613e2f5761012057807f07060605060205040602030205040301060502050303040105050304000000006f8421084210842108cc6318c6db6d54be60ff936001600160801b031060071b83811c67ffffffffffffffff1060061b1783811c63ffffffff1060051b1783811c61ffff1060041b1783811c851060031b1792831c1c601f161a17815f858507128585050316031660020b90825f818307129105030360020b0260020b5b905b1515610160516101a051015260020b8060206101a0510152620d89e7191215613e1d575b620d89e860206101a051015160020b1215613e0c575b6001600160a01b036138a860206101a051015160020b6141fd565b168060606101a05101526001600160a01b03610160516101e051015116906001600160a01b0360608c015116908160ff610180511681831018911802186139126001600160801b036101006101e0510151166001600160801b036101606101e05101511690614184565b906101e05151906001600160a01b038416935f83125f14613d37578c620f424003938d61394186865f03614a50565b6001600160a01b0385168810613d265761395c838587614999565b955b868210613ca95750506001600160a01b039684968792620f424081145f14613c9857505087865b955b1611613c8a57916139979261489f565b905b60c06101a051015260a06101a051015260806101a051015216610160516101e05101526080515f14613c315760a06101a05101515f8112611d26576101e05151036101e0515260206101e05101805190613a0260806101a051015160c06101a0510151906141a4565b5f8112611d26578203918213600116610bff57525b6001600160a01b03610160516101e0510151166001600160a01b0360606101a051015116145f14613b5e57610160516101a0510151613a71575b6101805160206101a051015160020b0360020b60a06101e0510152613716565b60206101a051015160020b60020b5f5260056101405101602052610160515f205460801d61018051613b54575b6001600160801b03613abb6101006101e0510192828451166145aa565b168091525f6101606101e05101526001600160a01b0360806101e0510151166001600160a01b0360606101e05101511614613af7575b50613a51565b611229613b25916001600160a01b036101a05151166001600160a01b03610160516101e051015116906148c9565b6001600160801b03166001600160801b03613b4b6101406101e051019282845116614184565b1690525f613af1565b5f03600f0b613a9e565b610160516101e051016001600160a01b038151166001600160a01b036101a051511603613b8c575b50613716565b613b9f6001600160a01b038251166145d2565b60020b60a06101e05101526001600160a01b0360806101e0510151166001600160a01b0360606101e05101511603613b8657611229613c02916001600160a01b03806101a05151169151166001600160801b036101006101e051015116916148c9565b6001600160801b03166001600160801b03613c286101406101e051019282845116614184565b1690525f613b86565b60806101a051015160c06101a0510151015f8112611d26576101e05151016101e0515260206101e0510180519060a06101a0510151915f8312611d26575f8382019384129112908015821691151617610bff5752613a17565b613c9392614923565b613997565b8991613ca49189614c0d565b613985565b95509550506001600160801b038116158615176128a6576001600160a01b039586958487168210613d1557613cdf908385614c9b565b905b90958691908284868884168510613d0657613cfb92614999565b8097015f0395613987565b91613d10926148c9565b613cfb565b613d20908385614db4565b90613ce1565b613d318386866148c9565b9561395e565b939192916001600160a01b0382168110613dfb57613d5683868461489f565b935b848110613da957506001600160a01b039491939290849086825b1611613d9a5791613d8292614999565b905b613d95828d80620f42400391614c0d565b613999565b613da3926148c9565b90613d84565b8094509491929094926001600160801b038216158615176128a6576001600160a01b039586958287168210613deb57613de3908486614d19565b958692613d72565b613df6908486614c36565b613de3565b613e06838387614923565b93613d58565b620d89e860206101a051015261388d565b620d89e71960206101a0510152613877565b50505f82820712908290050360ff8116600290810b909103810b909102900b613851565b9080825f81600194071291050301908160020b60081d60010b5f5260066101405101602052610160515f205f19600160ff85161b011990541691821592831593845f14613f42576101205780600160ff921901166101e07f804040554300526644320000502061067405302602000010750620017611707760fc7fb6db6db6ddddddddd34d34d349249249210842108c6318c639ce739cffffffff840260f81c161b60f71c167e1f0d1e100c1d070f090b19131c1706010e11080a1a141802121b1503160405601f85851693831c63d76453e004161a17031660020b9060020b0160020b0260020b5b90613853565b505060ff81811681031660020b9060020b0160020b0260020b613f3c565b9091929395979496506101e051506101e05193612b51565b506001600160a01b03610160516101e0510151166001600160a01b0360608b0151161461372a565b506001600160a01b0360606101e0510151166001600160a01b0360608b01511614613723565b506001600160a01b0360806101e0510151166001600160a01b0360606101e05101511611612b4c565b506001600160a01b03610160516101e0510151166001600160a01b0360608a01511614612085565b506001600160a01b0360606101e0510151166001600160a01b0360608a0151161461207e565b639e4d7cc760e01b5f5260045260245ffd5b89604491610160515191637c9c6e8f60e01b83526001600160a01b031660048301526024820152fd5b606087016001600160a01b03815116846001600160a01b03168111156140c55750516001600160a01b031673fffd8963efd1fc6a506488495d951d5263988d2681101561403d5750611fee565b84604491610160515191637c9c6e8f60e01b83526001600160a01b031660048301526024820152fd5b505f9650869550919392505050565b634b10312360e11b5f5260045ffd5b50620f42408414611f9d565b9081600f0b918203611d2657565b62ffffff811662800000811461415657620f42408111614144575090565b631400211360e01b5f5260045260245ffd5b50505f90565b5f80916040519063f5b1bba960e01b60208301526024820152602481526118fc604482611596565b906001600160801b03809116911601906001600160801b038211610bff57565b91908201809211610bff57565b919060020b9060020b908181076141df5705908160081d5f52602052600160ff60405f2092161b8154189055565b601c906044926040519163d4d8f3e683526020830152604082015201fd5b60020b908160ff1d82810118620d89e881116145175763ffffffff9192600182167001fffcb933bd6fad37aa2d162d1a59400102600160801b1891600281166144fb575b600481166144df575b600881166144c3575b601081166144a7575b6020811661448b575b6040811661446f575b60808116614453575b6101008116614437575b610200811661441b575b61040081166143ff575b61080081166143e3575b61100081166143c7575b61200081166143ab575b614000811661438f575b6180008116614373575b620100008116614357575b62020000811661433c575b620400008116614321575b6208000016614308575b5f12614300575b0160201c90565b5f19046142f9565b6b048a170391f7dc42444e8fa290910260801c906142f2565b6d2216e584f5fa1ea926041bedfe9890920260801c916142e8565b916e5d6af8dedb81196699c329225ee6040260801c916142dd565b916f09aa508b5b7a84e1c677de54f3e99bc90260801c916142d2565b916f31be135f97d08fd981231505542fcfa60260801c916142c7565b916f70d869a156d2a1b890bb3df62baf32f70260801c916142bd565b916fa9f746462d870fdf8a65dc1f90e061e50260801c916142b3565b916fd097f3bdfd2022b8845ad8f792aa58250260801c916142a9565b916fe7159475a2c29b7443b29c7fa6e889d90260801c9161429f565b916ff3392b0822b70005940c7a398e4b70f30260801c91614295565b916ff987a7253ac413176f2b074cf7815e540260801c9161428b565b916ffcbe86c7900a88aedcffc83b479aa3a40260801c91614281565b916ffe5dee046a99a2a811c461f1969c30530260801c91614277565b916fff2ea16466c96a3843ec78b326b528610260801c9161426e565b916fff973b41fa98c081472e6896dfb254c00260801c91614265565b916fffcb9843d60f6159c9db58835c9266440260801c9161425c565b916fffe5caca7e10e4e61c3624eaa0941cd00260801c91614253565b916ffff2e50f5f656932ef12357cf3c7fdcc0260801c9161424a565b916ffff97272373d413259a46990580e213a0260801c91614241565b826345c3193d60e11b5f5260045260245ffd5b905f83600f0b125f146145565761454c925f036001600160801b03169161489f565b5f8112611d265790565b614569926001600160801b0316916148c9565b5f8112611d26575f0390565b905f83600f0b125f146145975761454c925f036001600160801b031691614923565b614569926001600160801b031691614999565b906001600160801b0390600f0b911601908160801c6145c557565b6393dafdf15f526004601cfd5b73fffd8963efd1fc6a506488495d951d51639616826401000276a21982016001600160a01b0316116148835777ffffffffffffffffffffffffffffffffffffffff000000008160201b16806001600160801b03811160071b90811c67ffffffffffffffff811160061b90811c63ffffffff811160051b90811c61ffff811160041b90811c9060ff821160031b91821c92600f841160021b93841c94600160038711811b96871c1196171717171717179060808210155f1461487957607e1982011c5b800280607f1c8160ff1c1c800280607f1c8160ff1c1c800280607f1c8160ff1c1c800280607f1c8160ff1c1c800280607f1c8160ff1c1c800280607f1c8160ff1c1c80029081607f1c8260ff1c1c80029283607f1c8460ff1c1c80029485607f1c8660ff1c1c80029687607f1c8860ff1c1c80029889607f1c8a60ff1c1c80029a8b607f1c8c60ff1c1c80029c8d80607f1c9060ff1c1c800260cd1c6604000000000000169d60cc1c6608000000000000169c60cb1c6610000000000000169b60ca1c6620000000000000169a60c91c6640000000000000169960c81c6680000000000000169860c71c670100000000000000169760c61c670200000000000000169660c51c670400000000000000169560c41c670800000000000000169460c31c671000000000000000169360c21c672000000000000000169260c11c674000000000000000169160c01c6780000000000000001690607f190160401b1717171717171717171717171717693627a301d71055774c85026f028f6481ab7f045a5af012a19d003aa919810160801d60020b906fdb2df09e81959a81455e260799a0632f0160801d60020b918282145f14614850575090505b90565b6001600160a01b03166001600160a01b0361486a846141fd565b1611614874575090565b905090565b81607f031b614694565b6001600160a01b03906318521d4960e21b5f521660045260245ffd5b6001600160801b03906001600160a01b038061484d9594169116038060ff1d908101189116614abc565b6001600160801b03600160601b916001600160a01b0380600195169116038060ff1d908101189316926148fc8185614abc565b93091515160190565b811561490f570490565b634e487b7160e01b5f52601260045260245ffd5b6001600160a01b0382166001600160a01b03821611614993575b6001600160a01b0381169182156149875761484d936fffffffffffffffffffffffffffffffff60601b6001600160a01b03614982948185169403169160601b16614b8d565b614905565b62bfc9215f526004601cfd5b9061493d565b906001600160a01b0381166001600160a01b03831611614a01575b6001600160a01b038216928315614987576fffffffffffffffffffffffffffffffff60601b6001600160a01b036149f5948185169403169160601b16614c0d565b90808206151591040190565b906149b4565b81810291905f1982820991838084109303928084039384600160801b11156101205714614a4757600160801b910990828211900360801b910360801c1790565b50505060801c90565b808202905f1983820990828083109203918083039283620f424011156101205714614ab0577fde8f6cefed634549b62c77574f722e1ac57e23f24d8fd5cb790fb65668c2613993620f4240910990828211900360fa1b910360061c170290565b5050620f424091500490565b81810291905f1982820991838084109303928084039384600160601b11156101205714614afc57600160601b910990828211900360a01b910360601c1790565b50505060601c90565b908160601b905f19600160601b8409928280851094039380850394858411156101205714614b8657600160601b82910981805f03168092046002816003021880820260020302808202600203028082026002030280820260020302808202600203028091026002030293600183805f03040190848311900302920304170290565b5091500490565b91818302915f19818509938380861095039480860395868511156101205714614c05579082910981805f03168092046002816003021880820260020302808202600203028082026002030280820260020302808202600203028091026002030293600183805f03040190848311900302920304170290565b505091500490565b929190614c1b828286614b8d565b93821561490f5709614c2957565b9060010190811561012057565b91908115614c96576fffffffffffffffffffffffffffffffff60601b6001600160a01b039160601b169216918282029183838311918404141615614c895761484d92614c8492820391614c0d565b614e03565b63f5c787f15f526004601cfd5b505090565b90918015614d13576001600160a01b036fffffffffffffffffffffffffffffffff60601b819460601b16921680820281614cd58483614905565b14614cfb575b5090614cea614cef9284614905565b6141a4565b80820615159104011690565b8301838110614cdb579150614d0f92614c0d565b1690565b50905090565b91906001600160a01b038211614d6e576001600160801b036001600160a01b039260601b91168082061515910401915b169080821115614d61576001600160a01b0391031690565b634323a5555f526004601cfd5b6001600160801b0316614d8681600160601b84614b8d565b91811561490f57600160601b9009614da8575b6001600160a01b039091614d49565b60010180614d99575f80fd5b61484d92614c84926001600160a01b0391828111614dea576001600160801b03614de292169060601b614905565b915b166141a4565b6001600160801b03614dfd921690614b05565b91614de4565b906001600160a01b038216918203611d265756fea2646970667358221220a89016beef5ee626f64da60da22e1def342dd73568a511b67481b7d596c7d87764736f6c634300081a0033","linkReferences":{}},"methodIdentifiers":{"addLiquidity((address,address,uint24,int24,address),(int24,int24,int256,bytes32),bytes)":"5a874382","afterAddLiquidity(address,(address,address,uint24,int24,address),(int24,int24,int256,bytes32),int256,bytes)":"5a2a8100","afterDonate(address,(address,address,uint24,int24,address),uint256,uint256,bytes)":"e1b4af69","afterInitialize(address,(address,address,uint24,int24,address),uint160,int24,bytes)":"a910f80f","afterRemoveLiquidity(address,(address,address,uint24,int24,address),(int24,int24,int256,bytes32),int256,bytes)":"8db2b652","afterSwap(address,(address,address,uint24,int24,address),(bool,int256,uint160),int256,bytes)":"b47b2fb1","beforeAddLiquidity(address,(address,address,uint24,int24,address),(int24,int24,int256,bytes32),bytes)":"259982e5","beforeDonate(address,(address,address,uint24,int24,address),uint256,uint256,bytes)":"b6a8b0fa","beforeInitialize(address,(address,address,uint24,int24,address),uint160,bytes)":"3440d820","beforeRemoveLiquidity(address,(address,address,uint24,int24,address),(int24,int24,int256,bytes32),bytes)":"21d0ee70","beforeSwap(address,(address,address,uint24,int24,address),(bool,int256,uint160),bytes)":"575e24b4","checkSlotChanged()":"214ec826","getHookPermissions()":"c4e833ce","getSrPoolLiquidity((address,address,uint24,int24,address))":"6ffcac35","getSrPoolSlot0((address,address,uint24,int24,address))":"78b9c6ca","poolManager()":"dc4c90d3","unlockCallback(bytes)":"91dd7346"},"id":115}