{"abi":[{"type":"constructor","inputs":[{"name":"_manager","type":"address","internalType":"contract IPoolManager"}],"stateMutability":"nonpayable"},{"type":"function","name":"deposit","inputs":[{"name":"currency","type":"address","internalType":"Currency"},{"name":"user","type":"address","internalType":"address"},{"name":"amount","type":"uint256","internalType":"uint256"}],"outputs":[],"stateMutability":"payable"},{"type":"function","name":"manager","inputs":[],"outputs":[{"name":"","type":"address","internalType":"contract IPoolManager"}],"stateMutability":"view"},{"type":"function","name":"unlockCallback","inputs":[{"name":"rawData","type":"bytes","internalType":"bytes"}],"outputs":[{"name":"","type":"bytes","internalType":"bytes"}],"stateMutability":"nonpayable"},{"type":"function","name":"withdraw","inputs":[{"name":"currency","type":"address","internalType":"Currency"},{"name":"user","type":"address","internalType":"address"},{"name":"amount","type":"uint256","internalType":"uint256"}],"outputs":[],"stateMutability":"payable"}],"bytecode":{"object":"0x60a034607b57601f61097738819003918201601f19168301916001600160401b03831184841017607f57808492602094604052833981010312607b57516001600160a01b0381168103607b576080526040516108e390816100948239608051818181610121015281816101d5015281816106c501526107250152f35b5f80fd5b634e487b7160e01b5f52604160045260245ffdfe6080806040526004361015610012575f80fd5b5f905f3560e01c908163481c6a7514610708575080638340f5491461061557806391dd73461461017b5763d9caed121461004a575f80fd5b610114816100ec6100fa6001600160a01b036100653661075d565b918360409492945194610077866107c1565b33865216602085015216604083015260608201528360808201526040519283916020830191909160808060a08301946001600160a01b0381511684526001600160a01b0360208201511660208501526001600160a01b0360408201511660408501526060810151606085015201511515910152565b03601f1981018352826107f1565b604051809381926348c8949160e01b835260048301610797565b0381836001600160a01b037f0000000000000000000000000000000000000000000000000000000000000000165af1801561017057610151575080f35b61016c903d8084833e61016481836107f1565b810190610813565b5080f35b6040513d84823e3d90fd5b5034610611576020366003190112610611576004359067ffffffffffffffff8211610611573660238301121561061157816004013567ffffffffffffffff8111610611578201366024820111610611576001600160a01b037f000000000000000000000000000000000000000000000000000000000000000016908133036106115760a0908490031261061157604051610214816107c1565b61022060248501610749565b815261022e60448501610749565b90602081019180835261024360648701610749565b90604083019282845260848801359060a46060820199838b52013580151591828203610611576080015215610529575050506001600160a01b038151166001600160a01b0383511690865191853b1561052557604051630ab714fb60e11b81526001600160a01b0391909116600482015260248101919091526044810191909152848160648183885af1801561051a57908591610501575b50506001600160a01b038091511691511693519381155f14610387575050602090600460405180958193630476982d60e21b83525af191821561037a576103479261034b575b505b6040519060208201526020815261033b6040826107f1565b60405191829182610797565b0390f35b61036c9060203d602011610373575b61036481836107f1565b81019061089e565b505f610321565b503d61035a565b50604051903d90823e3d90fd5b9383948392933b156104f257604051632961046560e21b815260048101859052858160248183885af19081156104f65786916104dd575b50308214610484576020929160649160405196879485936323b872dd60e01b8552600485015287602485015260448401525af19182156104795760209261044c575b505b600460405180958193630476982d60e21b83525af191821561037a576103479261042d575b50610323565b6104459060203d6020116103735761036481836107f1565b505f610427565b61046b90833d8511610472575b61046381836107f1565b810190610886565b505f610400565b503d610459565b6040513d85823e3d90fd5b9390506044602092604051958693849263a9059cbb60e01b845287600485015260248401525af1918215610479576020926104c0575b50610402565b6104d690833d85116104725761046381836107f1565b505f6104ba565b816104e7916107f1565b6104f257845f6103be565b8480fd5b6040513d88823e3d90fd5b8161050b916107f1565b61051657835f6102db565b8380fd5b6040513d87823e3d90fd5b8680fd5b85939794953b1561061157604051637a94c56560e11b81526001600160a01b03928316600482015292909116602483015260448201525f8160648183865af18015610606576105e5575b506001600160a01b038085969594955116945116915193813b1561051657836064926040519687958694630b0d9c0960e01b86526004860152602485015260448401525af18015610170576105cd575b5061034790610323565b6105d88280926107f1565b6105e2575f6105c3565b80fd5b6001600160a01b03959394505f6105fb916107f1565b845f94939550610573565b6040513d5f823e3d90fd5b5f80fd5b6106b85f6100ec6100fa6001600160a01b036106303661075d565b918360409492945194610642866107c1565b3386521660208501521660408301526060820152600160808201526040519283916020830191909160808060a08301946001600160a01b0381511684526001600160a01b0360208201511660208501526001600160a01b0360408201511660408501526060810151606085015201511515910152565b0381836001600160a01b037f0000000000000000000000000000000000000000000000000000000000000000165af18015610606576106f357005b610706903d805f833e61016481836107f1565b005b34610611575f366003190112610611576020906001600160a01b037f0000000000000000000000000000000000000000000000000000000000000000168152f35b35906001600160a01b038216820361061157565b6060906003190112610611576004356001600160a01b038116810361061157906024356001600160a01b0381168103610611579060443590565b602060409281835280519182918282860152018484015e5f828201840152601f01601f1916010190565b60a0810190811067ffffffffffffffff8211176107dd57604052565b634e487b7160e01b5f52604160045260245ffd5b90601f8019910116810190811067ffffffffffffffff8211176107dd57604052565b6020818303126106115780519067ffffffffffffffff8211610611570181601f820112156106115780519067ffffffffffffffff82116107dd5760405192610865601f8401601f1916602001856107f1565b8284526020838301011161061157815f9260208093018386015e8301015290565b90816020910312610611575180151581036106115790565b9081602091031261061157519056fea26469706673582212200795099e4f471f3c4888d15a98492b2fa50e685d72aeee9ced76f78544a752ae64736f6c634300081a0033","linkReferences":{}},"methodIdentifiers":{"deposit(address,address,uint256)":"8340f549","manager()":"481c6a75","unlockCallback(bytes)":"91dd7346","withdraw(address,address,uint256)":"d9caed12"},"id":85}