{"abi":[{"type":"constructor","inputs":[{"name":"_manager","type":"address","internalType":"contract IPoolManager"}],"stateMutability":"nonpayable"},{"type":"function","name":"manager","inputs":[],"outputs":[{"name":"","type":"address","internalType":"contract IPoolManager"}],"stateMutability":"view"},{"type":"function","name":"settle","inputs":[],"outputs":[],"stateMutability":"payable"},{"type":"function","name":"unlockCallback","inputs":[{"name":"","type":"bytes","internalType":"bytes"}],"outputs":[{"name":"","type":"bytes","internalType":"bytes"}],"stateMutability":"nonpayable"}],"bytecode":{"object":"0x60a0604052348015600e575f80fd5b50604051610474380380610474833981016040819052602b91603b565b6001600160a01b03166080526066565b5f60208284031215604a575f80fd5b81516001600160a01b0381168114605f575f80fd5b9392505050565b6080516103e36100915f395f818160520152818160d90152818161015d015261018801526103e35ff3fe608060405260043610610033575f3560e01c806311da60b414610037578063481c6a751461004157806391dd734614610091575b5f80fd5b61003f6100bd565b005b34801561004c575f80fd5b506100747f000000000000000000000000000000000000000000000000000000000000000081565b6040516001600160a01b0390911681526020015b60405180910390f35b34801561009c575f80fd5b506100b06100ab36600461022c565b610150565b604051610088919061029a565b6040516348c8949160e01b8152602060048201525f60248201527f00000000000000000000000000000000000000000000000000000000000000006001600160a01b0316906348c89491906044015f604051808303815f875af1158015610126573d5f803e3d5ffd5b505050506040513d5f823e601f3d908101601f1916820160405261014d91908101906102e3565b50565b6060336001600160a01b037f00000000000000000000000000000000000000000000000000000000000000001614610186575f80fd5b7f00000000000000000000000000000000000000000000000000000000000000006001600160a01b03166311da60b4476040518263ffffffff1660e01b815260040160206040518083038185885af11580156101e4573d5f803e3d5ffd5b50505050506040513d601f19601f820116820180604052508101906102099190610396565b50604080515f602082015201604051602081830303815290604052905092915050565b5f806020838503121561023d575f80fd5b823567ffffffffffffffff811115610253575f80fd5b8301601f81018513610263575f80fd5b803567ffffffffffffffff811115610279575f80fd5b85602082840101111561028a575f80fd5b6020919091019590945092505050565b602081525f82518060208401528060208501604085015e5f604082850101526040601f19601f83011684010191505092915050565b634e487b7160e01b5f52604160045260245ffd5b5f602082840312156102f3575f80fd5b815167ffffffffffffffff811115610309575f80fd5b8201601f81018413610319575f80fd5b805167ffffffffffffffff811115610333576103336102cf565b604051601f8201601f19908116603f0116810167ffffffffffffffff81118282101715610362576103626102cf565b604052818152828201602001861015610379575f80fd5b8160208401602083015e5f91810160200191909152949350505050565b5f602082840312156103a6575f80fd5b505191905056fea26469706673582212205b7e396200b3a271b6beeb0ac20b45af63986bd5e89660bfaadb81efdcc635e364736f6c634300081a0033","linkReferences":{}},"methodIdentifiers":{"manager()":"481c6a75","settle()":"11da60b4","unlockCallback(bytes)":"91dd7346"},"id":75}