{"abi":[{"type":"constructor","inputs":[{"name":"_manager","type":"address","internalType":"contract IPoolManager"},{"name":"_name","type":"string","internalType":"string"},{"name":"_symbol","type":"string","internalType":"string"}],"stateMutability":"nonpayable"},{"type":"function","name":"DOMAIN_SEPARATOR","inputs":[],"outputs":[{"name":"","type":"bytes32","internalType":"bytes32"}],"stateMutability":"view"},{"type":"function","name":"REFERRAL_POINTS","inputs":[],"outputs":[{"name":"","type":"uint256","internalType":"uint256"}],"stateMutability":"view"},{"type":"function","name":"afterAddLiquidity","inputs":[{"name":"","type":"address","internalType":"address"},{"name":"key","type":"tuple","internalType":"struct PoolKey","components":[{"name":"currency0","type":"address","internalType":"Currency"},{"name":"currency1","type":"address","internalType":"Currency"},{"name":"fee","type":"uint24","internalType":"uint24"},{"name":"tickSpacing","type":"int24","internalType":"int24"},{"name":"hooks","type":"address","internalType":"contract IHooks"}]},{"name":"","type":"tuple","internalType":"struct IPoolManager.ModifyLiquidityParams","components":[{"name":"tickLower","type":"int24","internalType":"int24"},{"name":"tickUpper","type":"int24","internalType":"int24"},{"name":"liquidityDelta","type":"int256","internalType":"int256"},{"name":"salt","type":"bytes32","internalType":"bytes32"}]},{"name":"delta","type":"int256","internalType":"BalanceDelta"},{"name":"hookData","type":"bytes","internalType":"bytes"}],"outputs":[{"name":"","type":"bytes4","internalType":"bytes4"},{"name":"","type":"int256","internalType":"BalanceDelta"}],"stateMutability":"nonpayable"},{"type":"function","name":"afterDonate","inputs":[{"name":"","type":"address","internalType":"address"},{"name":"","type":"tuple","internalType":"struct PoolKey","components":[{"name":"currency0","type":"address","internalType":"Currency"},{"name":"currency1","type":"address","internalType":"Currency"},{"name":"fee","type":"uint24","internalType":"uint24"},{"name":"tickSpacing","type":"int24","internalType":"int24"},{"name":"hooks","type":"address","internalType":"contract IHooks"}]},{"name":"","type":"uint256","internalType":"uint256"},{"name":"","type":"uint256","internalType":"uint256"},{"name":"","type":"bytes","internalType":"bytes"}],"outputs":[{"name":"","type":"bytes4","internalType":"bytes4"}],"stateMutability":"nonpayable"},{"type":"function","name":"afterInitialize","inputs":[{"name":"","type":"address","internalType":"address"},{"name":"","type":"tuple","internalType":"struct PoolKey","components":[{"name":"currency0","type":"address","internalType":"Currency"},{"name":"currency1","type":"address","internalType":"Currency"},{"name":"fee","type":"uint24","internalType":"uint24"},{"name":"tickSpacing","type":"int24","internalType":"int24"},{"name":"hooks","type":"address","internalType":"contract IHooks"}]},{"name":"","type":"uint160","internalType":"uint160"},{"name":"","type":"int24","internalType":"int24"},{"name":"","type":"bytes","internalType":"bytes"}],"outputs":[{"name":"","type":"bytes4","internalType":"bytes4"}],"stateMutability":"nonpayable"},{"type":"function","name":"afterRemoveLiquidity","inputs":[{"name":"","type":"address","internalType":"address"},{"name":"","type":"tuple","internalType":"struct PoolKey","components":[{"name":"currency0","type":"address","internalType":"Currency"},{"name":"currency1","type":"address","internalType":"Currency"},{"name":"fee","type":"uint24","internalType":"uint24"},{"name":"tickSpacing","type":"int24","internalType":"int24"},{"name":"hooks","type":"address","internalType":"contract IHooks"}]},{"name":"","type":"tuple","internalType":"struct IPoolManager.ModifyLiquidityParams","components":[{"name":"tickLower","type":"int24","internalType":"int24"},{"name":"tickUpper","type":"int24","internalType":"int24"},{"name":"liquidityDelta","type":"int256","internalType":"int256"},{"name":"salt","type":"bytes32","internalType":"bytes32"}]},{"name":"","type":"int256","internalType":"BalanceDelta"},{"name":"","type":"bytes","internalType":"bytes"}],"outputs":[{"name":"","type":"bytes4","internalType":"bytes4"},{"name":"","type":"int256","internalType":"BalanceDelta"}],"stateMutability":"nonpayable"},{"type":"function","name":"afterSwap","inputs":[{"name":"","type":"address","internalType":"address"},{"name":"key","type":"tuple","internalType":"struct PoolKey","components":[{"name":"currency0","type":"address","internalType":"Currency"},{"name":"currency1","type":"address","internalType":"Currency"},{"name":"fee","type":"uint24","internalType":"uint24"},{"name":"tickSpacing","type":"int24","internalType":"int24"},{"name":"hooks","type":"address","internalType":"contract IHooks"}]},{"name":"swapParams","type":"tuple","internalType":"struct IPoolManager.SwapParams","components":[{"name":"zeroForOne","type":"bool","internalType":"bool"},{"name":"amountSpecified","type":"int256","internalType":"int256"},{"name":"sqrtPriceLimitX96","type":"uint160","internalType":"uint160"}]},{"name":"delta","type":"int256","internalType":"BalanceDelta"},{"name":"hookData","type":"bytes","internalType":"bytes"}],"outputs":[{"name":"","type":"bytes4","internalType":"bytes4"},{"name":"","type":"int128","internalType":"int128"}],"stateMutability":"nonpayable"},{"type":"function","name":"allowance","inputs":[{"name":"","type":"address","internalType":"address"},{"name":"","type":"address","internalType":"address"}],"outputs":[{"name":"","type":"uint256","internalType":"uint256"}],"stateMutability":"view"},{"type":"function","name":"approve","inputs":[{"name":"spender","type":"address","internalType":"address"},{"name":"amount","type":"uint256","internalType":"uint256"}],"outputs":[{"name":"","type":"bool","internalType":"bool"}],"stateMutability":"nonpayable"},{"type":"function","name":"balanceOf","inputs":[{"name":"","type":"address","internalType":"address"}],"outputs":[{"name":"","type":"uint256","internalType":"uint256"}],"stateMutability":"view"},{"type":"function","name":"beforeAddLiquidity","inputs":[{"name":"","type":"address","internalType":"address"},{"name":"","type":"tuple","internalType":"struct PoolKey","components":[{"name":"currency0","type":"address","internalType":"Currency"},{"name":"currency1","type":"address","internalType":"Currency"},{"name":"fee","type":"uint24","internalType":"uint24"},{"name":"tickSpacing","type":"int24","internalType":"int24"},{"name":"hooks","type":"address","internalType":"contract IHooks"}]},{"name":"","type":"tuple","internalType":"struct IPoolManager.ModifyLiquidityParams","components":[{"name":"tickLower","type":"int24","internalType":"int24"},{"name":"tickUpper","type":"int24","internalType":"int24"},{"name":"liquidityDelta","type":"int256","internalType":"int256"},{"name":"salt","type":"bytes32","internalType":"bytes32"}]},{"name":"","type":"bytes","internalType":"bytes"}],"outputs":[{"name":"","type":"bytes4","internalType":"bytes4"}],"stateMutability":"nonpayable"},{"type":"function","name":"beforeDonate","inputs":[{"name":"","type":"address","internalType":"address"},{"name":"","type":"tuple","internalType":"struct PoolKey","components":[{"name":"currency0","type":"address","internalType":"Currency"},{"name":"currency1","type":"address","internalType":"Currency"},{"name":"fee","type":"uint24","internalType":"uint24"},{"name":"tickSpacing","type":"int24","internalType":"int24"},{"name":"hooks","type":"address","internalType":"contract IHooks"}]},{"name":"","type":"uint256","internalType":"uint256"},{"name":"","type":"uint256","internalType":"uint256"},{"name":"","type":"bytes","internalType":"bytes"}],"outputs":[{"name":"","type":"bytes4","internalType":"bytes4"}],"stateMutability":"nonpayable"},{"type":"function","name":"beforeInitialize","inputs":[{"name":"","type":"address","internalType":"address"},{"name":"","type":"tuple","internalType":"struct PoolKey","components":[{"name":"currency0","type":"address","internalType":"Currency"},{"name":"currency1","type":"address","internalType":"Currency"},{"name":"fee","type":"uint24","internalType":"uint24"},{"name":"tickSpacing","type":"int24","internalType":"int24"},{"name":"hooks","type":"address","internalType":"contract IHooks"}]},{"name":"","type":"uint160","internalType":"uint160"},{"name":"","type":"bytes","internalType":"bytes"}],"outputs":[{"name":"","type":"bytes4","internalType":"bytes4"}],"stateMutability":"nonpayable"},{"type":"function","name":"beforeRemoveLiquidity","inputs":[{"name":"","type":"address","internalType":"address"},{"name":"","type":"tuple","internalType":"struct PoolKey","components":[{"name":"currency0","type":"address","internalType":"Currency"},{"name":"currency1","type":"address","internalType":"Currency"},{"name":"fee","type":"uint24","internalType":"uint24"},{"name":"tickSpacing","type":"int24","internalType":"int24"},{"name":"hooks","type":"address","internalType":"contract IHooks"}]},{"name":"","type":"tuple","internalType":"struct IPoolManager.ModifyLiquidityParams","components":[{"name":"tickLower","type":"int24","internalType":"int24"},{"name":"tickUpper","type":"int24","internalType":"int24"},{"name":"liquidityDelta","type":"int256","internalType":"int256"},{"name":"salt","type":"bytes32","internalType":"bytes32"}]},{"name":"","type":"bytes","internalType":"bytes"}],"outputs":[{"name":"","type":"bytes4","internalType":"bytes4"}],"stateMutability":"nonpayable"},{"type":"function","name":"beforeSwap","inputs":[{"name":"","type":"address","internalType":"address"},{"name":"","type":"tuple","internalType":"struct PoolKey","components":[{"name":"currency0","type":"address","internalType":"Currency"},{"name":"currency1","type":"address","internalType":"Currency"},{"name":"fee","type":"uint24","internalType":"uint24"},{"name":"tickSpacing","type":"int24","internalType":"int24"},{"name":"hooks","type":"address","internalType":"contract IHooks"}]},{"name":"","type":"tuple","internalType":"struct IPoolManager.SwapParams","components":[{"name":"zeroForOne","type":"bool","internalType":"bool"},{"name":"amountSpecified","type":"int256","internalType":"int256"},{"name":"sqrtPriceLimitX96","type":"uint160","internalType":"uint160"}]},{"name":"","type":"bytes","internalType":"bytes"}],"outputs":[{"name":"","type":"bytes4","internalType":"bytes4"},{"name":"","type":"int256","internalType":"BeforeSwapDelta"},{"name":"","type":"uint24","internalType":"uint24"}],"stateMutability":"nonpayable"},{"type":"function","name":"decimals","inputs":[],"outputs":[{"name":"","type":"uint8","internalType":"uint8"}],"stateMutability":"view"},{"type":"function","name":"getHookData","inputs":[{"name":"referrer","type":"address","internalType":"address"},{"name":"referree","type":"address","internalType":"address"}],"outputs":[{"name":"","type":"bytes","internalType":"bytes"}],"stateMutability":"pure"},{"type":"function","name":"getHookPermissions","inputs":[],"outputs":[{"name":"","type":"tuple","internalType":"struct Hooks.Permissions","components":[{"name":"beforeInitialize","type":"bool","internalType":"bool"},{"name":"afterInitialize","type":"bool","internalType":"bool"},{"name":"beforeAddLiquidity","type":"bool","internalType":"bool"},{"name":"afterAddLiquidity","type":"bool","internalType":"bool"},{"name":"beforeRemoveLiquidity","type":"bool","internalType":"bool"},{"name":"afterRemoveLiquidity","type":"bool","internalType":"bool"},{"name":"beforeSwap","type":"bool","internalType":"bool"},{"name":"afterSwap","type":"bool","internalType":"bool"},{"name":"beforeDonate","type":"bool","internalType":"bool"},{"name":"afterDonate","type":"bool","internalType":"bool"},{"name":"beforeSwapReturnDelta","type":"bool","internalType":"bool"},{"name":"afterSwapReturnDelta","type":"bool","internalType":"bool"},{"name":"afterAddLiquidityReturnDelta","type":"bool","internalType":"bool"},{"name":"afterRemoveLiquidityReturnDelta","type":"bool","internalType":"bool"}]}],"stateMutability":"pure"},{"type":"function","name":"name","inputs":[],"outputs":[{"name":"","type":"string","internalType":"string"}],"stateMutability":"view"},{"type":"function","name":"nonces","inputs":[{"name":"","type":"address","internalType":"address"}],"outputs":[{"name":"","type":"uint256","internalType":"uint256"}],"stateMutability":"view"},{"type":"function","name":"permit","inputs":[{"name":"owner","type":"address","internalType":"address"},{"name":"spender","type":"address","internalType":"address"},{"name":"value","type":"uint256","internalType":"uint256"},{"name":"deadline","type":"uint256","internalType":"uint256"},{"name":"v","type":"uint8","internalType":"uint8"},{"name":"r","type":"bytes32","internalType":"bytes32"},{"name":"s","type":"bytes32","internalType":"bytes32"}],"outputs":[],"stateMutability":"nonpayable"},{"type":"function","name":"poolManager","inputs":[],"outputs":[{"name":"","type":"address","internalType":"contract IPoolManager"}],"stateMutability":"view"},{"type":"function","name":"referredBy","inputs":[{"name":"","type":"address","internalType":"address"}],"outputs":[{"name":"","type":"address","internalType":"address"}],"stateMutability":"view"},{"type":"function","name":"symbol","inputs":[],"outputs":[{"name":"","type":"string","internalType":"string"}],"stateMutability":"view"},{"type":"function","name":"totalSupply","inputs":[],"outputs":[{"name":"","type":"uint256","internalType":"uint256"}],"stateMutability":"view"},{"type":"function","name":"transfer","inputs":[{"name":"to","type":"address","internalType":"address"},{"name":"amount","type":"uint256","internalType":"uint256"}],"outputs":[{"name":"","type":"bool","internalType":"bool"}],"stateMutability":"nonpayable"},{"type":"function","name":"transferFrom","inputs":[{"name":"from","type":"address","internalType":"address"},{"name":"to","type":"address","internalType":"address"},{"name":"amount","type":"uint256","internalType":"uint256"}],"outputs":[{"name":"","type":"bool","internalType":"bool"}],"stateMutability":"nonpayable"},{"type":"function","name":"unlockCallback","inputs":[{"name":"data","type":"bytes","internalType":"bytes"}],"outputs":[{"name":"","type":"bytes","internalType":"bytes"}],"stateMutability":"nonpayable"},{"type":"event","name":"Approval","inputs":[{"name":"owner","type":"address","indexed":true,"internalType":"address"},{"name":"spender","type":"address","indexed":true,"internalType":"address"},{"name":"amount","type":"uint256","indexed":false,"internalType":"uint256"}],"anonymous":false},{"type":"event","name":"Transfer","inputs":[{"name":"from","type":"address","indexed":true,"internalType":"address"},{"name":"to","type":"address","indexed":true,"internalType":"address"},{"name":"amount","type":"uint256","indexed":false,"internalType":"uint256"}],"anonymous":false},{"type":"error","name":"HookNotImplemented","inputs":[]},{"type":"error","name":"InvalidPool","inputs":[]},{"type":"error","name":"LockFailure","inputs":[]},{"type":"error","name":"NotPoolManager","inputs":[]},{"type":"error","name":"NotSelf","inputs":[]}],"bytecode":{"object":"0x610100806040523461061557611bc6803803809161001d8285610635565b8339810190606081830312610615578051906001600160a01b03821682036106155760208101516001600160401b038111610615578361005e918301610658565b60408201519093906001600160401b0381116106155761007e9201610658565b906080525f6101a060405161009281610619565b8281528260208201528260408201528260608201528260808201528260a08201528260c08201528260e0820152826101008201528261012082015282610140820152826101608201528261018082015201525f6101a06040516100f481610619565b828152826020820152826040820152600160608201528260808201528260a08201528260c0820152600160e082015282610100820152826101208201528261014082015282610160820152826101808201520152612000301615801590610608575b80156105fb575b80156105ea575b80156105dd575b80156105d0575b80156105c4575b80156105b4575b80156105a8575b801561059c575b8015610590575b8015610584575b8015610578575b801561056c575b6105595781516001600160401b03811161048c576101c85f546106ad565b601f811161050a575b50602092601f82116001146104ab57928192935f926104a0575b50508160011b915f199060031b1c1916175f555b80516001600160401b03811161048c5761021a6001546106ad565b601f8111610429575b50602091601f82116001146103c9579181925f926103be575b50508160011b915f199060031b1c1916176001555b601260a0524660c0526040515f905f54918161026c846106ad565b9182825260208201946001811690815f146103a25750600114610358575b61029692500382610635565b51902060405160208101917f8b73c3c69bb8fe3d512ecc4cf759cc79239f7b179b0ffacaa9a75d522b39400f835260408201527fc89efdaa54c0f20c7adf612882df0950f5a951637e0307cdcb4c672f298b8bc660608201524660808201523060a082015260a0815261030a60c082610635565b51902060e0526040516114c090816106e682396080518181816101c9015281816105cd0152818161089a015261097d015260a05181610ae0015260c05181610fea015260e051816110100152f35b505f80805290915f80516020611ba68339815191525b8183106103865750509060206102969282010161028a565b602091935080600191548385880101520191019091839261036e565b60ff191686525061029692151560051b8201602001905061028a565b015190505f8061023c565b601f1982169260015f52805f20915f5b858110610411575083600195106103f9575b505050811b01600155610251565b01515f1960f88460031b161c191690555f80806103eb565b919260206001819286850151815501940192016103d9565b60015f527fb10e2d527612073b26eecdfd717e6a320cf44b4afac2b0732d9fcbe2b7fa0cf6601f830160051c81019160208410610482575b601f0160051c01905b8181106104775750610223565b5f815560010161046a565b9091508190610461565b634e487b7160e01b5f52604160045260245ffd5b015190505f806101eb565b601f198216935f8052805f20915f5b8681106104f257508360019596106104da575b505050811b015f556101ff565b01515f1960f88460031b161c191690555f80806104cd565b919260206001819286850151815501940192016104ba565b5f80525f80516020611ba6833981519152601f830160051c8101916020841061054f575b601f0160051c01905b81811061054457506101d1565b5f8155600101610537565b909150819061052e565b630732d7b560e51b5f523060045260245ffd5b506001301615156101aa565b506002301615156101a3565b5060043016151561019c565b50600830161515610195565b5060103016151561018e565b50602030161515610187565b5060403016151560011415610180565b50608030161515610179565b5061010030161515610172565b506102003016151561016b565b506104003016151560011415610164565b506108003016151561015d565b5061100030161515610156565b5f80fd5b6101c081019081106001600160401b0382111761048c57604052565b601f909101601f19168101906001600160401b0382119082101761048c57604052565b81601f82011215610615578051906001600160401b03821161048c576040519261068c601f8401601f191660200185610635565b8284526020838301011161061557815f9260208093018386015e8301015290565b90600182811c921680156106db575b60208310146106c757565b634e487b7160e01b5f52602260045260245ffd5b91607f16916106bc56fe60806040526004361015610011575f80fd5b5f3560e01c806306fdde0314610cc4578063095ea7b314610c4c5780631783e86514610c0057806318160ddd14610be357806321d0ee7014610b0457806323b872dd14610b09578063259982e514610b04578063313ce56714610ac75780633440d82014610a775780633644e51514610a555780634edeb64214610a32578063575e24b4146109de5780635a2a81001461096057806370a08231146109285780637ecebe00146108f05780638db2b652146108cd57806391dd73461461085e57806395d89b411461077c578063a9059cbb146106f3578063a90f8e9a146106b2578063a910f80f14610644578063b47b2fb11461056e578063b6a8b0fa1461014d578063c4e833ce14610408578063d505accf146101ed578063dc4c90d3146101aa578063dd62ed3e146101525763e1b4af691461014d575f80fd5b610f73565b346101a65760403660031901126101a65761016b610e15565b6001600160a01b0361017b610e2b565b91165f5260046020526001600160a01b0360405f2091165f52602052602060405f2054604051908152f35b5f80fd5b346101a6575f3660031901126101a65760206040516001600160a01b037f0000000000000000000000000000000000000000000000000000000000000000168152f35b346101a65760e03660031901126101a657610206610e15565b61020e610e2b565b6044356064359260843560ff81168091036101a6574285106103c35760805f916020936001600160a01b03610241610fe7565b91169687855260058652604085209889549960018b019055604051906001600160a01b03888301937f6e71edae12b1b97f4d1f60370fef10105fa2faae0126114a169c64845d6126c985528b6040850152169a8b6060840152898784015260a083015260c082015260c081526102b860e082610dcf565b519020604051908682019261190160f01b845260228301526042820152604281526102e4606282610dcf565b519020906040519182528482015260a435604082015260c435606082015282805260015afa156103b8576001600160a01b035f5116801515806103af575b1561036a577f8c5be1e5ebec7d5bd14f71427d1e84f3dd0314c0f7b2291e5b200ac8c7c3b925916020915f526004825260405f20855f5282528060405f2055604051908152a3005b60405162461bcd60e51b815260206004820152600e60248201527f494e56414c49445f5349474e45520000000000000000000000000000000000006044820152606490fd5b50828114610322565b6040513d5f823e3d90fd5b60405162461bcd60e51b815260206004820152601760248201527f5045524d49545f444541444c494e455f455850495245440000000000000000006044820152606490fd5b346101a6575f3660031901126101a6575f6101a060405161042881610d9e565b8281528260208201528260408201528260608201528260808201528260a08201528260c08201528260e0820152826101008201528261012082015282610140820152826101608201528261018082015201526101c0602060405161048b81610d9e565b5f8152818101905f8252604081015f81526060820160018152608083015f815260a084015f815260c085015f815260e0860190600182526101008701925f84526101208801945f86526101408901965f88526101608a01985f8a526101a06101808c019b5f8d52019b5f8d526040519d8e915f835251151591015251151560408d015251151560608c015251151560808b015251151560a08a015251151560c089015251151560e08801525115156101008701525115156101208601525115156101408501525115156101608401525115156101808301525115156101a0820152f35b346101a6576101603660031901126101a657610588610e15565b5060a03660231901126101a65760603660c31901126101a6576101443567ffffffffffffffff81116101a6576105c2903690600401610e55565b906001600160a01b037f00000000000000000000000000000000000000000000000000000000000000001633036106355760409161060391610124356111d6565b82517fffffffff000000000000000000000000000000000000000000000000000000009092168252600f0b6020820152f35b63570c108560e11b5f5260045ffd5b346101a6576101203660031901126101a65761065e610e15565b5060a03660231901126101a657610673610ef5565b5060e4358060020b036101a6576101043567ffffffffffffffff81116101a6576106a1903690600401610e55565b5050630a85dc2960e01b5f5260045ffd5b346101a65760203660031901126101a6576001600160a01b036106d3610e15565b165f52600660205260206001600160a01b0360405f205416604051908152f35b346101a65760403660031901126101a65761070c610e15565b6001600160a01b0360243591335f52600360205260405f2061072f848254610fc6565b90551690815f52600360205260405f208181540190556040519081527fddf252ad1be2c89b69c2b068fc378daa952ba7f163c4a11628f55a4df523b3ef60203392a3602060405160018152f35b346101a6575f3660031901126101a6576040515f60015461079c81610d66565b808452906001811690811561083a57506001146107dc575b6107d8836107c481850382610dcf565b604051918291602083526020830190610df1565b0390f35b60015f9081527fb10e2d527612073b26eecdfd717e6a320cf44b4afac2b0732d9fcbe2b7fa0cf6939250905b808210610820575090915081016020016107c46107b4565b919260018160209254838588010152019101909291610808565b60ff191660208086019190915291151560051b840190910191506107c490506107b4565b346101a65760203660031901126101a65760043567ffffffffffffffff81116101a65761088f903690600401610e55565b906001600160a01b037f0000000000000000000000000000000000000000000000000000000000000000163303610635576107d8916107c4916113b3565b346101a6576108db36610f0b565b505050505050630a85dc2960e01b5f5260045ffd5b346101a65760203660031901126101a6576001600160a01b03610911610e15565b165f526005602052602060405f2054604051908152f35b346101a65760203660031901126101a6576001600160a01b03610949610e15565b165f526003602052602060405f2054604051908152f35b346101a65761096e36610f0b565b92509093506001600160a01b037f0000000000000000000000000000000000000000000000000000000000000000163303610635576040936109af93611181565b82517fffffffff0000000000000000000000000000000000000000000000000000000090921682526020820152f35b346101a6576101403660031901126101a6576109f8610e15565b5060a03660231901126101a65760603660c31901126101a6576101243567ffffffffffffffff81116101a6576106a1903690600401610e55565b346101a6575f3660031901126101a6576020604051681b1ae4d6e2ef5000008152f35b346101a6575f3660031901126101a6576020610a6f610fe7565b604051908152f35b346101a6576101003660031901126101a657610a91610e15565b5060a03660231901126101a657610aa6610ef5565b5060e43567ffffffffffffffff81116101a6576106a1903690600401610e55565b346101a6575f3660031901126101a657602060405160ff7f0000000000000000000000000000000000000000000000000000000000000000168152f35b610e83565b346101a65760603660031901126101a657610b22610e15565b610b2a610e2b565b7fddf252ad1be2c89b69c2b068fc378daa952ba7f163c4a11628f55a4df523b3ef60206001600160a01b0380604435951693845f526004835260405f208233165f52835260405f2054865f198203610bbc575b5050845f526003835260405f20610b95878254610fc6565b90551693845f526003825260405f20818154019055604051908152a3602060405160018152f35b610bc591610fc6565b855f526004845260405f208333165f52845260405f20558686610b7d565b346101a6575f3660031901126101a6576020600254604051908152f35b346101a65760403660031901126101a6576107d8610c1c610e15565b6001600160a01b03610c2c610e2b565b8160405193166020840152166040820152604081526107c4606082610dcf565b346101a65760403660031901126101a657610c65610e15565b6001600160a01b0360243591335f52600460205260405f208282165f526020528260405f205560405192835216907f8c5be1e5ebec7d5bd14f71427d1e84f3dd0314c0f7b2291e5b200ac8c7c3b92560203392a3602060405160018152f35b346101a6575f3660031901126101a6576040515f8054610ce381610d66565b808452906001811690811561083a5750600114610d0a576107d8836107c481850382610dcf565b5f8080527f290decd9548b62a8d60345a988386fc84ba6bc95484008f6362f93160ef3e563939250905b808210610d4c575090915081016020016107c46107b4565b919260018160209254838588010152019101909291610d34565b90600182811c92168015610d94575b6020831014610d8057565b634e487b7160e01b5f52602260045260245ffd5b91607f1691610d75565b6101c0810190811067ffffffffffffffff821117610dbb57604052565b634e487b7160e01b5f52604160045260245ffd5b90601f8019910116810190811067ffffffffffffffff821117610dbb57604052565b805180835260209291819084018484015e5f828201840152601f01601f1916010190565b600435906001600160a01b03821682036101a657565b602435906001600160a01b03821682036101a657565b35906001600160a01b03821682036101a657565b9181601f840112156101a65782359167ffffffffffffffff83116101a657602083818601950101116101a657565b346101a6576101603660031901126101a6576004356001600160a01b03811681036101a6575060a03660231901126101a65760803660c31901126101a6576101443567ffffffffffffffff81116101a657610ee2903690600401610e55565b5050630a85dc2960e01b5f908152600490fd5b60c435906001600160a01b03821682036101a657565b6101806003198201126101a6576004356001600160a01b03811681036101a6579160a06023198301126101a657602491608060c3198201126101a65760c4916101443591610164359067ffffffffffffffff82116101a657610f6f91600401610e55565b9091565b346101a6576101203660031901126101a6576004356001600160a01b03811681036101a6575060a03660231901126101a6576101043567ffffffffffffffff81116101a657610ee2903690600401610e55565b91908203918211610fd357565b634e487b7160e01b5f52601160045260245ffd5b467f000000000000000000000000000000000000000000000000000000000000000003611032577f000000000000000000000000000000000000000000000000000000000000000090565b6040515f905f54918161104484610d66565b9182825260208201946001811690815f1461114557506001146110e8575b61106e92500382610dcf565b51902060405160208101917f8b73c3c69bb8fe3d512ecc4cf759cc79239f7b179b0ffacaa9a75d522b39400f835260408201527fc89efdaa54c0f20c7adf612882df0950f5a951637e0307cdcb4c672f298b8bc660608201524660808201523060a082015260a081526110e260c082610dcf565b51902090565b505f80805290917f290decd9548b62a8d60345a988386fc84ba6bc95484008f6362f93160ef3e5635b81831061112957505090602061106e92820101611062565b6020919350806001915483858801015201910190918392611111565b60ff191686525061106e92151560051b82016020019050611062565b600f0b6f7fffffffffffffffffffffffffffffff198114610fd3575f0390565b9392919093356001600160a01b03811681036101a6576001600160a01b03166111c8576111bd916111b48560801d611161565b600f0b91611263565b625a2a8160e81b9190565b50625a2a8160e81b92919050565b916024356001600160a01b038116908181036101a657506112525760c4358015908115036101a6576112525760e435925f8412156112375750600160ff1b8314610fd357600561122a935f035b0491611263565b63b47b2fb160e01b905f90565b61122a935061124a60059160801d611161565b600f0b611223565b5063b47b2fb160e01b925f92509050565b919080156113ae5782604091810103126101a6576001600160a01b0380611295602061128e86610e41565b9501610e41565b9316921680156113ae57805f5260066020526001600160a01b0360405f20541615806113a5575b6112fc575b6112e692815f5260066020526001600160a01b0360405f2054166112e8575b50611430565b565b6112f690600a840490611430565b5f6112e0565b805f52600660205260405f20837fffffffffffffffffffffffff000000000000000000000000000000000000000082541617905560025492681b1ae4d6e2ef5000008401809411610fd3576112e693600255805f52600360205260405f20681b1ae4d6e2ef5000008154019055805f7fddf252ad1be2c89b69c2b068fc378daa952ba7f163c4a11628f55a4df523b3ef6020604051681b1ae4d6e2ef5000008152a392506112c1565b508215156112bc565b505050565b5f9182918160405192839283378101838152039082305af1903d15611428573d9167ffffffffffffffff8311610dbb57604051926113fb601f8201601f191660200185610dcf565b83523d5f602085013e5b6112e6575080511561141957602081519101fd5b6314815f4760e31b5f5260045ffd5b606091611405565b600254828101809111610fd35760206001600160a01b035f937fddf252ad1be2c89b69c2b068fc378daa952ba7f163c4a11628f55a4df523b3ef9360025516938484526003825260408420818154019055604051908152a356fea2646970667358221220cfdd2f03976dd2996d7fb411acc388a1e9be65b68d1e4f88275a454d3bf4937364736f6c634300081a0033290decd9548b62a8d60345a988386fc84ba6bc95484008f6362f93160ef3e563","linkReferences":{}},"methodIdentifiers":{"DOMAIN_SEPARATOR()":"3644e515","REFERRAL_POINTS()":"4edeb642","afterAddLiquidity(address,(address,address,uint24,int24,address),(int24,int24,int256,bytes32),int256,bytes)":"5a2a8100","afterDonate(address,(address,address,uint24,int24,address),uint256,uint256,bytes)":"e1b4af69","afterInitialize(address,(address,address,uint24,int24,address),uint160,int24,bytes)":"a910f80f","afterRemoveLiquidity(address,(address,address,uint24,int24,address),(int24,int24,int256,bytes32),int256,bytes)":"8db2b652","afterSwap(address,(address,address,uint24,int24,address),(bool,int256,uint160),int256,bytes)":"b47b2fb1","allowance(address,address)":"dd62ed3e","approve(address,uint256)":"095ea7b3","balanceOf(address)":"70a08231","beforeAddLiquidity(address,(address,address,uint24,int24,address),(int24,int24,int256,bytes32),bytes)":"259982e5","beforeDonate(address,(address,address,uint24,int24,address),uint256,uint256,bytes)":"b6a8b0fa","beforeInitialize(address,(address,address,uint24,int24,address),uint160,bytes)":"3440d820","beforeRemoveLiquidity(address,(address,address,uint24,int24,address),(int24,int24,int256,bytes32),bytes)":"21d0ee70","beforeSwap(address,(address,address,uint24,int24,address),(bool,int256,uint160),bytes)":"575e24b4","decimals()":"313ce567","getHookData(address,address)":"1783e865","getHookPermissions()":"c4e833ce","name()":"06fdde03","nonces(address)":"7ecebe00","permit(address,address,uint256,uint256,uint8,bytes32,bytes32)":"d505accf","poolManager()":"dc4c90d3","referredBy(address)":"a90f8e9a","symbol()":"95d89b41","totalSupply()":"18160ddd","transfer(address,uint256)":"a9059cbb","transferFrom(address,address,uint256)":"23b872dd","unlockCallback(bytes)":"91dd7346"},"id":110}