{"abi":[{"type":"function","name":"SQRT_PRICE_121_100","inputs":[],"outputs":[{"name":"","type":"uint160","internalType":"uint160"}],"stateMutability":"view"},{"type":"function","name":"SQRT_PRICE_1_1","inputs":[],"outputs":[{"name":"","type":"uint160","internalType":"uint160"}],"stateMutability":"view"},{"type":"function","name":"SQRT_PRICE_1_2","inputs":[],"outputs":[{"name":"","type":"uint160","internalType":"uint160"}],"stateMutability":"view"},{"type":"function","name":"SQRT_PRICE_1_4","inputs":[],"outputs":[{"name":"","type":"uint160","internalType":"uint160"}],"stateMutability":"view"},{"type":"function","name":"SQRT_PRICE_2_1","inputs":[],"outputs":[{"name":"","type":"uint160","internalType":"uint160"}],"stateMutability":"view"},{"type":"function","name":"SQRT_PRICE_4_1","inputs":[],"outputs":[{"name":"","type":"uint160","internalType":"uint160"}],"stateMutability":"view"}],"bytecode":{"object":"0x60808060405234601957610160908161001e823930815050f35b5f80fdfe6080806040526004361015610012575f80fd5b5f3560e01c9081638a81a2de1461010a5750806398ec04cc146100e8578063bd5e4184146100c7578063e282efb7146100a5578063ed318160146100845763fcc6433b1461005e575f80fd5b5f3660031901126100805760206040516c010000000000000000000000008152f35b5f80fd5b5f3660031901126100805760206040516b8000000000000000000000008152f35b5f3660031901126100805760206040516c011999999999999999999999998152f35b5f3660031901126100805760206040516bb504f333f9de6484597d89b38152f35b5f3660031901126100805760206040516c016a09e667f3bcc908b2fb13668152f35b5f36600319011261008057806c0200000000000000000000000060209252f3fea2646970667358221220b302f673e7de9f5f7127a3f95df142ab4c943729c8e2c7bc18dfec1d6073c92d64736f6c634300081a0033","linkReferences":{}},"methodIdentifiers":{"SQRT_PRICE_121_100()":"e282efb7","SQRT_PRICE_1_1()":"fcc6433b","SQRT_PRICE_1_2()":"bd5e4184","SQRT_PRICE_1_4()":"ed318160","SQRT_PRICE_2_1()":"98ec04cc","SQRT_PRICE_4_1()":"8a81a2de"},"id":102}