{"abi":[{"type":"constructor","inputs":[{"name":"controllerGasLimit","type":"uint256","internalType":"uint256"}],"stateMutability":"nonpayable"},{"type":"function","name":"MAX_TICK_SPACING","inputs":[],"outputs":[{"name":"","type":"int24","internalType":"int24"}],"stateMutability":"view"},{"type":"function","name":"MIN_TICK_SPACING","inputs":[],"outputs":[{"name":"","type":"int24","internalType":"int24"}],"stateMutability":"view"},{"type":"function","name":"allowance","inputs":[{"name":"owner","type":"address","internalType":"address"},{"name":"spender","type":"address","internalType":"address"},{"name":"id","type":"uint256","internalType":"uint256"}],"outputs":[{"name":"amount","type":"uint256","internalType":"uint256"}],"stateMutability":"view"},{"type":"function","name":"approve","inputs":[{"name":"spender","type":"address","internalType":"address"},{"name":"id","type":"uint256","internalType":"uint256"},{"name":"amount","type":"uint256","internalType":"uint256"}],"outputs":[{"name":"","type":"bool","internalType":"bool"}],"stateMutability":"nonpayable"},{"type":"function","name":"balanceOf","inputs":[{"name":"owner","type":"address","internalType":"address"},{"name":"id","type":"uint256","internalType":"uint256"}],"outputs":[{"name":"balance","type":"uint256","internalType":"uint256"}],"stateMutability":"view"},{"type":"function","name":"burn","inputs":[{"name":"from","type":"address","internalType":"address"},{"name":"id","type":"uint256","internalType":"uint256"},{"name":"amount","type":"uint256","internalType":"uint256"}],"outputs":[],"stateMutability":"nonpayable"},{"type":"function","name":"clear","inputs":[{"name":"currency","type":"address","internalType":"Currency"},{"name":"amount","type":"uint256","internalType":"uint256"}],"outputs":[],"stateMutability":"nonpayable"},{"type":"function","name":"collectProtocolFees","inputs":[{"name":"recipient","type":"address","internalType":"address"},{"name":"currency","type":"address","internalType":"Currency"},{"name":"amount","type":"uint256","internalType":"uint256"}],"outputs":[{"name":"amountCollected","type":"uint256","internalType":"uint256"}],"stateMutability":"nonpayable"},{"type":"function","name":"donate","inputs":[{"name":"key","type":"tuple","internalType":"struct PoolKey","components":[{"name":"currency0","type":"address","internalType":"Currency"},{"name":"currency1","type":"address","internalType":"Currency"},{"name":"fee","type":"uint24","internalType":"uint24"},{"name":"tickSpacing","type":"int24","internalType":"int24"},{"name":"hooks","type":"address","internalType":"contract IHooks"}]},{"name":"amount0","type":"uint256","internalType":"uint256"},{"name":"amount1","type":"uint256","internalType":"uint256"},{"name":"hookData","type":"bytes","internalType":"bytes"}],"outputs":[{"name":"delta","type":"int256","internalType":"BalanceDelta"}],"stateMutability":"nonpayable"},{"type":"function","name":"extsload","inputs":[{"name":"slot","type":"bytes32","internalType":"bytes32"}],"outputs":[{"name":"","type":"bytes32","internalType":"bytes32"}],"stateMutability":"view"},{"type":"function","name":"extsload","inputs":[{"name":"startSlot","type":"bytes32","internalType":"bytes32"},{"name":"nSlots","type":"uint256","internalType":"uint256"}],"outputs":[{"name":"","type":"bytes32[]","internalType":"bytes32[]"}],"stateMutability":"view"},{"type":"function","name":"extsload","inputs":[{"name":"slots","type":"bytes32[]","internalType":"bytes32[]"}],"outputs":[{"name":"","type":"bytes32[]","internalType":"bytes32[]"}],"stateMutability":"view"},{"type":"function","name":"exttload","inputs":[{"name":"slots","type":"bytes32[]","internalType":"bytes32[]"}],"outputs":[{"name":"","type":"bytes32[]","internalType":"bytes32[]"}],"stateMutability":"view"},{"type":"function","name":"exttload","inputs":[{"name":"slot","type":"bytes32","internalType":"bytes32"}],"outputs":[{"name":"","type":"bytes32","internalType":"bytes32"}],"stateMutability":"view"},{"type":"function","name":"initialize","inputs":[{"name":"key","type":"tuple","internalType":"struct PoolKey","components":[{"name":"currency0","type":"address","internalType":"Currency"},{"name":"currency1","type":"address","internalType":"Currency"},{"name":"fee","type":"uint24","internalType":"uint24"},{"name":"tickSpacing","type":"int24","internalType":"int24"},{"name":"hooks","type":"address","internalType":"contract IHooks"}]},{"name":"sqrtPriceX96","type":"uint160","internalType":"uint160"},{"name":"hookData","type":"bytes","internalType":"bytes"}],"outputs":[{"name":"tick","type":"int24","internalType":"int24"}],"stateMutability":"nonpayable"},{"type":"function","name":"isOperator","inputs":[{"name":"owner","type":"address","internalType":"address"},{"name":"operator","type":"address","internalType":"address"}],"outputs":[{"name":"isOperator","type":"bool","internalType":"bool"}],"stateMutability":"view"},{"type":"function","name":"mint","inputs":[{"name":"to","type":"address","internalType":"address"},{"name":"id","type":"uint256","internalType":"uint256"},{"name":"amount","type":"uint256","internalType":"uint256"}],"outputs":[],"stateMutability":"nonpayable"},{"type":"function","name":"modifyLiquidity","inputs":[{"name":"key","type":"tuple","internalType":"struct PoolKey","components":[{"name":"currency0","type":"address","internalType":"Currency"},{"name":"currency1","type":"address","internalType":"Currency"},{"name":"fee","type":"uint24","internalType":"uint24"},{"name":"tickSpacing","type":"int24","internalType":"int24"},{"name":"hooks","type":"address","internalType":"contract IHooks"}]},{"name":"params","type":"tuple","internalType":"struct IPoolManager.ModifyLiquidityParams","components":[{"name":"tickLower","type":"int24","internalType":"int24"},{"name":"tickUpper","type":"int24","internalType":"int24"},{"name":"liquidityDelta","type":"int256","internalType":"int256"},{"name":"salt","type":"bytes32","internalType":"bytes32"}]},{"name":"hookData","type":"bytes","internalType":"bytes"}],"outputs":[{"name":"callerDelta","type":"int256","internalType":"BalanceDelta"},{"name":"feesAccrued","type":"int256","internalType":"BalanceDelta"}],"stateMutability":"nonpayable"},{"type":"function","name":"owner","inputs":[],"outputs":[{"name":"","type":"address","internalType":"address"}],"stateMutability":"view"},{"type":"function","name":"protocolFeeController","inputs":[],"outputs":[{"name":"","type":"address","internalType":"contract IProtocolFeeController"}],"stateMutability":"view"},{"type":"function","name":"protocolFeesAccrued","inputs":[{"name":"currency","type":"address","internalType":"Currency"}],"outputs":[{"name":"amount","type":"uint256","internalType":"uint256"}],"stateMutability":"view"},{"type":"function","name":"setOperator","inputs":[{"name":"operator","type":"address","internalType":"address"},{"name":"approved","type":"bool","internalType":"bool"}],"outputs":[{"name":"","type":"bool","internalType":"bool"}],"stateMutability":"nonpayable"},{"type":"function","name":"setProtocolFee","inputs":[{"name":"key","type":"tuple","internalType":"struct PoolKey","components":[{"name":"currency0","type":"address","internalType":"Currency"},{"name":"currency1","type":"address","internalType":"Currency"},{"name":"fee","type":"uint24","internalType":"uint24"},{"name":"tickSpacing","type":"int24","internalType":"int24"},{"name":"hooks","type":"address","internalType":"contract IHooks"}]},{"name":"newProtocolFee","type":"uint24","internalType":"uint24"}],"outputs":[],"stateMutability":"nonpayable"},{"type":"function","name":"setProtocolFeeController","inputs":[{"name":"controller","type":"address","internalType":"contract IProtocolFeeController"}],"outputs":[],"stateMutability":"nonpayable"},{"type":"function","name":"settle","inputs":[],"outputs":[{"name":"paid","type":"uint256","internalType":"uint256"}],"stateMutability":"payable"},{"type":"function","name":"settleFor","inputs":[{"name":"recipient","type":"address","internalType":"address"}],"outputs":[{"name":"paid","type":"uint256","internalType":"uint256"}],"stateMutability":"payable"},{"type":"function","name":"supportsInterface","inputs":[{"name":"interfaceId","type":"bytes4","internalType":"bytes4"}],"outputs":[{"name":"","type":"bool","internalType":"bool"}],"stateMutability":"view"},{"type":"function","name":"swap","inputs":[{"name":"key","type":"tuple","internalType":"struct PoolKey","components":[{"name":"currency0","type":"address","internalType":"Currency"},{"name":"currency1","type":"address","internalType":"Currency"},{"name":"fee","type":"uint24","internalType":"uint24"},{"name":"tickSpacing","type":"int24","internalType":"int24"},{"name":"hooks","type":"address","internalType":"contract IHooks"}]},{"name":"params","type":"tuple","internalType":"struct IPoolManager.SwapParams","components":[{"name":"zeroForOne","type":"bool","internalType":"bool"},{"name":"amountSpecified","type":"int256","internalType":"int256"},{"name":"sqrtPriceLimitX96","type":"uint160","internalType":"uint160"}]},{"name":"hookData","type":"bytes","internalType":"bytes"}],"outputs":[{"name":"swapDelta","type":"int256","internalType":"BalanceDelta"}],"stateMutability":"nonpayable"},{"type":"function","name":"sync","inputs":[{"name":"currency","type":"address","internalType":"Currency"}],"outputs":[],"stateMutability":"nonpayable"},{"type":"function","name":"take","inputs":[{"name":"currency","type":"address","internalType":"Currency"},{"name":"to","type":"address","internalType":"address"},{"name":"amount","type":"uint256","internalType":"uint256"}],"outputs":[],"stateMutability":"nonpayable"},{"type":"function","name":"transfer","inputs":[{"name":"receiver","type":"address","internalType":"address"},{"name":"id","type":"uint256","internalType":"uint256"},{"name":"amount","type":"uint256","internalType":"uint256"}],"outputs":[{"name":"","type":"bool","internalType":"bool"}],"stateMutability":"nonpayable"},{"type":"function","name":"transferFrom","inputs":[{"name":"sender","type":"address","internalType":"address"},{"name":"receiver","type":"address","internalType":"address"},{"name":"id","type":"uint256","internalType":"uint256"},{"name":"amount","type":"uint256","internalType":"uint256"}],"outputs":[{"name":"","type":"bool","internalType":"bool"}],"stateMutability":"nonpayable"},{"type":"function","name":"transferOwnership","inputs":[{"name":"newOwner","type":"address","internalType":"address"}],"outputs":[],"stateMutability":"nonpayable"},{"type":"function","name":"unlock","inputs":[{"name":"data","type":"bytes","internalType":"bytes"}],"outputs":[{"name":"result","type":"bytes","internalType":"bytes"}],"stateMutability":"nonpayable"},{"type":"function","name":"updateDynamicLPFee","inputs":[{"name":"key","type":"tuple","internalType":"struct PoolKey","components":[{"name":"currency0","type":"address","internalType":"Currency"},{"name":"currency1","type":"address","internalType":"Currency"},{"name":"fee","type":"uint24","internalType":"uint24"},{"name":"tickSpacing","type":"int24","internalType":"int24"},{"name":"hooks","type":"address","internalType":"contract IHooks"}]},{"name":"newDynamicLPFee","type":"uint24","internalType":"uint24"}],"outputs":[],"stateMutability":"nonpayable"},{"type":"event","name":"Approval","inputs":[{"name":"owner","type":"address","indexed":true,"internalType":"address"},{"name":"spender","type":"address","indexed":true,"internalType":"address"},{"name":"id","type":"uint256","indexed":true,"internalType":"uint256"},{"name":"amount","type":"uint256","indexed":false,"internalType":"uint256"}],"anonymous":false},{"type":"event","name":"Initialize","inputs":[{"name":"id","type":"bytes32","indexed":true,"internalType":"PoolId"},{"name":"currency0","type":"address","indexed":true,"internalType":"Currency"},{"name":"currency1","type":"address","indexed":true,"internalType":"Currency"},{"name":"fee","type":"uint24","indexed":false,"internalType":"uint24"},{"name":"tickSpacing","type":"int24","indexed":false,"internalType":"int24"},{"name":"hooks","type":"address","indexed":false,"internalType":"contract IHooks"},{"name":"sqrtPriceX96","type":"uint160","indexed":false,"internalType":"uint160"},{"name":"tick","type":"int24","indexed":false,"internalType":"int24"}],"anonymous":false},{"type":"event","name":"ModifyLiquidity","inputs":[{"name":"id","type":"bytes32","indexed":true,"internalType":"PoolId"},{"name":"sender","type":"address","indexed":true,"internalType":"address"},{"name":"tickLower","type":"int24","indexed":false,"internalType":"int24"},{"name":"tickUpper","type":"int24","indexed":false,"internalType":"int24"},{"name":"liquidityDelta","type":"int256","indexed":false,"internalType":"int256"}],"anonymous":false},{"type":"event","name":"OperatorSet","inputs":[{"name":"owner","type":"address","indexed":true,"internalType":"address"},{"name":"operator","type":"address","indexed":true,"internalType":"address"},{"name":"approved","type":"bool","indexed":false,"internalType":"bool"}],"anonymous":false},{"type":"event","name":"OwnershipTransferred","inputs":[{"name":"user","type":"address","indexed":true,"internalType":"address"},{"name":"newOwner","type":"address","indexed":true,"internalType":"address"}],"anonymous":false},{"type":"event","name":"ProtocolFeeControllerUpdated","inputs":[{"name":"protocolFeeController","type":"address","indexed":true,"internalType":"address"}],"anonymous":false},{"type":"event","name":"ProtocolFeeUpdated","inputs":[{"name":"id","type":"bytes32","indexed":true,"internalType":"PoolId"},{"name":"protocolFee","type":"uint24","indexed":false,"internalType":"uint24"}],"anonymous":false},{"type":"event","name":"Swap","inputs":[{"name":"id","type":"bytes32","indexed":true,"internalType":"PoolId"},{"name":"sender","type":"address","indexed":true,"internalType":"address"},{"name":"amount0","type":"int128","indexed":false,"internalType":"int128"},{"name":"amount1","type":"int128","indexed":false,"internalType":"int128"},{"name":"sqrtPriceX96","type":"uint160","indexed":false,"internalType":"uint160"},{"name":"liquidity","type":"uint128","indexed":false,"internalType":"uint128"},{"name":"tick","type":"int24","indexed":false,"internalType":"int24"},{"name":"fee","type":"uint24","indexed":false,"internalType":"uint24"}],"anonymous":false},{"type":"event","name":"Transfer","inputs":[{"name":"caller","type":"address","indexed":false,"internalType":"address"},{"name":"from","type":"address","indexed":true,"internalType":"address"},{"name":"to","type":"address","indexed":true,"internalType":"address"},{"name":"id","type":"uint256","indexed":true,"internalType":"uint256"},{"name":"amount","type":"uint256","indexed":false,"internalType":"uint256"}],"anonymous":false},{"type":"error","name":"AlreadyUnlocked","inputs":[]},{"type":"error","name":"CurrenciesOutOfOrderOrEqual","inputs":[{"name":"currency0","type":"address","internalType":"address"},{"name":"currency1","type":"address","internalType":"address"}]},{"type":"error","name":"CurrencyNotSettled","inputs":[]},{"type":"error","name":"DelegateCallNotAllowed","inputs":[]},{"type":"error","name":"InvalidCaller","inputs":[]},{"type":"error","name":"ManagerLocked","inputs":[]},{"type":"error","name":"MustClearExactPositiveDelta","inputs":[]},{"type":"error","name":"NonZeroNativeValue","inputs":[]},{"type":"error","name":"PoolNotInitialized","inputs":[]},{"type":"error","name":"ProtocolFeeCannotBeFetched","inputs":[]},{"type":"error","name":"ProtocolFeeTooLarge","inputs":[{"name":"fee","type":"uint24","internalType":"uint24"}]},{"type":"error","name":"SwapAmountCannotBeZero","inputs":[]},{"type":"error","name":"TickSpacingTooLarge","inputs":[{"name":"tickSpacing","type":"int24","internalType":"int24"}]},{"type":"error","name":"TickSpacingTooSmall","inputs":[{"name":"tickSpacing","type":"int24","internalType":"int24"}]},{"type":"error","name":"UnauthorizedDynamicLPFeeUpdate","inputs":[]}],"bytecode":{"object":"0x60c0604052348015600e575f80fd5b506040516151fd3803806151fd833981016040819052602b916077565b5f80546001600160a01b031916339081178255604051839282917f8be0079c531659141344cd1fd0a4f28419497f9722a3daafe3b4186f6b6457e0908290a350608052503060a052608d565b5f602082840312156086575f80fd5b5051919050565b60805160a0516151486100b55f395f61189401525f81816122ed015261232b01526151485ff3fe608060405260043610610228575f3560e01c80635a6bcfda11610131578063a5841194116100ac578063f135baaa1161007c578063f3cd914c11610062578063f3cd914c146106ac578063f5298aca146106cb578063fe99049a146106ea575f80fd5b8063f135baaa1461066e578063f2fde38b1461068d575f80fd5b8063a5841194146105d8578063b6363cf2146105f7578063dbd035ff14610630578063f02de3b21461064f575f80fd5b806380f0b44c116101015780638da5cb5b116100e75780638da5cb5b1461055857806397e8cd4e1461058e5780639bf6645f146105b9575f80fd5b806380f0b44c1461051a5780638161b87414610539575f80fd5b80635a6bcfda1461049357806360460f06146104c7578063695c5bf5146104dc5780637e87ce7d146104fb575f80fd5b8063234266d7116101c1578063426a84931161019157806352759651116101775780635275965114610419578063558a729714610438578063598af9e714610457575f80fd5b8063426a8493146103ce57806348c89491146103ed575f80fd5b8063234266d7146103515780632d7713891461037057806335fd631a1461038f5780633dd45adb146103bb575f80fd5b80630b0d9c09116101fc5780630b0d9c09146102ea57806311da60b41461030b578063156e29f6146103135780631e2eaeaf14610332575f80fd5b8062fdd58e1461022c57806301ffc9a71461027557806307eff0dd146102a4578063095bcdb6146102cb575b5f80fd5b348015610237575f80fd5b5061026261024636600461457e565b600460209081525f928352604080842090915290825290205481565b6040519081526020015b60405180910390f35b348015610280575f80fd5b5061029461028f3660046145a8565b610709565b604051901515815260200161026c565b3480156102af575f80fd5b506102b8600181565b60405160029190910b815260200161026c565b3480156102d6575f80fd5b506102946102e53660046145cf565b61073f565b3480156102f5575f80fd5b50610309610304366004614601565b6107f9565b005b61026261084a565b34801561031e575f80fd5b5061030961032d3660046145cf565b61087c565b34801561033d575f80fd5b5061026261034c36600461463f565b6108c7565b34801561035c575f80fd5b5061026261036b3660046147c2565b6108d1565b34801561037b575f80fd5b5061030961038a366004614827565b610981565b34801561039a575f80fd5b506103ae6103a9366004614842565b610a24565b60405161026c9190614862565b6102626103c9366004614827565b610a61565b3480156103d9575f80fd5b506102946103e83660046145cf565b610a93565b3480156103f8575f80fd5b5061040c6104073660046148a4565b610af7565b60405161026c91906148e3565b348015610424575f80fd5b50610309610433366004614918565b610bcd565b348015610443575f80fd5b50610294610452366004614959565b610c3c565b348015610462575f80fd5b50610262610471366004614601565b600560209081525f938452604080852082529284528284209052825290205481565b34801561049e575f80fd5b506104b26104ad366004614983565b610cab565b6040805192835260208301919091520161026c565b3480156104d2575f80fd5b506102b8617fff81565b3480156104e7575f80fd5b506102b86104f6366004614a26565b610e3e565b348015610506575f80fd5b50610309610515366004614918565b61102d565b348015610525575f80fd5b5061030961053436600461457e565b6110df565b348015610544575f80fd5b50610262610553366004614601565b611152565b348015610563575f80fd5b505f54610576906001600160a01b031681565b6040516001600160a01b03909116815260200161026c565b348015610599575f80fd5b506102626105a8366004614827565b60016020525f908152604090205481565b3480156105c4575f80fd5b506103ae6105d3366004614a6e565b6111e1565b3480156105e3575f80fd5b506103096105f2366004614827565b61121a565b348015610602575f80fd5b50610294610611366004614adf565b600360209081525f928352604080842090915290825290205460ff1681565b34801561063b575f80fd5b506103ae61064a366004614a6e565b611256565b34801561065a575f80fd5b50600254610576906001600160a01b031681565b348015610679575f80fd5b5061026261068836600461463f565b61128d565b348015610698575f80fd5b506103096106a7366004614827565b611297565b3480156106b7575f80fd5b506102626106c6366004614b16565b611336565b3480156106d6575f80fd5b506103096106e53660046145cf565b61147c565b3480156106f5575f80fd5b50610294610704366004614bb6565b6114c1565b5f6301ffc9a760e01b6001600160e01b0319831614806107395750630f632fb360e01b6001600160e01b03198316145b92915050565b335f90815260046020908152604080832085845290915281208054839190839061076a908490614c0d565b90915550506001600160a01b0384165f908152600460209081526040808320868452909152812080548492906107a1908490614c20565b909155505060408051338082526020820185905285926001600160a01b038816927f1b3d7edb2e9c0b0e7c525b20aaaef0f5940d2ed71663c7d39266ecafac72885991015b60405180910390a45060015b9392505050565b5f805160206150f38339815191525c61081c5761081c6354e3ca0d60e01b611633565b610831836108298361163b565b5f0333611667565b6108456001600160a01b03841683836116ba565b505050565b5f5f805160206150f38339815191525c61086e5761086e6354e3ca0d60e01b611633565b6108773361174e565b905090565b5f805160206150f38339815191525c61089f5761089f6354e3ca0d60e01b611633565b816108ad816108298461163b565b6108c1846001600160a01b03831684611804565b50505050565b5f81545f5260205ff35b5f5f805160206150f38339815191525c6108f5576108f56354e3ca0d60e01b611633565b6108fd611889565b5f61091c61090c8860a0902090565b5f90815260066020526040902090565b9050610927816118cb565b6080870151610943906001600160a01b031688888888886118ef565b61094e81878761196c565b915061095b878333611a1f565b6080870151610977906001600160a01b03168888888888611a47565b5095945050505050565b5f546001600160a01b031633146109ce5760405162461bcd60e51b815260206004820152600c60248201526b15539055551213d49256915160a21b60448201526064015b60405180910390fd5b6002805473ffffffffffffffffffffffffffffffffffffffff19166001600160a01b0383169081179091556040517fb4bd8ef53df690b9943d3318996006dbb82a25f54719d8c8035b516a2a5b8acc905f90a250565b6060604051808360051b6020835284602084015260408301925080830190505b85548352602083019250600186019550808310610a445781810382f35b5f5f805160206150f38339815191525c610a8557610a856354e3ca0d60e01b611633565b6107398261174e565b919050565b335f8181526005602090815260408083206001600160a01b03881680855290835281842087855290925280832085905551919285927fb3fd5071835887567a0671151121894ddccc2842f1d10bedad13e0d17cace9a7906107e69087815260200190565b60605f805160206150f38339815191525c15610b1d57610b1d6328486b6360e11b611633565b610b25611ab9565b6040516348eeb9a360e11b815233906391dd734690610b4a9086908690600401614c5b565b5f604051808303815f875af1158015610b65573d5f803e3d5ffd5b505050506040513d5f823e601f3d908101601f19168201604052610b8c9190810190614c6e565b90507f7d4b3164c6e45b97e7d87b7125a44c5828d005af88f9d751cfd78729c5d99a0b5c15610bc557610bc5635212cba160e01b611633565b610739611acc565b604082015162ffffff1662800000141580610bfe575081608001516001600160a01b0316336001600160a01b031614155b15610c1357610c136330d2164160e01b611633565b610c218162ffffff16611ade565b60a082205f8181526006602052604090206108459083611b04565b335f8181526003602090815260408083206001600160a01b038716808552908352818420805460ff191687151590811790915591519182529293917fceb576d9f15e4e200fdb5096d64d5dfd667e16def20c1eefd14256d8e3faa267910160405180910390a350600192915050565b5f805f805160206150f38339815191525c610cd057610cd06354e3ca0d60e01b611633565b610cd8611889565b60a086205f818152600660205260409020610cf2816118cb565b6080880151610d0d906001600160a01b031689898989611b46565b5f610d746040518060c00160405280336001600160a01b031681526020018a5f015160020b81526020018a6020015160020b8152602001610d518b60400151611c48565b600f0b81526060808d015160020b60208301528b01516040909101528390611c64565b94509050610d828185611fe7565b9450336001600160a01b0316837f541c041c2cce48e614b3de043c9280f06b6164c0a1741649e2de3c3d375f79748a5f01518b602001518c60400151604051610de693929190600293840b81529190920b6020820152604081019190915260600190565b60405180910390a360808901515f90610e0c906001600160a01b03168b8b898c8c61201a565b90965090508015610e2657610e268a828c60800151611a1f565b610e318a8733611a1f565b5050505094509492505050565b5f610e47611889565b6060850151617fff60029190910b1315610e72576060850151610e72906316e0049f60e31b90612139565b600160020b856060015160020b1215610e9c576060850151610e9c90631d3d20b160e31b90612139565b845160208601516001600160a01b03908116911610610ece5784516020860151610ece916306e6c98360e41b91612148565b610ef2856040015186608001516001600160a01b031661216a90919063ffffffff16565b610f0d576080850151610f0d90630732d7b560e51b9061222b565b5f610f20866040015162ffffff16612240565b6080870151909150610f3e906001600160a01b031687878787612265565b60a086205f610f4c886122d6565b5f848152600660205260409020909250610f699150888386612408565b6080890151909450610f88906001600160a01b03168989878a8a612474565b87602001516001600160a01b0316885f01516001600160a01b0316837fdd466e674ea557f56295e2d0218a125ea4b4f0f6f3307b95f85e6110838d64388b604001518c606001518d608001518d8b60405161101a95949392919062ffffff959095168552600293840b60208601526001600160a01b03928316604086015291166060840152900b608082015260a00190565b60405180910390a4505050949350505050565b6002546001600160a01b0316331461104f5761104f6348f5c3ed60e01b611633565b6103e9610fff821610623e900062fff0008316101661107e5761107e63a7abe2f760e01b62ffffff831661222b565b60a082206110a08261109a835f90815260066020526040902090565b906124e7565b60405162ffffff8316815281907fe9c42593e71f84403b84352cd168d693e2c9fcd1fdbcc3feb21d92b43e6696f99060200160405180910390a2505050565b5f805160206150f38339815191525c611102576111026354e3ca0d60e01b611633565b335f9081526001600160a01b038316602052604081205c906111238361163b565b90508181600f0b1461113f5761113f63bda73abf60e01b611633565b6108c18461114c83614d02565b33611667565b6002545f906001600160a01b03163314611176576111766348f5c3ed60e01b611633565b8115611182578161119b565b6001600160a01b0383165f908152600160205260409020545b6001600160a01b0384165f908152600160205260408120805492935083929091906111c7908490614c0d565b909155506107f290506001600160a01b03841685836116ba565b606060405180602082528360208301526040820191508360051b8201855b80355c8452602093840193018184106111ff575b5081810382f35b611222612527565b6001600160a01b0381166112335750565b5f611246826001600160a01b031661256e565b905061125282826125ea565b5050565b606060405180602082528360208301526040820191508360051b8201855b8035548452602093840193018184101561121357611274565b5f815c5f5260205ff35b5f546001600160a01b031633146112df5760405162461bcd60e51b815260206004820152600c60248201526b15539055551213d49256915160a21b60448201526064016109c5565b5f805473ffffffffffffffffffffffffffffffffffffffff19166001600160a01b0383169081178255604051909133917f8be0079c531659141344cd1fd0a4f28419497f9722a3daafe3b4186f6b6457e09190a350565b5f5f805160206150f38339815191525c61135a5761135a6354e3ca0d60e01b611633565b611362611889565b83602001515f0361137d5761137d63be8b850760e01b611633565b60a085205f818152600660205260409020611397816118cb565b60808701515f90819081906113b8906001600160a01b03168b8b8b8b61263d565b80935081955082945050505061142784866040518060a001604052808e6060015160020b81526020018d5f0151151581526020018681526020018d604001516001600160a01b031681526020018562ffffff168152508c5f0151611420578d60200151612759565b8d51612759565b60808b01519096505f925061144b91506001600160a01b03168a8a888b8b88612847565b909550905080156114655761146589828b60800151611a1f565b611470898633611a1f565b50505050949350505050565b5f805160206150f38339815191525c61149f5761149f6354e3ca0d60e01b611633565b816114ad8161114c8461163b565b6108c1846001600160a01b0383168461296a565b5f336001600160a01b038616148015906114fe57506001600160a01b0385165f90815260036020908152604080832033845290915290205460ff16155b1561156e576001600160a01b0385165f90815260056020908152604080832033845282528083208684529091529020545f19811461156c576115408382614c0d565b6001600160a01b0387165f90815260056020908152604080832033845282528083208884529091529020555b505b6001600160a01b0385165f908152600460209081526040808320868452909152812080548492906115a0908490614c0d565b90915550506001600160a01b0384165f908152600460209081526040808320868452909152812080548492906115d7908490614c20565b9091555050604080513381526020810184905284916001600160a01b0380881692908916917f1b3d7edb2e9c0b0e7c525b20aaaef0f5940d2ed71663c7d39266ecafac728859910160405180910390a45060015b949350505050565b805f5260045ffd5b5f6f800000000000000000000000000000008210611663576116636393dafdf160e01b611633565b5090565b81600f0b5f0361167657505050565b5f8061168c6001600160a01b0386168486612a28565b91509150805f036116a45761169f612a61565b6116b3565b815f036116b3576116b3612aaf565b5050505050565b5f6001600160a01b0384166116ed575f805f8085875af19050806116e8576116e86356cdd02560e11b612afd565b6108c1565b60405163a9059cbb60e01b81526001600160a01b038416600482015282602482015260205f6044835f895af13d15601f3d1160015f511416171691505f81525f60208201525f604082015250806108c1576108c1632745a14f60e21b612afd565b5f7f27e098c505d44ec3574004bca052aabf76bd35004c182099d8c575fb238593b95c6001600160a01b038116611787573491506117eb565b341561179d5761179d6319d245cf60e01b611633565b7f1e0745a7db1623981f0b2a5d4232364c00787266eb75ad546f190e6cebe9bd955c5f6117d26001600160a01b03841661256e565b90506117de8282614c0d565b93506117e8612b2a565b50505b6117fe816117f88461163b565b85611667565b50919050565b6001600160a01b0383165f90815260046020908152604080832085845290915281208054839290611836908490614c20565b9091555050604080513381526020810183905283916001600160a01b038616915f917f1b3d7edb2e9c0b0e7c525b20aaaef0f5940d2ed71663c7d39266ecafac72885991015b60405180910390a4505050565b306001600160a01b037f000000000000000000000000000000000000000000000000000000000000000016146118c9576118c96306c4a1c760e11b611633565b565b80546001600160a01b03165f036118ec576118ec63486aa30760e01b611633565b50565b85336001600160a01b038216146119635760208716156119635761196133878787878760405160240161192796959493929190614d82565b60408051601f198184030181529190526020810180516001600160e01b0316635b54587d60e11b1790526001600160a01b03891690612b4f565b505b50505050505050565b60038301545f906001600160801b03168082036119935761199363a74f97ab60e01b611633565b6119c161199f8561163b565b5f036119aa8561163b565b5f0360809190911b6001600160801b039091161790565b915083156119ed576119e184600160801b836001600160801b0316612bdf565b60018601805490910190555b8215611a1757611a0b83600160801b836001600160801b0316612bdf565b60028601805490910190555b509392505050565b8251611a3590611a2f8460801d90565b83611667565b6108458360200151611a2f84600f0b90565b85336001600160a01b0382161461196357601087161561196357611961338787878787604051602401611a7f96959493929190614d82565b60408051601f198184030181529190526020810180516001600160e01b031663e1b4af6960e01b1790526001600160a01b03891690612b4f565b60015f805160206150f38339815191525d565b5f5f805160206150f38339815191525d565b620f424062ffffff821611156118ec576118ec631400211360e01b62ffffff831661222b565b611b0d826118cb565b81547fffffff000000ffffffffffffffffffffffffffffffffffffffffffffffffffff1662ffffff60d01b60d083901b16175b90915550565b84336001600160a01b03821614611c40575f8460400151138015611b6d5750610800861615155b15611bce57611bc83386868686604051602401611b8e959493929190614dcc565b60408051601f198184030181529190526020810180516001600160e01b031663259982e560e01b1790526001600160a01b03881690612b4f565b50611c40565b5f846040015113158015611be55750610200861615155b15611c40576119633386868686604051602401611c06959493929190614dcc565b60408051601f198184030181529190526020810180516001600160e01b031663021d0ee760e41b1790526001600160a01b03881690612b4f565b505050505050565b80600f81900b8114610a8e57610a8e6393dafdf160e01b611633565b6060810151602082015160408301515f9283929091611c838282612c7b565b604080516080810182525f80825260208201819052918101829052606081019190915283600f0b5f14611dc857611cbc8884865f612cdb565b6001600160801b0316602083015215158152611cdb8883866001612cdb565b6001600160801b03166060830152151560408201525f600f85900b12611d8d575f611d2b886080015160020b620d89e7198190058102620d89e8829005820203056001016001600160801b030490565b9050806001600160801b031682602001516001600160801b03161115611d5c57611d5c63b8e3c38560e01b85612139565b806001600160801b031682606001516001600160801b03161115611d8b57611d8b63b8e3c38560e01b84612139565b505b805115611da9576080870151611da99060058a01908590612d95565b806040015115611dc8576080870151611dc89060058a01908490612d95565b5f80611dd58a8686612de7565b8a5160a08c015160408051602681019290925260068083018a9052600383018b9052928252603a600c8301205f838301819052602080850182905293819052908152928f01909152812092945090925080611e32838a8787612e9b565b91509150611e5e611e428361163b565b611e4b8361163b565b6001600160801b031660809190911b1790565b995050505050505f84600f0b1215611ec757805115611e9a57600283810b5f90815260048a016020526040812081815560018101829055909101555b806040015115611ec757600282810b5f90815260048a016020526040812081815560018101829055909101555b5082600f0b5f14611fdd5786545f80611ee38360a01c60020b90565b6001600160a01b038416915091508460020b8260020b1215611f3257611f2b611f25611f20611f1188612f5d565b611f1a88612f5d565b8a613215565b611c48565b60801b90565b9750611fd9565b8360020b8260020b1215611fb457611f69611f53611f2083611f1a88612f5d565b611e4b611f20611f6289612f5d565b858b61324d565b60038b0154909850611f84906001600160801b031687613279565b60038b0180546fffffffffffffffffffffffffffffffff19166001600160801b0392909216919091179055611fd9565b611fd65f611e4b611f20611fc789612f5d565b611fd089612f5d565b8b61324d565b97505b5050505b5050509250929050565b5f608082811d9084901d01600f83810b9085900b0161201161200883611c48565b611e4b83611c48565b95945050505050565b5f806001600160a01b038816330361203657508390505f61212e565b8491505f866040015113156120c2576104008816156120bd576120ae33888888888860405160240161206d96959493929190614e2c565b60408051601f198184030181529190526020810180516001600160e01b0316625a2a8160e81b17905260028a1615155b6001600160a01b038b1691906132a0565b90506120ba82826132e1565b91505b61212e565b61010088161561212e5761211f3388888888886040516024016120ea96959493929190614e2c565b60408051601f198184030181529190526020810180516001600160e01b03166346d95b2960e11b17905260018a16151561209d565b905061212b82826132e1565b91505b965096945050505050565b815f528060020b60045260245ffd5b825f526001600160a01b0382166004526001600160a01b03811660245260445ffd5b5f6080831615801561217e57506008831615155b1561218a57505f610739565b6040831615801561219d57506004831615155b156121a957505f610739565b61040083161580156121bd57506002831615155b156121c957505f610739565b61010083161580156121dd57506001831615155b156121e957505f610739565b6001600160a01b0383161561221a57613fff831615158061221557506280000062ffffff8316146107f2565b6107f2565b5062ffffff16628000001415919050565b815f526001600160a01b03811660045260245ffd5b5f6280000062ffffff83160361225757505f919050565b6116638262ffffff16611ade565b84336001600160a01b03821614611c4057612000861615611c4057611963338686868660405160240161229c959493929190614e93565b60408051601f198184030181529190526020810180516001600160e01b03166301a206c160e51b1790526001600160a01b03881690612b4f565b6002545f9081906001600160a01b031615612403577f00000000000000000000000000000000000000000000000000000000000000005a101561232357612323630f724b8160e11b611633565b6002546040517f0000000000000000000000000000000000000000000000000000000000000000916001600160a01b0316905f90612365908790602401614ed3565b60408051601f198184030181529190526020810180516001600160e01b031663553bfc3760e01b17815281519192505f918291829190828789f13d60201416955085156123bc576040513d5f823e805191505f8152505b8580156123cd57508062ffffff1681145b80156123ea57506103e9610fff821610623e900062fff000831610165b6123f5575f806123f9565b6001815b9096509450505050505b915091565b83545f906001600160a01b03161561242a5761242a637983c05160e01b611633565b61243384613302565b905062ffffff60d01b60d083901b1662ffffff60a01b60a083901b166001600160a01b0386161760b885901b62ffffff60b81b161717909455509192915050565b85336001600160a01b0382161461196357611000871615611963576119613387878787876040516024016124ad96959493929190614ee1565b60408051601f198184030181529190526020810180516001600160e01b031663a910f80f60e01b1790526001600160a01b03891690612b4f565b6124f0826118cb565b81547fffffffffffff000000ffffffffffffffffffffffffffffffffffffffffffffff1662ffffff60b81b60b883901b1617611b40565b61255a7f27e098c505d44ec3574004bca052aabf76bd35004c182099d8c575fb238593b95c6001600160a01b031661362f565b6118c9576118c963996caf6560e01b611633565b5f6001600160a01b038216612584575047919050565b6040516370a0823160e01b81523060048201526001600160a01b038316906370a0823190602401602060405180830381865afa1580156125c6573d5f803e3d5ffd5b505050506040513d601f19601f820116820180604052508101906107399190614f2b565b6001600160a01b0382167f27e098c505d44ec3574004bca052aabf76bd35004c182099d8c575fb238593b95d807f1e0745a7db1623981f0b2a5d4232364c00787266eb75ad546f190e6cebe9bd955d5050565b60208301515f806001600160a01b038816330361265c575f915061274e565b608088161561274e575f6126b289338a8a8a8a604051602401612683959493929190614f42565b60408051601f198184030181529190526020810180516001600160e01b03166315d7892d60e21b179052612b4f565b905080516060146126cd576126cd631e048e1d60e01b611633565b604088015162ffffff1662800000036126e857606081015191505b600889161561274c57604081015192505f6127038460801d90565b905080600f0b5f1461274a575f8512612720600f83900b87614f9b565b95508061272f575f8612612733565b5f86135b1561274857612748637d05b8eb60e11b611633565b505b505b505b955095509592505050565b5f808080806127688988613640565b93509350935093505f831115612796576001600160a01b0386165f9081526001602052604090208054840190555b33887f40e9cecb9f5f1f1c5b9c97dec2917b7ee92e57ba5563708daca94dd84ad7112f6127c38760801d90565b6127cd88600f0b90565b60408087015160a088015160608901519251612832959493908b90600f96870b81529490950b60208501526001600160a01b039290921660408401526001600160801b0316606083015260020b608082015262ffffff9190911660a082015260c00190565b60405180910390a35091979650505050505050565b5f806001600160a01b038916330361286357508490505f61295e565b5f61286e8460801d90565b90505f61287b85600f0b90565b905060408b16156128f5576128e8611f20338c8c8c8c8c6040516024016128a796959493929190614fc2565b60408051601f198184030181529190526020810180516001600160e01b031663b47b2fb160e01b17905260048e1615156001600160a01b038f1691906132a0565b6128f29082615022565b90505b5f81600f0b5f14158061290b575082600f0b5f14155b1561295657895160208b01515f1390151514612936576001600160801b038316608083901b17612947565b6001600160801b038216608084901b175b905061295389826132e1565b98505b889450925050505b97509795505050505050565b336001600160a01b03841681148015906129a957506001600160a01b038085165f9081526003602090815260408083209385168352929052205460ff16155b15612a1d576001600160a01b038085165f9081526005602090815260408083209385168352928152828220868352905220545f198114612a1b576129ed8382614c0d565b6001600160a01b038087165f9081526005602090815260408083209387168352928152828220888352905220555b505b6108c1848484613d03565b6001600160a01b038281165f90815290841660205260408120805c9190612a53600f85900b84614f9b565b915081815d50935093915050565b7f7d4b3164c6e45b97e7d87b7125a44c5828d005af88f9d751cfd78729c5d99a0b5c600181039050807f7d4b3164c6e45b97e7d87b7125a44c5828d005af88f9d751cfd78729c5d99a0b5d50565b7f7d4b3164c6e45b97e7d87b7125a44c5828d005af88f9d751cfd78729c5d99a0b5c600181019050807f7d4b3164c6e45b97e7d87b7125a44c5828d005af88f9d751cfd78729c5d99a0b5d50565b3d60405182815260206004820152816024820152815f604483013e602080601f8401040260440191508181fd5b5f7f27e098c505d44ec3574004bca052aabf76bd35004c182099d8c575fb238593b95d565b60605f805f8451602086015f885af1905080612b7557612b7563fb6a608160e01b612afd565b6040519150601f19603f3d011682016040523d82523d5f602084013e602082511080612bc3575060208301516001600160e01b031916612bb6836020015190565b6001600160e01b03191614155b15612bd857612bd8631e048e1d60e01b611633565b5092915050565b5f838302815f1985870982811083820303915050808411612bfe575f80fd5b805f03612c10575082900490506107f2565b5f848688095f868103871696879004966002600389028118808a02820302808a02820302808a02820302808a02820302808a02820302808a02909103029181900381900460010186841190950394909402919094039290920491909117919091029150509392505050565b8060020b8260020b12612c9a57612c9a63c4433ed560e01b8383613d7f565b620d89e719600283900b1215612cbb57612cbb63d5e2f7ab60e01b83612139565b620d89e8600282900b13156112525761125263035aeeff60e31b82612139565b600283900b5f908152600485016020526040812080548291906001600160801b0381169060801d612d0c8288613279565b6001600160801b03808216159084168015919091141596509094505f03612d5657885460a01c60020b60020b8860020b13612d56576001808a0154908401556002808a0154908401555b5f86612d6b57612d668883615022565b612d75565b612d758883615061565b90508060801b6001600160801b0386161784555050505094509492505050565b600291820b910b80820715612dc25760405163d4d8f3e681528260208201528160408201526044601c8201fd5b80820591508160081d5f528260205260405f20600160ff84161b815418815550505050565b600282810b5f81815260048601602052604080822085850b83529082208754929485949293919260a09290921c900b90811215612e3d578160010154836001015403945081600201548360020154039350612e90565b8560020b8160020b12612e69578260010154826001015403945082600201548260020154039350612e90565b81600101548360010154896001015403039450816002015483600201548960020154030393505b505050935093915050565b83545f9081906001600160801b0316600f86900b8203612eda57806001600160801b03165f03612ed557612ed5632bbfae4960e21b611633565b612f09565b612ee48187613279565b87546fffffffffffffffffffffffffffffffff19166001600160801b03919091161787555b612f2787600101548603826001600160801b0316600160801b612bdf565b9250612f4787600201548503826001600160801b0316600160801b612bdf565b6001880195909555505060029094015591929050565b60020b5f60ff82901d80830118620d89e8811115612f8657612f866345c3193d60e11b84612139565b7001fffcb933bd6fad37aa2d162d1a5940016001821602600160801b186002821615612fc2576ffff97272373d413259a46990580e213a0260801c5b6004821615612fe1576ffff2e50f5f656932ef12357cf3c7fdcc0260801c5b6008821615613000576fffe5caca7e10e4e61c3624eaa0941cd00260801c5b601082161561301f576fffcb9843d60f6159c9db58835c9266440260801c5b602082161561303e576fff973b41fa98c081472e6896dfb254c00260801c5b604082161561305d576fff2ea16466c96a3843ec78b326b528610260801c5b608082161561307c576ffe5dee046a99a2a811c461f1969c30530260801c5b61010082161561309c576ffcbe86c7900a88aedcffc83b479aa3a40260801c5b6102008216156130bc576ff987a7253ac413176f2b074cf7815e540260801c5b6104008216156130dc576ff3392b0822b70005940c7a398e4b70f30260801c5b6108008216156130fc576fe7159475a2c29b7443b29c7fa6e889d90260801c5b61100082161561311c576fd097f3bdfd2022b8845ad8f792aa58250260801c5b61200082161561313c576fa9f746462d870fdf8a65dc1f90e061e50260801c5b61400082161561315c576f70d869a156d2a1b890bb3df62baf32f70260801c5b61800082161561317c576f31be135f97d08fd981231505542fcfa60260801c5b6201000082161561319d576f09aa508b5b7a84e1c677de54f3e99bc90260801c5b620200008216156131bd576e5d6af8dedb81196699c329225ee6040260801c5b620400008216156131dc576d2216e584f5fa1ea926041bedfe980260801c5b620800008216156131f9576b048a170391f7dc42444e8fa20260801c5b5f841315613205575f19045b63ffffffff0160201c9392505050565b5f8082600f0b1261323c576132356132308585856001613d9c565b613e71565b5f0361162b565b61162b6132308585855f035f613d9c565b5f8082600f0b12613268576132356132308585856001613e8a565b61162b6132308585855f035f613e8a565b6001600160801b038216600f82900b01608081901c15610739576393dafdf15f526004601cfd5b5f806132ac8585612b4f565b9050826132bc575f9150506107f2565b80516040146132d5576132d5631e048e1d60e01b611633565b60400151949350505050565b5f608082811d9084901d03600f83810b9085900b0361201161200883611c48565b5f73fffd8963efd1fc6a506488495d951d51639616826401000276a21983016001600160a01b03161115613341576133416318521d4960e21b8361222b565b77ffffffffffffffffffffffffffffffffffffffff00000000602083901b166001600160801b03811160071b81811c67ffffffffffffffff811160061b90811c63ffffffff811160051b90811c61ffff811160041b90811c60ff8111600390811b91821c600f811160021b90811c918211600190811b92831c979088119617909417909217179091171717608081106133e257607f810383901c91506133ec565b80607f0383901b91505b908002607f81811c60ff83811c9190911c800280831c81831c1c800280841c81841c1c800280851c81851c1c800280861c81861c1c800280871c81871c1c800280881c81881c1c800280891c81891c1c8002808a1c818a1c1c8002808b1c818b1c1c8002808c1c818c1c1c8002808d1c818d1c1c8002808e1c9c81901c9c909c1c80029c8d901c9e9d607f198f0160401b60c09190911c678000000000000000161760c19b909b1c674000000000000000169a909a1760c29990991c672000000000000000169890981760c39790971c671000000000000000169690961760c49590951c670800000000000000169490941760c59390931c670400000000000000169290921760c69190911c670200000000000000161760c79190911c670100000000000000161760c89190911c6680000000000000161760c99190911c6640000000000000161760ca9190911c6620000000000000161760cb9190911c6610000000000000161760cc9190911c6608000000000000161760cd9190911c66040000000000001617693627a301d71055774c8581026f028f6481ab7f045a5af012a19d003aa9198101608090811d906fdb2df09e81959a81455e260799a0632f8301901d600281810b9083900b146135ec57886001600160a01b03166135d182612f5d565b6001600160a01b031611156135e657816135ee565b806135ee565b815b9998505050505050505050565b60a01b62ffffff60a01b167fffffffffffffffffff000000ffffffffffffffffffffffffffffffffffffffff919091161790565b5f6001600160a01b03821615610739565b6040805160c0810182525f80825260208201819052918101829052606081018290526080810182905260a08101829052819081908554602086015160038801546001600160801b03165f8261369d57610fff60c485901c166136a7565b610fff60b885901c165b60408a81015187525f60208801526001600160a01b0386169087015260a085901c60020b606087015261ffff169050826136e55789600201546136eb565b89600101545b6080868101919091526001600160801b03831660a08701528901515f9062400000166137205760d085901c62ffffff16613732565b6137328a6080015162ffffff16613ed6565b9050811561376057620f424062ffffff821661ffff8416818102838106151593900492909201910103613762565b805b60408b01519097505f13905062ffffff8716620f4240148015613783575080155b1561379857613798634b10312360e11b611633565b89604001515f036137b3575f80985098505050505050613cfa565b83156138315760608a01516001600160a01b038681169116106137f2576137f26001600160a01b0386165b60608c0151637c9c6e8f60e01b9190613ee5565b6401000276a36001600160a01b03168a606001516001600160a01b0316101561382c5760608a015161382c90639e4d7cc760e01b9061222b565b6138a2565b60608a01516001600160a01b0386811691161161385a5761385a6001600160a01b0386166137de565b73fffd8963efd1fc6a506488495d951d5263988d266001600160a01b03168a606001516001600160a01b0316106138a25760608a01516138a290639e4d7cc760e01b9061222b565b6040805160e0810182525f80825260208201819052918101829052606081018290526080810182905260a0810182905260c08101919091525b8651158061390257508a606001516001600160a01b031687604001516001600160a01b0316145b613bed5760408701516001600160a01b0316815260608701518b5161392c9160058f019188613f0e565b1515604083015260020b60208201819052620d89e7191261395257620d89e71960208201525b620d89e860020b816020015160020b1261397057620d89e860208201525b61397d8160200151612f5d565b6001600160a01b03908116606083810182905260408a0151908e01516139be939192911680821891811160ff8a1618919091021860a08a01518a518c613ff7565b60c085015260a084015260808301526001600160a01b0316604088015281613a22576139ed8160a00151613e71565b875103875260c08101516080820151613a099161323091614c20565b87602001818151613a1a91906150a0565b905250613a5d565b613a358160c00151826080015101613e71565b875101875260a0810151613a4890613e71565b87602001818151613a599190614f9b565b9052505b8215613a99575f620f4240848360c001518460800151010281613a8257613a826150bf565b60c084018051929091049182900390529990990198505b60a08701516001600160801b031615613ad857613acc8160c00151600160801b8960a001516001600160801b0316612bdf565b60808801805190910190525b80606001516001600160a01b031687604001516001600160a01b031603613bb257806040015115613b9a575f8086613b19578d600101548960800151613b24565b88608001518e600201545b915091505f613b6f8f85602001518585600292830b5f90815260049094016020526040909320600181018054909203909155908101805490920390915554600160801b9004600f0b90565b90508715613b7a575f035b613b888a60a0015182613279565b6001600160801b031660a08b01525050505b602081015160ff8616900360020b60608801526138db565b805f01516001600160a01b031687604001516001600160a01b031614613be857613bdf8760400151613302565b60020b60608801525b6138db565b613c328760400151613c0c8960600151896135fb90919063ffffffff16565b73ffffffffffffffffffffffffffffffffffffffff19166001600160a01b039091161790565b8c5560a08701516001600160801b03858116911614613c7b5760a087015160038d0180546fffffffffffffffffffffffffffffffff19166001600160801b039092169190911790555b84613c8f57608087015160028d0155613c9a565b608087015160018d01555b81151585151514613cce57613cc7613cb58860200151611c48565b611e4b895f01518e6040015103611c48565b9950613cf3565b613cf0613ce3885f01518d6040015103611c48565b611e4b8960200151611c48565b99505b5050505050505b92959194509250565b6001600160a01b0383165f90815260046020908152604080832085845290915281208054839290613d35908490614c0d565b9091555050604080513381526020810183905283915f916001600160a01b038716917f1b3d7edb2e9c0b0e7c525b20aaaef0f5940d2ed71663c7d39266ecafac728859910161187c565b6040518381528260020b60048201528160020b6024820152604481fd5b5f836001600160a01b0316856001600160a01b03161115613dbb579293925b6001600160a01b038516613dd55762bfc9215f526004601cfd5b7bffffffffffffffffffffffffffffffff000000000000000000000000606084901b166001600160a01b038686031683613e3a57866001600160a01b0316613e278383896001600160a01b0316612bdf565b81613e3457613e346150bf565b04613e66565b613e66613e518383896001600160a01b031661417d565b886001600160a01b0316808204910615150190565b979650505050505050565b805f811215610a8e57610a8e6393dafdf160e01b611633565b5f6001600160a01b038481169086160360ff81901d90810118600160601b6001600160801b038516613ebd818484612bdf565b9350845f83858409111684019350505050949350505050565b62bfffff8116610a8e81611ade565b6040518381526001600160a01b03831660048201526001600160a01b0382166024820152604481fd5b5f80600284810b9086900b8181078313919005038315613f8957600281900b60081d600181810b5f90815260208a905260409020545f1960ff85168381019390931b01908116801515955085613f6b57888360ff16860302613f7e565b88613f75826141ad565b840360ff168603025b965050505050613fed565b6001908101600281900b60081d80830b5f90815260208a905260409020545f1960ff841694851b011990811680151595509293919285613fd357888360ff0360ff16860102613fe6565b8883613fde8361423e565b0360ff168601025b9650505050505b5094509492505050565b5f80808062ffffff85166001600160a01b03808a16908b16101582881280156140f0575f6140308a5f0385620f424003620f4240612bdf565b905082614049576140448d8d8d6001613e8a565b614056565b6140568c8e8d6001613d9c565b965086811061408a578b9750620f424084146140815761407c878586620f42400361417d565b614083565b865b94506140c6565b6140968d8c83866142d9565b9750826140af576140aa8d898d6001613e8a565b6140bc565b6140bc888e8d6001613d9c565b9650868a5f030394505b826140dc576140d78d898d5f613d9c565b6140e8565b6140e8888e8d5f613e8a565b95505061416e565b81614106576141018c8c8c5f613d9c565b614112565b6141128b8d8c5f613e8a565b9450848910614123578a9650614135565b8894506141328c8b8785614327565b96505b8161414c576141478c888c6001613e8a565b614159565b614159878d8c6001613d9c565b955061416b868485620f42400361417d565b93505b50505095509550955095915050565b5f614189848484612bdf565b90508180614199576141996150bf565b838509156107f257600101806107f2575f80fd5b5f8082116141b9575f80fd5b507f0706060506020504060203020504030106050205030304010505030400000000601f6f8421084210842108cc6318c6db6d54be831560081b6001600160801b03851160071b1784811c67ffffffffffffffff1060061b1784811c63ffffffff1060051b1784811c61ffff1060041b1784811c60ff1060031b1793841c1c161a1790565b5f80821161424a575f80fd5b507e1f0d1e100c1d070f090b19131c1706010e11080a1a141802121b150316040581196001019091166101e07f804040554300526644320000502061067405302602000010750620017611707760fc7fb6db6db6ddddddddd34d34d349249249210842108c6318c639ce739cffffffff840260f81c161b60f71c1690811c63d76453e004601f169190911a1790565b5f6001600160801b038416156001600160a01b03861615171561430357634f2461b85f526004601cfd5b8161431a57614315858585600161436a565b612011565b6120118585856001614455565b5f6001600160801b038416156001600160a01b03861615171561435157634f2461b85f526004601cfd5b81614362576143158585855f614455565b6120118585855f5b5f81156143da575f6001600160a01b0384111561439e5761439984600160601b876001600160801b0316612bdf565b6143b5565b6143b56001600160801b038616606086901b6150d3565b90506143d26143cd826001600160a01b038916614c20565b614549565b91505061162b565b5f6001600160a01b038411156144075761440284600160601b876001600160801b031661417d565b614424565b614424606085901b6001600160801b038716808204910615150190565b9050806001600160a01b0387161161444357634323a5555f526004601cfd5b6001600160a01b03861603905061162b565b5f825f0361446457508361162b565b7bffffffffffffffffffffffffffffffff000000000000000000000000606085901b168215614508576001600160a01b038616848102908582816144aa576144aa6150bf565b04036144da578181018281106144d8576144ce83896001600160a01b03168361417d565b935050505061162b565b505b506143d281856144f36001600160a01b038a16836150d3565b6144fd9190614c20565b808204910615150190565b6001600160a01b03861684810290858204148183111661452f5763f5c787f15f526004601cfd5b8082036144ce6143cd846001600160a01b038b168461417d565b806001600160a01b0381168114610a8e57610a8e6393dafdf160e01b611633565b6001600160a01b03811681146118ec575f80fd5b5f806040838503121561458f575f80fd5b823561459a8161456a565b946020939093013593505050565b5f602082840312156145b8575f80fd5b81356001600160e01b0319811681146107f2575f80fd5b5f805f606084860312156145e1575f80fd5b83356145ec8161456a565b95602085013595506040909401359392505050565b5f805f60608486031215614613575f80fd5b833561461e8161456a565b9250602084013561462e8161456a565b929592945050506040919091013590565b5f6020828403121561464f575f80fd5b5035919050565b634e487b7160e01b5f52604160045260245ffd5b6040516080810167ffffffffffffffff8111828210171561468d5761468d614656565b60405290565b604051601f8201601f1916810167ffffffffffffffff811182821017156146bc576146bc614656565b604052919050565b803562ffffff81168114610a8e575f80fd5b8035600281900b8114610a8e575f80fd5b5f60a082840312156146f7575f80fd5b60405160a0810167ffffffffffffffff8111828210171561471a5761471a614656565b604052905080823561472b8161456a565b8152602083013561473b8161456a565b602082015261474c604084016146c4565b604082015261475d606084016146d6565b606082015260808301356147708161456a565b6080919091015292915050565b5f8083601f84011261478d575f80fd5b50813567ffffffffffffffff8111156147a4575f80fd5b6020830191508360208285010111156147bb575f80fd5b9250929050565b5f805f805f61010086880312156147d7575f80fd5b6147e187876146e7565b945060a0860135935060c0860135925060e086013567ffffffffffffffff81111561480a575f80fd5b6148168882890161477d565b969995985093965092949392505050565b5f60208284031215614837575f80fd5b81356107f28161456a565b5f8060408385031215614853575f80fd5b50508035926020909101359150565b602080825282518282018190525f918401906040840190835b8181101561489957835183526020938401939092019160010161487b565b509095945050505050565b5f80602083850312156148b5575f80fd5b823567ffffffffffffffff8111156148cb575f80fd5b6148d78582860161477d565b90969095509350505050565b602081525f82518060208401528060208501604085015e5f604082850101526040601f19601f83011684010191505092915050565b5f8060c08385031215614929575f80fd5b61493384846146e7565b915061494160a084016146c4565b90509250929050565b80358015158114610a8e575f80fd5b5f806040838503121561496a575f80fd5b82356149758161456a565b91506149416020840161494a565b5f805f80848603610140811215614998575f80fd5b6149a287876146e7565b94506080609f19820112156149b5575f80fd5b506149be61466a565b6149ca60a087016146d6565b81526149d860c087016146d6565b602082015260e086013560408201526101008601356060820152925061012085013567ffffffffffffffff811115614a0e575f80fd5b614a1a8782880161477d565b95989497509550505050565b5f805f8060e08587031215614a39575f80fd5b614a4386866146e7565b935060a0850135614a538161456a565b925060c085013567ffffffffffffffff811115614a0e575f80fd5b5f8060208385031215614a7f575f80fd5b823567ffffffffffffffff811115614a95575f80fd5b8301601f81018513614aa5575f80fd5b803567ffffffffffffffff811115614abb575f80fd5b8560208260051b8401011115614acf575f80fd5b6020919091019590945092505050565b5f8060408385031215614af0575f80fd5b8235614afb8161456a565b91506020830135614b0b8161456a565b809150509250929050565b5f805f80848603610120811215614b2b575f80fd5b614b3587876146e7565b94506060609f1982011215614b48575f80fd5b506040516060810167ffffffffffffffff81118282101715614b6c57614b6c614656565b604052614b7b60a0870161494a565b815260c0860135602082015260e0860135614b958161456a565b6040820152925061010085013567ffffffffffffffff811115614a0e575f80fd5b5f805f8060808587031215614bc9575f80fd5b8435614bd48161456a565b93506020850135614be48161456a565b93969395505050506040820135916060013590565b634e487b7160e01b5f52601160045260245ffd5b8181038181111561073957610739614bf9565b8082018082111561073957610739614bf9565b81835281816020850137505f828201602090810191909152601f909101601f19169091010190565b602081525f61162b602083018486614c33565b5f60208284031215614c7e575f80fd5b815167ffffffffffffffff811115614c94575f80fd5b8201601f81018413614ca4575f80fd5b805167ffffffffffffffff811115614cbe57614cbe614656565b614cd1601f8201601f1916602001614693565b818152856020838501011115614ce5575f80fd5b8160208401602083015e5f91810160200191909152949350505050565b5f81600f0b6f7fffffffffffffffffffffffffffffff198103614d2757614d27614bf9565b5f0392915050565b6001600160a01b0381511682526001600160a01b03602082015116602083015262ffffff6040820151166040830152606081015160020b60608301526001600160a01b0360808201511660808301525050565b6001600160a01b0387168152614d9b6020820187614d2f565b8460c08201528360e08201526101206101008201525f614dc061012083018486614c33565b98975050505050505050565b6001600160a01b0386168152614de56020820186614d2f565b8351600290810b60c08301526020850151900b60e0820152604084015161010082015260608401516101208201526101606101408201525f613e6661016083018486614c33565b6001600160a01b0387168152614e456020820187614d2f565b8451600290810b60c08301526020860151900b60e082015260408501516101008201526060850151610120820152836101408201526101806101608201525f614dc061018083018486614c33565b6001600160a01b0386168152614eac6020820186614d2f565b6001600160a01b03841660c082015261010060e08201525f613e6661010083018486614c33565b60a081016107398284614d2f565b6001600160a01b0387168152614efa6020820187614d2f565b6001600160a01b03851660c08201528360020b60e08201526101206101008201525f614dc061012083018486614c33565b5f60208284031215614f3b575f80fd5b5051919050565b6001600160a01b0386168152614f5b6020820186614d2f565b8351151560c0820152602084015160e082015260408401516001600160a01b03166101008201526101406101208201525f613e6661014083018486614c33565b8082018281125f831280158216821582161715614fba57614fba614bf9565b505092915050565b6001600160a01b0387168152614fdb6020820187614d2f565b8451151560c0820152602085015160e082015260408501516001600160a01b0316610100820152836101208201526101606101408201525f614dc061016083018486614c33565b600f81810b9083900b016f7fffffffffffffffffffffffffffffff81136f7fffffffffffffffffffffffffffffff198212171561073957610739614bf9565b600f82810b9082900b036f7fffffffffffffffffffffffffffffff1981126f7fffffffffffffffffffffffffffffff8213171561073957610739614bf9565b8181035f831280158383131683831282161715612bd857612bd8614bf9565b634e487b7160e01b5f52601260045260245ffd5b5f826150ed57634e487b7160e01b5f52601260045260245ffd5b50049056fec090fc4683624cfc3884e9d8de5eca132f2d0ec062aff75d43c0465d5ceeab23a2646970667358221220bca30e98040887800866e22ac14f7c250af52222d8feecbb39952a4c252d684964736f6c634300081a0033","linkReferences":{}},"methodIdentifiers":{"MAX_TICK_SPACING()":"60460f06","MIN_TICK_SPACING()":"07eff0dd","allowance(address,address,uint256)":"598af9e7","approve(address,uint256,uint256)":"426a8493","balanceOf(address,uint256)":"00fdd58e","burn(address,uint256,uint256)":"f5298aca","clear(address,uint256)":"80f0b44c","collectProtocolFees(address,address,uint256)":"8161b874","donate((address,address,uint24,int24,address),uint256,uint256,bytes)":"234266d7","extsload(bytes32)":"1e2eaeaf","extsload(bytes32,uint256)":"35fd631a","extsload(bytes32[])":"dbd035ff","exttload(bytes32)":"f135baaa","exttload(bytes32[])":"9bf6645f","initialize((address,address,uint24,int24,address),uint160,bytes)":"695c5bf5","isOperator(address,address)":"b6363cf2","mint(address,uint256,uint256)":"156e29f6","modifyLiquidity((address,address,uint24,int24,address),(int24,int24,int256,bytes32),bytes)":"5a6bcfda","owner()":"8da5cb5b","protocolFeeController()":"f02de3b2","protocolFeesAccrued(address)":"97e8cd4e","setOperator(address,bool)":"558a7297","setProtocolFee((address,address,uint24,int24,address),uint24)":"7e87ce7d","setProtocolFeeController(address)":"2d771389","settle()":"11da60b4","settleFor(address)":"3dd45adb","supportsInterface(bytes4)":"01ffc9a7","swap((address,address,uint24,int24,address),(bool,int256,uint160),bytes)":"f3cd914c","sync(address)":"a5841194","take(address,address,uint256)":"0b0d9c09","transfer(address,uint256,uint256)":"095bcdb6","transferFrom(address,address,uint256,uint256)":"fe99049a","transferOwnership(address)":"f2fde38b","unlock(bytes)":"48c89491","updateDynamicLPFee((address,address,uint24,int24,address),uint24)":"52759651"},"id":34}