{"abi":[{"type":"constructor","inputs":[{"name":"controllerGasLimit","type":"uint256","internalType":"uint256"}],"stateMutability":"nonpayable"},{"type":"function","name":"MAX_TICK_SPACING","inputs":[],"outputs":[{"name":"","type":"int24","internalType":"int24"}],"stateMutability":"view"},{"type":"function","name":"MIN_TICK_SPACING","inputs":[],"outputs":[{"name":"","type":"int24","internalType":"int24"}],"stateMutability":"view"},{"type":"function","name":"allowance","inputs":[{"name":"owner","type":"address","internalType":"address"},{"name":"spender","type":"address","internalType":"address"},{"name":"id","type":"uint256","internalType":"uint256"}],"outputs":[{"name":"amount","type":"uint256","internalType":"uint256"}],"stateMutability":"view"},{"type":"function","name":"approve","inputs":[{"name":"spender","type":"address","internalType":"address"},{"name":"id","type":"uint256","internalType":"uint256"},{"name":"amount","type":"uint256","internalType":"uint256"}],"outputs":[{"name":"","type":"bool","internalType":"bool"}],"stateMutability":"nonpayable"},{"type":"function","name":"balanceOf","inputs":[{"name":"owner","type":"address","internalType":"address"},{"name":"id","type":"uint256","internalType":"uint256"}],"outputs":[{"name":"balance","type":"uint256","internalType":"uint256"}],"stateMutability":"view"},{"type":"function","name":"burn","inputs":[{"name":"from","type":"address","internalType":"address"},{"name":"id","type":"uint256","internalType":"uint256"},{"name":"amount","type":"uint256","internalType":"uint256"}],"outputs":[],"stateMutability":"nonpayable"},{"type":"function","name":"clear","inputs":[{"name":"currency","type":"address","internalType":"Currency"},{"name":"amount","type":"uint256","internalType":"uint256"}],"outputs":[],"stateMutability":"nonpayable"},{"type":"function","name":"collectProtocolFees","inputs":[{"name":"recipient","type":"address","internalType":"address"},{"name":"currency","type":"address","internalType":"Currency"},{"name":"amount","type":"uint256","internalType":"uint256"}],"outputs":[{"name":"amountCollected","type":"uint256","internalType":"uint256"}],"stateMutability":"nonpayable"},{"type":"function","name":"donate","inputs":[{"name":"key","type":"tuple","internalType":"struct PoolKey","components":[{"name":"currency0","type":"address","internalType":"Currency"},{"name":"currency1","type":"address","internalType":"Currency"},{"name":"fee","type":"uint24","internalType":"uint24"},{"name":"tickSpacing","type":"int24","internalType":"int24"},{"name":"hooks","type":"address","internalType":"contract IHooks"}]},{"name":"amount0","type":"uint256","internalType":"uint256"},{"name":"amount1","type":"uint256","internalType":"uint256"},{"name":"hookData","type":"bytes","internalType":"bytes"}],"outputs":[{"name":"delta","type":"int256","internalType":"BalanceDelta"}],"stateMutability":"nonpayable"},{"type":"function","name":"extsload","inputs":[{"name":"slot","type":"bytes32","internalType":"bytes32"}],"outputs":[{"name":"","type":"bytes32","internalType":"bytes32"}],"stateMutability":"view"},{"type":"function","name":"extsload","inputs":[{"name":"startSlot","type":"bytes32","internalType":"bytes32"},{"name":"nSlots","type":"uint256","internalType":"uint256"}],"outputs":[{"name":"","type":"bytes32[]","internalType":"bytes32[]"}],"stateMutability":"view"},{"type":"function","name":"extsload","inputs":[{"name":"slots","type":"bytes32[]","internalType":"bytes32[]"}],"outputs":[{"name":"","type":"bytes32[]","internalType":"bytes32[]"}],"stateMutability":"view"},{"type":"function","name":"exttload","inputs":[{"name":"slots","type":"bytes32[]","internalType":"bytes32[]"}],"outputs":[{"name":"","type":"bytes32[]","internalType":"bytes32[]"}],"stateMutability":"view"},{"type":"function","name":"exttload","inputs":[{"name":"slot","type":"bytes32","internalType":"bytes32"}],"outputs":[{"name":"","type":"bytes32","internalType":"bytes32"}],"stateMutability":"view"},{"type":"function","name":"initialize","inputs":[{"name":"key","type":"tuple","internalType":"struct PoolKey","components":[{"name":"currency0","type":"address","internalType":"Currency"},{"name":"currency1","type":"address","internalType":"Currency"},{"name":"fee","type":"uint24","internalType":"uint24"},{"name":"tickSpacing","type":"int24","internalType":"int24"},{"name":"hooks","type":"address","internalType":"contract IHooks"}]},{"name":"sqrtPriceX96","type":"uint160","internalType":"uint160"},{"name":"hookData","type":"bytes","internalType":"bytes"}],"outputs":[{"name":"tick","type":"int24","internalType":"int24"}],"stateMutability":"nonpayable"},{"type":"function","name":"isOperator","inputs":[{"name":"owner","type":"address","internalType":"address"},{"name":"operator","type":"address","internalType":"address"}],"outputs":[{"name":"isOperator","type":"bool","internalType":"bool"}],"stateMutability":"view"},{"type":"function","name":"mint","inputs":[{"name":"to","type":"address","internalType":"address"},{"name":"id","type":"uint256","internalType":"uint256"},{"name":"amount","type":"uint256","internalType":"uint256"}],"outputs":[],"stateMutability":"nonpayable"},{"type":"function","name":"modifyLiquidity","inputs":[{"name":"key","type":"tuple","internalType":"struct PoolKey","components":[{"name":"currency0","type":"address","internalType":"Currency"},{"name":"currency1","type":"address","internalType":"Currency"},{"name":"fee","type":"uint24","internalType":"uint24"},{"name":"tickSpacing","type":"int24","internalType":"int24"},{"name":"hooks","type":"address","internalType":"contract IHooks"}]},{"name":"params","type":"tuple","internalType":"struct IPoolManager.ModifyLiquidityParams","components":[{"name":"tickLower","type":"int24","internalType":"int24"},{"name":"tickUpper","type":"int24","internalType":"int24"},{"name":"liquidityDelta","type":"int256","internalType":"int256"},{"name":"salt","type":"bytes32","internalType":"bytes32"}]},{"name":"hookData","type":"bytes","internalType":"bytes"}],"outputs":[{"name":"callerDelta","type":"int256","internalType":"BalanceDelta"},{"name":"feesAccrued","type":"int256","internalType":"BalanceDelta"}],"stateMutability":"nonpayable"},{"type":"function","name":"owner","inputs":[],"outputs":[{"name":"","type":"address","internalType":"address"}],"stateMutability":"view"},{"type":"function","name":"protocolFeeController","inputs":[],"outputs":[{"name":"","type":"address","internalType":"contract IProtocolFeeController"}],"stateMutability":"view"},{"type":"function","name":"protocolFeesAccrued","inputs":[{"name":"currency","type":"address","internalType":"Currency"}],"outputs":[{"name":"amount","type":"uint256","internalType":"uint256"}],"stateMutability":"view"},{"type":"function","name":"setOperator","inputs":[{"name":"operator","type":"address","internalType":"address"},{"name":"approved","type":"bool","internalType":"bool"}],"outputs":[{"name":"","type":"bool","internalType":"bool"}],"stateMutability":"nonpayable"},{"type":"function","name":"setProtocolFee","inputs":[{"name":"key","type":"tuple","internalType":"struct PoolKey","components":[{"name":"currency0","type":"address","internalType":"Currency"},{"name":"currency1","type":"address","internalType":"Currency"},{"name":"fee","type":"uint24","internalType":"uint24"},{"name":"tickSpacing","type":"int24","internalType":"int24"},{"name":"hooks","type":"address","internalType":"contract IHooks"}]},{"name":"newProtocolFee","type":"uint24","internalType":"uint24"}],"outputs":[],"stateMutability":"nonpayable"},{"type":"function","name":"setProtocolFeeController","inputs":[{"name":"controller","type":"address","internalType":"contract IProtocolFeeController"}],"outputs":[],"stateMutability":"nonpayable"},{"type":"function","name":"settle","inputs":[],"outputs":[{"name":"paid","type":"uint256","internalType":"uint256"}],"stateMutability":"payable"},{"type":"function","name":"settleFor","inputs":[{"name":"recipient","type":"address","internalType":"address"}],"outputs":[{"name":"paid","type":"uint256","internalType":"uint256"}],"stateMutability":"payable"},{"type":"function","name":"supportsInterface","inputs":[{"name":"interfaceId","type":"bytes4","internalType":"bytes4"}],"outputs":[{"name":"","type":"bool","internalType":"bool"}],"stateMutability":"view"},{"type":"function","name":"swap","inputs":[{"name":"key","type":"tuple","internalType":"struct PoolKey","components":[{"name":"currency0","type":"address","internalType":"Currency"},{"name":"currency1","type":"address","internalType":"Currency"},{"name":"fee","type":"uint24","internalType":"uint24"},{"name":"tickSpacing","type":"int24","internalType":"int24"},{"name":"hooks","type":"address","internalType":"contract IHooks"}]},{"name":"params","type":"tuple","internalType":"struct IPoolManager.SwapParams","components":[{"name":"zeroForOne","type":"bool","internalType":"bool"},{"name":"amountSpecified","type":"int256","internalType":"int256"},{"name":"sqrtPriceLimitX96","type":"uint160","internalType":"uint160"}]},{"name":"hookData","type":"bytes","internalType":"bytes"}],"outputs":[{"name":"swapDelta","type":"int256","internalType":"BalanceDelta"}],"stateMutability":"nonpayable"},{"type":"function","name":"sync","inputs":[{"name":"currency","type":"address","internalType":"Currency"}],"outputs":[],"stateMutability":"nonpayable"},{"type":"function","name":"take","inputs":[{"name":"currency","type":"address","internalType":"Currency"},{"name":"to","type":"address","internalType":"address"},{"name":"amount","type":"uint256","internalType":"uint256"}],"outputs":[],"stateMutability":"nonpayable"},{"type":"function","name":"transfer","inputs":[{"name":"receiver","type":"address","internalType":"address"},{"name":"id","type":"uint256","internalType":"uint256"},{"name":"amount","type":"uint256","internalType":"uint256"}],"outputs":[{"name":"","type":"bool","internalType":"bool"}],"stateMutability":"nonpayable"},{"type":"function","name":"transferFrom","inputs":[{"name":"sender","type":"address","internalType":"address"},{"name":"receiver","type":"address","internalType":"address"},{"name":"id","type":"uint256","internalType":"uint256"},{"name":"amount","type":"uint256","internalType":"uint256"}],"outputs":[{"name":"","type":"bool","internalType":"bool"}],"stateMutability":"nonpayable"},{"type":"function","name":"transferOwnership","inputs":[{"name":"newOwner","type":"address","internalType":"address"}],"outputs":[],"stateMutability":"nonpayable"},{"type":"function","name":"unlock","inputs":[{"name":"data","type":"bytes","internalType":"bytes"}],"outputs":[{"name":"result","type":"bytes","internalType":"bytes"}],"stateMutability":"nonpayable"},{"type":"function","name":"updateDynamicLPFee","inputs":[{"name":"key","type":"tuple","internalType":"struct PoolKey","components":[{"name":"currency0","type":"address","internalType":"Currency"},{"name":"currency1","type":"address","internalType":"Currency"},{"name":"fee","type":"uint24","internalType":"uint24"},{"name":"tickSpacing","type":"int24","internalType":"int24"},{"name":"hooks","type":"address","internalType":"contract IHooks"}]},{"name":"newDynamicLPFee","type":"uint24","internalType":"uint24"}],"outputs":[],"stateMutability":"nonpayable"},{"type":"event","name":"Approval","inputs":[{"name":"owner","type":"address","indexed":true,"internalType":"address"},{"name":"spender","type":"address","indexed":true,"internalType":"address"},{"name":"id","type":"uint256","indexed":true,"internalType":"uint256"},{"name":"amount","type":"uint256","indexed":false,"internalType":"uint256"}],"anonymous":false},{"type":"event","name":"Initialize","inputs":[{"name":"id","type":"bytes32","indexed":true,"internalType":"PoolId"},{"name":"currency0","type":"address","indexed":true,"internalType":"Currency"},{"name":"currency1","type":"address","indexed":true,"internalType":"Currency"},{"name":"fee","type":"uint24","indexed":false,"internalType":"uint24"},{"name":"tickSpacing","type":"int24","indexed":false,"internalType":"int24"},{"name":"hooks","type":"address","indexed":false,"internalType":"contract IHooks"},{"name":"sqrtPriceX96","type":"uint160","indexed":false,"internalType":"uint160"},{"name":"tick","type":"int24","indexed":false,"internalType":"int24"}],"anonymous":false},{"type":"event","name":"ModifyLiquidity","inputs":[{"name":"id","type":"bytes32","indexed":true,"internalType":"PoolId"},{"name":"sender","type":"address","indexed":true,"internalType":"address"},{"name":"tickLower","type":"int24","indexed":false,"internalType":"int24"},{"name":"tickUpper","type":"int24","indexed":false,"internalType":"int24"},{"name":"liquidityDelta","type":"int256","indexed":false,"internalType":"int256"}],"anonymous":false},{"type":"event","name":"OperatorSet","inputs":[{"name":"owner","type":"address","indexed":true,"internalType":"address"},{"name":"operator","type":"address","indexed":true,"internalType":"address"},{"name":"approved","type":"bool","indexed":false,"internalType":"bool"}],"anonymous":false},{"type":"event","name":"OwnershipTransferred","inputs":[{"name":"user","type":"address","indexed":true,"internalType":"address"},{"name":"newOwner","type":"address","indexed":true,"internalType":"address"}],"anonymous":false},{"type":"event","name":"ProtocolFeeControllerUpdated","inputs":[{"name":"protocolFeeController","type":"address","indexed":true,"internalType":"address"}],"anonymous":false},{"type":"event","name":"ProtocolFeeUpdated","inputs":[{"name":"id","type":"bytes32","indexed":true,"internalType":"PoolId"},{"name":"protocolFee","type":"uint24","indexed":false,"internalType":"uint24"}],"anonymous":false},{"type":"event","name":"Swap","inputs":[{"name":"id","type":"bytes32","indexed":true,"internalType":"PoolId"},{"name":"sender","type":"address","indexed":true,"internalType":"address"},{"name":"amount0","type":"int128","indexed":false,"internalType":"int128"},{"name":"amount1","type":"int128","indexed":false,"internalType":"int128"},{"name":"sqrtPriceX96","type":"uint160","indexed":false,"internalType":"uint160"},{"name":"liquidity","type":"uint128","indexed":false,"internalType":"uint128"},{"name":"tick","type":"int24","indexed":false,"internalType":"int24"},{"name":"fee","type":"uint24","indexed":false,"internalType":"uint24"}],"anonymous":false},{"type":"event","name":"Transfer","inputs":[{"name":"caller","type":"address","indexed":false,"internalType":"address"},{"name":"from","type":"address","indexed":true,"internalType":"address"},{"name":"to","type":"address","indexed":true,"internalType":"address"},{"name":"id","type":"uint256","indexed":true,"internalType":"uint256"},{"name":"amount","type":"uint256","indexed":false,"internalType":"uint256"}],"anonymous":false},{"type":"error","name":"AlreadyUnlocked","inputs":[]},{"type":"error","name":"CurrenciesOutOfOrderOrEqual","inputs":[{"name":"currency0","type":"address","internalType":"address"},{"name":"currency1","type":"address","internalType":"address"}]},{"type":"error","name":"CurrencyNotSettled","inputs":[]},{"type":"error","name":"DelegateCallNotAllowed","inputs":[]},{"type":"error","name":"InvalidCaller","inputs":[]},{"type":"error","name":"ManagerLocked","inputs":[]},{"type":"error","name":"MustClearExactPositiveDelta","inputs":[]},{"type":"error","name":"NonZeroNativeValue","inputs":[]},{"type":"error","name":"PoolNotInitialized","inputs":[]},{"type":"error","name":"ProtocolFeeCannotBeFetched","inputs":[]},{"type":"error","name":"ProtocolFeeTooLarge","inputs":[{"name":"fee","type":"uint24","internalType":"uint24"}]},{"type":"error","name":"SwapAmountCannotBeZero","inputs":[]},{"type":"error","name":"TickSpacingTooLarge","inputs":[{"name":"tickSpacing","type":"int24","internalType":"int24"}]},{"type":"error","name":"TickSpacingTooSmall","inputs":[{"name":"tickSpacing","type":"int24","internalType":"int24"}]},{"type":"error","name":"UnauthorizedDynamicLPFeeUpdate","inputs":[]}],"bytecode":{"object":"0x60c034609d57601f6148d238819003918201601f19168301916001600160401b0383118484101760a157808492602094604052833981010312609d57515f80546001600160a01b03191633908117825560405192917f8be0079c531659141344cd1fd0a4f28419497f9722a3daafe3b4186f6b6457e08180a36080523060a05261481c90816100b6823960805181610de5015260a0518161274f0152f35b5f80fd5b634e487b7160e01b5f52604160045260245ffdfe60a0806040526004361015610012575f80fd5b5f3560e01c908162fdd58e146121625750806301ffc9a71461210c57806307eff0dd146120f1578063095bcdb6146120545780630b0d9c0914611ff957806311da60b414611fcf578063156e29f614611f3f5780631e2eaeaf14611f23578063234266d714611d545780632d77138914611cd557806335fd631a14611c7f5780633dd45adb14611c4c578063426a849314611bd557806348c8949114611a28578063527596511461196b578063558a7297146118dd578063598af9e71461187d5780635a6bcfda1461100357806360460f0614610fe7578063695c5bf514610b2d5780637e87ce7d14610a4857806380f0b44c146109a65780638161b8741461090c5780638da5cb5b146108e757806397e8cd4e146108af5780639bf6645f14610862578063a58411941461083f578063b6363cf2146107e6578063dbd035ff14610790578063f02de3b21461076a578063f135baaa1461074e578063f2fde38b146106d8578063f3cd914c1461044c578063f5298aca146103005763fe99049a1461019c575f80fd5b346102fc5760803660031901126102fc576101b56121a1565b6101bd6121b7565b90604435917f1b3d7edb2e9c0b0e7c525b20aaaef0f5940d2ed71663c7d39266ecafac7288596102646001600160a01b038060643595169384331415806102d9575b610272575b845f52600460205260405f20875f5260205260405f20610225878254612388565b90551693845f52600460205260405f20865f5260205260405f2061024a828254612395565b905560408051338152602081019290925290918291820190565b0390a4602060405160018152f35b845f52600560205260405f208233165f5260205260405f20875f5260205260405f2054865f1982036102a6575b5050610204565b6102af91612388565b855f52600560205260405f208333165f5260205260405f20885f5260205260405f20555f8661029f565b50845f52600360205260405f208233165f5260205260ff60405f205416156101ff565b5f80fd5b346102fc5761030e366121cd565b5f805160206147c78339815191525c1561043d577f1b3d7edb2e9c0b0e7c525b20aaaef0f5940d2ed71663c7d39266ecafac7288596103996001600160a01b03805f95169561036761035f866124b1565b3390896124de565b16923384141580610413575b61039e575b8385526004602052604085208686526020526040852061024a828254612388565b0390a4005b8385526005602052604085206001600160a01b033316865260205260408520868652602052604085205481861982036103d9575b5050610378565b6103e291612388565b8486526005602052604086206001600160a01b033316875260205260408620878752602052604086205586816103d2565b508385526003602052604085206001600160a01b033316865260205260ff60408620541615610373565b6354e3ca0d60e01b5f5260045ffd5b346102fc576101203660031901126102fc576104673661227f565b60603660a31901126102fc57604051906060820182811067ffffffffffffffff8211176106c45760405260a43580151581036102fc578252602082019060c435825260e435906001600160a01b03821682036102fc57604084019182526101043567ffffffffffffffff81116102fc576104e5903690600401612306565b9290935f805160206147c78339815191525c1561043d57610504612745565b51156106b55760a0822092835f52600660205260405f209061052582612786565b60808401958482828a8a516001600160a01b03169361054394612c18565b90949195606088015160020b968b51151591516001600160a01b0316916040519861056d8a61222f565b895260208901526040880152606087015262ffffff166080860152885115155f149862ffffff61065e986105b661064b9860209d6106a2576001600160a01b038b5116956139c6565b949296829192610682575b50506001600160a01b036040850151169360606001600160801b0360a08301511691015160020b90604051958860801d600f0b875288600f0b60208801526040870152606086015260808501521660a08301527f40e9cecb9f5f1f1c5b9c97dec2917b7ee92e57ba5563708daca94dd84ad7112f60c03393a3866001600160a01b038a5116612dd4565b80949194610666575b5050823391612822565b604051908152f35b6001600160a01b0361067b9251169083612822565b8480610654565b6001600160a01b03165f5260018f5260405f209081540190558e806105c1565b6001600160a01b038e8c015116956139c6565b63be8b850760e01b5f5260045ffd5b634e487b7160e01b5f52604160045260245ffd5b346102fc5760203660031901126102fc5773ffffffffffffffffffffffffffffffffffffffff196107076121a1565b6001600160a01b035f549161071f82841633146123a2565b1691829116175f55337f8be0079c531659141344cd1fd0a4f28419497f9722a3daafe3b4186f6b6457e05f80a3005b346102fc5760203660031901126102fc576004355c5f5260205ff35b346102fc575f3660031901126102fc5760206001600160a01b0360025416604051908152f35b346102fc5761079e36612334565b6040519160408360208152836020820152019160051b8301916020806040850193925b83355481520191019084838210156107dd5750602080916107c1565b60408186030190f35b346102fc5760403660031901126102fc576107ff6121a1565b6001600160a01b0361080f6121b7565b91165f5260036020526001600160a01b0360405f2091165f52602052602060ff60405f2054166040519015158152f35b346102fc5760203660031901126102fc5761086061085b6121a1565b61240e565b005b346102fc5761087036612334565b6040519160408360208152836020820152019160051b8301916020806040850193925b83355c81520191019084838210156107dd575060208091610893565b346102fc5760203660031901126102fc576001600160a01b036108d06121a1565b165f526001602052602060405f2054604051908152f35b346102fc575f3660031901126102fc5760206001600160a01b035f5416604051908152f35b346102fc5760603660031901126102fc576109256121a1565b61092d6121b7565b906044356001600160a01b036002541633036109975760209261065e918061098f57506001600160a01b0381165f526001845260405f20549283915b6001600160a01b0381165f526001865260405f20610988848254612388565b90556125ba565b928391610969565b6348f5c3ed60e01b5f5260045ffd5b346102fc5760403660031901126102fc576109bf6121a1565b5f805160206147c78339815191525c1561043d57335f9081526001600160a01b038216602052604090205c6109f56024356124b1565b600f0b908103610a39576f7fffffffffffffffffffffffffffffff198114610a25576108609133915f03906124de565b634e487b7160e01b5f52601160045260245ffd5b63bda73abf60e01b5f5260045ffd5b346102fc5760c03660031901126102fc57610a623661227f565b610a6a61226d565b906001600160a01b03600254163303610997576103e9610fff831610623e900062fff0008416101615610b1557602060a07fe9c42593e71f84403b84352cd168d693e2c9fcd1fdbcc3feb21d92b43e6696f9922092835f526006825260405f20610ad381612786565b805462ffffff60b81b8360b81b16907fffffffffffff000000ffffffffffffffffffffffffffffffffffffffffffffff1617905562ffffff60405191168152a2005b62ffffff8263a7abe2f760e01b5f521660045260245ffd5b346102fc5760e03660031901126102fc57610b473661227f565b60a435906001600160a01b0382168083036102fc5760c43567ffffffffffffffff81116102fc57610b7c903690600401612306565b90610b85612745565b6060840193845160020b617fff8113610fd55750845160020b60018112610fc357506001600160a01b038151169260208201936001600160a01b038551169081811015610fae575050608082016001600160a01b03815116956040840196610bf362ffffff89511682612abe565b15610f9c5750610c0862ffffff885116612b6f565b9180516001600160a01b03811690813303610eff575b505060a08520955f6001600160a01b036002541680610de0575b50875f52600660205260405f209081546001600160a01b0316610dd1576001600160a01b037fdd466e674ea557f56295e2d0218a125ea4b4f0f6f3307b95f85e6110838d64389860a09860209f98839662ffffff968596610c9f62ffffff60d01b9d6136dc565b9c8d9460d01b169062ffffff60b81b8f62ffffff60a01b8f9188901b16179160b81b16171790558851908a86831692833303610d14575b5050505050505116995116995116995160020b91511690604051998a528a8a01526040890152606088015260020b95866080820152a4604051908152f35b61100016610d23575b81610cd6565b610db3610dc192610dc69660405196879463a910f80f60e01b6020870152336024870152610d91604487018c6001600160a01b036080809282815116855282602082015116602086015262ffffff6040820151166040860152606081015160020b6060860152015116910152565b60e486015260020b6101048501526101206101248501526101448401916123ee565b03601f19810184528361224b565b612f33565b508f8881808a610d1d565b637983c05160e01b5f5260045ffd5b90505a7f0000000000000000000000000000000000000000000000000000000000000000809110610ef0575f80916040519382602086019163553bfc3760e01b8352610e6d8d60248901906001600160a01b036080809282815116855282602082015116602086015262ffffff6040820151166040860152606081015160020b6060860152015116910152565b60a48752610e7c60c48861224b565b81965193f160203d141680610edd575b80610ecf575b80610eb4575b15610eac5762ffffff600191165b90610c38565b505f80610ea6565b506103e9610fff821610623e900062fff00083161016610e98565b5062ffffff81168114610e92565b60405191503d5f833e5f82519252610e8c565b630f724b8160e11b5f5260045ffd5b61200016610f0e575b80610c1e565b610f9590604051906301a206c160e51b6020830152336024830152610f7360448301896001600160a01b036080809282815116855282602082015116602086015262ffffff6040820151166040860152606081015160020b6060860152015116910152565b8460e4830152610100610104830152610dc182610db361012482018a8d6123ee565b508a610f08565b630732d7b560e51b5f5260045260245ffd5b6306e6c98360e41b5f5260045260245260445ffd5b631d3d20b160e31b5f5260045260245ffd5b6316e0049f60e31b5f5260045260245ffd5b346102fc575f3660031901126102fc576020604051617fff8152f35b346102fc576101403660031901126102fc5761101e3661227f565b60803660a31901126102fc5760405190611037826121f7565b60a4358060020b81036102fc57825260c4358060020b81036102fc57602083015260e435604083015260608201916101043583526101243567ffffffffffffffff81116102fc5761108c903690600401612306565b905f805160206147c78339815191525c1561043d576110a9612745565b60a0842091825f52600660205260405f20916110c483612786565b6080860151856001600160a01b038216918233036117d1575b5090505160020b93602086015160020b956110fb6040820151612915565b96606089015160020b99516040519a6111138c612213565b338c528860208d01528260408d015289600f0b60608d015260808c015260a08b01525f90808812156117b357620d89e71988126117a057620d89e8811361178e57604051986111618a6121f7565b5f8a525f60208b01525f60408b01525f60608b015280600f0b611571575b60048801988060020b5f528960205260405f20998360020b5f5260205260405f20895460a01c60020b8281125f1461151f575060028060018d0154600184015490039c015491015490039c5b60a06001600160a01b038251169101519060405191602683015284600683015282600383015281525f603a600c83012091816040820152816020820152525f526006890160205260405f20986001600160801b038a54169a83600f0b155f146114e3578b156114d45761127860409f61132d9c6112729161133f9f5b600183019561126a600261125e848a548503613068565b95019283548503613068565b9655556124b1565b916124b1565b6001600160801b03169060801b179b5f84600f0b1261146a575b5082600f0b61136a575b505050506112c36112b48960801d8360801d01612915565b9189600f0b90600f0b01612915565b6001600160801b03169060801b1791815160020b90602083015160020b8b840151908c5193845260208401528b8301527f541c041c2cce48e614b3de043c9280f06b6164c0a1741649e2de3c3d375f797460603393a3876001600160a01b036080820151166129ca565b8094919461134b575b50833391612822565b82519182526020820152f35b611364906001600160a01b036080840151169083612822565b85611336565b809192939450548060a01c60020b906001600160a01b0316908381125f146113c557505050916113b3916113ad6113a36113b8956132b3565b91600f0b926132b3565b9061362b565b612915565b60801b5b8a80808061129c565b948091939295125f1461143f576001600160801b03926114146113b361142a946114016113b36003966113fb8b600f0b916132b3565b8761362b565b9361140f89600f0b926132b3565b6135e0565b84169060801b17940192600f0b82845416613660565b166001600160801b03198254161790556113bc565b915061145c9350916114566113a36113b3946132b3565b906135e0565b6001600160801b03166113bc565b808f91516114aa575b0151611480575b8e611292565b6114a5848260049160020b5f52016020525f6002604082208281558260018201550155565b61147a565b6114cf848460049160020b5f52016020525f6002604082208281558260018201550155565b611473565b632bbfae4960e21b5f5260045ffd5b61127860409f61132d9c6112729161133f9f6001600160801b0361150a8a600f0b83613660565b166001600160801b0319845416178355611247565b909a9084136115455760028060018d0154600184015490039c015491015490039c6111cb565b99600260018b015460018d01549003600183015490039b81808d0154910154900391015490039c6111cb565b8860020b5f5260048801602052886001600160801b0360405f208054906115c2838316928d6115a388600f0b86613660565b941596878787161514159761175f575b505086600f0b9060801d612d9c565b60801b8383161790551660208c01528a528160020b5f526004880160205260405f208054906001600160801b0382166115fe84600f0b82613660565b901592836001600160801b03831615141593611738575b84600f0b9060801d600f0b03916f7fffffffffffffffffffffffffffffff83136f7fffffffffffffffffffffffffffffff19841217610a2557826001600160801b03935060801b8383161790551660608c015260408b0152898c5f83600f0b12156116c0575b50516116a6575b60408a01511561117f576116a160808d015160020b8360058b01613267565b61117f565b6116bb60808d015160020b8a60058b01613267565b611682565b60016001600160801b03602060808294015160020b94015116928080620d89e71905028180620d89e80502030501810416809111611725576001600160801b0360608c0151161161171257898c61167b565b5063b8e3c38560e01b5f5260045260245ffd5b8963b8e3c38560e01b5f5260045260245ffd5b8b5460a01c60020b86136116155760018c0154600184015560028c01546002840155611615565b815460a01c60020b1215611774575b8f6115b3565b80600160029201546001860155015460028401558d61176e565b63035aeeff60e31b5f5260045260245ffd5b8763d5e2f7ab60e01b5f5260045260245ffd5b876044916040519163c4433ed560e01b835260048301526024820152fd5b5f604083015113808091611870575b1561181b57505061181191610dc189610db3878760405196879463259982e560e01b60208701523360248701612875565b505b8785816110dd565b159081611862575b50611830575b5050611813565b61185a91610dc189610db3878760405196879463021d0ee760e41b60208701523360248701612875565b508785611829565b61020091501615158a611823565b50610800821615156117e0565b346102fc5760603660031901126102fc576118966121a1565b6001600160a01b036118a66121b7565b91165f5260056020526001600160a01b0360405f2091165f5260205260405f206044355f52602052602060405f2054604051908152f35b346102fc5760403660031901126102fc576118f66121a1565b602435908115158092036102fc576001600160a01b0390335f52600360205260405f208282165f5260205260405f2060ff1981541660ff851617905560405192835216907fceb576d9f15e4e200fdb5096d64d5dfd667e16def20c1eefd14256d8e3faa26760203392a3602060405160018152f35b346102fc5760c03660031901126102fc576119853661227f565b61198d61226d565b906280000062ffffff60408301511614801590611a11575b611a025760a0906119b583612851565b205f52600660205260405f20906119cb82612786565b81547fffffff000000ffffffffffffffffffffffffffffffffffffffffffffffffffff1660d09190911b62ffffff60d01b16179055005b6330d2164160e01b5f5260045ffd5b506001600160a01b036080820151163314156119a5565b346102fc5760203660031901126102fc5760043567ffffffffffffffff81116102fc57611a59903690600401612306565b5f805160206147c78339815191525c611bc657611aa6915f9160015f805160206147c78339815191525d6040516348eeb9a360e11b815260206004820152938492839260248401916123ee565b038183335af1908115611bbb575f91611b31575b507f7d4b3164c6e45b97e7d87b7125a44c5828d005af88f9d751cfd78729c5d99a0b5c611b225760406020915f5f805160206147c78339815191525d815192839181835280519182918282860152018484015e5f828201840152601f01601f19168101030190f35b635212cba160e01b5f5260045ffd5b90503d805f833e611b42818361224b565b8101906020818303126102fc5780519067ffffffffffffffff82116102fc570181601f820112156102fc5780519067ffffffffffffffff82116106c45760405192611b97601f8401601f19166020018561224b565b828452602083830101116102fc57815f9260208093018386015e8301015281611aba565b6040513d5f823e3d90fd5b6328486b6360e11b5f5260045ffd5b346102fc576001600160a01b03611beb366121cd565b91929092335f52600560205260405f208282165f5260205260405f20845f526020528260405f205560405192835216907fb3fd5071835887567a0671151121894ddccc2842f1d10bedad13e0d17cace9a760203392a4602060405160018152f35b60203660031901126102fc57611c606121a1565b5f805160206147c78339815191525c1561043d5761065e602091612689565b346102fc5760403660031901126102fc576024356004356040519160408360208152826020820152019060051b8301916001602060408501935b835481520191019084838210156107dd57506020600191611cb9565b346102fc5760203660031901126102fc576004356001600160a01b0381168091036102fc57611d0f6001600160a01b035f541633146123a2565b8073ffffffffffffffffffffffffffffffffffffffff1960025416176002557fb4bd8ef53df690b9943d3318996006dbb82a25f54719d8c8035b516a2a5b8acc5f80a2005b346102fc576101003660031901126102fc57611d6f3661227f565b60c4359060a43560e43567ffffffffffffffff81116102fc57611d96903690600401612306565b9190935f805160206147c78339815191525c1561043d57611db5612745565b60a084205f52600660205260405f2094611dce86612786565b608085019485516001600160a01b03811690813303611ee4575b50506001600160801b03600388015416958615611ed557602097611e0b866124b1565b5f03611e16866124b1565b5f036001600160801b03169060801b179786611ebc575b85611ea1575b5050611e40338884612822565b51926001600160a01b03841693843303611e5f575b8888604051908152f35b601016611e6d575b80611e55565b611e9595610dc193610db39260405197889563e1b4af6960e01b8d88015233602488016127a6565b50828080808080611e67565b611ead60029187612fe0565b91019081540190558880611e33565b611ec68188612fe0565b60018301908154019055611e2d565b63a74f97ab60e01b5f5260045ffd5b602016611ef2575b80611de8565b604051635b54587d60e11b6020820152611f1c91610dc182610db38a888a8c8a33602488016127a6565b5087611eec565b346102fc5760203660031901126102fc57600435545f5260205ff35b346102fc57611f4d366121cd565b905f805160206147c78339815191525c1561043d577f1b3d7edb2e9c0b0e7c525b20aaaef0f5940d2ed71663c7d39266ecafac7288596103996001600160a01b03805f941695611fac611f9f876124b1565b8603600f0b3390896124de565b16938484526004602052604084208685526020526040842061024a828254612395565b5f3660031901126102fc575f805160206147c78339815191525c1561043d57602061065e33612689565b346102fc5760603660031901126102fc576120126121a1565b61201a6121b7565b604435905f805160206147c78339815191525c1561043d576108609261204f612042846124b1565b5f03600f0b3390836124de565b6125ba565b346102fc576001600160a01b0361206a366121cd565b91929092335f52600460205260405f20845f5260205260405f2061208f848254612388565b90551690815f52600460205260405f20835f5260205260405f206120b4828254612395565b9055604080513380825260208201939093527f1b3d7edb2e9c0b0e7c525b20aaaef0f5940d2ed71663c7d39266ecafac7288599181908101610264565b346102fc575f3660031901126102fc57602060405160018152f35b346102fc5760203660031901126102fc5760043563ffffffff60e01b81168091036102fc576020906301ffc9a760e01b8114908115612151575b506040519015158152f35b630f632fb360e01b14905082612146565b346102fc5760403660031901126102fc576020906001600160a01b036121866121a1565b165f526004825260405f206024355f52825260405f20548152f35b600435906001600160a01b03821682036102fc57565b602435906001600160a01b03821682036102fc57565b60609060031901126102fc576004356001600160a01b03811681036102fc57906024359060443590565b6080810190811067ffffffffffffffff8211176106c457604052565b60c0810190811067ffffffffffffffff8211176106c457604052565b60a0810190811067ffffffffffffffff8211176106c457604052565b90601f8019910116810190811067ffffffffffffffff8211176106c457604052565b60a4359062ffffff821682036102fc57565b60a09060031901126102fc57604051906122988261222f565b816004356001600160a01b03811681036102fc5781526024356001600160a01b03811681036102fc57602082015260443562ffffff811681036102fc5760408201526064358060020b81036102fc576060820152608435906001600160a01b03821682036102fc5760800152565b9181601f840112156102fc5782359167ffffffffffffffff83116102fc57602083818601950101116102fc57565b9060206003198301126102fc5760043567ffffffffffffffff81116102fc57826023820112156102fc5780600401359267ffffffffffffffff84116102fc5760248460051b830101116102fc576024019190565b91908203918211610a2557565b91908201809211610a2557565b156123a957565b60405162461bcd60e51b815260206004820152600c60248201527f554e415554484f52495a454400000000000000000000000000000000000000006044820152606490fd5b908060209392818452848401375f828201840152601f01601f1916010190565b6001600160a01b037f27e098c505d44ec3574004bca052aabf76bd35004c182099d8c575fb238593b95c166124a2576001600160a01b03811690811561249e5761245790612b8c565b907f27e098c505d44ec3574004bca052aabf76bd35004c182099d8c575fb238593b95d7f1e0745a7db1623981f0b2a5d4232364c00787266eb75ad546f190e6cebe9bd955d565b5050565b63996caf6560e01b5f5260045ffd5b6f800000000000000000000000000000008110156124cf57600f0b90565b6393dafdf160e01b5f5260045ffd5b9190600f0b9182156125b55761250791906001600160a01b038092165f521660205260405f2090565b612513815c9283612bfd565b80915d61256557505f197f7d4b3164c6e45b97e7d87b7125a44c5828d005af88f9d751cfd78729c5d99a0b5c017f7d4b3164c6e45b97e7d87b7125a44c5828d005af88f9d751cfd78729c5d99a0b5d5b565b1561256c57565b60017f7d4b3164c6e45b97e7d87b7125a44c5828d005af88f9d751cfd78729c5d99a0b5c017f7d4b3164c6e45b97e7d87b7125a44c5828d005af88f9d751cfd78729c5d99a0b5d565b505050565b6001600160a01b03811661260857505f80809381935af1156125d857565b6040516356cdd02560e11b8152602060048201523d60248201819052805f604484013e601f801991011660440190fd5b60205f60448194826040956001600160a01b03988751998a9463a9059cbb60e01b865216600485015260248401525af13d15601f3d1160018551141617169282815282602082015201521561265957565b604051632745a14f60e21b8152602060048201523d60248201819052805f604484013e601f801991011660440190fd5b7f27e098c505d44ec3574004bca052aabf76bd35004c182099d8c575fb238593b95c91906001600160a01b0383166126d1576125639034935b6126cb856124b1565b906124de565b34612736576125639061270d7f1e0745a7db1623981f0b2a5d4232364c00787266eb75ad546f190e6cebe9bd955c61270886612b8c565b612388565b935f7f27e098c505d44ec3574004bca052aabf76bd35004c182099d8c575fb238593b95d6126c2565b6319d245cf60e01b5f5260045ffd5b6001600160a01b037f000000000000000000000000000000000000000000000000000000000000000016300361277757565b6306c4a1c760e11b5f5260045ffd5b546001600160a01b03161561279757565b63486aa30760e01b5f5260045ffd5b9192612807610120946001600160a01b0361281f99979416855260208501906001600160a01b036080809282815116855282602082015116602086015262ffffff6040820151166040860152606081015160020b6060860152015116910152565b60c083015260e08201528161010082015201916123ee565b90565b906001600160a01b036020612563949361284485848351168660801d906124de565b01511690600f0b906124de565b62ffffff16620f424081116128635750565b631400211360e01b5f5260045260245ffd5b9061281f95936128d8610160946001600160a01b036129079416855260208501906001600160a01b036080809282815116855282602082015116602086015262ffffff6040820151166040860152606081015160020b6060860152015116910152565b8051600290810b60c08501526020820151900b60e0840152604081015161010084015260600151610120830152565b8161014082015201916123ee565b9081600f0b9182036124cf57565b91610180936129876129b6926001600160a01b0361281f9a989516865260208601906001600160a01b036080809282815116855282602082015116602086015262ffffff6040820151166040860152606081015160020b6060860152015116910152565b8051600290810b60c08601526020820151900b60e0850152604081015161010085015260600151610120840152565b6101408201528161016082015201916123ee565b929593945f956001600160a01b0385163314612ab457875f6040860151135f14612a5f576104008616612a00575b505050505050565b612a5396989750612a4092612a4c96959492612a3292604051968795625a2a8160e81b60208801523360248801612923565b03601f19810183528261224b565b60028216151591613688565b80926136a8565b915f80808080806129f8565b94939291906101008516612a7557505050505050565b612a53969850859750612aa89291612a3291612a4c976040519687956346d95b2960e11b60208801523360248801612923565b60018216151591613688565b505f955050505050565b608081161580612b63575b612b3957604081161580612b57575b612b395761040081161580612b4b575b612b395761010081161580612b3f575b612b39576001600160a01b038116612b19575062ffffff1662800000141590565b613fff161590811591612b2a575090565b62800000915062ffffff161490565b50505f90565b50600181161515612af8565b50600281161515612ae8565b50600481161515612ad8565b50600881161515612ac9565b6280000062ffffff821614612b875761281f81612851565b505f90565b6001600160a01b031680612b9f57504790565b6020602491604051928380926370a0823160e01b82523060048301525afa908115611bbb575f91612bce575090565b90506020813d602011612bf5575b81612be96020938361224b565b810103126102fc575190565b3d9150612bdc565b9190915f8382019384129112908015821691151617610a2557565b6020830151955f958695919491336001600160a01b03851614612d8f5760808416612c45575b5050505050565b612cfa92612a32612cf492612ce0946040519586946315d7892d60e21b6020870152336024870152612cb7604487018c6001600160a01b036080809282815116855282602082015116602086015262ffffff6040820151166040860152606081015160020b6060860152015116910152565b8051151560e48701526020810151610104870152604001516001600160a01b0316610124860152565b6101406101448501526101648401916123ee565b82612f33565b916060835103612d80576040015162ffffff166280000014612d74575b600816612d28575b80808080612c3e565b604001519250608083901d600f0b8015612d1f57612d49905f861295612bfd565b9315612d6c575f84135b612d5d575f612d1f565b637d05b8eb60e11b5f5260045ffd5b5f8412612d53565b60608201519350612d17565b631e048e1d60e01b5f5260045ffd5b505f965086955050505050565b90600f0b90600f0b01906f7fffffffffffffffffffffffffffffff1982126f7fffffffffffffffffffffffffffffff831317610a2557565b919695939492946001600160a01b0383163314612f26578460801d94600f0b938860408516612e74575b50505050505f9481600f0b15801590612e68575b612e1e575b5050509190565b612e4c9395505f60208201511290511515145f14612e54576001600160801b03169060801b175b80936136a8565b5f8080612e17565b906001600160801b03169060801b17612e45565b5082600f0b1515612e12565b612f0a612f1694612a326113b395612f1c999895612eef612cb79660405197889663b47b2fb160e01b602089015233602489015260448801906001600160a01b036080809282815116855282602082015116602086015262ffffff6040820151166040860152606081015160020b6060860152015116910152565b8c6101448501526101606101648501526101848401916123ee565b60048216151591613688565b90612d9c565b5f80808088612dfe565b5050505050909150905f90565b5f80939281926020825192019586915af115612fb05760405191601f19603f3d011683016040523d83523d9060208401915f833e6020845110918215612f7c575b5050612d8057565b5190517fffffffff000000000000000000000000000000000000000000000000000000009182169116141590505f80612f74565b60405163fb6a608160e01b8152602060048201523d60248201819052805f604484013e601f801991011660440190fd5b908160801b905f19600160801b8409928280851094039380850394858411156102fc571461306157600160801b82910981805f03168092046002816003021880820260020302808202600203028082026002030280820260020302808202600203028091026002030293600183805f03040190848311900302920304170290565b5091500490565b81810291905f1982820991838084109303928084039384600160801b11156102fc57146130a857600160801b910990828211900360801b910360801c1790565b50505060801c90565b808202905f1983820990828083109203918083039283620f424011156102fc5714613111577fde8f6cefed634549b62c77574f722e1ac57e23f24d8fd5cb790fb65668c2613993620f4240910990828211900360fa1b910360061c170290565b5050620f424091500490565b81810291905f1982820991838084109303928084039384600160601b11156102fc571461315d57600160601b910990828211900360a01b910360601c1790565b50505060601c90565b908160601b905f19600160601b8409928280851094039380850394858411156102fc571461306157600160601b82910981805f03168092046002816003021880820260020302808202600203028082026002030280820260020302808202600203028091026002030293600183805f03040190848311900302920304170290565b91818302915f19818509938380861095039480860395868511156102fc571461325f579082910981805f03168092046002816003021880820260020302808202600203028082026002030280820260020302808202600203028091026002030293600183805f03040190848311900302920304170290565b505091500490565b919060020b9060020b908181076132955705908160081d5f52602052600160ff60405f2092161b8154189055565b601c906044926040519163d4d8f3e683526020830152604082015201fd5b60020b908160ff1d82810118620d89e881116135cd5763ffffffff9192600182167001fffcb933bd6fad37aa2d162d1a59400102600160801b1891600281166135b1575b60048116613595575b60088116613579575b6010811661355d575b60208116613541575b60408116613525575b60808116613509575b61010081166134ed575b61020081166134d1575b61040081166134b5575b6108008116613499575b611000811661347d575b6120008116613461575b6140008116613445575b6180008116613429575b62010000811661340d575b6202000081166133f2575b6204000081166133d7575b62080000166133be575b5f126133b6575b0160201c90565b5f19046133af565b6b048a170391f7dc42444e8fa290910260801c906133a8565b6d2216e584f5fa1ea926041bedfe9890920260801c9161339e565b916e5d6af8dedb81196699c329225ee6040260801c91613393565b916f09aa508b5b7a84e1c677de54f3e99bc90260801c91613388565b916f31be135f97d08fd981231505542fcfa60260801c9161337d565b916f70d869a156d2a1b890bb3df62baf32f70260801c91613373565b916fa9f746462d870fdf8a65dc1f90e061e50260801c91613369565b916fd097f3bdfd2022b8845ad8f792aa58250260801c9161335f565b916fe7159475a2c29b7443b29c7fa6e889d90260801c91613355565b916ff3392b0822b70005940c7a398e4b70f30260801c9161334b565b916ff987a7253ac413176f2b074cf7815e540260801c91613341565b916ffcbe86c7900a88aedcffc83b479aa3a40260801c91613337565b916ffe5dee046a99a2a811c461f1969c30530260801c9161332d565b916fff2ea16466c96a3843ec78b326b528610260801c91613324565b916fff973b41fa98c081472e6896dfb254c00260801c9161331b565b916fffcb9843d60f6159c9db58835c9266440260801c91613312565b916fffe5caca7e10e4e61c3624eaa0941cd00260801c91613309565b916ffff2e50f5f656932ef12357cf3c7fdcc0260801c91613300565b916ffff97272373d413259a46990580e213a0260801c916132f7565b826345c3193d60e11b5f5260045260245ffd5b905f83600f0b125f1461360c57613602925f036001600160801b03169161459d565b5f81126124cf5790565b61361f926001600160801b031691614561565b5f81126124cf575f0390565b905f83600f0b125f1461364d57613602925f036001600160801b031691614641565b61361f926001600160801b0316916145c7565b906001600160801b0390600f0b911601908160801c61367b57565b6393dafdf15f526004601cfd5b9061369291612f33565b9015612b87576040815103612d80576040015190565b6136cb906136bd8360801d8260801d03612915565b92600f0b90600f0b03612915565b6001600160801b03169060801b1790565b73fffd8963efd1fc6a506488495d951d51639616826401000276a21982016001600160a01b03161161398c5777ffffffffffffffffffffffffffffffffffffffff000000008160201b16806001600160801b03811160071b90811c67ffffffffffffffff811160061b90811c63ffffffff811160051b90811c61ffff811160041b90811c9060ff821160031b91821c92600f841160021b93841c94600160038711811b96871c1196171717171717179060808210155f1461398257607e1982011c5b800280607f1c8160ff1c1c800280607f1c8160ff1c1c800280607f1c8160ff1c1c800280607f1c8160ff1c1c800280607f1c8160ff1c1c800280607f1c8160ff1c1c80029081607f1c8260ff1c1c80029283607f1c8460ff1c1c80029485607f1c8660ff1c1c80029687607f1c8860ff1c1c80029889607f1c8a60ff1c1c80029a8b607f1c8c60ff1c1c80029c8d80607f1c9060ff1c1c800260cd1c6604000000000000169d60cc1c6608000000000000169c60cb1c6610000000000000169b60ca1c6620000000000000169a60c91c6640000000000000169960c81c6680000000000000169860c71c670100000000000000169760c61c670200000000000000169660c51c670400000000000000169560c41c670800000000000000169460c31c671000000000000000169360c21c672000000000000000169260c11c674000000000000000169160c01c6780000000000000001690607f190160401b1717171717171717171717171717693627a301d71055774c85026f028f6481ab7f045a5af012a19d003aa919810160801d60020b906fdb2df09e81959a81455e260799a0632f0160801d60020b918282145f146139595750905090565b6001600160a01b03166001600160a01b03613973846132b3565b161161397d575090565b905090565b81607f031b61379e565b6001600160a01b03906318521d4960e21b5f521660045260245ffd5b81156139b2570490565b634e487b7160e01b5f52601260045260245ffd5b5f604051936139d485612213565b5f85525f60208601525f60408601525f60608601525f60808601525f60a0860152848354602086015115956001600160801b036003870154169387155f1461455357610fff8360b81c16945b604083015185525f6020860152836001600160a01b031660408601528360a01c60020b606086015288155f146145495760018801545b60808601528060a0860152608083015162400000811615155f1461453a5762bfffff16613a8281612851565b61ffff871661451457935b845f60408601511296620f424062ffffff8316148061450c575b6144fd576040860151156144e85750508961449b57606084016001600160a01b03815116826001600160a01b03168110156144745750516001600160a01b03166401000276a3811061446257505b604051608081905267ffffffffffffffff60e082019081119111176106c45760e0608051016040525f608051525f602060805101525f604060805101525f606060805101525f6080805101525f60a060805101525f60c060805101525b8a5115801561443f575b614343576001600160a01b0360408c0151166080515260608b015160020b845160020b90815f81830712910503908b155f1461424c5760ff8216918060020b60081d60010b5f5260058c0160205260405f205f1960018086011b01905416801593841594855f14614238576102fc57817f07060605060205040602030205040301060502050303040105050304000000006f8421084210842108cc6318c6db6d54be60ff946001600160801b031060071b83811c67ffffffffffffffff1060061b1783811c63ffffffff1060051b1783811c61ffff1060041b1783811c861060031b1792831c1c601f161a1790031660020b900360020b0260020b5b905b15156040608051015260020b8060206080510152620d89e7191215614227575b620d89e86020608051015160020b1215614217575b896001600160a01b03613caa6020608051015160020b6132b3565b1680606060805101528c6001600160a01b036040820151166001600160a01b03606089015116906001600160801b0360a08401511692519262ffffff8b16946001600160a01b0360ff8815168583101885831802851816831015935f86125f146140ac5786620f42400391613d2183885f036130b1565b861561408d57613d40858760ff8d1516868610188686180286186145c7565b975b888210613fd35750508160ff6001600160a01b039a15168183101891180218958691620f424082145f14613fc4575050845b935b15613fb65791613d859261459d565b905b60c0608051015260a060805101526080805101521660408c015285155f14613f785760a060805101515f81126124cf578b51038b52613dd260808051015160c0608051015190612395565b5f81126124cf5760208c018051918203918213600116610a2557525b61ffff8716613f45575b6001600160801b0360a08c01511680613f25575b506001600160a01b0360408c0151166001600160a01b03606060805101511681145f14613ef4575060406080510151613e5d575b60ff8a15166020608051015160020b0360020b60608c0152613b52565b89613ed9576001600160801b03613ec060808d015160028c01545b6020608051015160020b60020b5f5260048d0160205260405f2091600183019081549003905560028201908154900390555460801d8d8d15613ecb575b60a001518316613660565b1660a08c0152613e40565b5f91909103600f0b90613eb5565b6001600160801b03613ec08c608060018d0154910151613e78565b6001600160a01b0360805151168103613f0e575b50613b52565b613f17906136dc565b60020b60608c01525f613f08565b613f359060c06080510151612fe0565b60808c019081510190525f613e0c565b96620f424060808051015161ffff89169060c06080510151010204908160c060805101510360c060805101520196613df8565b60808051015160c06080510151015f81126124cf578b51018b5260a060805101515f81126124cf57613faf60208d01918251612bfd565b9052613dee565b613fbf92614641565b613d85565b613fce91876146ab565b613d74565b9750985050505080945015811517614080576001600160a01b0394821561402e57613fff908583614734565b935b84808284861561401f57614014926145c7565b8095015f0393613d76565b9161402992614561565b614014565b6140619061405c9087811161406757614054906001600160801b0388169060601b6139a8565b878416612395565b6147b2565b93614001565b61407b906001600160801b03881690613166565b614054565b634f2461b85f526004601cfd5b6140a68560ff8c15168585101885851802851888614561565b97613d42565b91969395949386156141f8576140d1888560ff8415168686101886861802861861459d565b945b85811061412b5750916001600160a01b0397918160ff61411896951516818310189118021880965b1561411d579161410a926145c7565b809380620f424003916146ab565b613d87565b61412692614561565b61410a565b94505050508185158215176140805784156141db576001600160a01b03811161419d5760601b6001600160801b0386168082061515910401905b6001600160a01b0381169582871115614190576001600160a01b0361411893819803165b80966140fb565b634323a5555f526004601cfd5b6001600160801b0386166141b681600160601b846131e7565b9181156139b257600160601b90096141cf575b90614165565b600101806141c9575f80fd5b90856141f3614118936001600160a01b0398846146d4565b614189565b6142118860ff8315168585101885851802851886614641565b946140d3565b620d89e860206080510152613c8f565b620d89e71960206080510152613c7a565b50905060020b900360020b0260020b613c58565b90600101908160020b8260ff16928160081d60010b5f5260058d0160205260405f2090600160ff5f1992161b0119905416801593841594855f1461432b576102fc5781600160ff931901167e1f0d1e100c1d070f090b19131c1706010e11080a1a141802121b1503160405601f6101e07f804040554300526644320000502061067405302602000010750620017611707760fc7fb6db6db6ddddddddd34d34d349249249210842108c6318c639ce739cffffffff860260f81c161b60f71c1692831c63d76453e004161a17031660020b0160020b0260020b5b90613c5a565b5060ff809250031660020b0160020b0260020b614325565b90919996989397929550606087015160a01b62ffffff60a01b167fffffffffffffffffff00000000000000000000000000000000000000000000006001600160a01b0360408a0151169216171782556001600160801b0360a08701511680910361441b575b50811561440c57600260808601519101555b15146143ef576143de60406143d26020850151612915565b92015183519003612915565b6001600160801b03169060801b1793565b6040015181516143ff9103612915565b6143de6020830151612915565b600160808601519101556143ba565b6001600160801b03166001600160801b03196003830154161760038201555f6143a8565b506001600160a01b0360408c0151166001600160a01b0360608601511614613b5c565b639e4d7cc760e01b5f5260045260245ffd5b8260449160405191637c9c6e8f60e01b83526001600160a01b031660048301526024820152fd5b606084016001600160a01b03815116826001600160a01b03168111156144745750516001600160a01b031673fffd8963efd1fc6a506488495d951d5263988d268110156144625750613af5565b995099505050975050505050505f925f929190565b634b10312360e11b5f5260045ffd5b508715613aa7565b62ffffff168061ffff881602620f424080820615159104019061ffff8816010393613a8d565b508360d01c62ffffff16613a82565b6002880154613a56565b610fff8360c41c1694613a20565b6001600160801b03600160601b916001600160a01b0380600195169116038060ff1d90810118931692614594818561311d565b93091515160190565b6001600160801b03906001600160a01b038061281f9594169116038060ff1d90810118911661311d565b906001600160a01b0381166001600160a01b0383161161463b575b6001600160a01b03821692831561462f576fffffffffffffffffffffffffffffffff60601b6001600160a01b03614623948185169403169160601b166146ab565b90808206151591040190565b62bfc9215f526004601cfd5b906145e2565b6001600160a01b0382166001600160a01b038216116146a5575b6001600160a01b03811691821561462f5761281f936fffffffffffffffffffffffffffffffff60601b6001600160a01b036146a0948185169403169160601b166131e7565b6139a8565b9061465b565b9291906146b98282866131e7565b9382156139b257096146c757565b906001019081156102fc57565b9190811561472f576fffffffffffffffffffffffffffffffff60601b6001600160a01b039160601b1692169182820291838383119184041416156147225761281f9261405c928203916146ab565b63f5c787f15f526004601cfd5b505090565b909180156147ac576001600160a01b036fffffffffffffffffffffffffffffffff60601b819460601b1692168082028161476e84836139a8565b14614794575b509061478361478892846139a8565b612395565b80820615159104011690565b83018381106147745791506147a8926146ab565b1690565b50905090565b906001600160a01b0382169182036124cf5756fec090fc4683624cfc3884e9d8de5eca132f2d0ec062aff75d43c0465d5ceeab23a264697066735822122059984404d07964418b6f751d06b16f253ef1cc8654295299816f8f3c15c05afa64736f6c634300081a0033","linkReferences":{}},"methodIdentifiers":{"MAX_TICK_SPACING()":"60460f06","MIN_TICK_SPACING()":"07eff0dd","allowance(address,address,uint256)":"598af9e7","approve(address,uint256,uint256)":"426a8493","balanceOf(address,uint256)":"00fdd58e","burn(address,uint256,uint256)":"f5298aca","clear(address,uint256)":"80f0b44c","collectProtocolFees(address,address,uint256)":"8161b874","donate((address,address,uint24,int24,address),uint256,uint256,bytes)":"234266d7","extsload(bytes32)":"1e2eaeaf","extsload(bytes32,uint256)":"35fd631a","extsload(bytes32[])":"dbd035ff","exttload(bytes32)":"f135baaa","exttload(bytes32[])":"9bf6645f","initialize((address,address,uint24,int24,address),uint160,bytes)":"695c5bf5","isOperator(address,address)":"b6363cf2","mint(address,uint256,uint256)":"156e29f6","modifyLiquidity((address,address,uint24,int24,address),(int24,int24,int256,bytes32),bytes)":"5a6bcfda","owner()":"8da5cb5b","protocolFeeController()":"f02de3b2","protocolFeesAccrued(address)":"97e8cd4e","setOperator(address,bool)":"558a7297","setProtocolFee((address,address,uint24,int24,address),uint24)":"7e87ce7d","setProtocolFeeController(address)":"2d771389","settle()":"11da60b4","settleFor(address)":"3dd45adb","supportsInterface(bytes4)":"01ffc9a7","swap((address,address,uint24,int24,address),(bool,int256,uint160),bytes)":"f3cd914c","sync(address)":"a5841194","take(address,address,uint256)":"0b0d9c09","transfer(address,uint256,uint256)":"095bcdb6","transferFrom(address,address,uint256,uint256)":"fe99049a","transferOwnership(address)":"f2fde38b","unlock(bytes)":"48c89491","updateDynamicLPFee((address,address,uint24,int24,address),uint24)":"52759651"},"id":49}