{"abi":[{"type":"function","name":"protocolFeeForPool","inputs":[{"name":"","type":"tuple","internalType":"struct PoolKey","components":[{"name":"currency0","type":"address","internalType":"Currency"},{"name":"currency1","type":"address","internalType":"Currency"},{"name":"fee","type":"uint24","internalType":"uint24"},{"name":"tickSpacing","type":"int24","internalType":"int24"},{"name":"hooks","type":"address","internalType":"contract IHooks"}]}],"outputs":[{"name":"","type":"uint24","internalType":"uint24"}],"stateMutability":"pure"}],"bytecode":{"object":"0x60808060405234601557610108908161001a8239f35b5f80fdfe6004361015600b575f80fd5b5f3560e01c63553bfc3714601d575f80fd5b3460685760a0366003190112606857610120604052600435603c81606c565b60805260456089565b60a052604e6096565b60c052605760a7565b60e052606060b6565b6101005260c1565b5f80fd5b73ffffffffffffffffffffffffffffffffffffffff811603606857565b60243590609482606c565b565b6044359062ffffff82168203606857565b606435908160020b8203606857565b60843590609482606c565b604080516001815260016020820152f3fea26469706673582212208c0a6ac74e5fa8bcc7423673065843f9a9bf0e1ffdfceb7b6ded2dea2ae9fed164736f6c634300081a0033","linkReferences":{}},"methodIdentifiers":{"protocolFeeForPool((address,address,uint24,int24,address))":"553bfc37"},"id":94}