{"abi":[{"type":"function","name":"protocolFeeForPool","inputs":[{"name":"","type":"tuple","internalType":"struct PoolKey","components":[{"name":"currency0","type":"address","internalType":"Currency"},{"name":"currency1","type":"address","internalType":"Currency"},{"name":"fee","type":"uint24","internalType":"uint24"},{"name":"tickSpacing","type":"int24","internalType":"int24"},{"name":"hooks","type":"address","internalType":"contract IHooks"}]}],"outputs":[{"name":"","type":"uint24","internalType":"uint24"}],"stateMutability":"pure"}],"bytecode":{"object":"0x6080604052348015600e575f80fd5b5061018a8061001c5f395ff3fe608060405234801561000f575f80fd5b5060043610610029575f3560e01c8063553bfc371461002d575b5f80fd5b61004061003b3660046100ba565b610058565b60405162ffffff909116815260200160405180910390f35b5f8060019050604051818152816020820152604081f35b803573ffffffffffffffffffffffffffffffffffffffff81168114610092575f80fd5b919050565b803562ffffff81168114610092575f80fd5b8035600281900b8114610092575f80fd5b5f60a08284031280156100cb575f80fd5b5060405160a0810167ffffffffffffffff811182821017156100fb57634e487b7160e01b5f52604160045260245ffd5b6040526101078361006f565b81526101156020840161006f565b602082015261012660408401610097565b6040820152610137606084016100a9565b60608201526101486080840161006f565b6080820152939250505056fea2646970667358221220eae080448cc2f0cb664bfb16e5c27023433d2e1e98a8373df3dc014d05d6f28664736f6c634300081a0033","linkReferences":{}},"methodIdentifiers":{"protocolFeeForPool((address,address,uint24,int24,address))":"553bfc37"},"id":79}