{"abi":[{"type":"function","name":"protocolFee","inputs":[{"name":"","type":"bytes32","internalType":"PoolId"}],"outputs":[{"name":"","type":"uint24","internalType":"uint24"}],"stateMutability":"view"},{"type":"function","name":"protocolFeeForPool","inputs":[{"name":"key","type":"tuple","internalType":"struct PoolKey","components":[{"name":"currency0","type":"address","internalType":"Currency"},{"name":"currency1","type":"address","internalType":"Currency"},{"name":"fee","type":"uint24","internalType":"uint24"},{"name":"tickSpacing","type":"int24","internalType":"int24"},{"name":"hooks","type":"address","internalType":"contract IHooks"}]}],"outputs":[{"name":"","type":"uint24","internalType":"uint24"}],"stateMutability":"view"},{"type":"function","name":"setProtocolFeeForPool","inputs":[{"name":"id","type":"bytes32","internalType":"PoolId"},{"name":"fee","type":"uint24","internalType":"uint24"}],"outputs":[],"stateMutability":"nonpayable"}],"bytecode":{"object":"0x6080604052348015600e575f80fd5b5061024c8061001c5f395ff3fe608060405234801561000f575f80fd5b506004361061003f575f3560e01c8063553bfc3714610043578063a226c8831461006e578063f5e2235414610092575b5f80fd5b61005661005136600461013b565b6100c7565b60405162ffffff909116815260200160405180910390f35b61005661007c3660046101d5565b5f6020819052908152604090205462ffffff1681565b6100c56100a03660046101ec565b5f91825260208290526040909120805462ffffff191662ffffff909216919091179055565b005b5f805f6100d58460a0902090565b815260208101919091526040015f205462ffffff1692915050565b803573ffffffffffffffffffffffffffffffffffffffff81168114610113575f80fd5b919050565b803562ffffff81168114610113575f80fd5b8035600281900b8114610113575f80fd5b5f60a082840312801561014c575f80fd5b5060405160a0810167ffffffffffffffff8111828210171561017c57634e487b7160e01b5f52604160045260245ffd5b604052610188836100f0565b8152610196602084016100f0565b60208201526101a760408401610118565b60408201526101b86060840161012a565b60608201526101c9608084016100f0565b60808201529392505050565b5f602082840312156101e5575f80fd5b5035919050565b5f80604083850312156101fd575f80fd5b8235915061020d60208401610118565b9050925092905056fea26469706673582212202eaa40e5496d6407f6b414cee6ca7f8ac495fecd629765364024313d9d6854e464736f6c634300081a0033","linkReferences":{}},"methodIdentifiers":{"protocolFee(bytes32)":"a226c883","protocolFeeForPool((address,address,uint24,int24,address))":"553bfc37","setProtocolFeeForPool(bytes32,uint24)":"f5e22354"},"id":79}